{
  "address": "0xA589C322147D9358ab670A78CdA8fe74b0F7B04b",
  "abi": [
    {
      "inputs": [],
      "name": "DOW_FRI",
      "outputs": [
        {
          "internalType": "uint256",
          "name": "",
          "type": "uint256"
        }
      ],
      "stateMutability": "view",
      "type": "function"
    },
    {
      "inputs": [],
      "name": "DOW_MON",
      "outputs": [
        {
          "internalType": "uint256",
          "name": "",
          "type": "uint256"
        }
      ],
      "stateMutability": "view",
      "type": "function"
    },
    {
      "inputs": [],
      "name": "DOW_SAT",
      "outputs": [
        {
          "internalType": "uint256",
          "name": "",
          "type": "uint256"
        }
      ],
      "stateMutability": "view",
      "type": "function"
    },
    {
      "inputs": [],
      "name": "DOW_SUN",
      "outputs": [
        {
          "internalType": "uint256",
          "name": "",
          "type": "uint256"
        }
      ],
      "stateMutability": "view",
      "type": "function"
    },
    {
      "inputs": [],
      "name": "DOW_THU",
      "outputs": [
        {
          "internalType": "uint256",
          "name": "",
          "type": "uint256"
        }
      ],
      "stateMutability": "view",
      "type": "function"
    },
    {
      "inputs": [],
      "name": "DOW_TUE",
      "outputs": [
        {
          "internalType": "uint256",
          "name": "",
          "type": "uint256"
        }
      ],
      "stateMutability": "view",
      "type": "function"
    },
    {
      "inputs": [],
      "name": "DOW_WED",
      "outputs": [
        {
          "internalType": "uint256",
          "name": "",
          "type": "uint256"
        }
      ],
      "stateMutability": "view",
      "type": "function"
    },
    {
      "inputs": [],
      "name": "OFFSET19700101",
      "outputs": [
        {
          "internalType": "int256",
          "name": "",
          "type": "int256"
        }
      ],
      "stateMutability": "view",
      "type": "function"
    },
    {
      "inputs": [],
      "name": "SECONDS_PER_DAY",
      "outputs": [
        {
          "internalType": "uint256",
          "name": "",
          "type": "uint256"
        }
      ],
      "stateMutability": "view",
      "type": "function"
    },
    {
      "inputs": [],
      "name": "SECONDS_PER_HOUR",
      "outputs": [
        {
          "internalType": "uint256",
          "name": "",
          "type": "uint256"
        }
      ],
      "stateMutability": "view",
      "type": "function"
    },
    {
      "inputs": [],
      "name": "SECONDS_PER_MINUTE",
      "outputs": [
        {
          "internalType": "uint256",
          "name": "",
          "type": "uint256"
        }
      ],
      "stateMutability": "view",
      "type": "function"
    },
    {
      "inputs": [
        {
          "internalType": "uint256",
          "name": "year",
          "type": "uint256"
        },
        {
          "internalType": "uint256",
          "name": "month",
          "type": "uint256"
        },
        {
          "internalType": "uint256",
          "name": "day",
          "type": "uint256"
        }
      ],
      "name": "_daysFromDate",
      "outputs": [
        {
          "internalType": "uint256",
          "name": "_days",
          "type": "uint256"
        }
      ],
      "stateMutability": "pure",
      "type": "function"
    },
    {
      "inputs": [
        {
          "internalType": "uint256",
          "name": "_days",
          "type": "uint256"
        }
      ],
      "name": "_daysToDate",
      "outputs": [
        {
          "internalType": "uint256",
          "name": "year",
          "type": "uint256"
        },
        {
          "internalType": "uint256",
          "name": "month",
          "type": "uint256"
        },
        {
          "internalType": "uint256",
          "name": "day",
          "type": "uint256"
        }
      ],
      "stateMutability": "pure",
      "type": "function"
    },
    {
      "inputs": [
        {
          "internalType": "uint256",
          "name": "year",
          "type": "uint256"
        },
        {
          "internalType": "uint256",
          "name": "month",
          "type": "uint256"
        }
      ],
      "name": "_getDaysInMonth",
      "outputs": [
        {
          "internalType": "uint256",
          "name": "daysInMonth",
          "type": "uint256"
        }
      ],
      "stateMutability": "pure",
      "type": "function"
    },
    {
      "inputs": [
        {
          "internalType": "uint256",
          "name": "year",
          "type": "uint256"
        }
      ],
      "name": "_isLeapYear",
      "outputs": [
        {
          "internalType": "bool",
          "name": "leapYear",
          "type": "bool"
        }
      ],
      "stateMutability": "pure",
      "type": "function"
    },
    {
      "inputs": [],
      "name": "_now",
      "outputs": [
        {
          "internalType": "uint256",
          "name": "timestamp",
          "type": "uint256"
        }
      ],
      "stateMutability": "view",
      "type": "function"
    },
    {
      "inputs": [],
      "name": "_nowDateTime",
      "outputs": [
        {
          "internalType": "uint256",
          "name": "year",
          "type": "uint256"
        },
        {
          "internalType": "uint256",
          "name": "month",
          "type": "uint256"
        },
        {
          "internalType": "uint256",
          "name": "day",
          "type": "uint256"
        },
        {
          "internalType": "uint256",
          "name": "hour",
          "type": "uint256"
        },
        {
          "internalType": "uint256",
          "name": "minute",
          "type": "uint256"
        },
        {
          "internalType": "uint256",
          "name": "second",
          "type": "uint256"
        }
      ],
      "stateMutability": "view",
      "type": "function"
    },
    {
      "inputs": [
        {
          "internalType": "uint256",
          "name": "timestamp",
          "type": "uint256"
        },
        {
          "internalType": "uint256",
          "name": "_days",
          "type": "uint256"
        }
      ],
      "name": "addDays",
      "outputs": [
        {
          "internalType": "uint256",
          "name": "newTimestamp",
          "type": "uint256"
        }
      ],
      "stateMutability": "pure",
      "type": "function"
    },
    {
      "inputs": [
        {
          "internalType": "uint256",
          "name": "timestamp",
          "type": "uint256"
        },
        {
          "internalType": "uint256",
          "name": "_hours",
          "type": "uint256"
        }
      ],
      "name": "addHours",
      "outputs": [
        {
          "internalType": "uint256",
          "name": "newTimestamp",
          "type": "uint256"
        }
      ],
      "stateMutability": "pure",
      "type": "function"
    },
    {
      "inputs": [
        {
          "internalType": "uint256",
          "name": "timestamp",
          "type": "uint256"
        },
        {
          "internalType": "uint256",
          "name": "_minutes",
          "type": "uint256"
        }
      ],
      "name": "addMinutes",
      "outputs": [
        {
          "internalType": "uint256",
          "name": "newTimestamp",
          "type": "uint256"
        }
      ],
      "stateMutability": "pure",
      "type": "function"
    },
    {
      "inputs": [
        {
          "internalType": "uint256",
          "name": "timestamp",
          "type": "uint256"
        },
        {
          "internalType": "uint256",
          "name": "_months",
          "type": "uint256"
        }
      ],
      "name": "addMonths",
      "outputs": [
        {
          "internalType": "uint256",
          "name": "newTimestamp",
          "type": "uint256"
        }
      ],
      "stateMutability": "pure",
      "type": "function"
    },
    {
      "inputs": [
        {
          "internalType": "uint256",
          "name": "timestamp",
          "type": "uint256"
        },
        {
          "internalType": "uint256",
          "name": "_seconds",
          "type": "uint256"
        }
      ],
      "name": "addSeconds",
      "outputs": [
        {
          "internalType": "uint256",
          "name": "newTimestamp",
          "type": "uint256"
        }
      ],
      "stateMutability": "pure",
      "type": "function"
    },
    {
      "inputs": [
        {
          "internalType": "uint256",
          "name": "timestamp",
          "type": "uint256"
        },
        {
          "internalType": "uint256",
          "name": "_years",
          "type": "uint256"
        }
      ],
      "name": "addYears",
      "outputs": [
        {
          "internalType": "uint256",
          "name": "newTimestamp",
          "type": "uint256"
        }
      ],
      "stateMutability": "pure",
      "type": "function"
    },
    {
      "inputs": [
        {
          "internalType": "uint256",
          "name": "fromTimestamp",
          "type": "uint256"
        },
        {
          "internalType": "uint256",
          "name": "toTimestamp",
          "type": "uint256"
        }
      ],
      "name": "diffDays",
      "outputs": [
        {
          "internalType": "uint256",
          "name": "_days",
          "type": "uint256"
        }
      ],
      "stateMutability": "pure",
      "type": "function"
    },
    {
      "inputs": [
        {
          "internalType": "uint256",
          "name": "fromTimestamp",
          "type": "uint256"
        },
        {
          "internalType": "uint256",
          "name": "toTimestamp",
          "type": "uint256"
        }
      ],
      "name": "diffHours",
      "outputs": [
        {
          "internalType": "uint256",
          "name": "_hours",
          "type": "uint256"
        }
      ],
      "stateMutability": "pure",
      "type": "function"
    },
    {
      "inputs": [
        {
          "internalType": "uint256",
          "name": "fromTimestamp",
          "type": "uint256"
        },
        {
          "internalType": "uint256",
          "name": "toTimestamp",
          "type": "uint256"
        }
      ],
      "name": "diffMinutes",
      "outputs": [
        {
          "internalType": "uint256",
          "name": "_minutes",
          "type": "uint256"
        }
      ],
      "stateMutability": "pure",
      "type": "function"
    },
    {
      "inputs": [
        {
          "internalType": "uint256",
          "name": "fromTimestamp",
          "type": "uint256"
        },
        {
          "internalType": "uint256",
          "name": "toTimestamp",
          "type": "uint256"
        }
      ],
      "name": "diffMonths",
      "outputs": [
        {
          "internalType": "uint256",
          "name": "_months",
          "type": "uint256"
        }
      ],
      "stateMutability": "pure",
      "type": "function"
    },
    {
      "inputs": [
        {
          "internalType": "uint256",
          "name": "fromTimestamp",
          "type": "uint256"
        },
        {
          "internalType": "uint256",
          "name": "toTimestamp",
          "type": "uint256"
        }
      ],
      "name": "diffSeconds",
      "outputs": [
        {
          "internalType": "uint256",
          "name": "_seconds",
          "type": "uint256"
        }
      ],
      "stateMutability": "pure",
      "type": "function"
    },
    {
      "inputs": [
        {
          "internalType": "uint256",
          "name": "fromTimestamp",
          "type": "uint256"
        },
        {
          "internalType": "uint256",
          "name": "toTimestamp",
          "type": "uint256"
        }
      ],
      "name": "diffYears",
      "outputs": [
        {
          "internalType": "uint256",
          "name": "_years",
          "type": "uint256"
        }
      ],
      "stateMutability": "pure",
      "type": "function"
    },
    {
      "inputs": [
        {
          "internalType": "uint256",
          "name": "timestamp",
          "type": "uint256"
        }
      ],
      "name": "getDay",
      "outputs": [
        {
          "internalType": "uint256",
          "name": "day",
          "type": "uint256"
        }
      ],
      "stateMutability": "pure",
      "type": "function"
    },
    {
      "inputs": [
        {
          "internalType": "uint256",
          "name": "timestamp",
          "type": "uint256"
        }
      ],
      "name": "getDayOfWeek",
      "outputs": [
        {
          "internalType": "uint256",
          "name": "dayOfWeek",
          "type": "uint256"
        }
      ],
      "stateMutability": "pure",
      "type": "function"
    },
    {
      "inputs": [
        {
          "internalType": "uint256",
          "name": "timestamp",
          "type": "uint256"
        }
      ],
      "name": "getDaysInMonth",
      "outputs": [
        {
          "internalType": "uint256",
          "name": "daysInMonth",
          "type": "uint256"
        }
      ],
      "stateMutability": "pure",
      "type": "function"
    },
    {
      "inputs": [
        {
          "internalType": "uint256",
          "name": "timestamp",
          "type": "uint256"
        }
      ],
      "name": "getHour",
      "outputs": [
        {
          "internalType": "uint256",
          "name": "hour",
          "type": "uint256"
        }
      ],
      "stateMutability": "pure",
      "type": "function"
    },
    {
      "inputs": [
        {
          "internalType": "uint256",
          "name": "timestamp",
          "type": "uint256"
        }
      ],
      "name": "getMinute",
      "outputs": [
        {
          "internalType": "uint256",
          "name": "minute",
          "type": "uint256"
        }
      ],
      "stateMutability": "pure",
      "type": "function"
    },
    {
      "inputs": [
        {
          "internalType": "uint256",
          "name": "timestamp",
          "type": "uint256"
        }
      ],
      "name": "getMonth",
      "outputs": [
        {
          "internalType": "uint256",
          "name": "month",
          "type": "uint256"
        }
      ],
      "stateMutability": "pure",
      "type": "function"
    },
    {
      "inputs": [
        {
          "internalType": "uint256",
          "name": "timestamp",
          "type": "uint256"
        }
      ],
      "name": "getSecond",
      "outputs": [
        {
          "internalType": "uint256",
          "name": "second",
          "type": "uint256"
        }
      ],
      "stateMutability": "pure",
      "type": "function"
    },
    {
      "inputs": [
        {
          "internalType": "uint256",
          "name": "timestamp",
          "type": "uint256"
        }
      ],
      "name": "getYear",
      "outputs": [
        {
          "internalType": "uint256",
          "name": "year",
          "type": "uint256"
        }
      ],
      "stateMutability": "pure",
      "type": "function"
    },
    {
      "inputs": [
        {
          "internalType": "uint256",
          "name": "timestamp",
          "type": "uint256"
        }
      ],
      "name": "isLeapYear",
      "outputs": [
        {
          "internalType": "bool",
          "name": "leapYear",
          "type": "bool"
        }
      ],
      "stateMutability": "pure",
      "type": "function"
    },
    {
      "inputs": [
        {
          "internalType": "uint256",
          "name": "year",
          "type": "uint256"
        },
        {
          "internalType": "uint256",
          "name": "month",
          "type": "uint256"
        },
        {
          "internalType": "uint256",
          "name": "day",
          "type": "uint256"
        }
      ],
      "name": "isValidDate",
      "outputs": [
        {
          "internalType": "bool",
          "name": "valid",
          "type": "bool"
        }
      ],
      "stateMutability": "pure",
      "type": "function"
    },
    {
      "inputs": [
        {
          "internalType": "uint256",
          "name": "year",
          "type": "uint256"
        },
        {
          "internalType": "uint256",
          "name": "month",
          "type": "uint256"
        },
        {
          "internalType": "uint256",
          "name": "day",
          "type": "uint256"
        },
        {
          "internalType": "uint256",
          "name": "hour",
          "type": "uint256"
        },
        {
          "internalType": "uint256",
          "name": "minute",
          "type": "uint256"
        },
        {
          "internalType": "uint256",
          "name": "second",
          "type": "uint256"
        }
      ],
      "name": "isValidDateTime",
      "outputs": [
        {
          "internalType": "bool",
          "name": "valid",
          "type": "bool"
        }
      ],
      "stateMutability": "pure",
      "type": "function"
    },
    {
      "inputs": [
        {
          "internalType": "uint256",
          "name": "timestamp",
          "type": "uint256"
        }
      ],
      "name": "isWeekDay",
      "outputs": [
        {
          "internalType": "bool",
          "name": "weekDay",
          "type": "bool"
        }
      ],
      "stateMutability": "pure",
      "type": "function"
    },
    {
      "inputs": [
        {
          "internalType": "uint256",
          "name": "timestamp",
          "type": "uint256"
        }
      ],
      "name": "isWeekEnd",
      "outputs": [
        {
          "internalType": "bool",
          "name": "weekEnd",
          "type": "bool"
        }
      ],
      "stateMutability": "pure",
      "type": "function"
    },
    {
      "inputs": [
        {
          "internalType": "uint256",
          "name": "timestamp",
          "type": "uint256"
        },
        {
          "internalType": "uint256",
          "name": "_days",
          "type": "uint256"
        }
      ],
      "name": "subDays",
      "outputs": [
        {
          "internalType": "uint256",
          "name": "newTimestamp",
          "type": "uint256"
        }
      ],
      "stateMutability": "pure",
      "type": "function"
    },
    {
      "inputs": [
        {
          "internalType": "uint256",
          "name": "timestamp",
          "type": "uint256"
        },
        {
          "internalType": "uint256",
          "name": "_hours",
          "type": "uint256"
        }
      ],
      "name": "subHours",
      "outputs": [
        {
          "internalType": "uint256",
          "name": "newTimestamp",
          "type": "uint256"
        }
      ],
      "stateMutability": "pure",
      "type": "function"
    },
    {
      "inputs": [
        {
          "internalType": "uint256",
          "name": "timestamp",
          "type": "uint256"
        },
        {
          "internalType": "uint256",
          "name": "_minutes",
          "type": "uint256"
        }
      ],
      "name": "subMinutes",
      "outputs": [
        {
          "internalType": "uint256",
          "name": "newTimestamp",
          "type": "uint256"
        }
      ],
      "stateMutability": "pure",
      "type": "function"
    },
    {
      "inputs": [
        {
          "internalType": "uint256",
          "name": "timestamp",
          "type": "uint256"
        },
        {
          "internalType": "uint256",
          "name": "_months",
          "type": "uint256"
        }
      ],
      "name": "subMonths",
      "outputs": [
        {
          "internalType": "uint256",
          "name": "newTimestamp",
          "type": "uint256"
        }
      ],
      "stateMutability": "pure",
      "type": "function"
    },
    {
      "inputs": [
        {
          "internalType": "uint256",
          "name": "timestamp",
          "type": "uint256"
        },
        {
          "internalType": "uint256",
          "name": "_seconds",
          "type": "uint256"
        }
      ],
      "name": "subSeconds",
      "outputs": [
        {
          "internalType": "uint256",
          "name": "newTimestamp",
          "type": "uint256"
        }
      ],
      "stateMutability": "pure",
      "type": "function"
    },
    {
      "inputs": [
        {
          "internalType": "uint256",
          "name": "timestamp",
          "type": "uint256"
        },
        {
          "internalType": "uint256",
          "name": "_years",
          "type": "uint256"
        }
      ],
      "name": "subYears",
      "outputs": [
        {
          "internalType": "uint256",
          "name": "newTimestamp",
          "type": "uint256"
        }
      ],
      "stateMutability": "pure",
      "type": "function"
    },
    {
      "inputs": [
        {
          "internalType": "uint256",
          "name": "year",
          "type": "uint256"
        },
        {
          "internalType": "uint256",
          "name": "month",
          "type": "uint256"
        },
        {
          "internalType": "uint256",
          "name": "day",
          "type": "uint256"
        }
      ],
      "name": "timestampFromDate",
      "outputs": [
        {
          "internalType": "uint256",
          "name": "timestamp",
          "type": "uint256"
        }
      ],
      "stateMutability": "pure",
      "type": "function"
    },
    {
      "inputs": [
        {
          "internalType": "uint256",
          "name": "year",
          "type": "uint256"
        },
        {
          "internalType": "uint256",
          "name": "month",
          "type": "uint256"
        },
        {
          "internalType": "uint256",
          "name": "day",
          "type": "uint256"
        },
        {
          "internalType": "uint256",
          "name": "hour",
          "type": "uint256"
        },
        {
          "internalType": "uint256",
          "name": "minute",
          "type": "uint256"
        },
        {
          "internalType": "uint256",
          "name": "second",
          "type": "uint256"
        }
      ],
      "name": "timestampFromDateTime",
      "outputs": [
        {
          "internalType": "uint256",
          "name": "timestamp",
          "type": "uint256"
        }
      ],
      "stateMutability": "pure",
      "type": "function"
    },
    {
      "inputs": [
        {
          "internalType": "uint256",
          "name": "timestamp",
          "type": "uint256"
        }
      ],
      "name": "timestampToDate",
      "outputs": [
        {
          "internalType": "uint256",
          "name": "year",
          "type": "uint256"
        },
        {
          "internalType": "uint256",
          "name": "month",
          "type": "uint256"
        },
        {
          "internalType": "uint256",
          "name": "day",
          "type": "uint256"
        }
      ],
      "stateMutability": "pure",
      "type": "function"
    },
    {
      "inputs": [
        {
          "internalType": "uint256",
          "name": "timestamp",
          "type": "uint256"
        }
      ],
      "name": "timestampToDateTime",
      "outputs": [
        {
          "internalType": "uint256",
          "name": "year",
          "type": "uint256"
        },
        {
          "internalType": "uint256",
          "name": "month",
          "type": "uint256"
        },
        {
          "internalType": "uint256",
          "name": "day",
          "type": "uint256"
        },
        {
          "internalType": "uint256",
          "name": "hour",
          "type": "uint256"
        },
        {
          "internalType": "uint256",
          "name": "minute",
          "type": "uint256"
        },
        {
          "internalType": "uint256",
          "name": "second",
          "type": "uint256"
        }
      ],
      "stateMutability": "pure",
      "type": "function"
    }
  ],
  "transactionHash": "0xc3ee701818ef7978839ec0c0a093368af1e55fc6f91b9fb0842021c1b4ac3706",
  "args": [],
  "numDeployments": 1,
  "solcInputHash": "1cbdcf905b56c6d323b8df3305b36bcd",
  "bytecode": "0x608060405234801561001057600080fd5b5061223e806100206000396000f3fe608060405234801561001057600080fd5b506004361061030b5760003560e01c80638aa001fc1161019d578063c7b6fd6a116100e9578063de5101af116100a2578063f615ed541161007c578063f615ed5414610b46578063f9fd525014610b76578063fa93f88314610b94578063ff2258cb14610bc45761030b565b8063de5101af14610ac1578063e955643014610af3578063ea1c169014610b115761030b565b8063c7b6fd6a146109d7578063c7edf88c14610a07578063c9d3462214610a25578063cfbb9f3714610a55578063d2b5074314610a73578063d6582d0d14610a915761030b565b80639e524caa11610156578063ad203bd411610130578063ad203bd414610929578063b05eb08d14610959578063b3bb8cd414610989578063b8d16dbc146109a75761030b565b80639e524caa146108ab578063a324ad24146108db578063a3f144ae1461090b5761030b565b80638aa001fc146107a85780638bbf51b7146107d85780638d4a2d39146107f657806390059aed146108265780639220d4261461085857806392d663131461087b5761030b565b80634355644d1161025c5780635e05bd6d116102155780637217523c116101ef5780637217523c146106fa57806374f0314f1461072a5780637be341091461074857806389a3a00d146107785761030b565b80635e05bd6d1461066a57806362fb96971461069a57806365c72840146106ca5761030b565b80634355644d1461055c5780634371c4651461058c578063442b8c79146105bc578063444fda82146105ec5780634b3215021461061c5780634df861261461064c5761030b565b80631f4f77b2116102c95780632af123b8116102a35780632af123b81461049c5780633293d007146104cc5780633e239e1a146104fc5780633f9e0eb71461052c5761030b565b80631f4f77b21461041e57806322f8a2b81461044e578063294416741461047e5761030b565b80625015531461031057806302e98e0d1461034057806310848ddf14610370578063126702a0146103a057806314b2d6dc146103be5780631e0582e9146103ee575b600080fd5b61032a60048036038101906103259190611cbc565b610bf4565b6040516103379190611d0b565b60405180910390f35b61035a60048036038101906103559190611cbc565b610c08565b6040516103679190611d0b565b60405180910390f35b61038a60048036038101906103859190611d26565b610c1c565b6040516103979190611d0b565b60405180910390f35b6103a8610c2e565b6040516103b59190611d0b565b60405180910390f35b6103d860048036038101906103d39190611d53565b610c33565b6040516103e59190611dc1565b60405180910390f35b61040860048036038101906104039190611d53565b610c49565b6040516104159190611d0b565b60405180910390f35b61043860048036038101906104339190611d53565b610c5f565b6040516104459190611d0b565b60405180910390f35b61046860048036038101906104639190611d26565b610c75565b6040516104759190611d0b565b60405180910390f35b610486610c87565b6040516104939190611d0b565b60405180910390f35b6104b660048036038101906104b19190611cbc565b610c8c565b6040516104c39190611d0b565b60405180910390f35b6104e660048036038101906104e19190611ddc565b610ca0565b6040516104f39190611dc1565b60405180910390f35b61051660048036038101906105119190611d26565b610cbc565b6040516105239190611d0b565b60405180910390f35b61054660048036038101906105419190611cbc565b610cce565b6040516105539190611d0b565b60405180910390f35b61057660048036038101906105719190611cbc565b610ce2565b6040516105839190611d0b565b60405180910390f35b6105a660048036038101906105a19190611d26565b610cf6565b6040516105b39190611dc1565b60405180910390f35b6105d660048036038101906105d19190611cbc565b610d08565b6040516105e39190611d0b565b60405180910390f35b61060660048036038101906106019190611cbc565b610d1c565b6040516106139190611d0b565b60405180910390f35b61063660048036038101906106319190611cbc565b610d30565b6040516106439190611d0b565b60405180910390f35b610654610d44565b6040516106619190611d0b565b60405180910390f35b610684600480360381019061067f9190611ddc565b610d4a565b6040516106919190611d0b565b60405180910390f35b6106b460048036038101906106af9190611cbc565b610d66565b6040516106c19190611d0b565b60405180910390f35b6106e460048036038101906106df9190611d26565b610d7a565b6040516106f19190611d0b565b60405180910390f35b610714600480360381019061070f9190611cbc565b610d8c565b6040516107219190611d0b565b60405180910390f35b610732610da0565b60405161073f9190611d0b565b60405180910390f35b610762600480360381019061075d9190611cbc565b610da7565b60405161076f9190611d0b565b60405180910390f35b610792600480360381019061078d9190611cbc565b610dbb565b60405161079f9190611d0b565b60405180910390f35b6107c260048036038101906107bd9190611d26565b610dcf565b6040516107cf9190611d0b565b60405180910390f35b6107e0610de1565b6040516107ed9190611d0b565b60405180910390f35b610810600480360381019061080b9190611cbc565b610de6565b60405161081d9190611d0b565b60405180910390f35b610840600480360381019061083b9190611d26565b610dfa565b60405161084f93929190611e69565b60405180910390f35b610860610e15565b60405161087296959493929190611ea0565b60405180910390f35b61089560048036038101906108909190611d26565b610e47565b6040516108a29190611d0b565b60405180910390f35b6108c560048036038101906108c09190611cbc565b610e59565b6040516108d29190611d0b565b60405180910390f35b6108f560048036038101906108f09190611d26565b610e6d565b6040516109029190611d0b565b60405180910390f35b610913610e7f565b6040516109209190611f1a565b60405180910390f35b610943600480360381019061093e9190611cbc565b610e86565b6040516109509190611d0b565b60405180910390f35b610973600480360381019061096e9190611d26565b610e9a565b6040516109809190611dc1565b60405180910390f35b610991610eac565b60405161099e9190611d0b565b60405180910390f35b6109c160048036038101906109bc9190611d26565b610eb4565b6040516109ce9190611dc1565b60405180910390f35b6109f160048036038101906109ec9190611cbc565b610ec6565b6040516109fe9190611d0b565b60405180910390f35b610a0f610eda565b604051610a1c9190611d0b565b60405180910390f35b610a3f6004803603810190610a3a9190611cbc565b610edf565b604051610a4c9190611d0b565b60405180910390f35b610a5d610ef3565b604051610a6a9190611d0b565b60405180910390f35b610a7b610ef8565b604051610a889190611d0b565b60405180910390f35b610aab6004803603810190610aa69190611d26565b610efd565b604051610ab89190611dc1565b60405180910390f35b610adb6004803603810190610ad69190611d26565b610f0f565b604051610aea93929190611e69565b60405180910390f35b610afb610f30565b604051610b089190611d0b565b60405180910390f35b610b2b6004803603810190610b269190611d26565b610f35565b604051610b3d96959493929190611ea0565b60405180910390f35b610b606004803603810190610b5b9190611cbc565b610f68565b604051610b6d9190611d0b565b60405180910390f35b610b7e610f7c565b604051610b8b9190611d0b565b60405180910390f35b610bae6004803603810190610ba99190611d26565b610f81565b604051610bbb9190611d0b565b60405180910390f35b610bde6004803603810190610bd99190611cbc565b610f93565b604051610beb9190611d0b565b60405180910390f35b6000610c008383610fa7565b905092915050565b6000610c148383610fd7565b905092915050565b6000610c2782611006565b9050919050565b600281565b6000610c4084848461103a565b90509392505050565b6000610c56848484611091565b90509392505050565b6000610c6c8484846111f0565b90509392505050565b6000610c8082611214565b9050919050565b600781565b6000610c988383611255565b905092915050565b6000610cb0878787878787611285565b90509695505050505050565b6000610cc7826112c8565b9050919050565b6000610cda83836112f2565b905092915050565b6000610cee838361137d565b905092915050565b6000610d0182611460565b9050919050565b6000610d148383611476565b905092915050565b6000610d28838361150c565b905092915050565b6000610d3c83836115a2565b905092915050565b610e1081565b6000610d5a8787878787876115d2565b90509695505050505050565b6000610d728383611633565b905092915050565b6000610d8582611656565b9050919050565b6000610d98838361167d565b905092915050565b6201518081565b6000610db383836116ae565b905092915050565b6000610dc78383611741565b905092915050565b6000610dda82611770565b9050919050565b600381565b6000610df28383611786565b905092915050565b6000806000610e08846117a9565b9250925092509193909250565b600080600080600080610e27426118ae565b809650819750829850839950849a50859b50505050505050909192939495565b6000610e5282611953565b9050919050565b6000610e658383611978565b905092915050565b6000610e78826119a7565b9050919050565b62253d8c81565b6000610e9283836119cd565b905092915050565b6000610ea582611ab3565b9050919050565b600042905090565b6000610ebf82611afc565b9050919050565b6000610ed28383611b2b565b905092915050565b600681565b6000610eeb8383611b5c565b905092915050565b600481565b600581565b6000610f0882611b8d565b9050919050565b6000806000610f1d84611ba3565b8093508194508295505050509193909250565b603c81565b600080600080600080610f47876118ae565b809650819750829850839950849a50859b5050505050505091939550919395565b6000610f748383611bd7565b905092915050565b600181565b6000610f8c82611bfa565b9050919050565b6000610f9f8383611c22565b905092915050565b6000610e1082610fb79190611f64565b83610fc29190611fa6565b905082811115610fd157600080fd5b92915050565b600081831115610fe657600080fd5b603c8383610ff49190611fa6565b610ffe9190612009565b905092915050565b6000806000611022620151808561101d9190612009565b6117a9565b509150915061103182826112f2565b92505050919050565b60006107b2841015801561104e5750600083115b801561105b5750600c8311155b1561108a57600061106c85856112f2565b905060008311801561107e5750808311155b1561108857600191505b505b9392505050565b60006107b28410156110a257600080fd5b600084905060008490506000849050600062253d8c60046064600c600e876110ca919061203a565b6110d4919061207d565b611324886110e291906120e7565b6110ec91906120e7565b6110f6919061207d565b6003611102919061212b565b61110c919061207d565b600c80600c600e8861111e919061203a565b611128919061207d565b611132919061212b565b60028761113f919061203a565b611149919061203a565b61016f611156919061212b565b611160919061207d565b6004600c600e88611171919061203a565b61117b919061207d565b6112c08961118991906120e7565b61119391906120e7565b6105b56111a0919061212b565b6111aa919061207d565b617d4b866111b8919061203a565b6111c291906120e7565b6111cc91906120e7565b6111d6919061203a565b6111e0919061203a565b9050809450505050509392505050565b600062015180611201858585611091565b61120b9190611f64565b90509392505050565b60008062015180836112269190612009565b90506001600760038361123991906121a3565b61124391906121d7565b61124d91906121a3565b915050919050565b60008183111561126457600080fd5b610e1083836112739190611fa6565b61127d9190612009565b905092915050565b600061129287878761103a565b156112be576018841080156112a75750603c83105b80156112b35750603c82105b156112bd57600190505b5b9695505050505050565b60008062015180836112da91906121d7565b9050610e10816112ea9190612009565b915050919050565b600060018214806113035750600382145b8061130e5750600582145b806113195750600782145b806113245750600882145b8061132f5750600a82145b8061133a5750600c82145b1561134857601f9050611377565b6002821461135957601e9050611376565b61136283611ab3565b61136d57601c611370565b601d5b60ff1690505b5b92915050565b60008060008061139a62015180876113959190612009565b6117a9565b92509250925084826113ac91906121a3565b9150600c6001836113bd9190611fa6565b6113c79190612009565b836113d291906121a3565b92506001600c6001846113e59190611fa6565b6113ef91906121d7565b6113f991906121a3565b9150600061140784846112f2565b905080821115611415578091505b620151808761142491906121d7565b62015180611433868686611091565b61143d9190611f64565b61144791906121a3565b94508685101561145657600080fd5b5050505092915050565b6000600661146d83611214565b10159050919050565b600080600080611493620151808761148e9190612009565b6117a9565b92509250925084836114a591906121a3565b925060006114b384846112f2565b9050808211156114c1578091505b62015180876114d091906121d7565b620151806114df868686611091565b6114e99190611f64565b6114f391906121a3565b94508685101561150257600080fd5b5050505092915050565b60008060008061152962015180876115249190612009565b6117a9565b925092509250848361153b9190611fa6565b9250600061154984846112f2565b905080821115611557578091505b620151808761156691906121d7565b62015180611575868686611091565b61157f9190611f64565b61158991906121a3565b94508685111561159857600080fd5b5050505092915050565b6000610e10826115b29190611f64565b836115bd91906121a3565b9050828110156115cc57600080fd5b92915050565b600081603c846115e29190611f64565b610e10866115f09190611f64565b620151806115ff8b8b8b611091565b6116099190611f64565b61161391906121a3565b61161d91906121a3565b61162791906121a3565b90509695505050505050565b60008183111561164257600080fd5b828261164e9190611fa6565b905092915050565b600061166f620151808361166a9190612009565b6117a9565b909150905080915050919050565b6000620151808261168e9190611f64565b8361169991906121a3565b9050828110156116a857600080fd5b92915050565b6000818311156116bd57600080fd5b6000806116d762015180866116d29190612009565b6117a9565b50915091506000806116f662015180876116f19190612009565b6117a9565b509150915082600c856117099190611f64565b82600c856117179190611f64565b61172191906121a3565b61172b9190611fa6565b6117359190611fa6565b94505050505092915050565b6000603c826117509190611f64565b8361175b91906121a3565b90508281101561176a57600080fd5b92915050565b6000603c8261177f91906121d7565b9050919050565b6000818361179491906121a3565b9050828110156117a357600080fd5b92915050565b600080600080849050600062253d8c62010bd98301019050600062023ab182600402816117d9576117d8611fda565b5b059050600460038262023ab10201816117f5576117f4611fda565b5b0582039150600062164b0960018401610fa0028161181657611815611fda565b5b059050601f6004826105b502816118305761182f611fda565b5b058403019250600061098f846050028161184d5761184c611fda565b5b059050600060508261098f028161186757611866611fda565b5b0585039050600b828161187d5761187c611fda565b5b05945084600c0260028301039150848360318603606402010192508298508197508096505050505050509193909250565b6000806000806000806118d36201518088816118cd576118cc611fda565b5b046117a9565b80965081975082985050505060006201518088816118f4576118f3611fda565b5b069050610e10818161190957611908611fda565b5b049350610e10818161191e5761191d611fda565b5b069050603c818161193257611931611fda565b5b049250603c818161194657611945611fda565b5b0691505091939550919395565b600061196c62015180836119679190612009565b6117a9565b90505080915050919050565b6000603c826119879190611f64565b836119929190611fa6565b9050828111156119a157600080fd5b92915050565b60006119c062015180836119bb9190612009565b6117a9565b9091505080915050919050565b6000806000806119ea62015180876119e59190612009565b6117a9565b925092509250600085600184611a009190611fa6565b600c86611a0d9190611f64565b611a1791906121a3565b611a219190611fa6565b9050600c81611a309190612009565b93506001600c82611a4191906121d7565b611a4b91906121a3565b92506000611a5985856112f2565b905080831115611a67578092505b6201518088611a7691906121d7565b62015180611a85878787611091565b611a8f9190611f64565b611a9991906121a3565b955087861115611aa857600080fd5b505050505092915050565b600080600483611ac391906121d7565b148015611add57506000606483611ada91906121d7565b14155b80611af55750600061019083611af391906121d7565b145b9050919050565b600080611b166201518084611b119190612009565b6117a9565b50509050611b2381611ab3565b915050919050565b60006201518082611b3c9190611f64565b83611b479190611fa6565b905082811115611b5657600080fd5b92915050565b600081831115611b6b57600080fd5b620151808383611b7b9190611fa6565b611b859190612009565b905092915050565b60006005611b9a83611214565b11159050919050565b6000806000611bc4620151808581611bbe57611bbd611fda565b5b046117a9565b8093508194508295505050509193909250565b60008183611be59190611fa6565b905082811115611bf457600080fd5b92915050565b600080610e1083611c0b91906121d7565b9050603c81611c1a9190612009565b915050919050565b600081831115611c3157600080fd5b6000611c4a6201518085611c459190612009565b6117a9565b505090506000611c676201518085611c629190612009565b6117a9565b505090508181611c779190611fa6565b9250505092915050565b600080fd5b6000819050919050565b611c9981611c86565b8114611ca457600080fd5b50565b600081359050611cb681611c90565b92915050565b60008060408385031215611cd357611cd2611c81565b5b6000611ce185828601611ca7565b9250506020611cf285828601611ca7565b9150509250929050565b611d0581611c86565b82525050565b6000602082019050611d206000830184611cfc565b92915050565b600060208284031215611d3c57611d3b611c81565b5b6000611d4a84828501611ca7565b91505092915050565b600080600060608486031215611d6c57611d6b611c81565b5b6000611d7a86828701611ca7565b9350506020611d8b86828701611ca7565b9250506040611d9c86828701611ca7565b9150509250925092565b60008115159050919050565b611dbb81611da6565b82525050565b6000602082019050611dd66000830184611db2565b92915050565b60008060008060008060c08789031215611df957611df8611c81565b5b6000611e0789828a01611ca7565b9650506020611e1889828a01611ca7565b9550506040611e2989828a01611ca7565b9450506060611e3a89828a01611ca7565b9350506080611e4b89828a01611ca7565b92505060a0611e5c89828a01611ca7565b9150509295509295509295565b6000606082019050611e7e6000830186611cfc565b611e8b6020830185611cfc565b611e986040830184611cfc565b949350505050565b600060c082019050611eb56000830189611cfc565b611ec26020830188611cfc565b611ecf6040830187611cfc565b611edc6060830186611cfc565b611ee96080830185611cfc565b611ef660a0830184611cfc565b979650505050505050565b6000819050919050565b611f1481611f01565b82525050565b6000602082019050611f2f6000830184611f0b565b92915050565b7f4e487b7100000000000000000000000000000000000000000000000000000000600052601160045260246000fd5b6000611f6f82611c86565b9150611f7a83611c86565b9250828202611f8881611c86565b91508282048414831517611f9f57611f9e611f35565b5b5092915050565b6000611fb182611c86565b9150611fbc83611c86565b9250828203905081811115611fd457611fd3611f35565b5b92915050565b7f4e487b7100000000000000000000000000000000000000000000000000000000600052601260045260246000fd5b600061201482611c86565b915061201f83611c86565b92508261202f5761202e611fda565b5b828204905092915050565b600061204582611f01565b915061205083611f01565b925082820390508181126000841216828213600085121516171561207757612076611f35565b5b92915050565b600061208882611f01565b915061209383611f01565b9250826120a3576120a2611fda565b5b600160000383147f8000000000000000000000000000000000000000000000000000000000000000831416156120dc576120db611f35565b5b828205905092915050565b60006120f282611f01565b91506120fd83611f01565b92508282019050828112156000831216838212600084121516171561212557612124611f35565b5b92915050565b600061213682611f01565b915061214183611f01565b925082820261214f81611f01565b91507f8000000000000000000000000000000000000000000000000000000000000000841460008412161561218757612186611f35565b5b828205841483151761219c5761219b611f35565b5b5092915050565b60006121ae82611c86565b91506121b983611c86565b92508282019050808211156121d1576121d0611f35565b5b92915050565b60006121e282611c86565b91506121ed83611c86565b9250826121fd576121fc611fda565b5b82820690509291505056fea2646970667358221220d2f5b7e14c8453a60fc000734fb2a568d06e224f114b8b7ec56ed097cbd59fb664736f6c63430008110033",
  "devdoc": {
    "kind": "dev",
    "methods": {},
    "version": 1
  },
  "userdoc": {
    "kind": "user",
    "methods": {},
    "version": 1
  },
  "storageLayout": {
    "storage": [],
    "types": null
  }
}