{
  "address": "0x738f9F7F1916219dE3BEF85694584d2815d19219",
  "abi": [
    {
      "inputs": [
        {
          "internalType": "uint256",
          "name": "tokenId",
          "type": "uint256"
        },
        {
          "internalType": "uint256[9][3]",
          "name": "numbers",
          "type": "uint256[9][3]"
        },
        {
          "internalType": "bool[9][3]",
          "name": "covered",
          "type": "bool[9][3]"
        }
      ],
      "name": "generateTokenSVG",
      "outputs": [
        {
          "internalType": "string",
          "name": "",
          "type": "string"
        }
      ],
      "stateMutability": "view",
      "type": "function"
    }
  ],
  "transactionHash": "0xee240f7f462e69ea2e89b6f942fbd4e1fe039b98e1e60aaf46be25f0154a457a",
  "args": [],
  "numDeployments": 2,
  "solcInputHash": "171656b05eff12db20d841f2ac7f3973",
  "bytecode": "0x60806040526040518061022001604052806040518060400160405280600781526020017f233730394637390000000000000000000000000000000000000000000000000081525081526020016040518060400160405280600e81526020017f233542373037342334393638353100000000000000000000000000000000000081525081526020016040518060400160405280600781526020017f233943393439310000000000000000000000000000000000000000000000000081525081526020016040518060400160405280600781526020017f234530424234340000000000000000000000000000000000000000000000000081525081526020016040518060400160405280600781526020017f234130423539450000000000000000000000000000000000000000000000000081525081526020016040518060400160405280600781526020017f234134413537410000000000000000000000000000000000000000000000000081525081526020016040518060400160405280600781526020017f236666653562340000000000000000000000000000000000000000000000000081525081526020016040518060400160405280600781526020017f233566396561300000000000000000000000000000000000000000000000000081525081526020016040518060400160405280600781526020017f236432623438630000000000000000000000000000000000000000000000000081525081526020016040518060400160405280600781526020017f234430433441420000000000000000000000000000000000000000000000000081525081526020016040518060400160405280600781526020017f236635663564630000000000000000000000000000000000000000000000000081525081526020016040518060400160405280600781526020017f236666656664350000000000000000000000000000000000000000000000000081525081526020016040518060400160405280600781526020017f234241423836430000000000000000000000000000000000000000000000000081525081526020016040518060400160405280600781526020017f236666646162390000000000000000000000000000000000000000000000000081525081526020016040518060400160405280600781526020017f236463616539360000000000000000000000000000000000000000000000000081525081526020016040518060400160405280600781526020017f236235373137300000000000000000000000000000000000000000000000000081525081526020016040518060400160405280600781526020017f234130353232440000000000000000000000000000000000000000000000000081525081525060009060116200040b92919062000420565b503480156200041957600080fd5b5062000861565b826012810192821562000460579160200282015b828111156200045f5782518290816200044e91906200077a565b509160200191906001019062000434565b5b5090506200046f919062000473565b5090565b5b808211156200049757600081816200048d91906200049b565b5060010162000474565b5090565b508054620004a99062000569565b6000825580601f10620004bd5750620004de565b601f016020900490600052602060002090810190620004dd9190620004e1565b5b50565b5b80821115620004fc576000816000905550600101620004e2565b5090565b600081519050919050565b7f4e487b7100000000000000000000000000000000000000000000000000000000600052604160045260246000fd5b7f4e487b7100000000000000000000000000000000000000000000000000000000600052602260045260246000fd5b600060028204905060018216806200058257607f821691505b6020821081036200059857620005976200053a565b5b50919050565b60008190508160005260206000209050919050565b60006020601f8301049050919050565b600082821b905092915050565b600060088302620006027fffffffffffffffffffffffffffffffffffffffffffffffffffffffffffffffff82620005c3565b6200060e8683620005c3565b95508019841693508086168417925050509392505050565b6000819050919050565b6000819050919050565b60006200065b620006556200064f8462000626565b62000630565b62000626565b9050919050565b6000819050919050565b62000677836200063a565b6200068f620006868262000662565b848454620005d0565b825550505050565b600090565b620006a662000697565b620006b38184846200066c565b505050565b5b81811015620006db57620006cf6000826200069c565b600181019050620006b9565b5050565b601f8211156200072a57620006f4816200059e565b620006ff84620005b3565b810160208510156200070f578190505b620007276200071e85620005b3565b830182620006b8565b50505b505050565b600082821c905092915050565b60006200074f600019846008026200072f565b1980831691505092915050565b60006200076a83836200073c565b9150826002028217905092915050565b620007858262000500565b67ffffffffffffffff811115620007a157620007a06200050b565b5b620007ad825462000569565b620007ba828285620006df565b600060209050601f831160018114620007f25760008415620007dd578287015190505b620007e985826200075c565b86555062000859565b601f19841662000802866200059e565b60005b828110156200082c5784890151825560018201915060208501945060208101905062000805565b868310156200084c578489015162000848601f8916826200073c565b8355505b6001600288020188555050505b505050505050565b61201c80620008716000396000f3fe608060405234801561001057600080fd5b506004361061002b5760003560e01c8063bb55709c14610030575b600080fd5b61004a60048036038101906100459190610653565b610060565b6040516100579190610738565b60405180910390f35b606060006012856100719190610789565b60128110610082576100816107ba565b5b0160405160200161009290610baa565b6040516020818303038152906040526040518060c0016040528060978152602001611f50609791396040516020016100c990610e05565b6040516020818303038152906040526100e2878761014c565b6040516020016100f1906110c1565b60405160208183030381529060405260405160200161010f90611576565b6040516020818303038152906040526040516020016101349796959493929190611ad8565b60405160208183030381529060405290509392505050565b60608060005b600381101561025f5760005b600981101561024b57600086836003811061017c5761017b6107ba565b5b61012002018260098110610193576101926107ba565b5b60200201351115610238578261021583838986600381106101b7576101b66107ba565b5b610120020185600981106101ce576101cd6107ba565b5b60200201358987600381106101e6576101e56107ba565b5b610120020186600981106101fd576101fc6107ba565b5b6020020160208101906102109190611bb7565b61026a565b604051602001610226929190611be4565b60405160208183030381529060405292505b808061024390611c37565b91505061015e565b50808061025790611c37565b915050610152565b508091505092915050565b606080606080600061029461012c60c88a6102859190611c7f565b61028f9190611cc1565b6103ac565b905060006102ba61038460c88c6102ab9190611c7f565b6102b59190611cc1565b6103ac565b9050600a8810156102f9576102f2602360f060c88c6102d99190611c7f565b6102e39190611cc1565b6102ed9190611cc1565b6103ac565b935061031d565b61031a60f060c88b61030b9190611c7f565b6103159190611cc1565b6103ac565b93505b61033f6103a760c88c6103309190611c7f565b61033a9190611cc1565b6103ac565b9250861561036c57818160405160200161035a929190611dd9565b60405160208183030381529060405294505b8484846103788b6103ac565b60405160200161038b9493929190611eb6565b60405160208183030381529060405294508495505050505050949350505050565b6060600060016103bb8461047a565b01905060008167ffffffffffffffff8111156103da576103d9611f20565b5b6040519080825280601f01601f19166020018201604052801561040c5781602001600182028036833780820191505090505b509050600082602001820190505b60011561046f578080600190039150507f3031323334353637383961626364656600000000000000000000000000000000600a86061a8153600a85816104635761046261075a565b5b0494506000850361041a575b819350505050919050565b600080600090507a184f03e93ff9f4daa797ed6e38ed64bf6a1f01000000000000000083106104d8577a184f03e93ff9f4daa797ed6e38ed64bf6a1f01000000000000000083816104ce576104cd61075a565b5b0492506040810190505b6d04ee2d6d415b85acef81000000008310610515576d04ee2d6d415b85acef8100000000838161050b5761050a61075a565b5b0492506020810190505b662386f26fc10000831061054457662386f26fc10000838161053a5761053961075a565b5b0492506010810190505b6305f5e100831061056d576305f5e10083816105635761056261075a565b5b0492506008810190505b61271083106105925761271083816105885761058761075a565b5b0492506004810190505b606483106105b557606483816105ab576105aa61075a565b5b0492506002810190505b600a83106105c4576001810190505b80915050919050565b600080fd5b6000819050919050565b6105e5816105d2565b81146105f057600080fd5b50565b600081359050610602816105dc565b92915050565b600080fd5b6000819050826101206003028201111561062a57610629610608565b5b92915050565b6000819050826101206003028201111561064d5761064c610608565b5b92915050565b60008060006106e0848603121561066d5761066c6105cd565b5b600061067b868287016105f3565b935050602061068c8682870161060d565b92505061038061069e86828701610630565b9150509250925092565b600081519050919050565b600082825260208201905092915050565b60005b838110156106e25780820151818401526020810190506106c7565b60008484015250505050565b6000601f19601f8301169050919050565b600061070a826106a8565b61071481856106b3565b93506107248185602086016106c4565b61072d816106ee565b840191505092915050565b6000602082019050818103600083015261075281846106ff565b905092915050565b7f4e487b7100000000000000000000000000000000000000000000000000000000600052601260045260246000fd5b6000610794826105d2565b915061079f836105d2565b9250826107af576107ae61075a565b5b828206905092915050565b7f4e487b7100000000000000000000000000000000000000000000000000000000600052603260045260246000fd5b600081905092915050565b7f3c646566733e0000000000000000000000000000000000000000000000000000600082015250565b600061082a6006836107e9565b9150610835826107f4565b600682019050919050565b7f3c706174682069643d22702220643d224d302030204c343830302030205a222f60008201527f3e00000000000000000000000000000000000000000000000000000000000000602082015250565b600061089c6021836107e9565b91506108a782610840565b602182019050919050565b7f3c746578742069643d2274223e00000000000000000000000000000000000000600082015250565b60006108e8600d836107e9565b91506108f3826108b2565b600d82019050919050565b7f3c746578745061746820687265663d2223702220746578744c656e6774683d2260008201527f323230302220666f6e742d73697a653d223335223e0000000000000000000000602082015250565b600061095a6035836107e9565b9150610965826108fe565b603582019050919050565b7f446f6e6174696e6720302e30352045544820c2b720476974636f696e20416c7060008201527f686120526f756e6420c2b720307863303261616133396232323366653864306160208201527f3065356334663237656164393038336337353663633220c2b7204a616e75617260408201527f792033312c203230323300000000000000000000000000000000000000000000606082015250565b6000610a18606a836107e9565b9150610a2382610970565b606a82019050919050565b7f3c616e696d617465206174747269627574654e616d653d2273746172744f666660008201527f736574222076616c7565733d22323430303b203022206475723d22397322207260208201527f6570656174436f756e743d22696e646566696e697465222f3e20000000000000604082015250565b6000610ab0605a836107e9565b9150610abb82610a2e565b605a82019050919050565b7f3c2f74657874506174683e000000000000000000000000000000000000000000600082015250565b6000610afc600b836107e9565b9150610b0782610ac6565b600b82019050919050565b7f3c2f746578743e00000000000000000000000000000000000000000000000000600082015250565b6000610b486007836107e9565b9150610b5382610b12565b600782019050919050565b7f3c2f646566733e00000000000000000000000000000000000000000000000000600082015250565b6000610b946007836107e9565b9150610b9f82610b5e565b600782019050919050565b6000610bb58261081d565b9150610bc08261088f565b9150610bcb826108db565b9150610bd68261094d565b9150610be182610a0b565b9150610bec82610aa3565b9150610bf782610aef565b9150610c0282610b3b565b9150610c0d82610b87565b9150819050919050565b7f3c7061747465726e2069643d226267222077696474683d22302e31313131313160008201527f31313131313122206865696768743d22302e333333333333333333333333223e602082015250565b6000610c736040836107e9565b9150610c7e82610c17565b604082019050919050565b7f3c706f6c79676f6e20636c6173733d22612220706f696e74733d22302c30203060008201527f2c323030203230302c323030222f3e0000000000000000000000000000000000602082015250565b6000610ce5602f836107e9565b9150610cf082610c89565b602f82019050919050565b7f3c706f6c79676f6e20636c6173733d22632220706f696e74733d22302c30203260008201527f30302c30203230302c323030222f3e0000000000000000000000000000000000602082015250565b6000610d57602f836107e9565b9150610d6282610cfb565b602f82019050919050565b7f3c7265637420636c6173733d22642220783d2232302220793d2232302220776960008201527f6474683d2231363022206865696768743d22313630222f3e3c2f70617474657260208201527f6e3e000000000000000000000000000000000000000000000000000000000000604082015250565b6000610def6042836107e9565b9150610dfa82610d6d565b604282019050919050565b6000610e1082610c66565b9150610e1b82610cd8565b9150610e2682610d4a565b9150610e3182610de2565b9150819050919050565b7f3c706f6c79676f6e20636c6173733d22622220706f696e74733d223230302c3560008201527f3030203230302c38303020323030302c38303020323030302c35303022202f3e602082015250565b6000610e976040836107e9565b9150610ea282610e3b565b604082019050919050565b7f3c706f6c79676f6e20636c6173733d22632220706f696e74733d223230302c3560008201527f3030203230302c383030203335302c363530222f3e0000000000000000000000602082015250565b6000610f096035836107e9565b9150610f1482610ead565b603582019050919050565b7f3c706f6c79676f6e20636c6173733d22632220706f696e74733d22323030302c60008201527f35303020323030302c38303020313835302c363530222f3e0000000000000000602082015250565b6000610f7b6038836107e9565b9150610f8682610f1f565b603882019050919050565b7f3c7265637420636c6173733d22642220783d223232302220793d22353230222060008201527f77696474683d223137363022206865696768743d22323630222f3e0000000000602082015250565b6000610fed603b836107e9565b9150610ff882610f91565b603b82019050919050565b7f3c7465787420783d22313130302220793d223635302220646f6d696e616e742d60008201527f626173656c696e653d226d6964646c652220746578742d616e63686f723d226d60208201527f6964646c6522207374796c653d22666f6e742d73697a653a313530223e52656760408201527f656e2042696e676f3c2f746578743e0000000000000000000000000000000000606082015250565b60006110ab606f836107e9565b91506110b682611003565b606f82019050919050565b60006110cc82610e8a565b91506110d782610efc565b91506110e282610f6e565b91506110ed82610fe0565b91506110f88261109e565b9150819050919050565b7f3c706f6c79676f6e20636c6173733d22622220706f696e74733d223230302c3160008201527f343030203230302c3135303020323030302c3135303020323030302c3134303060208201527f222f3e0000000000000000000000000000000000000000000000000000000000604082015250565b60006111846043836107e9565b915061118f82611102565b604382019050919050565b7f3c706f6c79676f6e20636c6173733d22612220706f696e74733d223230302c3160008201527f343030203230302c31353030203235302c31343530222f3e0000000000000000602082015250565b60006111f66038836107e9565b91506112018261119a565b603882019050919050565b7f3c706f6c79676f6e20636c6173733d22612220706f696e74733d22323030302c60008201527f3134303020323030302c3135303020313935302c31343530222f3e0000000000602082015250565b6000611268603b836107e9565b91506112738261120c565b603b82019050919050565b7f3c7265637420636c6173733d22642220783d223232302220793d22313432302260008201527f2077696474683d223137363022206865696768743d223630222f3e0000000000602082015250565b60006112da603b836107e9565b91506112e58261127e565b603b82019050919050565b7f3c636c6970506174682069643d22636c6970223e000000000000000000000000600082015250565b60006113266014836107e9565b9150611331826112f0565b601482019050919050565b7f3c7265637420783d223233302220793d2231343230222077696474683d22313760008201527f343022206865696768743d223630222f3e000000000000000000000000000000602082015250565b60006113986031836107e9565b91506113a38261133c565b603182019050919050565b7f3c2f636c6970506174683e000000000000000000000000000000000000000000600082015250565b60006113e4600b836107e9565b91506113ef826113ae565b600b82019050919050565b7f3c6720636c69702d706174683d2275726c2823636c697029223e000000000000600082015250565b6000611430601a836107e9565b915061143b826113fa565b601a82019050919050565b7f3c75736520783d222d313930302220793d22313436302220687265663d22237460008201527f222f3e0000000000000000000000000000000000000000000000000000000000602082015250565b60006114a26023836107e9565b91506114ad82611446565b602382019050919050565b7f3c75736520783d223530302220793d22313436302220687265663d222374222f60008201527f3e00000000000000000000000000000000000000000000000000000000000000602082015250565b60006115146021836107e9565b915061151f826114b8565b602182019050919050565b7f3c2f673e00000000000000000000000000000000000000000000000000000000600082015250565b60006115606004836107e9565b915061156b8261152a565b600482019050919050565b600061158182611177565b915061158c826111e9565b91506115978261125b565b91506115a2826112cd565b91506115ad82611319565b91506115b88261138b565b91506115c3826113d7565b91506115ce82611423565b91506115d982611495565b91506115e482611507565b91506115ef82611553565b9150819050919050565b7f3c73766720786d6c6e733d22687474703a2f2f7777772e77332e6f72672f323060008201527f30302f737667222076696577426f783d2230203020323230302032323030222060208201527f7374796c653d226261636b67726f756e642d636f6c6f723a0000000000000000604082015250565b600061167b6058836107e9565b9150611686826115f9565b605882019050919050565b7f4e487b7100000000000000000000000000000000000000000000000000000000600052602260045260246000fd5b600060028204905060018216806116d857607f821691505b6020821081036116eb576116ea611691565b5b50919050565b60008190508160005260206000209050919050565b60008154611713816116c0565b61171d81866107e9565b94506001821660008114611738576001811461174d57611780565b60ff1983168652811515820286019350611780565b611756856116f1565b60005b8381101561177857815481890152600182019150602081019050611759565b838801955050505b50505092915050565b7f223e000000000000000000000000000000000000000000000000000000000000600082015250565b60006117bf6002836107e9565b91506117ca82611789565b600282019050919050565b60006117e0826106a8565b6117ea81856107e9565b93506117fa8185602086016106c4565b80840191505092915050565b7f3c673e3c706f6c79676f6e207374796c653d227374726f6b652d77696474683a60008201527f2031352220706f696e74733d223230302c353030203230302c3135303020323060208201527f30302c3135303020323030302c35303022202f3e3c726563742066696c6c3d2260408201527f75726c28236267292220783d223230302220793d22383030222077696474683d60608201527f223138303022206865696768743d22363030222f3e0000000000000000000000608082015250565b60006118d46095836107e9565b91506118df82611806565b609582019050919050565b7f3c616e696d6174655472616e73666f726d206475723d2238732220726570656160008201527f74436f756e743d22696e646566696e69746522206174747269627574654e616d60208201527f653d227472616e73666f726d2220617474726962757465547970653d22584d4c60408201527f2220747970653d22726f74617465222076616c7565733d22313b2d313b31222f60608201527f3e00000000000000000000000000000000000000000000000000000000000000608082015250565b60006119b86081836107e9565b91506119c3826118ea565b608182019050919050565b7f3c616e696d6174654d6f74696f6e206475723d2239732220726570656174436f60008201527f756e743d22696e646566696e6974652220706174683d224d2d35302c3020432d60208201527f35302c2d3230302035302c3230302035302c30204335302c2d323030202d353060408201527f2c323030202d35302c30222f3e00000000000000000000000000000000000000606082015250565b6000611a76606d836107e9565b9150611a81826119ce565b606d82019050919050565b7f3c2f673e3c2f7376673e00000000000000000000000000000000000000000000600082015250565b6000611ac2600a836107e9565b9150611acd82611a8c565b600a82019050919050565b6000611ae38261166e565b9150611aef828a611706565b9150611afa826117b2565b9150611b0682896117d5565b9150611b1282886117d5565b9150611b1e82876117d5565b9150611b29826118c7565b9150611b34826119ab565b9150611b3f82611a69565b9150611b4b82866117d5565b9150611b5782856117d5565b9150611b6382846117d5565b9150611b6e82611ab5565b915081905098975050505050505050565b60008115159050919050565b611b9481611b7f565b8114611b9f57600080fd5b50565b600081359050611bb181611b8b565b92915050565b600060208284031215611bcd57611bcc6105cd565b5b6000611bdb84828501611ba2565b91505092915050565b6000611bf082856117d5565b9150611bfc82846117d5565b91508190509392505050565b7f4e487b7100000000000000000000000000000000000000000000000000000000600052601160045260246000fd5b6000611c42826105d2565b91507fffffffffffffffffffffffffffffffffffffffffffffffffffffffffffffffff8203611c7457611c73611c08565b5b600182019050919050565b6000611c8a826105d2565b9150611c95836105d2565b9250828202611ca3816105d2565b91508282048414831517611cba57611cb9611c08565b5b5092915050565b6000611ccc826105d2565b9150611cd7836105d2565b9250828201905080821115611cef57611cee611c08565b5b92915050565b7f3c636972636c652066696c6c3d2223656532643235222063783d220000000000600082015250565b6000611d2b601b836107e9565b9150611d3682611cf5565b601b82019050919050565b7f222063793d220000000000000000000000000000000000000000000000000000600082015250565b6000611d776006836107e9565b9150611d8282611d41565b600682019050919050565b7f2022723d223735223e3c2f636972636c653e0000000000000000000000000000600082015250565b6000611dc36012836107e9565b9150611dce82611d8d565b601282019050919050565b6000611de482611d1e565b9150611df082856117d5565b9150611dfb82611d6a565b9150611e0782846117d5565b9150611e1282611db6565b91508190509392505050565b7f3c7465787420783d220000000000000000000000000000000000000000000000600082015250565b6000611e546009836107e9565b9150611e5f82611e1e565b600982019050919050565b7f2220793d22000000000000000000000000000000000000000000000000000000600082015250565b6000611ea06005836107e9565b9150611eab82611e6a565b600582019050919050565b6000611ec282876117d5565b9150611ecd82611e47565b9150611ed982866117d5565b9150611ee482611e93565b9150611ef082856117d5565b9150611efb826117b2565b9150611f0782846117d5565b9150611f1282610b3b565b915081905095945050505050565b7f4e487b7100000000000000000000000000000000000000000000000000000000600052604160045260246000fdfe3c7374796c653e746578747b666f6e742d66616d696c793a4d6f6e61636f3b666f6e742d73697a653a31303070787d7376677b7374726f6b653a626c61636b3b7374726f6b652d77696474683a317d2e617b66696c6c3a233537623539327d2e627b66696c6c3a236264653464667d2e637b66696c6c3a236638636534377d2e647b66696c6c3a236663663262317d3c2f7374796c653ea2646970667358221220314b7bb1433020d114f8f6647b0bdd41e3475af10a66379ba4ae6561e82f3e0164736f6c63430008110033",
  "devdoc": {
    "kind": "dev",
    "methods": {},
    "version": 1
  },
  "userdoc": {
    "kind": "user",
    "methods": {},
    "version": 1
  },
  "storageLayout": {
    "storage": [
      {
        "astId": 1127,
        "contract": "contracts/RegenBingoSVG.sol:RegenBingoSVG",
        "label": "backgroundColors",
        "offset": 0,
        "slot": "0",
        "type": "t_array(t_string_storage)18_storage"
      }
    ],
    "types": {
      "t_array(t_string_storage)18_storage": {
        "base": "t_string_storage",
        "encoding": "inplace",
        "label": "string[18]",
        "numberOfBytes": "576"
      },
      "t_string_storage": {
        "encoding": "bytes",
        "label": "string",
        "numberOfBytes": "32"
      }
    }
  }
}