{
  "address": "0xff5B93188Cc29a8883049702b3871D3eB50fe3EE",
  "abi": [
    {
      "inputs": [
        {
          "internalType": "string",
          "name": "_name",
          "type": "string"
        },
        {
          "internalType": "string",
          "name": "_symbol",
          "type": "string"
        },
        {
          "internalType": "uint256",
          "name": "_mintPrice",
          "type": "uint256"
        },
        {
          "internalType": "uint256",
          "name": "_drawTimestamp",
          "type": "uint256"
        },
        {
          "internalType": "uint256",
          "name": "_drawNumberCooldownSeconds",
          "type": "uint256"
        },
        {
          "internalType": "address payable",
          "name": "_donationAddress",
          "type": "address"
        }
      ],
      "stateMutability": "nonpayable",
      "type": "constructor"
    },
    {
      "anonymous": false,
      "inputs": [
        {
          "indexed": true,
          "internalType": "address",
          "name": "owner",
          "type": "address"
        },
        {
          "indexed": true,
          "internalType": "address",
          "name": "approved",
          "type": "address"
        },
        {
          "indexed": true,
          "internalType": "uint256",
          "name": "tokenId",
          "type": "uint256"
        }
      ],
      "name": "Approval",
      "type": "event"
    },
    {
      "anonymous": false,
      "inputs": [
        {
          "indexed": true,
          "internalType": "address",
          "name": "owner",
          "type": "address"
        },
        {
          "indexed": true,
          "internalType": "address",
          "name": "operator",
          "type": "address"
        },
        {
          "indexed": false,
          "internalType": "bool",
          "name": "approved",
          "type": "bool"
        }
      ],
      "name": "ApprovalForAll",
      "type": "event"
    },
    {
      "anonymous": false,
      "inputs": [
        {
          "indexed": false,
          "internalType": "uint256",
          "name": "tokenId",
          "type": "uint256"
        },
        {
          "indexed": false,
          "internalType": "address",
          "name": "winner",
          "type": "address"
        }
      ],
      "name": "ClaimPrize",
      "type": "event"
    },
    {
      "anonymous": false,
      "inputs": [
        {
          "indexed": false,
          "internalType": "uint256",
          "name": "number",
          "type": "uint256"
        }
      ],
      "name": "DrawNumber",
      "type": "event"
    },
    {
      "anonymous": false,
      "inputs": [],
      "name": "DrawStarted",
      "type": "event"
    },
    {
      "anonymous": false,
      "inputs": [
        {
          "indexed": true,
          "internalType": "address",
          "name": "from",
          "type": "address"
        },
        {
          "indexed": true,
          "internalType": "address",
          "name": "to",
          "type": "address"
        },
        {
          "indexed": true,
          "internalType": "uint256",
          "name": "tokenId",
          "type": "uint256"
        }
      ],
      "name": "Transfer",
      "type": "event"
    },
    {
      "inputs": [
        {
          "internalType": "address",
          "name": "to",
          "type": "address"
        },
        {
          "internalType": "uint256",
          "name": "tokenId",
          "type": "uint256"
        }
      ],
      "name": "approve",
      "outputs": [],
      "stateMutability": "nonpayable",
      "type": "function"
    },
    {
      "inputs": [
        {
          "internalType": "address",
          "name": "owner",
          "type": "address"
        }
      ],
      "name": "balanceOf",
      "outputs": [
        {
          "internalType": "uint256",
          "name": "",
          "type": "uint256"
        }
      ],
      "stateMutability": "view",
      "type": "function"
    },
    {
      "inputs": [],
      "name": "bingoState",
      "outputs": [
        {
          "internalType": "enum RegenBingo.BingoState",
          "name": "",
          "type": "uint8"
        }
      ],
      "stateMutability": "view",
      "type": "function"
    },
    {
      "inputs": [
        {
          "internalType": "uint256",
          "name": "id",
          "type": "uint256"
        }
      ],
      "name": "claimPrize",
      "outputs": [],
      "stateMutability": "nonpayable",
      "type": "function"
    },
    {
      "inputs": [
        {
          "internalType": "uint256",
          "name": "id",
          "type": "uint256"
        }
      ],
      "name": "coveredNumbers",
      "outputs": [
        {
          "internalType": "uint256",
          "name": "count",
          "type": "uint256"
        }
      ],
      "stateMutability": "view",
      "type": "function"
    },
    {
      "inputs": [],
      "name": "donationAddress",
      "outputs": [
        {
          "internalType": "address payable",
          "name": "",
          "type": "address"
        }
      ],
      "stateMutability": "view",
      "type": "function"
    },
    {
      "inputs": [],
      "name": "drawNumber",
      "outputs": [
        {
          "internalType": "uint256",
          "name": "",
          "type": "uint256"
        }
      ],
      "stateMutability": "nonpayable",
      "type": "function"
    },
    {
      "inputs": [],
      "name": "drawNumberCooldownSeconds",
      "outputs": [
        {
          "internalType": "uint256",
          "name": "",
          "type": "uint256"
        }
      ],
      "stateMutability": "view",
      "type": "function"
    },
    {
      "inputs": [],
      "name": "drawTimestamp",
      "outputs": [
        {
          "internalType": "uint256",
          "name": "",
          "type": "uint256"
        }
      ],
      "stateMutability": "view",
      "type": "function"
    },
    {
      "inputs": [
        {
          "internalType": "uint256",
          "name": "tokenId",
          "type": "uint256"
        }
      ],
      "name": "getApproved",
      "outputs": [
        {
          "internalType": "address",
          "name": "",
          "type": "address"
        }
      ],
      "stateMutability": "view",
      "type": "function"
    },
    {
      "inputs": [],
      "name": "getDrawnNumbers",
      "outputs": [
        {
          "internalType": "uint256[]",
          "name": "",
          "type": "uint256[]"
        }
      ],
      "stateMutability": "view",
      "type": "function"
    },
    {
      "inputs": [
        {
          "internalType": "uint256",
          "name": "tokenId",
          "type": "uint256"
        },
        {
          "internalType": "uint256",
          "name": "row",
          "type": "uint256"
        },
        {
          "internalType": "uint256",
          "name": "column",
          "type": "uint256"
        }
      ],
      "name": "getNumberByCoordinates",
      "outputs": [
        {
          "internalType": "uint256",
          "name": "",
          "type": "uint256"
        }
      ],
      "stateMutability": "view",
      "type": "function"
    },
    {
      "inputs": [
        {
          "internalType": "address",
          "name": "owner",
          "type": "address"
        },
        {
          "internalType": "address",
          "name": "operator",
          "type": "address"
        }
      ],
      "name": "isApprovedForAll",
      "outputs": [
        {
          "internalType": "bool",
          "name": "",
          "type": "bool"
        }
      ],
      "stateMutability": "view",
      "type": "function"
    },
    {
      "inputs": [],
      "name": "lastDrawTime",
      "outputs": [
        {
          "internalType": "uint256",
          "name": "",
          "type": "uint256"
        }
      ],
      "stateMutability": "view",
      "type": "function"
    },
    {
      "inputs": [],
      "name": "mint",
      "outputs": [],
      "stateMutability": "payable",
      "type": "function"
    },
    {
      "inputs": [],
      "name": "mintPrice",
      "outputs": [
        {
          "internalType": "uint256",
          "name": "",
          "type": "uint256"
        }
      ],
      "stateMutability": "view",
      "type": "function"
    },
    {
      "inputs": [],
      "name": "name",
      "outputs": [
        {
          "internalType": "string",
          "name": "",
          "type": "string"
        }
      ],
      "stateMutability": "view",
      "type": "function"
    },
    {
      "inputs": [
        {
          "internalType": "uint256",
          "name": "tokenId",
          "type": "uint256"
        }
      ],
      "name": "ownerOf",
      "outputs": [
        {
          "internalType": "address",
          "name": "",
          "type": "address"
        }
      ],
      "stateMutability": "view",
      "type": "function"
    },
    {
      "inputs": [
        {
          "internalType": "address",
          "name": "from",
          "type": "address"
        },
        {
          "internalType": "address",
          "name": "to",
          "type": "address"
        },
        {
          "internalType": "uint256",
          "name": "tokenId",
          "type": "uint256"
        }
      ],
      "name": "safeTransferFrom",
      "outputs": [],
      "stateMutability": "nonpayable",
      "type": "function"
    },
    {
      "inputs": [
        {
          "internalType": "address",
          "name": "from",
          "type": "address"
        },
        {
          "internalType": "address",
          "name": "to",
          "type": "address"
        },
        {
          "internalType": "uint256",
          "name": "tokenId",
          "type": "uint256"
        },
        {
          "internalType": "bytes",
          "name": "data",
          "type": "bytes"
        }
      ],
      "name": "safeTransferFrom",
      "outputs": [],
      "stateMutability": "nonpayable",
      "type": "function"
    },
    {
      "inputs": [
        {
          "internalType": "address",
          "name": "operator",
          "type": "address"
        },
        {
          "internalType": "bool",
          "name": "approved",
          "type": "bool"
        }
      ],
      "name": "setApprovalForAll",
      "outputs": [],
      "stateMutability": "nonpayable",
      "type": "function"
    },
    {
      "inputs": [],
      "name": "startDrawPeriod",
      "outputs": [],
      "stateMutability": "nonpayable",
      "type": "function"
    },
    {
      "inputs": [
        {
          "internalType": "bytes4",
          "name": "interfaceId",
          "type": "bytes4"
        }
      ],
      "name": "supportsInterface",
      "outputs": [
        {
          "internalType": "bool",
          "name": "",
          "type": "bool"
        }
      ],
      "stateMutability": "view",
      "type": "function"
    },
    {
      "inputs": [],
      "name": "symbol",
      "outputs": [
        {
          "internalType": "string",
          "name": "",
          "type": "string"
        }
      ],
      "stateMutability": "view",
      "type": "function"
    },
    {
      "inputs": [
        {
          "internalType": "uint256",
          "name": "index",
          "type": "uint256"
        }
      ],
      "name": "tokenByIndex",
      "outputs": [
        {
          "internalType": "uint256",
          "name": "",
          "type": "uint256"
        }
      ],
      "stateMutability": "view",
      "type": "function"
    },
    {
      "inputs": [
        {
          "internalType": "address",
          "name": "owner",
          "type": "address"
        },
        {
          "internalType": "uint256",
          "name": "index",
          "type": "uint256"
        }
      ],
      "name": "tokenOfOwnerByIndex",
      "outputs": [
        {
          "internalType": "uint256",
          "name": "",
          "type": "uint256"
        }
      ],
      "stateMutability": "view",
      "type": "function"
    },
    {
      "inputs": [
        {
          "internalType": "uint256",
          "name": "tokenId",
          "type": "uint256"
        }
      ],
      "name": "tokenURI",
      "outputs": [
        {
          "internalType": "string",
          "name": "",
          "type": "string"
        }
      ],
      "stateMutability": "view",
      "type": "function"
    },
    {
      "inputs": [],
      "name": "totalSupply",
      "outputs": [
        {
          "internalType": "uint256",
          "name": "",
          "type": "uint256"
        }
      ],
      "stateMutability": "view",
      "type": "function"
    },
    {
      "inputs": [
        {
          "internalType": "address",
          "name": "from",
          "type": "address"
        },
        {
          "internalType": "address",
          "name": "to",
          "type": "address"
        },
        {
          "internalType": "uint256",
          "name": "tokenId",
          "type": "uint256"
        }
      ],
      "name": "transferFrom",
      "outputs": [],
      "stateMutability": "nonpayable",
      "type": "function"
    }
  ],
  "transactionHash": "0xebf251794b7ec253d55922909315221f3d114c5116c95c77da7f87605b085837",
  "args": [
    "REGENBINGO",
    "Regen Bingo — Testnet #0",
    "10000000000000000",
    1673892000,
    5,
    "0xc4c302f0d81F3E9a86d468f585dAe26F92D9F5EA"
  ],
  "numDeployments": 23,
  "solcInputHash": "f031a4aa9ff46a30d8bbc5a2c37d13ad",
  "bytecode": "0x60806040523480156200001157600080fd5b506040516200589c3803806200589c8339818101604052810190620000379190620002f4565b858581600090816200004a91906200060f565b5080600190816200005c91906200060f565b50505083600b8190555082600c8190555081600d8190555080600f60006101000a81548173ffffffffffffffffffffffffffffffffffffffff021916908373ffffffffffffffffffffffffffffffffffffffff160217905550505050505050620006f6565b6000604051905090565b600080fd5b600080fd5b600080fd5b600080fd5b6000601f19601f8301169050919050565b7f4e487b7100000000000000000000000000000000000000000000000000000000600052604160045260246000fd5b6200012a82620000df565b810181811067ffffffffffffffff821117156200014c576200014b620000f0565b5b80604052505050565b600062000161620000c1565b90506200016f82826200011f565b919050565b600067ffffffffffffffff821115620001925762000191620000f0565b5b6200019d82620000df565b9050602081019050919050565b60005b83811015620001ca578082015181840152602081019050620001ad565b60008484015250505050565b6000620001ed620001e78462000174565b62000155565b9050828152602081018484840111156200020c576200020b620000da565b5b62000219848285620001aa565b509392505050565b600082601f830112620002395762000238620000d5565b5b81516200024b848260208601620001d6565b91505092915050565b6000819050919050565b620002698162000254565b81146200027557600080fd5b50565b60008151905062000289816200025e565b92915050565b600073ffffffffffffffffffffffffffffffffffffffff82169050919050565b6000620002bc826200028f565b9050919050565b620002ce81620002af565b8114620002da57600080fd5b50565b600081519050620002ee81620002c3565b92915050565b60008060008060008060c08789031215620003145762000313620000cb565b5b600087015167ffffffffffffffff811115620003355762000334620000d0565b5b6200034389828a0162000221565b965050602087015167ffffffffffffffff811115620003675762000366620000d0565b5b6200037589828a0162000221565b95505060406200038889828a0162000278565b94505060606200039b89828a0162000278565b9350506080620003ae89828a0162000278565b92505060a0620003c189828a01620002dd565b9150509295509295509295565b600081519050919050565b7f4e487b7100000000000000000000000000000000000000000000000000000000600052602260045260246000fd5b600060028204905060018216806200042157607f821691505b602082108103620004375762000436620003d9565b5b50919050565b60008190508160005260206000209050919050565b60006020601f8301049050919050565b600082821b905092915050565b600060088302620004a17fffffffffffffffffffffffffffffffffffffffffffffffffffffffffffffffff8262000462565b620004ad868362000462565b95508019841693508086168417925050509392505050565b6000819050919050565b6000620004f0620004ea620004e48462000254565b620004c5565b62000254565b9050919050565b6000819050919050565b6200050c83620004cf565b620005246200051b82620004f7565b8484546200046f565b825550505050565b600090565b6200053b6200052c565b6200054881848462000501565b505050565b5b8181101562000570576200056460008262000531565b6001810190506200054e565b5050565b601f821115620005bf5762000589816200043d565b620005948462000452565b81016020851015620005a4578190505b620005bc620005b38562000452565b8301826200054d565b50505b505050565b600082821c905092915050565b6000620005e460001984600802620005c4565b1980831691505092915050565b6000620005ff8383620005d1565b9150826002028217905092915050565b6200061a82620003ce565b67ffffffffffffffff811115620006365762000635620000f0565b5b62000642825462000408565b6200064f82828562000574565b600060209050601f83116001811462000687576000841562000672578287015190505b6200067e8582620005f1565b865550620006ee565b601f19841662000697866200043d565b60005b82811015620006c1578489015182556001820191506020850194506020810190506200069a565b86831015620006e15784890151620006dd601f891682620005d1565b8355505b6001600288020188555050505b505050505050565b61519680620007066000396000f3fe6080604052600436106101c25760003560e01c80636352211e116100f7578063b88d4fde11610095578063d80ffb2011610064578063d80ffb201461065b578063dc7682fc14610686578063e985e9c5146106b1578063ec034bed146106ee576101c2565b8063b88d4fde146105a1578063b914a219146105ca578063c87b56dd146105f5578063d709815414610632576101c2565b806370a08231116100d157806370a08231146104e557806388103b191461052257806395d89b411461054d578063a22cb46514610578576101c2565b80636352211e146104525780636817c76c1461048f5780636beebc9a146104ba576101c2565b806323b872dd1161016457806342842e0e1161013e57806342842e0e146103845780634d54bb6d146103ad5780634f6ccce7146103ea5780635cbbd63514610427576101c2565b806323b872dd146102e15780632f745c591461030a5780633860a7eb14610347576101c2565b8063095ea7b3116101a0578063095ea7b31461026c5780630f18fc5e146102955780631249c58b146102ac57806318160ddd146102b6576101c2565b806301ffc9a7146101c757806306fdde0314610204578063081812fc1461022f575b600080fd5b3480156101d357600080fd5b506101ee60048036038101906101e991906135de565b610719565b6040516101fb9190613626565b60405180910390f35b34801561021057600080fd5b50610219610793565b60405161022691906136d1565b60405180910390f35b34801561023b57600080fd5b5061025660048036038101906102519190613729565b610825565b6040516102639190613797565b60405180910390f35b34801561027857600080fd5b50610293600480360381019061028e91906137de565b61086b565b005b3480156102a157600080fd5b506102aa610982565b005b6102b4610a5f565b005b3480156102c257600080fd5b506102cb610ba8565b6040516102d8919061382d565b60405180910390f35b3480156102ed57600080fd5b5061030860048036038101906103039190613848565b610bb5565b005b34801561031657600080fd5b50610331600480360381019061032c91906137de565b610c15565b60405161033e919061382d565b60405180910390f35b34801561035357600080fd5b5061036e60048036038101906103699190613729565b610cba565b60405161037b919061382d565b60405180910390f35b34801561039057600080fd5b506103ab60048036038101906103a69190613848565b610d36565b005b3480156103b957600080fd5b506103d460048036038101906103cf919061389b565b610d56565b6040516103e1919061382d565b60405180910390f35b3480156103f657600080fd5b50610411600480360381019061040c9190613729565b610e24565b60405161041e919061382d565b60405180910390f35b34801561043357600080fd5b5061043c610e95565b604051610449919061382d565b60405180910390f35b34801561045e57600080fd5b5061047960048036038101906104749190613729565b610e9b565b6040516104869190613797565b60405180910390f35b34801561049b57600080fd5b506104a4610f21565b6040516104b1919061382d565b60405180910390f35b3480156104c657600080fd5b506104cf610f27565b6040516104dc919061382d565b60405180910390f35b3480156104f157600080fd5b5061050c600480360381019061050791906138ee565b610f2d565b604051610519919061382d565b60405180910390f35b34801561052e57600080fd5b50610537610fe4565b6040516105449190613992565b60405180910390f35b34801561055957600080fd5b50610562610ff7565b60405161056f91906136d1565b60405180910390f35b34801561058457600080fd5b5061059f600480360381019061059a91906139d9565b611089565b005b3480156105ad57600080fd5b506105c860048036038101906105c39190613b4e565b61109f565b005b3480156105d657600080fd5b506105df611101565b6040516105ec919061382d565b60405180910390f35b34801561060157600080fd5b5061061c60048036038101906106179190613729565b611107565b60405161062991906136d1565b60405180910390f35b34801561063e57600080fd5b5061065960048036038101906106549190613729565b611269565b005b34801561066757600080fd5b506106706114a7565b60405161067d919061382d565b60405180910390f35b34801561069257600080fd5b5061069b61168d565b6040516106a89190613c8f565b60405180910390f35b3480156106bd57600080fd5b506106d860048036038101906106d39190613cb1565b61169e565b6040516106e59190613626565b60405180910390f35b3480156106fa57600080fd5b50610703611732565b6040516107109190613d12565b60405180910390f35b60007f780e9d63000000000000000000000000000000000000000000000000000000007bffffffffffffffffffffffffffffffffffffffffffffffffffffffff1916827bffffffffffffffffffffffffffffffffffffffffffffffffffffffff1916148061078c575061078b82611758565b5b9050919050565b6060600080546107a290613d5c565b80601f01602080910402602001604051908101604052809291908181526020018280546107ce90613d5c565b801561081b5780601f106107f05761010080835404028352916020019161081b565b820191906000526020600020905b8154815290600101906020018083116107fe57829003601f168201915b5050505050905090565b60006108308261183a565b6004600083815260200190815260200160002060009054906101000a900473ffffffffffffffffffffffffffffffffffffffff169050919050565b600061087682610e9b565b90508073ffffffffffffffffffffffffffffffffffffffff168373ffffffffffffffffffffffffffffffffffffffff16036108e6576040517f08c379a00000000000000000000000000000000000000000000000000000000081526004016108dd90613dff565b60405180910390fd5b8073ffffffffffffffffffffffffffffffffffffffff16610905611885565b73ffffffffffffffffffffffffffffffffffffffff16148061093457506109338161092e611885565b61169e565b5b610973576040517f08c379a000000000000000000000000000000000000000000000000000000000815260040161096a90613e91565b60405180910390fd5b61097d838361188d565b505050565b600060028111156109965761099561391b565b5b600a60009054906101000a900460ff1660028111156109b8576109b761391b565b5b146109c257600080fd5b600c544211610a06576040517f08c379a00000000000000000000000000000000000000000000000000000000081526004016109fd90613efd565b60405180910390fd5b6001600a60006101000a81548160ff02191690836002811115610a2c57610a2b61391b565b5b02179055507f0fd3215fb38f4c3605b0b32862733cc4671a5f0271e027bdb193b8e6f813eda060405160405180910390a1565b60006002811115610a7357610a7261391b565b5b600a60009054906101000a900460ff166002811115610a9557610a9461391b565b5b14610ad5576040517f08c379a0000000000000000000000000000000000000000000000000000000008152600401610acc90613f69565b60405180910390fd5b600b543414610b19576040517f08c379a0000000000000000000000000000000000000000000000000000000008152600401610b1090613fd5565b60405180910390fd5b6000610b23610ba8565b3342604051602001610b379392919061405e565b6040516020818303038152906040528051906020012060001c9050610b5b81611946565b15610b9b576040517f08c379a0000000000000000000000000000000000000000000000000000000008152600401610b92906140e7565b60405180910390fd5b610ba53382611ade565b50565b6000600880549050905090565b610bc6610bc0611885565b82611cfb565b610c05576040517f08c379a0000000000000000000000000000000000000000000000000000000008152600401610bfc90614179565b60405180910390fd5b610c10838383611d90565b505050565b6000610c2083610f2d565b8210610c61576040517f08c379a0000000000000000000000000000000000000000000000000000000008152600401610c589061420b565b60405180910390fd5b600660008473ffffffffffffffffffffffffffffffffffffffff1673ffffffffffffffffffffffffffffffffffffffff168152602001908152602001600020600083815260200190815260200160002054905092915050565b600080600090505b6003811015610d305760005b6009811015610d1c57610cf5610ce5858484610d56565b601061208990919063ffffffff16565b15610d09578280610d059061425a565b9350505b8080610d149061425a565b915050610cce565b508080610d289061425a565b915050610cc2565b50919050565b610d518383836040518060200160405280600081525061109f565b505050565b600080610d6e600386610d6991906142d1565b6120a3565b90506000818560038110610d8557610d84614302565b5b60200201518460098110610d9c57610d9b614302565b5b602002015103610db0576000915050610e1d565b600a818560038110610dc557610dc4614302565b5b60200201518460098110610ddc57610ddb614302565b5b602002015186610dec91906142d1565b610df691906142d1565b600a84610e039190614331565b6001610e0f9190614373565b610e199190614373565b9150505b9392505050565b6000610e2e610ba8565b8210610e6f576040517f08c379a0000000000000000000000000000000000000000000000000000000008152600401610e6690614419565b60405180910390fd5b60088281548110610e8357610e82614302565b5b90600052602060002001549050919050565b600e5481565b600080610ea78361268a565b9050600073ffffffffffffffffffffffffffffffffffffffff168173ffffffffffffffffffffffffffffffffffffffff1603610f18576040517f08c379a0000000000000000000000000000000000000000000000000000000008152600401610f0f90614485565b60405180910390fd5b80915050919050565b600b5481565b600d5481565b60008073ffffffffffffffffffffffffffffffffffffffff168273ffffffffffffffffffffffffffffffffffffffff1603610f9d576040517f08c379a0000000000000000000000000000000000000000000000000000000008152600401610f9490614517565b60405180910390fd5b600360008373ffffffffffffffffffffffffffffffffffffffff1673ffffffffffffffffffffffffffffffffffffffff168152602001908152602001600020549050919050565b600a60009054906101000a900460ff1681565b60606001805461100690613d5c565b80601f016020809104026020016040519081016040528092919081815260200182805461103290613d5c565b801561107f5780601f106110545761010080835404028352916020019161107f565b820191906000526020600020905b81548152906001019060200180831161106257829003601f168201915b5050505050905090565b61109b611094611885565b83836126c7565b5050565b6110b06110aa611885565b83611cfb565b6110ef576040517f08c379a00000000000000000000000000000000000000000000000000000000081526004016110e690614179565b60405180910390fd5b6110fb84848484612833565b50505050565b600c5481565b6060600073ffffffffffffffffffffffffffffffffffffffff1661112a83610e9b565b73ffffffffffffffffffffffffffffffffffffffff1603611180576040517f08c379a000000000000000000000000000000000000000000000000000000000815260040161117790614583565b60405180910390fd5b60007350BB01E3f4f135DF701a64Cb90b3d919895752D563cf348425846040518263ffffffff1660e01b81526004016111b991906145b2565b600060405180830381865af41580156111d6573d6000803e3d6000fd5b505050506040513d6000823e3d601f19601f820116820180604052508101906111ff919061466e565b9050600061123e61120e610793565b6112178661288f565b8460405160200161122a93929190614849565b60405160208183030381529060405261295d565b90508060405160200161125191906148f2565b60405160208183030381529060405292505050919050565b60028081111561127c5761127b61391b565b5b600a60009054906101000a900460ff16600281111561129e5761129d61391b565b5b036112de576040517f08c379a00000000000000000000000000000000000000000000000000000000081526004016112d590614960565b60405180910390fd5b6112e78161183a565b600f6112f282610cba565b14611332576040517f08c379a0000000000000000000000000000000000000000000000000000000008152600401611329906149cc565b60405180910390fd5b600f60009054906101000a900473ffffffffffffffffffffffffffffffffffffffff1673ffffffffffffffffffffffffffffffffffffffff1660024761137891906149ec565b60405161138490614a4e565b60006040518083038185875af1925050503d80600081146113c1576040519150601f19603f3d011682016040523d82523d6000602084013e6113c6565b606091505b50505060006113d482610e9b565b90508073ffffffffffffffffffffffffffffffffffffffff16476040516113fa90614a4e565b60006040518083038185875af1925050503d8060008114611437576040519150601f19603f3d011682016040523d82523d6000602084013e61143c565b606091505b5050506002600a60006101000a81548160ff021916908360028111156114655761146461391b565b5b02179055507fa4b43ab5bbc81d559aa9f631e943e395ce8c8fa955383fc3efdbec527832f5af828260405161149b929190614ac2565b60405180910390a15050565b6000600160028111156114bd576114bc61391b565b5b600a60009054906101000a900460ff1660028111156114df576114de61391b565b5b1461151f576040517f08c379a000000000000000000000000000000000000000000000000000000000815260040161151690614b37565b60405180910390fd5b600d54600e5461152f9190614373565b4211611570576040517f08c379a000000000000000000000000000000000000000000000000000000000815260040161156790614ba3565b60405180910390fd5b600080605a42448460405160200161158a93929190614bc3565b6040516020818303038152906040528051906020012060001c6115ad91906142d1565b60016115b99190614373565b90505b6115d081601061208990919063ffffffff16565b1561163257605a814244856040516020016115ee9493929190614c00565b6040516020818303038152906040528051906020012060001c61161191906142d1565b600161161d9190614373565b9050818061162a9061425a565b9250506115bc565b611646816010612ac090919063ffffffff16565b5042600e819055507f68789b491d2cf5ee4b99fd6ba64a152455c1360bcaec84c0016bf458d5e19cd58160405161167d919061382d565b60405180910390a1809250505090565b60606116996010612ada565b905090565b6000600560008473ffffffffffffffffffffffffffffffffffffffff1673ffffffffffffffffffffffffffffffffffffffff16815260200190815260200160002060008373ffffffffffffffffffffffffffffffffffffffff1673ffffffffffffffffffffffffffffffffffffffff16815260200190815260200160002060009054906101000a900460ff16905092915050565b600f60009054906101000a900473ffffffffffffffffffffffffffffffffffffffff1681565b60007f80ac58cd000000000000000000000000000000000000000000000000000000007bffffffffffffffffffffffffffffffffffffffffffffffffffffffff1916827bffffffffffffffffffffffffffffffffffffffffffffffffffffffff1916148061182357507f5b5e139f000000000000000000000000000000000000000000000000000000007bffffffffffffffffffffffffffffffffffffffffffffffffffffffff1916827bffffffffffffffffffffffffffffffffffffffffffffffffffffffff1916145b80611833575061183282612afb565b5b9050919050565b61184381612b65565b611882576040517f08c379a000000000000000000000000000000000000000000000000000000000815260040161187990614485565b60405180910390fd5b50565b600033905090565b816004600083815260200190815260200160002060006101000a81548173ffffffffffffffffffffffffffffffffffffffff021916908373ffffffffffffffffffffffffffffffffffffffff160217905550808273ffffffffffffffffffffffffffffffffffffffff1661190083610e9b565b73ffffffffffffffffffffffffffffffffffffffff167f8c5be1e5ebec7d5bd14f71427d1e84f3dd0314c0f7b2291e5b200ac8c7c3b92560405160405180910390a45050565b60008061195e60038461195991906142d1565b6120a3565b905060005b6003811015611ad25760005b6009811015611abe57600083836003811061198d5761198c614302565b5b602002015182600981106119a4576119a3614302565b5b60200201510315611aab5760005b6003811015611aa95760005b6009811015611a955760008583600381106119dc576119db614302565b5b602002015182600981106119f3576119f2614302565b5b60200201510315611a82578184148015611a0c57508083145b611a8257848260038110611a2357611a22614302565b5b60200201518160098110611a3a57611a39614302565b5b6020020151858560038110611a5257611a51614302565b5b60200201518460098110611a6957611a68614302565b5b602002015103611a8157600195505050505050611ad9565b5b8080611a8d9061425a565b9150506119be565b508080611aa19061425a565b9150506119b2565b505b8080611ab69061425a565b91505061196f565b508080611aca9061425a565b915050611963565b5060009150505b919050565b600073ffffffffffffffffffffffffffffffffffffffff168273ffffffffffffffffffffffffffffffffffffffff1603611b4d576040517f08c379a0000000000000000000000000000000000000000000000000000000008152600401611b4490614c9a565b60405180910390fd5b611b5681612b65565b15611b96576040517f08c379a0000000000000000000000000000000000000000000000000000000008152600401611b8d90614d06565b60405180910390fd5b611ba4600083836001612ba6565b611bad81612b65565b15611bed576040517f08c379a0000000000000000000000000000000000000000000000000000000008152600401611be490614d06565b60405180910390fd5b6001600360008473ffffffffffffffffffffffffffffffffffffffff1673ffffffffffffffffffffffffffffffffffffffff16815260200190815260200160002060008282540192505081905550816002600083815260200190815260200160002060006101000a81548173ffffffffffffffffffffffffffffffffffffffff021916908373ffffffffffffffffffffffffffffffffffffffff160217905550808273ffffffffffffffffffffffffffffffffffffffff16600073ffffffffffffffffffffffffffffffffffffffff167fddf252ad1be2c89b69c2b068fc378daa952ba7f163c4a11628f55a4df523b3ef60405160405180910390a4611cf7600083836001612d04565b5050565b600080611d0783610e9b565b90508073ffffffffffffffffffffffffffffffffffffffff168473ffffffffffffffffffffffffffffffffffffffff161480611d495750611d48818561169e565b5b80611d8757508373ffffffffffffffffffffffffffffffffffffffff16611d6f84610825565b73ffffffffffffffffffffffffffffffffffffffff16145b91505092915050565b8273ffffffffffffffffffffffffffffffffffffffff16611db082610e9b565b73ffffffffffffffffffffffffffffffffffffffff1614611e06576040517f08c379a0000000000000000000000000000000000000000000000000000000008152600401611dfd90614d98565b60405180910390fd5b600073ffffffffffffffffffffffffffffffffffffffff168273ffffffffffffffffffffffffffffffffffffffff1603611e75576040517f08c379a0000000000000000000000000000000000000000000000000000000008152600401611e6c90614e2a565b60405180910390fd5b611e828383836001612ba6565b8273ffffffffffffffffffffffffffffffffffffffff16611ea282610e9b565b73ffffffffffffffffffffffffffffffffffffffff1614611ef8576040517f08c379a0000000000000000000000000000000000000000000000000000000008152600401611eef90614d98565b60405180910390fd5b6004600082815260200190815260200160002060006101000a81549073ffffffffffffffffffffffffffffffffffffffff02191690556001600360008573ffffffffffffffffffffffffffffffffffffffff1673ffffffffffffffffffffffffffffffffffffffff168152602001908152602001600020600082825403925050819055506001600360008473ffffffffffffffffffffffffffffffffffffffff1673ffffffffffffffffffffffffffffffffffffffff16815260200190815260200160002060008282540192505081905550816002600083815260200190815260200160002060006101000a81548173ffffffffffffffffffffffffffffffffffffffff021916908373ffffffffffffffffffffffffffffffffffffffff160217905550808273ffffffffffffffffffffffffffffffffffffffff168473ffffffffffffffffffffffffffffffffffffffff167fddf252ad1be2c89b69c2b068fc378daa952ba7f163c4a11628f55a4df523b3ef60405160405180910390a46120848383836001612d04565b505050565b600061209b836000018360001b612d0a565b905092915050565b6120ab613522565b604051806060016040528060405180606001604052806040518061012001604052807001041cb03cc9a429d0ba9dcfd6f9b1e573815260200160008152602001700104fa4cadb1ccce7d8212c6b0d4a059cb8152602001700106e318bebcb9c00b946778fd08390727815260200160008152602001700107e4f779bc4492982e2df39f130e661b81526020016000815260200160008152602001700108af3a79e7a300983358ece79a90505581525081526020016040518061012001604052807001092022efa2a445649fe753f9ee1c17d3815260200160008152602001600081526020017001092d8ea3809c618f49530e0c27681225815260200170010b9220c451000de4cb39d092c57ead4f8152602001600081526020016000815260200170010e52782fbde7eba2249029cbdf9416e781526020017001123324dcd122e13ff1b12f8b5af3e587815250815260200160405180610120016040528060008152602001700112ff9432f310a2e7cad0ebb8928d69b3815260200160008152602001700113810731bfd6981998182518e1b53a7d8152602001600081526020017001165da004453f63c2f5cd11392057be69815260200170011aa0706713f8073e1baa96d1e09cbdc7815260200160008152602001700121d98c583eea67055b7b3036a6083f5f81525081525081526020016040518060600160405280604051806101200160405280600081526020017001123324dcd122e13ff1b12f8b5af3e587815260200170011aa0706713f8073e1baa96d1e09cbdc7815260200160008152602001600081526020016000815260200170010e52782fbde7eba2249029cbdf9416e78152602001700112ff9432f310a2e7cad0ebb8928d69b3815260200170010b9220c451000de4cb39d092c57ead4f8152508152602001604051806101200160405280700121d98c583eea67055b7b3036a6083f5f815260200160008152602001700108af3a79e7a300983358ece79a905055815260200160008152602001700113810731bfd6981998182518e1b53a7d81526020016000815260200160008152602001700107e4f779bc4492982e2df39f130e661b81526020017001165da004453f63c2f5cd11392057be69815250815260200160405180610120016040528060008152602001600081526020017001041cb03cc9a429d0ba9dcfd6f9b1e57381526020017001092022efa2a445649fe753f9ee1c17d3815260200160008152602001700104fa4cadb1ccce7d8212c6b0d4a059cb8152602001600081526020017001092d8ea3809c618f49530e0c276812258152602001700106e318bebcb9c00b946778fd08390727815250815250815260200160405180606001604052806040518061012001604052807001165da004453f63c2f5cd11392057be6981526020016000815260200160008152602001700121d98c583eea67055b7b3036a6083f5f81526020017001092022efa2a445649fe753f9ee1c17d38152602001600081526020017001092d8ea3809c618f49530e0c27681225815260200160008152602001700113810731bfd6981998182518e1b53a7d8152508152602001604051806101200160405280600081526020017001041cb03cc9a429d0ba9dcfd6f9b1e573815260200170011aa0706713f8073e1baa96d1e09cbdc7815260200160008152602001700104fa4cadb1ccce7d8212c6b0d4a059cb8152602001700106e318bebcb9c00b946778fd083907278152602001700112ff9432f310a2e7cad0ebb8928d69b38152602001600081526020016000815250815260200160405180610120016040528060008152602001700108af3a79e7a300983358ece79a9050558152602001700107e4f779bc4492982e2df39f130e661b815260200160008152602001600081526020017001123324dcd122e13ff1b12f8b5af3e587815260200170010b9220c451000de4cb39d092c57ead4f815260200170010e52782fbde7eba2249029cbdf9416e781526020016000815250815250815250826003811061267e5761267d614302565b5b60200201519050919050565b60006002600083815260200190815260200160002060009054906101000a900473ffffffffffffffffffffffffffffffffffffffff169050919050565b8173ffffffffffffffffffffffffffffffffffffffff168373ffffffffffffffffffffffffffffffffffffffff1603612735576040517f08c379a000000000000000000000000000000000000000000000000000000000815260040161272c90614e96565b60405180910390fd5b80600560008573ffffffffffffffffffffffffffffffffffffffff1673ffffffffffffffffffffffffffffffffffffffff16815260200190815260200160002060008473ffffffffffffffffffffffffffffffffffffffff1673ffffffffffffffffffffffffffffffffffffffff16815260200190815260200160002060006101000a81548160ff0219169083151502179055508173ffffffffffffffffffffffffffffffffffffffff168373ffffffffffffffffffffffffffffffffffffffff167f17307eab39ab6107e8899845ad3d59bd9653f200f220920489ca2b5937696c31836040516128269190613626565b60405180910390a3505050565b61283e848484611d90565b61284a84848484612d2d565b612889576040517f08c379a000000000000000000000000000000000000000000000000000000000815260040161288090614f28565b60405180910390fd5b50505050565b60606000600161289e84612eb4565b01905060008167ffffffffffffffff8111156128bd576128bc613a23565b5b6040519080825280601f01601f1916602001820160405280156128ef5781602001600182028036833780820191505090505b509050600082602001820190505b600115612952578080600190039150507f3031323334353637383961626364656600000000000000000000000000000000600a86061a8153600a8581612946576129456142a2565b5b049450600085036128fd575b819350505050919050565b6060600082510361297f57604051806020016040528060008152509050612abb565b600060405180606001604052806040815260200161512160409139905060006003600285516129ae9190614373565b6129b891906149ec565b60046129c49190614331565b67ffffffffffffffff8111156129dd576129dc613a23565b5b6040519080825280601f01601f191660200182016040528015612a0f5781602001600182028036833780820191505090505b509050600182016020820185865187015b80821015612a7b576003820191508151603f8160121c168501518453600184019350603f81600c1c168501518453600184019350603f8160061c168501518453600184019350603f8116850151845360018401935050612a20565b5050600386510660018114612a975760028114612aaa57612ab2565b603d6001830353603d6002830353612ab2565b603d60018303535b50505080925050505b919050565b6000612ad2836000018360001b613007565b905092915050565b60606000612aea83600001613077565b905060608190508092505050919050565b60007f01ffc9a7000000000000000000000000000000000000000000000000000000007bffffffffffffffffffffffffffffffffffffffffffffffffffffffff1916827bffffffffffffffffffffffffffffffffffffffffffffffffffffffff1916149050919050565b60008073ffffffffffffffffffffffffffffffffffffffff16612b878361268a565b73ffffffffffffffffffffffffffffffffffffffff1614159050919050565b612bb2848484846130d3565b6001811115612bf6576040517f08c379a0000000000000000000000000000000000000000000000000000000008152600401612bed90614fba565b60405180910390fd5b6000829050600073ffffffffffffffffffffffffffffffffffffffff168573ffffffffffffffffffffffffffffffffffffffff1603612c3d57612c38816131f9565b612c7c565b8373ffffffffffffffffffffffffffffffffffffffff168573ffffffffffffffffffffffffffffffffffffffff1614612c7b57612c7a8582613242565b5b5b600073ffffffffffffffffffffffffffffffffffffffff168473ffffffffffffffffffffffffffffffffffffffff1603612cbe57612cb9816133af565b612cfd565b8473ffffffffffffffffffffffffffffffffffffffff168473ffffffffffffffffffffffffffffffffffffffff1614612cfc57612cfb8482613480565b5b5b5050505050565b50505050565b600080836001016000848152602001908152602001600020541415905092915050565b6000612d4e8473ffffffffffffffffffffffffffffffffffffffff166134ff565b15612ea7578373ffffffffffffffffffffffffffffffffffffffff1663150b7a02612d77611885565b8786866040518563ffffffff1660e01b8152600401612d99949392919061502f565b6020604051808303816000875af1925050508015612dd557506040513d601f19601f82011682018060405250810190612dd29190615090565b60015b612e57573d8060008114612e05576040519150601f19603f3d011682016040523d82523d6000602084013e612e0a565b606091505b506000815103612e4f576040517f08c379a0000000000000000000000000000000000000000000000000000000008152600401612e4690614f28565b60405180910390fd5b805181602001fd5b63150b7a0260e01b7bffffffffffffffffffffffffffffffffffffffffffffffffffffffff1916817bffffffffffffffffffffffffffffffffffffffffffffffffffffffff191614915050612eac565b600190505b949350505050565b600080600090507a184f03e93ff9f4daa797ed6e38ed64bf6a1f0100000000000000008310612f12577a184f03e93ff9f4daa797ed6e38ed64bf6a1f0100000000000000008381612f0857612f076142a2565b5b0492506040810190505b6d04ee2d6d415b85acef81000000008310612f4f576d04ee2d6d415b85acef81000000008381612f4557612f446142a2565b5b0492506020810190505b662386f26fc100008310612f7e57662386f26fc100008381612f7457612f736142a2565b5b0492506010810190505b6305f5e1008310612fa7576305f5e1008381612f9d57612f9c6142a2565b5b0492506008810190505b6127108310612fcc576127108381612fc257612fc16142a2565b5b0492506004810190505b60648310612fef5760648381612fe557612fe46142a2565b5b0492506002810190505b600a8310612ffe576001810190505b80915050919050565b60006130138383612d0a565b61306c578260000182908060018154018082558091505060019003906000526020600020016000909190919091505582600001805490508360010160008481526020019081526020016000208190555060019050613071565b600090505b92915050565b6060816000018054806020026020016040519081016040528092919081815260200182805480156130c757602002820191906000526020600020905b8154815260200190600101908083116130b3575b50505050509050919050565b60018111156131f357600073ffffffffffffffffffffffffffffffffffffffff168473ffffffffffffffffffffffffffffffffffffffff16146131675780600360008673ffffffffffffffffffffffffffffffffffffffff1673ffffffffffffffffffffffffffffffffffffffff168152602001908152602001600020600082825461315f91906150bd565b925050819055505b600073ffffffffffffffffffffffffffffffffffffffff168373ffffffffffffffffffffffffffffffffffffffff16146131f25780600360008573ffffffffffffffffffffffffffffffffffffffff1673ffffffffffffffffffffffffffffffffffffffff16815260200190815260200160002060008282546131ea9190614373565b925050819055505b5b50505050565b6008805490506009600083815260200190815260200160002081905550600881908060018154018082558091505060019003906000526020600020016000909190919091505550565b6000600161324f84610f2d565b61325991906150bd565b905060006007600084815260200190815260200160002054905081811461333e576000600660008673ffffffffffffffffffffffffffffffffffffffff1673ffffffffffffffffffffffffffffffffffffffff168152602001908152602001600020600084815260200190815260200160002054905080600660008773ffffffffffffffffffffffffffffffffffffffff1673ffffffffffffffffffffffffffffffffffffffff168152602001908152602001600020600084815260200190815260200160002081905550816007600083815260200190815260200160002081905550505b6007600084815260200190815260200160002060009055600660008573ffffffffffffffffffffffffffffffffffffffff1673ffffffffffffffffffffffffffffffffffffffff16815260200190815260200160002060008381526020019081526020016000206000905550505050565b600060016008805490506133c391906150bd565b90506000600960008481526020019081526020016000205490506000600883815481106133f3576133f2614302565b5b90600052602060002001549050806008838154811061341557613414614302565b5b906000526020600020018190555081600960008381526020019081526020016000208190555060096000858152602001908152602001600020600090556008805480613464576134636150f1565b5b6001900381819060005260206000200160009055905550505050565b600061348b83610f2d565b905081600660008573ffffffffffffffffffffffffffffffffffffffff1673ffffffffffffffffffffffffffffffffffffffff168152602001908152602001600020600083815260200190815260200160002081905550806007600084815260200190815260200160002081905550505050565b6000808273ffffffffffffffffffffffffffffffffffffffff163b119050919050565b60405180606001604052806003905b61353961354f565b8152602001906001900390816135315790505090565b604051806101200160405280600990602082028036833780820191505090505090565b6000604051905090565b600080fd5b600080fd5b60007fffffffff0000000000000000000000000000000000000000000000000000000082169050919050565b6135bb81613586565b81146135c657600080fd5b50565b6000813590506135d8816135b2565b92915050565b6000602082840312156135f4576135f361357c565b5b6000613602848285016135c9565b91505092915050565b60008115159050919050565b6136208161360b565b82525050565b600060208201905061363b6000830184613617565b92915050565b600081519050919050565b600082825260208201905092915050565b60005b8381101561367b578082015181840152602081019050613660565b60008484015250505050565b6000601f19601f8301169050919050565b60006136a382613641565b6136ad818561364c565b93506136bd81856020860161365d565b6136c681613687565b840191505092915050565b600060208201905081810360008301526136eb8184613698565b905092915050565b6000819050919050565b613706816136f3565b811461371157600080fd5b50565b600081359050613723816136fd565b92915050565b60006020828403121561373f5761373e61357c565b5b600061374d84828501613714565b91505092915050565b600073ffffffffffffffffffffffffffffffffffffffff82169050919050565b600061378182613756565b9050919050565b61379181613776565b82525050565b60006020820190506137ac6000830184613788565b92915050565b6137bb81613776565b81146137c657600080fd5b50565b6000813590506137d8816137b2565b92915050565b600080604083850312156137f5576137f461357c565b5b6000613803858286016137c9565b925050602061381485828601613714565b9150509250929050565b613827816136f3565b82525050565b6000602082019050613842600083018461381e565b92915050565b6000806000606084860312156138615761386061357c565b5b600061386f868287016137c9565b9350506020613880868287016137c9565b925050604061389186828701613714565b9150509250925092565b6000806000606084860312156138b4576138b361357c565b5b60006138c286828701613714565b93505060206138d386828701613714565b92505060406138e486828701613714565b9150509250925092565b6000602082840312156139045761390361357c565b5b6000613912848285016137c9565b91505092915050565b7f4e487b7100000000000000000000000000000000000000000000000000000000600052602160045260246000fd5b6003811061395b5761395a61391b565b5b50565b600081905061396c8261394a565b919050565b600061397c8261395e565b9050919050565b61398c81613971565b82525050565b60006020820190506139a76000830184613983565b92915050565b6139b68161360b565b81146139c157600080fd5b50565b6000813590506139d3816139ad565b92915050565b600080604083850312156139f0576139ef61357c565b5b60006139fe858286016137c9565b9250506020613a0f858286016139c4565b9150509250929050565b600080fd5b600080fd5b7f4e487b7100000000000000000000000000000000000000000000000000000000600052604160045260246000fd5b613a5b82613687565b810181811067ffffffffffffffff82111715613a7a57613a79613a23565b5b80604052505050565b6000613a8d613572565b9050613a998282613a52565b919050565b600067ffffffffffffffff821115613ab957613ab8613a23565b5b613ac282613687565b9050602081019050919050565b82818337600083830152505050565b6000613af1613aec84613a9e565b613a83565b905082815260208101848484011115613b0d57613b0c613a1e565b5b613b18848285613acf565b509392505050565b600082601f830112613b3557613b34613a19565b5b8135613b45848260208601613ade565b91505092915050565b60008060008060808587031215613b6857613b6761357c565b5b6000613b76878288016137c9565b9450506020613b87878288016137c9565b9350506040613b9887828801613714565b925050606085013567ffffffffffffffff811115613bb957613bb8613581565b5b613bc587828801613b20565b91505092959194509250565b600081519050919050565b600082825260208201905092915050565b6000819050602082019050919050565b613c06816136f3565b82525050565b6000613c188383613bfd565b60208301905092915050565b6000602082019050919050565b6000613c3c82613bd1565b613c468185613bdc565b9350613c5183613bed565b8060005b83811015613c82578151613c698882613c0c565b9750613c7483613c24565b925050600181019050613c55565b5085935050505092915050565b60006020820190508181036000830152613ca98184613c31565b905092915050565b60008060408385031215613cc857613cc761357c565b5b6000613cd6858286016137c9565b9250506020613ce7858286016137c9565b9150509250929050565b6000613cfc82613756565b9050919050565b613d0c81613cf1565b82525050565b6000602082019050613d276000830184613d03565b92915050565b7f4e487b7100000000000000000000000000000000000000000000000000000000600052602260045260246000fd5b60006002820490506001821680613d7457607f821691505b602082108103613d8757613d86613d2d565b5b50919050565b7f4552433732313a20617070726f76616c20746f2063757272656e74206f776e6560008201527f7200000000000000000000000000000000000000000000000000000000000000602082015250565b6000613de960218361364c565b9150613df482613d8d565b604082019050919050565b60006020820190508181036000830152613e1881613ddc565b9050919050565b7f4552433732313a20617070726f76652063616c6c6572206973206e6f7420746f60008201527f6b656e206f776e6572206f7220617070726f76656420666f7220616c6c000000602082015250565b6000613e7b603d8361364c565b9150613e8682613e1f565b604082019050919050565b60006020820190508181036000830152613eaa81613e6e565b9050919050565b7f4974206973206e6f74206472617720706572696f642079657400000000000000600082015250565b6000613ee760198361364c565b9150613ef282613eb1565b602082019050919050565b60006020820190508181036000830152613f1681613eda565b9050919050565b7f4974206973206e6f74206d696e7420706572696f640000000000000000000000600082015250565b6000613f5360158361364c565b9150613f5e82613f1d565b602082019050919050565b60006020820190508181036000830152613f8281613f46565b9050919050565b7f496e636f7272656374207061796d656e7420616d6f756e740000000000000000600082015250565b6000613fbf60188361364c565b9150613fca82613f89565b602082019050919050565b60006020820190508181036000830152613fee81613fb2565b9050919050565b6000819050919050565b61401061400b826136f3565b613ff5565b82525050565b60008160601b9050919050565b600061402e82614016565b9050919050565b600061404082614023565b9050919050565b61405861405382613776565b614035565b82525050565b600061406a8286613fff565b60208201915061407a8285614047565b60148201915061408a8284613fff565b602082019150819050949350505050565b7f54686973206361726420686173206475706c6963617465206e756d6265727300600082015250565b60006140d1601f8361364c565b91506140dc8261409b565b602082019050919050565b60006020820190508181036000830152614100816140c4565b9050919050565b7f4552433732313a2063616c6c6572206973206e6f7420746f6b656e206f776e6560008201527f72206f7220617070726f76656400000000000000000000000000000000000000602082015250565b6000614163602d8361364c565b915061416e82614107565b604082019050919050565b6000602082019050818103600083015261419281614156565b9050919050565b7f455243373231456e756d657261626c653a206f776e657220696e646578206f7560008201527f74206f6620626f756e6473000000000000000000000000000000000000000000602082015250565b60006141f5602b8361364c565b915061420082614199565b604082019050919050565b60006020820190508181036000830152614224816141e8565b9050919050565b7f4e487b7100000000000000000000000000000000000000000000000000000000600052601160045260246000fd5b6000614265826136f3565b91507fffffffffffffffffffffffffffffffffffffffffffffffffffffffffffffffff82036142975761429661422b565b5b600182019050919050565b7f4e487b7100000000000000000000000000000000000000000000000000000000600052601260045260246000fd5b60006142dc826136f3565b91506142e7836136f3565b9250826142f7576142f66142a2565b5b828206905092915050565b7f4e487b7100000000000000000000000000000000000000000000000000000000600052603260045260246000fd5b600061433c826136f3565b9150614347836136f3565b9250828202614355816136f3565b9150828204841483151761436c5761436b61422b565b5b5092915050565b600061437e826136f3565b9150614389836136f3565b92508282019050808211156143a1576143a061422b565b5b92915050565b7f455243373231456e756d657261626c653a20676c6f62616c20696e646578206f60008201527f7574206f6620626f756e64730000000000000000000000000000000000000000602082015250565b6000614403602c8361364c565b915061440e826143a7565b604082019050919050565b60006020820190508181036000830152614432816143f6565b9050919050565b7f4552433732313a20696e76616c696420746f6b656e2049440000000000000000600082015250565b600061446f60188361364c565b915061447a82614439565b602082019050919050565b6000602082019050818103600083015261449e81614462565b9050919050565b7f4552433732313a2061646472657373207a65726f206973206e6f74206120766160008201527f6c6964206f776e65720000000000000000000000000000000000000000000000602082015250565b600061450160298361364c565b915061450c826144a5565b604082019050919050565b60006020820190508181036000830152614530816144f4565b9050919050565b7f494e56414c49445f544f4b454e5f494400000000000000000000000000000000600082015250565b600061456d60108361364c565b915061457882614537565b602082019050919050565b6000602082019050818103600083015261459c81614560565b9050919050565b6145ac816136f3565b82525050565b60006020820190506145c760008301846145a3565b92915050565b600067ffffffffffffffff8211156145e8576145e7613a23565b5b6145f182613687565b9050602081019050919050565b600061461161460c846145cd565b613a83565b90508281526020810184848401111561462d5761462c613a1e565b5b61463884828561365d565b509392505050565b600082601f83011261465557614654613a19565b5b81516146658482602086016145fe565b91505092915050565b6000602082840312156146845761468361357c565b5b600082015167ffffffffffffffff8111156146a2576146a1613581565b5b6146ae84828501614640565b91505092915050565b600081905092915050565b7f7b226e616d65223a202200000000000000000000000000000000000000000000600082015250565b60006146f8600a836146b7565b9150614703826146c2565b600a82019050919050565b600061471982613641565b61472381856146b7565b935061473381856020860161365d565b80840191505092915050565b7f2023000000000000000000000000000000000000000000000000000000000000600082015250565b60006147756002836146b7565b91506147808261473f565b600282019050919050565b7f222c20226465736372697074696f6e223a20222e2e2e222c2022696d6167652260008201527f3a20220000000000000000000000000000000000000000000000000000000000602082015250565b60006147e76023836146b7565b91506147f28261478b565b602382019050919050565b7f227d000000000000000000000000000000000000000000000000000000000000600082015250565b60006148336002836146b7565b915061483e826147fd565b600282019050919050565b6000614854826146eb565b9150614860828661470e565b915061486b82614768565b9150614877828561470e565b9150614882826147da565b915061488e828461470e565b915061489982614826565b9150819050949350505050565b7f646174613a6170706c69636174696f6e2f6a736f6e3b6261736536342c000000600082015250565b60006148dc601d836146b7565b91506148e7826148a6565b601d82019050919050565b60006148fd826148cf565b9150614909828461470e565b915081905092915050565b7f47616d65204f7665720000000000000000000000000000000000000000000000600082015250565b600061494a60098361364c565b915061495582614914565b602082019050919050565b600060208201905081810360008301526149798161493d565b9050919050565b7f494e454c494749424c4500000000000000000000000000000000000000000000600082015250565b60006149b6600a8361364c565b91506149c182614980565b602082019050919050565b600060208201905081810360008301526149e5816149a9565b9050919050565b60006149f7826136f3565b9150614a02836136f3565b925082614a1257614a116142a2565b5b828204905092915050565b600081905092915050565b50565b6000614a38600083614a1d565b9150614a4382614a28565b600082019050919050565b6000614a5982614a2b565b9150819050919050565b6000819050919050565b6000614a88614a83614a7e84613756565b614a63565b613756565b9050919050565b6000614a9a82614a6d565b9050919050565b6000614aac82614a8f565b9050919050565b614abc81614aa1565b82525050565b6000604082019050614ad7600083018561381e565b614ae46020830184614ab3565b9392505050565b7f4974206973206e6f74206472617720706572696f640000000000000000000000600082015250565b6000614b2160158361364c565b9150614b2c82614aeb565b602082019050919050565b60006020820190508181036000830152614b5081614b14565b9050919050565b7f4472617720746f6f20736f6f6e00000000000000000000000000000000000000600082015250565b6000614b8d600d8361364c565b9150614b9882614b57565b602082019050919050565b60006020820190508181036000830152614bbc81614b80565b9050919050565b6000614bcf8286613fff565b602082019150614bdf8285613fff565b602082019150614bef8284613fff565b602082019150819050949350505050565b6000614c0c8287613fff565b602082019150614c1c8286613fff565b602082019150614c2c8285613fff565b602082019150614c3c8284613fff565b60208201915081905095945050505050565b7f4552433732313a206d696e7420746f20746865207a65726f2061646472657373600082015250565b6000614c8460208361364c565b9150614c8f82614c4e565b602082019050919050565b60006020820190508181036000830152614cb381614c77565b9050919050565b7f4552433732313a20746f6b656e20616c7265616479206d696e74656400000000600082015250565b6000614cf0601c8361364c565b9150614cfb82614cba565b602082019050919050565b60006020820190508181036000830152614d1f81614ce3565b9050919050565b7f4552433732313a207472616e736665722066726f6d20696e636f72726563742060008201527f6f776e6572000000000000000000000000000000000000000000000000000000602082015250565b6000614d8260258361364c565b9150614d8d82614d26565b604082019050919050565b60006020820190508181036000830152614db181614d75565b9050919050565b7f4552433732313a207472616e7366657220746f20746865207a65726f2061646460008201527f7265737300000000000000000000000000000000000000000000000000000000602082015250565b6000614e1460248361364c565b9150614e1f82614db8565b604082019050919050565b60006020820190508181036000830152614e4381614e07565b9050919050565b7f4552433732313a20617070726f766520746f2063616c6c657200000000000000600082015250565b6000614e8060198361364c565b9150614e8b82614e4a565b602082019050919050565b60006020820190508181036000830152614eaf81614e73565b9050919050565b7f4552433732313a207472616e7366657220746f206e6f6e20455243373231526560008201527f63656976657220696d706c656d656e7465720000000000000000000000000000602082015250565b6000614f1260328361364c565b9150614f1d82614eb6565b604082019050919050565b60006020820190508181036000830152614f4181614f05565b9050919050565b7f455243373231456e756d657261626c653a20636f6e736563757469766520747260008201527f616e7366657273206e6f7420737570706f727465640000000000000000000000602082015250565b6000614fa460358361364c565b9150614faf82614f48565b604082019050919050565b60006020820190508181036000830152614fd381614f97565b9050919050565b600081519050919050565b600082825260208201905092915050565b600061500182614fda565b61500b8185614fe5565b935061501b81856020860161365d565b61502481613687565b840191505092915050565b60006080820190506150446000830187613788565b6150516020830186613788565b61505e604083018561381e565b81810360608301526150708184614ff6565b905095945050505050565b60008151905061508a816135b2565b92915050565b6000602082840312156150a6576150a561357c565b5b60006150b48482850161507b565b91505092915050565b60006150c8826136f3565b91506150d3836136f3565b92508282039050818111156150eb576150ea61422b565b5b92915050565b7f4e487b7100000000000000000000000000000000000000000000000000000000600052603160045260246000fdfe4142434445464748494a4b4c4d4e4f505152535455565758595a6162636465666768696a6b6c6d6e6f707172737475767778797a303132333435363738392b2fa26469706673582212205e03323ab6ddcb7b1b1207648d6f0e8d1fd4eb8875b1252ae2c090adf76e348864736f6c63430008110033",
  "deployedBytecode": "0x6080604052600436106101c25760003560e01c80636352211e116100f7578063b88d4fde11610095578063d80ffb2011610064578063d80ffb201461065b578063dc7682fc14610686578063e985e9c5146106b1578063ec034bed146106ee576101c2565b8063b88d4fde146105a1578063b914a219146105ca578063c87b56dd146105f5578063d709815414610632576101c2565b806370a08231116100d157806370a08231146104e557806388103b191461052257806395d89b411461054d578063a22cb46514610578576101c2565b80636352211e146104525780636817c76c1461048f5780636beebc9a146104ba576101c2565b806323b872dd1161016457806342842e0e1161013e57806342842e0e146103845780634d54bb6d146103ad5780634f6ccce7146103ea5780635cbbd63514610427576101c2565b806323b872dd146102e15780632f745c591461030a5780633860a7eb14610347576101c2565b8063095ea7b3116101a0578063095ea7b31461026c5780630f18fc5e146102955780631249c58b146102ac57806318160ddd146102b6576101c2565b806301ffc9a7146101c757806306fdde0314610204578063081812fc1461022f575b600080fd5b3480156101d357600080fd5b506101ee60048036038101906101e991906135de565b610719565b6040516101fb9190613626565b60405180910390f35b34801561021057600080fd5b50610219610793565b60405161022691906136d1565b60405180910390f35b34801561023b57600080fd5b5061025660048036038101906102519190613729565b610825565b6040516102639190613797565b60405180910390f35b34801561027857600080fd5b50610293600480360381019061028e91906137de565b61086b565b005b3480156102a157600080fd5b506102aa610982565b005b6102b4610a5f565b005b3480156102c257600080fd5b506102cb610ba8565b6040516102d8919061382d565b60405180910390f35b3480156102ed57600080fd5b5061030860048036038101906103039190613848565b610bb5565b005b34801561031657600080fd5b50610331600480360381019061032c91906137de565b610c15565b60405161033e919061382d565b60405180910390f35b34801561035357600080fd5b5061036e60048036038101906103699190613729565b610cba565b60405161037b919061382d565b60405180910390f35b34801561039057600080fd5b506103ab60048036038101906103a69190613848565b610d36565b005b3480156103b957600080fd5b506103d460048036038101906103cf919061389b565b610d56565b6040516103e1919061382d565b60405180910390f35b3480156103f657600080fd5b50610411600480360381019061040c9190613729565b610e24565b60405161041e919061382d565b60405180910390f35b34801561043357600080fd5b5061043c610e95565b604051610449919061382d565b60405180910390f35b34801561045e57600080fd5b5061047960048036038101906104749190613729565b610e9b565b6040516104869190613797565b60405180910390f35b34801561049b57600080fd5b506104a4610f21565b6040516104b1919061382d565b60405180910390f35b3480156104c657600080fd5b506104cf610f27565b6040516104dc919061382d565b60405180910390f35b3480156104f157600080fd5b5061050c600480360381019061050791906138ee565b610f2d565b604051610519919061382d565b60405180910390f35b34801561052e57600080fd5b50610537610fe4565b6040516105449190613992565b60405180910390f35b34801561055957600080fd5b50610562610ff7565b60405161056f91906136d1565b60405180910390f35b34801561058457600080fd5b5061059f600480360381019061059a91906139d9565b611089565b005b3480156105ad57600080fd5b506105c860048036038101906105c39190613b4e565b61109f565b005b3480156105d657600080fd5b506105df611101565b6040516105ec919061382d565b60405180910390f35b34801561060157600080fd5b5061061c60048036038101906106179190613729565b611107565b60405161062991906136d1565b60405180910390f35b34801561063e57600080fd5b5061065960048036038101906106549190613729565b611269565b005b34801561066757600080fd5b506106706114a7565b60405161067d919061382d565b60405180910390f35b34801561069257600080fd5b5061069b61168d565b6040516106a89190613c8f565b60405180910390f35b3480156106bd57600080fd5b506106d860048036038101906106d39190613cb1565b61169e565b6040516106e59190613626565b60405180910390f35b3480156106fa57600080fd5b50610703611732565b6040516107109190613d12565b60405180910390f35b60007f780e9d63000000000000000000000000000000000000000000000000000000007bffffffffffffffffffffffffffffffffffffffffffffffffffffffff1916827bffffffffffffffffffffffffffffffffffffffffffffffffffffffff1916148061078c575061078b82611758565b5b9050919050565b6060600080546107a290613d5c565b80601f01602080910402602001604051908101604052809291908181526020018280546107ce90613d5c565b801561081b5780601f106107f05761010080835404028352916020019161081b565b820191906000526020600020905b8154815290600101906020018083116107fe57829003601f168201915b5050505050905090565b60006108308261183a565b6004600083815260200190815260200160002060009054906101000a900473ffffffffffffffffffffffffffffffffffffffff169050919050565b600061087682610e9b565b90508073ffffffffffffffffffffffffffffffffffffffff168373ffffffffffffffffffffffffffffffffffffffff16036108e6576040517f08c379a00000000000000000000000000000000000000000000000000000000081526004016108dd90613dff565b60405180910390fd5b8073ffffffffffffffffffffffffffffffffffffffff16610905611885565b73ffffffffffffffffffffffffffffffffffffffff16148061093457506109338161092e611885565b61169e565b5b610973576040517f08c379a000000000000000000000000000000000000000000000000000000000815260040161096a90613e91565b60405180910390fd5b61097d838361188d565b505050565b600060028111156109965761099561391b565b5b600a60009054906101000a900460ff1660028111156109b8576109b761391b565b5b146109c257600080fd5b600c544211610a06576040517f08c379a00000000000000000000000000000000000000000000000000000000081526004016109fd90613efd565b60405180910390fd5b6001600a60006101000a81548160ff02191690836002811115610a2c57610a2b61391b565b5b02179055507f0fd3215fb38f4c3605b0b32862733cc4671a5f0271e027bdb193b8e6f813eda060405160405180910390a1565b60006002811115610a7357610a7261391b565b5b600a60009054906101000a900460ff166002811115610a9557610a9461391b565b5b14610ad5576040517f08c379a0000000000000000000000000000000000000000000000000000000008152600401610acc90613f69565b60405180910390fd5b600b543414610b19576040517f08c379a0000000000000000000000000000000000000000000000000000000008152600401610b1090613fd5565b60405180910390fd5b6000610b23610ba8565b3342604051602001610b379392919061405e565b6040516020818303038152906040528051906020012060001c9050610b5b81611946565b15610b9b576040517f08c379a0000000000000000000000000000000000000000000000000000000008152600401610b92906140e7565b60405180910390fd5b610ba53382611ade565b50565b6000600880549050905090565b610bc6610bc0611885565b82611cfb565b610c05576040517f08c379a0000000000000000000000000000000000000000000000000000000008152600401610bfc90614179565b60405180910390fd5b610c10838383611d90565b505050565b6000610c2083610f2d565b8210610c61576040517f08c379a0000000000000000000000000000000000000000000000000000000008152600401610c589061420b565b60405180910390fd5b600660008473ffffffffffffffffffffffffffffffffffffffff1673ffffffffffffffffffffffffffffffffffffffff168152602001908152602001600020600083815260200190815260200160002054905092915050565b600080600090505b6003811015610d305760005b6009811015610d1c57610cf5610ce5858484610d56565b601061208990919063ffffffff16565b15610d09578280610d059061425a565b9350505b8080610d149061425a565b915050610cce565b508080610d289061425a565b915050610cc2565b50919050565b610d518383836040518060200160405280600081525061109f565b505050565b600080610d6e600386610d6991906142d1565b6120a3565b90506000818560038110610d8557610d84614302565b5b60200201518460098110610d9c57610d9b614302565b5b602002015103610db0576000915050610e1d565b600a818560038110610dc557610dc4614302565b5b60200201518460098110610ddc57610ddb614302565b5b602002015186610dec91906142d1565b610df691906142d1565b600a84610e039190614331565b6001610e0f9190614373565b610e199190614373565b9150505b9392505050565b6000610e2e610ba8565b8210610e6f576040517f08c379a0000000000000000000000000000000000000000000000000000000008152600401610e6690614419565b60405180910390fd5b60088281548110610e8357610e82614302565b5b90600052602060002001549050919050565b600e5481565b600080610ea78361268a565b9050600073ffffffffffffffffffffffffffffffffffffffff168173ffffffffffffffffffffffffffffffffffffffff1603610f18576040517f08c379a0000000000000000000000000000000000000000000000000000000008152600401610f0f90614485565b60405180910390fd5b80915050919050565b600b5481565b600d5481565b60008073ffffffffffffffffffffffffffffffffffffffff168273ffffffffffffffffffffffffffffffffffffffff1603610f9d576040517f08c379a0000000000000000000000000000000000000000000000000000000008152600401610f9490614517565b60405180910390fd5b600360008373ffffffffffffffffffffffffffffffffffffffff1673ffffffffffffffffffffffffffffffffffffffff168152602001908152602001600020549050919050565b600a60009054906101000a900460ff1681565b60606001805461100690613d5c565b80601f016020809104026020016040519081016040528092919081815260200182805461103290613d5c565b801561107f5780601f106110545761010080835404028352916020019161107f565b820191906000526020600020905b81548152906001019060200180831161106257829003601f168201915b5050505050905090565b61109b611094611885565b83836126c7565b5050565b6110b06110aa611885565b83611cfb565b6110ef576040517f08c379a00000000000000000000000000000000000000000000000000000000081526004016110e690614179565b60405180910390fd5b6110fb84848484612833565b50505050565b600c5481565b6060600073ffffffffffffffffffffffffffffffffffffffff1661112a83610e9b565b73ffffffffffffffffffffffffffffffffffffffff1603611180576040517f08c379a000000000000000000000000000000000000000000000000000000000815260040161117790614583565b60405180910390fd5b600073__$30e7f3af1df0d5c2117966209794276f11$__63cf348425846040518263ffffffff1660e01b81526004016111b991906145b2565b600060405180830381865af41580156111d6573d6000803e3d6000fd5b505050506040513d6000823e3d601f19601f820116820180604052508101906111ff919061466e565b9050600061123e61120e610793565b6112178661288f565b8460405160200161122a93929190614849565b60405160208183030381529060405261295d565b90508060405160200161125191906148f2565b60405160208183030381529060405292505050919050565b60028081111561127c5761127b61391b565b5b600a60009054906101000a900460ff16600281111561129e5761129d61391b565b5b036112de576040517f08c379a00000000000000000000000000000000000000000000000000000000081526004016112d590614960565b60405180910390fd5b6112e78161183a565b600f6112f282610cba565b14611332576040517f08c379a0000000000000000000000000000000000000000000000000000000008152600401611329906149cc565b60405180910390fd5b600f60009054906101000a900473ffffffffffffffffffffffffffffffffffffffff1673ffffffffffffffffffffffffffffffffffffffff1660024761137891906149ec565b60405161138490614a4e565b60006040518083038185875af1925050503d80600081146113c1576040519150601f19603f3d011682016040523d82523d6000602084013e6113c6565b606091505b50505060006113d482610e9b565b90508073ffffffffffffffffffffffffffffffffffffffff16476040516113fa90614a4e565b60006040518083038185875af1925050503d8060008114611437576040519150601f19603f3d011682016040523d82523d6000602084013e61143c565b606091505b5050506002600a60006101000a81548160ff021916908360028111156114655761146461391b565b5b02179055507fa4b43ab5bbc81d559aa9f631e943e395ce8c8fa955383fc3efdbec527832f5af828260405161149b929190614ac2565b60405180910390a15050565b6000600160028111156114bd576114bc61391b565b5b600a60009054906101000a900460ff1660028111156114df576114de61391b565b5b1461151f576040517f08c379a000000000000000000000000000000000000000000000000000000000815260040161151690614b37565b60405180910390fd5b600d54600e5461152f9190614373565b4211611570576040517f08c379a000000000000000000000000000000000000000000000000000000000815260040161156790614ba3565b60405180910390fd5b600080605a42448460405160200161158a93929190614bc3565b6040516020818303038152906040528051906020012060001c6115ad91906142d1565b60016115b99190614373565b90505b6115d081601061208990919063ffffffff16565b1561163257605a814244856040516020016115ee9493929190614c00565b6040516020818303038152906040528051906020012060001c61161191906142d1565b600161161d9190614373565b9050818061162a9061425a565b9250506115bc565b611646816010612ac090919063ffffffff16565b5042600e819055507f68789b491d2cf5ee4b99fd6ba64a152455c1360bcaec84c0016bf458d5e19cd58160405161167d919061382d565b60405180910390a1809250505090565b60606116996010612ada565b905090565b6000600560008473ffffffffffffffffffffffffffffffffffffffff1673ffffffffffffffffffffffffffffffffffffffff16815260200190815260200160002060008373ffffffffffffffffffffffffffffffffffffffff1673ffffffffffffffffffffffffffffffffffffffff16815260200190815260200160002060009054906101000a900460ff16905092915050565b600f60009054906101000a900473ffffffffffffffffffffffffffffffffffffffff1681565b60007f80ac58cd000000000000000000000000000000000000000000000000000000007bffffffffffffffffffffffffffffffffffffffffffffffffffffffff1916827bffffffffffffffffffffffffffffffffffffffffffffffffffffffff1916148061182357507f5b5e139f000000000000000000000000000000000000000000000000000000007bffffffffffffffffffffffffffffffffffffffffffffffffffffffff1916827bffffffffffffffffffffffffffffffffffffffffffffffffffffffff1916145b80611833575061183282612afb565b5b9050919050565b61184381612b65565b611882576040517f08c379a000000000000000000000000000000000000000000000000000000000815260040161187990614485565b60405180910390fd5b50565b600033905090565b816004600083815260200190815260200160002060006101000a81548173ffffffffffffffffffffffffffffffffffffffff021916908373ffffffffffffffffffffffffffffffffffffffff160217905550808273ffffffffffffffffffffffffffffffffffffffff1661190083610e9b565b73ffffffffffffffffffffffffffffffffffffffff167f8c5be1e5ebec7d5bd14f71427d1e84f3dd0314c0f7b2291e5b200ac8c7c3b92560405160405180910390a45050565b60008061195e60038461195991906142d1565b6120a3565b905060005b6003811015611ad25760005b6009811015611abe57600083836003811061198d5761198c614302565b5b602002015182600981106119a4576119a3614302565b5b60200201510315611aab5760005b6003811015611aa95760005b6009811015611a955760008583600381106119dc576119db614302565b5b602002015182600981106119f3576119f2614302565b5b60200201510315611a82578184148015611a0c57508083145b611a8257848260038110611a2357611a22614302565b5b60200201518160098110611a3a57611a39614302565b5b6020020151858560038110611a5257611a51614302565b5b60200201518460098110611a6957611a68614302565b5b602002015103611a8157600195505050505050611ad9565b5b8080611a8d9061425a565b9150506119be565b508080611aa19061425a565b9150506119b2565b505b8080611ab69061425a565b91505061196f565b508080611aca9061425a565b915050611963565b5060009150505b919050565b600073ffffffffffffffffffffffffffffffffffffffff168273ffffffffffffffffffffffffffffffffffffffff1603611b4d576040517f08c379a0000000000000000000000000000000000000000000000000000000008152600401611b4490614c9a565b60405180910390fd5b611b5681612b65565b15611b96576040517f08c379a0000000000000000000000000000000000000000000000000000000008152600401611b8d90614d06565b60405180910390fd5b611ba4600083836001612ba6565b611bad81612b65565b15611bed576040517f08c379a0000000000000000000000000000000000000000000000000000000008152600401611be490614d06565b60405180910390fd5b6001600360008473ffffffffffffffffffffffffffffffffffffffff1673ffffffffffffffffffffffffffffffffffffffff16815260200190815260200160002060008282540192505081905550816002600083815260200190815260200160002060006101000a81548173ffffffffffffffffffffffffffffffffffffffff021916908373ffffffffffffffffffffffffffffffffffffffff160217905550808273ffffffffffffffffffffffffffffffffffffffff16600073ffffffffffffffffffffffffffffffffffffffff167fddf252ad1be2c89b69c2b068fc378daa952ba7f163c4a11628f55a4df523b3ef60405160405180910390a4611cf7600083836001612d04565b5050565b600080611d0783610e9b565b90508073ffffffffffffffffffffffffffffffffffffffff168473ffffffffffffffffffffffffffffffffffffffff161480611d495750611d48818561169e565b5b80611d8757508373ffffffffffffffffffffffffffffffffffffffff16611d6f84610825565b73ffffffffffffffffffffffffffffffffffffffff16145b91505092915050565b8273ffffffffffffffffffffffffffffffffffffffff16611db082610e9b565b73ffffffffffffffffffffffffffffffffffffffff1614611e06576040517f08c379a0000000000000000000000000000000000000000000000000000000008152600401611dfd90614d98565b60405180910390fd5b600073ffffffffffffffffffffffffffffffffffffffff168273ffffffffffffffffffffffffffffffffffffffff1603611e75576040517f08c379a0000000000000000000000000000000000000000000000000000000008152600401611e6c90614e2a565b60405180910390fd5b611e828383836001612ba6565b8273ffffffffffffffffffffffffffffffffffffffff16611ea282610e9b565b73ffffffffffffffffffffffffffffffffffffffff1614611ef8576040517f08c379a0000000000000000000000000000000000000000000000000000000008152600401611eef90614d98565b60405180910390fd5b6004600082815260200190815260200160002060006101000a81549073ffffffffffffffffffffffffffffffffffffffff02191690556001600360008573ffffffffffffffffffffffffffffffffffffffff1673ffffffffffffffffffffffffffffffffffffffff168152602001908152602001600020600082825403925050819055506001600360008473ffffffffffffffffffffffffffffffffffffffff1673ffffffffffffffffffffffffffffffffffffffff16815260200190815260200160002060008282540192505081905550816002600083815260200190815260200160002060006101000a81548173ffffffffffffffffffffffffffffffffffffffff021916908373ffffffffffffffffffffffffffffffffffffffff160217905550808273ffffffffffffffffffffffffffffffffffffffff168473ffffffffffffffffffffffffffffffffffffffff167fddf252ad1be2c89b69c2b068fc378daa952ba7f163c4a11628f55a4df523b3ef60405160405180910390a46120848383836001612d04565b505050565b600061209b836000018360001b612d0a565b905092915050565b6120ab613522565b604051806060016040528060405180606001604052806040518061012001604052807001041cb03cc9a429d0ba9dcfd6f9b1e573815260200160008152602001700104fa4cadb1ccce7d8212c6b0d4a059cb8152602001700106e318bebcb9c00b946778fd08390727815260200160008152602001700107e4f779bc4492982e2df39f130e661b81526020016000815260200160008152602001700108af3a79e7a300983358ece79a90505581525081526020016040518061012001604052807001092022efa2a445649fe753f9ee1c17d3815260200160008152602001600081526020017001092d8ea3809c618f49530e0c27681225815260200170010b9220c451000de4cb39d092c57ead4f8152602001600081526020016000815260200170010e52782fbde7eba2249029cbdf9416e781526020017001123324dcd122e13ff1b12f8b5af3e587815250815260200160405180610120016040528060008152602001700112ff9432f310a2e7cad0ebb8928d69b3815260200160008152602001700113810731bfd6981998182518e1b53a7d8152602001600081526020017001165da004453f63c2f5cd11392057be69815260200170011aa0706713f8073e1baa96d1e09cbdc7815260200160008152602001700121d98c583eea67055b7b3036a6083f5f81525081525081526020016040518060600160405280604051806101200160405280600081526020017001123324dcd122e13ff1b12f8b5af3e587815260200170011aa0706713f8073e1baa96d1e09cbdc7815260200160008152602001600081526020016000815260200170010e52782fbde7eba2249029cbdf9416e78152602001700112ff9432f310a2e7cad0ebb8928d69b3815260200170010b9220c451000de4cb39d092c57ead4f8152508152602001604051806101200160405280700121d98c583eea67055b7b3036a6083f5f815260200160008152602001700108af3a79e7a300983358ece79a905055815260200160008152602001700113810731bfd6981998182518e1b53a7d81526020016000815260200160008152602001700107e4f779bc4492982e2df39f130e661b81526020017001165da004453f63c2f5cd11392057be69815250815260200160405180610120016040528060008152602001600081526020017001041cb03cc9a429d0ba9dcfd6f9b1e57381526020017001092022efa2a445649fe753f9ee1c17d3815260200160008152602001700104fa4cadb1ccce7d8212c6b0d4a059cb8152602001600081526020017001092d8ea3809c618f49530e0c276812258152602001700106e318bebcb9c00b946778fd08390727815250815250815260200160405180606001604052806040518061012001604052807001165da004453f63c2f5cd11392057be6981526020016000815260200160008152602001700121d98c583eea67055b7b3036a6083f5f81526020017001092022efa2a445649fe753f9ee1c17d38152602001600081526020017001092d8ea3809c618f49530e0c27681225815260200160008152602001700113810731bfd6981998182518e1b53a7d8152508152602001604051806101200160405280600081526020017001041cb03cc9a429d0ba9dcfd6f9b1e573815260200170011aa0706713f8073e1baa96d1e09cbdc7815260200160008152602001700104fa4cadb1ccce7d8212c6b0d4a059cb8152602001700106e318bebcb9c00b946778fd083907278152602001700112ff9432f310a2e7cad0ebb8928d69b38152602001600081526020016000815250815260200160405180610120016040528060008152602001700108af3a79e7a300983358ece79a9050558152602001700107e4f779bc4492982e2df39f130e661b815260200160008152602001600081526020017001123324dcd122e13ff1b12f8b5af3e587815260200170010b9220c451000de4cb39d092c57ead4f815260200170010e52782fbde7eba2249029cbdf9416e781526020016000815250815250815250826003811061267e5761267d614302565b5b60200201519050919050565b60006002600083815260200190815260200160002060009054906101000a900473ffffffffffffffffffffffffffffffffffffffff169050919050565b8173ffffffffffffffffffffffffffffffffffffffff168373ffffffffffffffffffffffffffffffffffffffff1603612735576040517f08c379a000000000000000000000000000000000000000000000000000000000815260040161272c90614e96565b60405180910390fd5b80600560008573ffffffffffffffffffffffffffffffffffffffff1673ffffffffffffffffffffffffffffffffffffffff16815260200190815260200160002060008473ffffffffffffffffffffffffffffffffffffffff1673ffffffffffffffffffffffffffffffffffffffff16815260200190815260200160002060006101000a81548160ff0219169083151502179055508173ffffffffffffffffffffffffffffffffffffffff168373ffffffffffffffffffffffffffffffffffffffff167f17307eab39ab6107e8899845ad3d59bd9653f200f220920489ca2b5937696c31836040516128269190613626565b60405180910390a3505050565b61283e848484611d90565b61284a84848484612d2d565b612889576040517f08c379a000000000000000000000000000000000000000000000000000000000815260040161288090614f28565b60405180910390fd5b50505050565b60606000600161289e84612eb4565b01905060008167ffffffffffffffff8111156128bd576128bc613a23565b5b6040519080825280601f01601f1916602001820160405280156128ef5781602001600182028036833780820191505090505b509050600082602001820190505b600115612952578080600190039150507f3031323334353637383961626364656600000000000000000000000000000000600a86061a8153600a8581612946576129456142a2565b5b049450600085036128fd575b819350505050919050565b6060600082510361297f57604051806020016040528060008152509050612abb565b600060405180606001604052806040815260200161512160409139905060006003600285516129ae9190614373565b6129b891906149ec565b60046129c49190614331565b67ffffffffffffffff8111156129dd576129dc613a23565b5b6040519080825280601f01601f191660200182016040528015612a0f5781602001600182028036833780820191505090505b509050600182016020820185865187015b80821015612a7b576003820191508151603f8160121c168501518453600184019350603f81600c1c168501518453600184019350603f8160061c168501518453600184019350603f8116850151845360018401935050612a20565b5050600386510660018114612a975760028114612aaa57612ab2565b603d6001830353603d6002830353612ab2565b603d60018303535b50505080925050505b919050565b6000612ad2836000018360001b613007565b905092915050565b60606000612aea83600001613077565b905060608190508092505050919050565b60007f01ffc9a7000000000000000000000000000000000000000000000000000000007bffffffffffffffffffffffffffffffffffffffffffffffffffffffff1916827bffffffffffffffffffffffffffffffffffffffffffffffffffffffff1916149050919050565b60008073ffffffffffffffffffffffffffffffffffffffff16612b878361268a565b73ffffffffffffffffffffffffffffffffffffffff1614159050919050565b612bb2848484846130d3565b6001811115612bf6576040517f08c379a0000000000000000000000000000000000000000000000000000000008152600401612bed90614fba565b60405180910390fd5b6000829050600073ffffffffffffffffffffffffffffffffffffffff168573ffffffffffffffffffffffffffffffffffffffff1603612c3d57612c38816131f9565b612c7c565b8373ffffffffffffffffffffffffffffffffffffffff168573ffffffffffffffffffffffffffffffffffffffff1614612c7b57612c7a8582613242565b5b5b600073ffffffffffffffffffffffffffffffffffffffff168473ffffffffffffffffffffffffffffffffffffffff1603612cbe57612cb9816133af565b612cfd565b8473ffffffffffffffffffffffffffffffffffffffff168473ffffffffffffffffffffffffffffffffffffffff1614612cfc57612cfb8482613480565b5b5b5050505050565b50505050565b600080836001016000848152602001908152602001600020541415905092915050565b6000612d4e8473ffffffffffffffffffffffffffffffffffffffff166134ff565b15612ea7578373ffffffffffffffffffffffffffffffffffffffff1663150b7a02612d77611885565b8786866040518563ffffffff1660e01b8152600401612d99949392919061502f565b6020604051808303816000875af1925050508015612dd557506040513d601f19601f82011682018060405250810190612dd29190615090565b60015b612e57573d8060008114612e05576040519150601f19603f3d011682016040523d82523d6000602084013e612e0a565b606091505b506000815103612e4f576040517f08c379a0000000000000000000000000000000000000000000000000000000008152600401612e4690614f28565b60405180910390fd5b805181602001fd5b63150b7a0260e01b7bffffffffffffffffffffffffffffffffffffffffffffffffffffffff1916817bffffffffffffffffffffffffffffffffffffffffffffffffffffffff191614915050612eac565b600190505b949350505050565b600080600090507a184f03e93ff9f4daa797ed6e38ed64bf6a1f0100000000000000008310612f12577a184f03e93ff9f4daa797ed6e38ed64bf6a1f0100000000000000008381612f0857612f076142a2565b5b0492506040810190505b6d04ee2d6d415b85acef81000000008310612f4f576d04ee2d6d415b85acef81000000008381612f4557612f446142a2565b5b0492506020810190505b662386f26fc100008310612f7e57662386f26fc100008381612f7457612f736142a2565b5b0492506010810190505b6305f5e1008310612fa7576305f5e1008381612f9d57612f9c6142a2565b5b0492506008810190505b6127108310612fcc576127108381612fc257612fc16142a2565b5b0492506004810190505b60648310612fef5760648381612fe557612fe46142a2565b5b0492506002810190505b600a8310612ffe576001810190505b80915050919050565b60006130138383612d0a565b61306c578260000182908060018154018082558091505060019003906000526020600020016000909190919091505582600001805490508360010160008481526020019081526020016000208190555060019050613071565b600090505b92915050565b6060816000018054806020026020016040519081016040528092919081815260200182805480156130c757602002820191906000526020600020905b8154815260200190600101908083116130b3575b50505050509050919050565b60018111156131f357600073ffffffffffffffffffffffffffffffffffffffff168473ffffffffffffffffffffffffffffffffffffffff16146131675780600360008673ffffffffffffffffffffffffffffffffffffffff1673ffffffffffffffffffffffffffffffffffffffff168152602001908152602001600020600082825461315f91906150bd565b925050819055505b600073ffffffffffffffffffffffffffffffffffffffff168373ffffffffffffffffffffffffffffffffffffffff16146131f25780600360008573ffffffffffffffffffffffffffffffffffffffff1673ffffffffffffffffffffffffffffffffffffffff16815260200190815260200160002060008282546131ea9190614373565b925050819055505b5b50505050565b6008805490506009600083815260200190815260200160002081905550600881908060018154018082558091505060019003906000526020600020016000909190919091505550565b6000600161324f84610f2d565b61325991906150bd565b905060006007600084815260200190815260200160002054905081811461333e576000600660008673ffffffffffffffffffffffffffffffffffffffff1673ffffffffffffffffffffffffffffffffffffffff168152602001908152602001600020600084815260200190815260200160002054905080600660008773ffffffffffffffffffffffffffffffffffffffff1673ffffffffffffffffffffffffffffffffffffffff168152602001908152602001600020600084815260200190815260200160002081905550816007600083815260200190815260200160002081905550505b6007600084815260200190815260200160002060009055600660008573ffffffffffffffffffffffffffffffffffffffff1673ffffffffffffffffffffffffffffffffffffffff16815260200190815260200160002060008381526020019081526020016000206000905550505050565b600060016008805490506133c391906150bd565b90506000600960008481526020019081526020016000205490506000600883815481106133f3576133f2614302565b5b90600052602060002001549050806008838154811061341557613414614302565b5b906000526020600020018190555081600960008381526020019081526020016000208190555060096000858152602001908152602001600020600090556008805480613464576134636150f1565b5b6001900381819060005260206000200160009055905550505050565b600061348b83610f2d565b905081600660008573ffffffffffffffffffffffffffffffffffffffff1673ffffffffffffffffffffffffffffffffffffffff168152602001908152602001600020600083815260200190815260200160002081905550806007600084815260200190815260200160002081905550505050565b6000808273ffffffffffffffffffffffffffffffffffffffff163b119050919050565b60405180606001604052806003905b61353961354f565b8152602001906001900390816135315790505090565b604051806101200160405280600990602082028036833780820191505090505090565b6000604051905090565b600080fd5b600080fd5b60007fffffffff0000000000000000000000000000000000000000000000000000000082169050919050565b6135bb81613586565b81146135c657600080fd5b50565b6000813590506135d8816135b2565b92915050565b6000602082840312156135f4576135f361357c565b5b6000613602848285016135c9565b91505092915050565b60008115159050919050565b6136208161360b565b82525050565b600060208201905061363b6000830184613617565b92915050565b600081519050919050565b600082825260208201905092915050565b60005b8381101561367b578082015181840152602081019050613660565b60008484015250505050565b6000601f19601f8301169050919050565b60006136a382613641565b6136ad818561364c565b93506136bd81856020860161365d565b6136c681613687565b840191505092915050565b600060208201905081810360008301526136eb8184613698565b905092915050565b6000819050919050565b613706816136f3565b811461371157600080fd5b50565b600081359050613723816136fd565b92915050565b60006020828403121561373f5761373e61357c565b5b600061374d84828501613714565b91505092915050565b600073ffffffffffffffffffffffffffffffffffffffff82169050919050565b600061378182613756565b9050919050565b61379181613776565b82525050565b60006020820190506137ac6000830184613788565b92915050565b6137bb81613776565b81146137c657600080fd5b50565b6000813590506137d8816137b2565b92915050565b600080604083850312156137f5576137f461357c565b5b6000613803858286016137c9565b925050602061381485828601613714565b9150509250929050565b613827816136f3565b82525050565b6000602082019050613842600083018461381e565b92915050565b6000806000606084860312156138615761386061357c565b5b600061386f868287016137c9565b9350506020613880868287016137c9565b925050604061389186828701613714565b9150509250925092565b6000806000606084860312156138b4576138b361357c565b5b60006138c286828701613714565b93505060206138d386828701613714565b92505060406138e486828701613714565b9150509250925092565b6000602082840312156139045761390361357c565b5b6000613912848285016137c9565b91505092915050565b7f4e487b7100000000000000000000000000000000000000000000000000000000600052602160045260246000fd5b6003811061395b5761395a61391b565b5b50565b600081905061396c8261394a565b919050565b600061397c8261395e565b9050919050565b61398c81613971565b82525050565b60006020820190506139a76000830184613983565b92915050565b6139b68161360b565b81146139c157600080fd5b50565b6000813590506139d3816139ad565b92915050565b600080604083850312156139f0576139ef61357c565b5b60006139fe858286016137c9565b9250506020613a0f858286016139c4565b9150509250929050565b600080fd5b600080fd5b7f4e487b7100000000000000000000000000000000000000000000000000000000600052604160045260246000fd5b613a5b82613687565b810181811067ffffffffffffffff82111715613a7a57613a79613a23565b5b80604052505050565b6000613a8d613572565b9050613a998282613a52565b919050565b600067ffffffffffffffff821115613ab957613ab8613a23565b5b613ac282613687565b9050602081019050919050565b82818337600083830152505050565b6000613af1613aec84613a9e565b613a83565b905082815260208101848484011115613b0d57613b0c613a1e565b5b613b18848285613acf565b509392505050565b600082601f830112613b3557613b34613a19565b5b8135613b45848260208601613ade565b91505092915050565b60008060008060808587031215613b6857613b6761357c565b5b6000613b76878288016137c9565b9450506020613b87878288016137c9565b9350506040613b9887828801613714565b925050606085013567ffffffffffffffff811115613bb957613bb8613581565b5b613bc587828801613b20565b91505092959194509250565b600081519050919050565b600082825260208201905092915050565b6000819050602082019050919050565b613c06816136f3565b82525050565b6000613c188383613bfd565b60208301905092915050565b6000602082019050919050565b6000613c3c82613bd1565b613c468185613bdc565b9350613c5183613bed565b8060005b83811015613c82578151613c698882613c0c565b9750613c7483613c24565b925050600181019050613c55565b5085935050505092915050565b60006020820190508181036000830152613ca98184613c31565b905092915050565b60008060408385031215613cc857613cc761357c565b5b6000613cd6858286016137c9565b9250506020613ce7858286016137c9565b9150509250929050565b6000613cfc82613756565b9050919050565b613d0c81613cf1565b82525050565b6000602082019050613d276000830184613d03565b92915050565b7f4e487b7100000000000000000000000000000000000000000000000000000000600052602260045260246000fd5b60006002820490506001821680613d7457607f821691505b602082108103613d8757613d86613d2d565b5b50919050565b7f4552433732313a20617070726f76616c20746f2063757272656e74206f776e6560008201527f7200000000000000000000000000000000000000000000000000000000000000602082015250565b6000613de960218361364c565b9150613df482613d8d565b604082019050919050565b60006020820190508181036000830152613e1881613ddc565b9050919050565b7f4552433732313a20617070726f76652063616c6c6572206973206e6f7420746f60008201527f6b656e206f776e6572206f7220617070726f76656420666f7220616c6c000000602082015250565b6000613e7b603d8361364c565b9150613e8682613e1f565b604082019050919050565b60006020820190508181036000830152613eaa81613e6e565b9050919050565b7f4974206973206e6f74206472617720706572696f642079657400000000000000600082015250565b6000613ee760198361364c565b9150613ef282613eb1565b602082019050919050565b60006020820190508181036000830152613f1681613eda565b9050919050565b7f4974206973206e6f74206d696e7420706572696f640000000000000000000000600082015250565b6000613f5360158361364c565b9150613f5e82613f1d565b602082019050919050565b60006020820190508181036000830152613f8281613f46565b9050919050565b7f496e636f7272656374207061796d656e7420616d6f756e740000000000000000600082015250565b6000613fbf60188361364c565b9150613fca82613f89565b602082019050919050565b60006020820190508181036000830152613fee81613fb2565b9050919050565b6000819050919050565b61401061400b826136f3565b613ff5565b82525050565b60008160601b9050919050565b600061402e82614016565b9050919050565b600061404082614023565b9050919050565b61405861405382613776565b614035565b82525050565b600061406a8286613fff565b60208201915061407a8285614047565b60148201915061408a8284613fff565b602082019150819050949350505050565b7f54686973206361726420686173206475706c6963617465206e756d6265727300600082015250565b60006140d1601f8361364c565b91506140dc8261409b565b602082019050919050565b60006020820190508181036000830152614100816140c4565b9050919050565b7f4552433732313a2063616c6c6572206973206e6f7420746f6b656e206f776e6560008201527f72206f7220617070726f76656400000000000000000000000000000000000000602082015250565b6000614163602d8361364c565b915061416e82614107565b604082019050919050565b6000602082019050818103600083015261419281614156565b9050919050565b7f455243373231456e756d657261626c653a206f776e657220696e646578206f7560008201527f74206f6620626f756e6473000000000000000000000000000000000000000000602082015250565b60006141f5602b8361364c565b915061420082614199565b604082019050919050565b60006020820190508181036000830152614224816141e8565b9050919050565b7f4e487b7100000000000000000000000000000000000000000000000000000000600052601160045260246000fd5b6000614265826136f3565b91507fffffffffffffffffffffffffffffffffffffffffffffffffffffffffffffffff82036142975761429661422b565b5b600182019050919050565b7f4e487b7100000000000000000000000000000000000000000000000000000000600052601260045260246000fd5b60006142dc826136f3565b91506142e7836136f3565b9250826142f7576142f66142a2565b5b828206905092915050565b7f4e487b7100000000000000000000000000000000000000000000000000000000600052603260045260246000fd5b600061433c826136f3565b9150614347836136f3565b9250828202614355816136f3565b9150828204841483151761436c5761436b61422b565b5b5092915050565b600061437e826136f3565b9150614389836136f3565b92508282019050808211156143a1576143a061422b565b5b92915050565b7f455243373231456e756d657261626c653a20676c6f62616c20696e646578206f60008201527f7574206f6620626f756e64730000000000000000000000000000000000000000602082015250565b6000614403602c8361364c565b915061440e826143a7565b604082019050919050565b60006020820190508181036000830152614432816143f6565b9050919050565b7f4552433732313a20696e76616c696420746f6b656e2049440000000000000000600082015250565b600061446f60188361364c565b915061447a82614439565b602082019050919050565b6000602082019050818103600083015261449e81614462565b9050919050565b7f4552433732313a2061646472657373207a65726f206973206e6f74206120766160008201527f6c6964206f776e65720000000000000000000000000000000000000000000000602082015250565b600061450160298361364c565b915061450c826144a5565b604082019050919050565b60006020820190508181036000830152614530816144f4565b9050919050565b7f494e56414c49445f544f4b454e5f494400000000000000000000000000000000600082015250565b600061456d60108361364c565b915061457882614537565b602082019050919050565b6000602082019050818103600083015261459c81614560565b9050919050565b6145ac816136f3565b82525050565b60006020820190506145c760008301846145a3565b92915050565b600067ffffffffffffffff8211156145e8576145e7613a23565b5b6145f182613687565b9050602081019050919050565b600061461161460c846145cd565b613a83565b90508281526020810184848401111561462d5761462c613a1e565b5b61463884828561365d565b509392505050565b600082601f83011261465557614654613a19565b5b81516146658482602086016145fe565b91505092915050565b6000602082840312156146845761468361357c565b5b600082015167ffffffffffffffff8111156146a2576146a1613581565b5b6146ae84828501614640565b91505092915050565b600081905092915050565b7f7b226e616d65223a202200000000000000000000000000000000000000000000600082015250565b60006146f8600a836146b7565b9150614703826146c2565b600a82019050919050565b600061471982613641565b61472381856146b7565b935061473381856020860161365d565b80840191505092915050565b7f2023000000000000000000000000000000000000000000000000000000000000600082015250565b60006147756002836146b7565b91506147808261473f565b600282019050919050565b7f222c20226465736372697074696f6e223a20222e2e2e222c2022696d6167652260008201527f3a20220000000000000000000000000000000000000000000000000000000000602082015250565b60006147e76023836146b7565b91506147f28261478b565b602382019050919050565b7f227d000000000000000000000000000000000000000000000000000000000000600082015250565b60006148336002836146b7565b915061483e826147fd565b600282019050919050565b6000614854826146eb565b9150614860828661470e565b915061486b82614768565b9150614877828561470e565b9150614882826147da565b915061488e828461470e565b915061489982614826565b9150819050949350505050565b7f646174613a6170706c69636174696f6e2f6a736f6e3b6261736536342c000000600082015250565b60006148dc601d836146b7565b91506148e7826148a6565b601d82019050919050565b60006148fd826148cf565b9150614909828461470e565b915081905092915050565b7f47616d65204f7665720000000000000000000000000000000000000000000000600082015250565b600061494a60098361364c565b915061495582614914565b602082019050919050565b600060208201905081810360008301526149798161493d565b9050919050565b7f494e454c494749424c4500000000000000000000000000000000000000000000600082015250565b60006149b6600a8361364c565b91506149c182614980565b602082019050919050565b600060208201905081810360008301526149e5816149a9565b9050919050565b60006149f7826136f3565b9150614a02836136f3565b925082614a1257614a116142a2565b5b828204905092915050565b600081905092915050565b50565b6000614a38600083614a1d565b9150614a4382614a28565b600082019050919050565b6000614a5982614a2b565b9150819050919050565b6000819050919050565b6000614a88614a83614a7e84613756565b614a63565b613756565b9050919050565b6000614a9a82614a6d565b9050919050565b6000614aac82614a8f565b9050919050565b614abc81614aa1565b82525050565b6000604082019050614ad7600083018561381e565b614ae46020830184614ab3565b9392505050565b7f4974206973206e6f74206472617720706572696f640000000000000000000000600082015250565b6000614b2160158361364c565b9150614b2c82614aeb565b602082019050919050565b60006020820190508181036000830152614b5081614b14565b9050919050565b7f4472617720746f6f20736f6f6e00000000000000000000000000000000000000600082015250565b6000614b8d600d8361364c565b9150614b9882614b57565b602082019050919050565b60006020820190508181036000830152614bbc81614b80565b9050919050565b6000614bcf8286613fff565b602082019150614bdf8285613fff565b602082019150614bef8284613fff565b602082019150819050949350505050565b6000614c0c8287613fff565b602082019150614c1c8286613fff565b602082019150614c2c8285613fff565b602082019150614c3c8284613fff565b60208201915081905095945050505050565b7f4552433732313a206d696e7420746f20746865207a65726f2061646472657373600082015250565b6000614c8460208361364c565b9150614c8f82614c4e565b602082019050919050565b60006020820190508181036000830152614cb381614c77565b9050919050565b7f4552433732313a20746f6b656e20616c7265616479206d696e74656400000000600082015250565b6000614cf0601c8361364c565b9150614cfb82614cba565b602082019050919050565b60006020820190508181036000830152614d1f81614ce3565b9050919050565b7f4552433732313a207472616e736665722066726f6d20696e636f72726563742060008201527f6f776e6572000000000000000000000000000000000000000000000000000000602082015250565b6000614d8260258361364c565b9150614d8d82614d26565b604082019050919050565b60006020820190508181036000830152614db181614d75565b9050919050565b7f4552433732313a207472616e7366657220746f20746865207a65726f2061646460008201527f7265737300000000000000000000000000000000000000000000000000000000602082015250565b6000614e1460248361364c565b9150614e1f82614db8565b604082019050919050565b60006020820190508181036000830152614e4381614e07565b9050919050565b7f4552433732313a20617070726f766520746f2063616c6c657200000000000000600082015250565b6000614e8060198361364c565b9150614e8b82614e4a565b602082019050919050565b60006020820190508181036000830152614eaf81614e73565b9050919050565b7f4552433732313a207472616e7366657220746f206e6f6e20455243373231526560008201527f63656976657220696d706c656d656e7465720000000000000000000000000000602082015250565b6000614f1260328361364c565b9150614f1d82614eb6565b604082019050919050565b60006020820190508181036000830152614f4181614f05565b9050919050565b7f455243373231456e756d657261626c653a20636f6e736563757469766520747260008201527f616e7366657273206e6f7420737570706f727465640000000000000000000000602082015250565b6000614fa460358361364c565b9150614faf82614f48565b604082019050919050565b60006020820190508181036000830152614fd381614f97565b9050919050565b600081519050919050565b600082825260208201905092915050565b600061500182614fda565b61500b8185614fe5565b935061501b81856020860161365d565b61502481613687565b840191505092915050565b60006080820190506150446000830187613788565b6150516020830186613788565b61505e604083018561381e565b81810360608301526150708184614ff6565b905095945050505050565b60008151905061508a816135b2565b92915050565b6000602082840312156150a6576150a561357c565b5b60006150b48482850161507b565b91505092915050565b60006150c8826136f3565b91506150d3836136f3565b92508282039050818111156150eb576150ea61422b565b5b92915050565b7f4e487b7100000000000000000000000000000000000000000000000000000000600052603160045260246000fdfe4142434445464748494a4b4c4d4e4f505152535455565758595a6162636465666768696a6b6c6d6e6f707172737475767778797a303132333435363738392b2fa26469706673582212205e03323ab6ddcb7b1b1207648d6f0e8d1fd4eb8875b1252ae2c090adf76e348864736f6c63430008110033",
  "libraries": {
    "URI": "0x50BB01E3f4f135DF701a64Cb90b3d919895752D5"
  },
  "devdoc": {
    "kind": "dev",
    "methods": {
      "approve(address,uint256)": {
        "details": "See {IERC721-approve}."
      },
      "balanceOf(address)": {
        "details": "See {IERC721-balanceOf}."
      },
      "getApproved(uint256)": {
        "details": "See {IERC721-getApproved}."
      },
      "isApprovedForAll(address,address)": {
        "details": "See {IERC721-isApprovedForAll}."
      },
      "name()": {
        "details": "See {IERC721Metadata-name}."
      },
      "ownerOf(uint256)": {
        "details": "See {IERC721-ownerOf}."
      },
      "safeTransferFrom(address,address,uint256)": {
        "details": "See {IERC721-safeTransferFrom}."
      },
      "safeTransferFrom(address,address,uint256,bytes)": {
        "details": "See {IERC721-safeTransferFrom}."
      },
      "setApprovalForAll(address,bool)": {
        "details": "See {IERC721-setApprovalForAll}."
      },
      "supportsInterface(bytes4)": {
        "details": "See {IERC165-supportsInterface}."
      },
      "symbol()": {
        "details": "See {IERC721Metadata-symbol}."
      },
      "tokenByIndex(uint256)": {
        "details": "See {IERC721Enumerable-tokenByIndex}."
      },
      "tokenOfOwnerByIndex(address,uint256)": {
        "details": "See {IERC721Enumerable-tokenOfOwnerByIndex}."
      },
      "tokenURI(uint256)": {
        "details": "See {IERC721Metadata-tokenURI}."
      },
      "totalSupply()": {
        "details": "See {IERC721Enumerable-totalSupply}."
      },
      "transferFrom(address,address,uint256)": {
        "details": "See {IERC721-transferFrom}."
      }
    },
    "version": 1
  },
  "userdoc": {
    "kind": "user",
    "methods": {},
    "version": 1
  },
  "storageLayout": {
    "storage": [
      {
        "astId": 25,
        "contract": "contracts/RegenBingo.sol:RegenBingo",
        "label": "_name",
        "offset": 0,
        "slot": "0",
        "type": "t_string_storage"
      },
      {
        "astId": 27,
        "contract": "contracts/RegenBingo.sol:RegenBingo",
        "label": "_symbol",
        "offset": 0,
        "slot": "1",
        "type": "t_string_storage"
      },
      {
        "astId": 31,
        "contract": "contracts/RegenBingo.sol:RegenBingo",
        "label": "_owners",
        "offset": 0,
        "slot": "2",
        "type": "t_mapping(t_uint256,t_address)"
      },
      {
        "astId": 35,
        "contract": "contracts/RegenBingo.sol:RegenBingo",
        "label": "_balances",
        "offset": 0,
        "slot": "3",
        "type": "t_mapping(t_address,t_uint256)"
      },
      {
        "astId": 39,
        "contract": "contracts/RegenBingo.sol:RegenBingo",
        "label": "_tokenApprovals",
        "offset": 0,
        "slot": "4",
        "type": "t_mapping(t_uint256,t_address)"
      },
      {
        "astId": 45,
        "contract": "contracts/RegenBingo.sol:RegenBingo",
        "label": "_operatorApprovals",
        "offset": 0,
        "slot": "5",
        "type": "t_mapping(t_address,t_mapping(t_address,t_bool))"
      },
      {
        "astId": 1093,
        "contract": "contracts/RegenBingo.sol:RegenBingo",
        "label": "_ownedTokens",
        "offset": 0,
        "slot": "6",
        "type": "t_mapping(t_address,t_mapping(t_uint256,t_uint256))"
      },
      {
        "astId": 1097,
        "contract": "contracts/RegenBingo.sol:RegenBingo",
        "label": "_ownedTokensIndex",
        "offset": 0,
        "slot": "7",
        "type": "t_mapping(t_uint256,t_uint256)"
      },
      {
        "astId": 1100,
        "contract": "contracts/RegenBingo.sol:RegenBingo",
        "label": "_allTokens",
        "offset": 0,
        "slot": "8",
        "type": "t_array(t_uint256)dyn_storage"
      },
      {
        "astId": 1104,
        "contract": "contracts/RegenBingo.sol:RegenBingo",
        "label": "_allTokensIndex",
        "offset": 0,
        "slot": "9",
        "type": "t_mapping(t_uint256,t_uint256)"
      },
      {
        "astId": 3650,
        "contract": "contracts/RegenBingo.sol:RegenBingo",
        "label": "bingoState",
        "offset": 0,
        "slot": "10",
        "type": "t_enum(BingoState)3599"
      },
      {
        "astId": 3652,
        "contract": "contracts/RegenBingo.sol:RegenBingo",
        "label": "mintPrice",
        "offset": 0,
        "slot": "11",
        "type": "t_uint256"
      },
      {
        "astId": 3654,
        "contract": "contracts/RegenBingo.sol:RegenBingo",
        "label": "drawTimestamp",
        "offset": 0,
        "slot": "12",
        "type": "t_uint256"
      },
      {
        "astId": 3656,
        "contract": "contracts/RegenBingo.sol:RegenBingo",
        "label": "drawNumberCooldownSeconds",
        "offset": 0,
        "slot": "13",
        "type": "t_uint256"
      },
      {
        "astId": 3658,
        "contract": "contracts/RegenBingo.sol:RegenBingo",
        "label": "lastDrawTime",
        "offset": 0,
        "slot": "14",
        "type": "t_uint256"
      },
      {
        "astId": 3660,
        "contract": "contracts/RegenBingo.sol:RegenBingo",
        "label": "donationAddress",
        "offset": 0,
        "slot": "15",
        "type": "t_address_payable"
      },
      {
        "astId": 3663,
        "contract": "contracts/RegenBingo.sol:RegenBingo",
        "label": "drawnNumbers",
        "offset": 0,
        "slot": "16",
        "type": "t_struct(UintSet)3448_storage"
      }
    ],
    "types": {
      "t_address": {
        "encoding": "inplace",
        "label": "address",
        "numberOfBytes": "20"
      },
      "t_address_payable": {
        "encoding": "inplace",
        "label": "address payable",
        "numberOfBytes": "20"
      },
      "t_array(t_bytes32)dyn_storage": {
        "base": "t_bytes32",
        "encoding": "dynamic_array",
        "label": "bytes32[]",
        "numberOfBytes": "32"
      },
      "t_array(t_uint256)dyn_storage": {
        "base": "t_uint256",
        "encoding": "dynamic_array",
        "label": "uint256[]",
        "numberOfBytes": "32"
      },
      "t_bool": {
        "encoding": "inplace",
        "label": "bool",
        "numberOfBytes": "1"
      },
      "t_bytes32": {
        "encoding": "inplace",
        "label": "bytes32",
        "numberOfBytes": "32"
      },
      "t_enum(BingoState)3599": {
        "encoding": "inplace",
        "label": "enum RegenBingo.BingoState",
        "numberOfBytes": "1"
      },
      "t_mapping(t_address,t_bool)": {
        "encoding": "mapping",
        "key": "t_address",
        "label": "mapping(address => bool)",
        "numberOfBytes": "32",
        "value": "t_bool"
      },
      "t_mapping(t_address,t_mapping(t_address,t_bool))": {
        "encoding": "mapping",
        "key": "t_address",
        "label": "mapping(address => mapping(address => bool))",
        "numberOfBytes": "32",
        "value": "t_mapping(t_address,t_bool)"
      },
      "t_mapping(t_address,t_mapping(t_uint256,t_uint256))": {
        "encoding": "mapping",
        "key": "t_address",
        "label": "mapping(address => mapping(uint256 => uint256))",
        "numberOfBytes": "32",
        "value": "t_mapping(t_uint256,t_uint256)"
      },
      "t_mapping(t_address,t_uint256)": {
        "encoding": "mapping",
        "key": "t_address",
        "label": "mapping(address => uint256)",
        "numberOfBytes": "32",
        "value": "t_uint256"
      },
      "t_mapping(t_bytes32,t_uint256)": {
        "encoding": "mapping",
        "key": "t_bytes32",
        "label": "mapping(bytes32 => uint256)",
        "numberOfBytes": "32",
        "value": "t_uint256"
      },
      "t_mapping(t_uint256,t_address)": {
        "encoding": "mapping",
        "key": "t_uint256",
        "label": "mapping(uint256 => address)",
        "numberOfBytes": "32",
        "value": "t_address"
      },
      "t_mapping(t_uint256,t_uint256)": {
        "encoding": "mapping",
        "key": "t_uint256",
        "label": "mapping(uint256 => uint256)",
        "numberOfBytes": "32",
        "value": "t_uint256"
      },
      "t_string_storage": {
        "encoding": "bytes",
        "label": "string",
        "numberOfBytes": "32"
      },
      "t_struct(Set)2976_storage": {
        "encoding": "inplace",
        "label": "struct EnumerableSet.Set",
        "members": [
          {
            "astId": 2971,
            "contract": "contracts/RegenBingo.sol:RegenBingo",
            "label": "_values",
            "offset": 0,
            "slot": "0",
            "type": "t_array(t_bytes32)dyn_storage"
          },
          {
            "astId": 2975,
            "contract": "contracts/RegenBingo.sol:RegenBingo",
            "label": "_indexes",
            "offset": 0,
            "slot": "1",
            "type": "t_mapping(t_bytes32,t_uint256)"
          }
        ],
        "numberOfBytes": "64"
      },
      "t_struct(UintSet)3448_storage": {
        "encoding": "inplace",
        "label": "struct EnumerableSet.UintSet",
        "members": [
          {
            "astId": 3447,
            "contract": "contracts/RegenBingo.sol:RegenBingo",
            "label": "_inner",
            "offset": 0,
            "slot": "0",
            "type": "t_struct(Set)2976_storage"
          }
        ],
        "numberOfBytes": "64"
      },
      "t_uint256": {
        "encoding": "inplace",
        "label": "uint256",
        "numberOfBytes": "32"
      }
    }
  }
}