{
  "address": "0xFB9dc0A8858F802C90453C776C3Be2cE85197A90",
  "abi": [
    {
      "inputs": [
        {
          "internalType": "string",
          "name": "_name",
          "type": "string"
        },
        {
          "internalType": "string",
          "name": "_symbol",
          "type": "string"
        },
        {
          "internalType": "uint256",
          "name": "_mintPrice",
          "type": "uint256"
        },
        {
          "internalType": "uint256",
          "name": "_drawTimestamp",
          "type": "uint256"
        },
        {
          "internalType": "uint256",
          "name": "_drawNumberCooldownSeconds",
          "type": "uint256"
        },
        {
          "internalType": "address payable",
          "name": "_donationAddress",
          "type": "address"
        },
        {
          "internalType": "address",
          "name": "_metadataGenerator",
          "type": "address"
        }
      ],
      "stateMutability": "nonpayable",
      "type": "constructor"
    },
    {
      "anonymous": false,
      "inputs": [
        {
          "indexed": true,
          "internalType": "address",
          "name": "owner",
          "type": "address"
        },
        {
          "indexed": true,
          "internalType": "address",
          "name": "approved",
          "type": "address"
        },
        {
          "indexed": true,
          "internalType": "uint256",
          "name": "tokenId",
          "type": "uint256"
        }
      ],
      "name": "Approval",
      "type": "event"
    },
    {
      "anonymous": false,
      "inputs": [
        {
          "indexed": true,
          "internalType": "address",
          "name": "owner",
          "type": "address"
        },
        {
          "indexed": true,
          "internalType": "address",
          "name": "operator",
          "type": "address"
        },
        {
          "indexed": false,
          "internalType": "bool",
          "name": "approved",
          "type": "bool"
        }
      ],
      "name": "ApprovalForAll",
      "type": "event"
    },
    {
      "anonymous": false,
      "inputs": [
        {
          "indexed": false,
          "internalType": "uint256",
          "name": "tokenId",
          "type": "uint256"
        },
        {
          "indexed": false,
          "internalType": "address",
          "name": "winner",
          "type": "address"
        }
      ],
      "name": "ClaimPrize",
      "type": "event"
    },
    {
      "anonymous": false,
      "inputs": [
        {
          "indexed": false,
          "internalType": "uint256",
          "name": "number",
          "type": "uint256"
        }
      ],
      "name": "DrawNumber",
      "type": "event"
    },
    {
      "anonymous": false,
      "inputs": [],
      "name": "DrawStarted",
      "type": "event"
    },
    {
      "anonymous": false,
      "inputs": [
        {
          "indexed": true,
          "internalType": "address",
          "name": "from",
          "type": "address"
        },
        {
          "indexed": true,
          "internalType": "address",
          "name": "to",
          "type": "address"
        },
        {
          "indexed": true,
          "internalType": "uint256",
          "name": "tokenId",
          "type": "uint256"
        }
      ],
      "name": "Transfer",
      "type": "event"
    },
    {
      "inputs": [
        {
          "internalType": "address",
          "name": "to",
          "type": "address"
        },
        {
          "internalType": "uint256",
          "name": "tokenId",
          "type": "uint256"
        }
      ],
      "name": "approve",
      "outputs": [],
      "stateMutability": "nonpayable",
      "type": "function"
    },
    {
      "inputs": [
        {
          "internalType": "address",
          "name": "owner",
          "type": "address"
        }
      ],
      "name": "balanceOf",
      "outputs": [
        {
          "internalType": "uint256",
          "name": "",
          "type": "uint256"
        }
      ],
      "stateMutability": "view",
      "type": "function"
    },
    {
      "inputs": [],
      "name": "bingoState",
      "outputs": [
        {
          "internalType": "enum RegenBingo.BingoState",
          "name": "",
          "type": "uint8"
        }
      ],
      "stateMutability": "view",
      "type": "function"
    },
    {
      "inputs": [
        {
          "internalType": "uint256",
          "name": "id",
          "type": "uint256"
        }
      ],
      "name": "claimPrize",
      "outputs": [],
      "stateMutability": "nonpayable",
      "type": "function"
    },
    {
      "inputs": [
        {
          "internalType": "uint256",
          "name": "tokenId",
          "type": "uint256"
        }
      ],
      "name": "coveredNumbers",
      "outputs": [
        {
          "internalType": "uint256",
          "name": "count",
          "type": "uint256"
        }
      ],
      "stateMutability": "view",
      "type": "function"
    },
    {
      "inputs": [],
      "name": "donationAddress",
      "outputs": [
        {
          "internalType": "address payable",
          "name": "",
          "type": "address"
        }
      ],
      "stateMutability": "view",
      "type": "function"
    },
    {
      "inputs": [],
      "name": "drawNumber",
      "outputs": [
        {
          "internalType": "uint256",
          "name": "",
          "type": "uint256"
        }
      ],
      "stateMutability": "nonpayable",
      "type": "function"
    },
    {
      "inputs": [],
      "name": "drawNumberCooldownSeconds",
      "outputs": [
        {
          "internalType": "uint256",
          "name": "",
          "type": "uint256"
        }
      ],
      "stateMutability": "view",
      "type": "function"
    },
    {
      "inputs": [],
      "name": "drawTimestamp",
      "outputs": [
        {
          "internalType": "uint256",
          "name": "",
          "type": "uint256"
        }
      ],
      "stateMutability": "view",
      "type": "function"
    },
    {
      "inputs": [
        {
          "internalType": "uint256",
          "name": "tokenId",
          "type": "uint256"
        }
      ],
      "name": "getApproved",
      "outputs": [
        {
          "internalType": "address",
          "name": "",
          "type": "address"
        }
      ],
      "stateMutability": "view",
      "type": "function"
    },
    {
      "inputs": [],
      "name": "getDrawnNumbers",
      "outputs": [
        {
          "internalType": "uint256[]",
          "name": "",
          "type": "uint256[]"
        }
      ],
      "stateMutability": "view",
      "type": "function"
    },
    {
      "inputs": [
        {
          "internalType": "uint256",
          "name": "tokenId",
          "type": "uint256"
        },
        {
          "internalType": "uint256",
          "name": "row",
          "type": "uint256"
        },
        {
          "internalType": "uint256",
          "name": "column",
          "type": "uint256"
        }
      ],
      "name": "getNumberByCoordinates",
      "outputs": [
        {
          "internalType": "uint256",
          "name": "",
          "type": "uint256"
        }
      ],
      "stateMutability": "pure",
      "type": "function"
    },
    {
      "inputs": [
        {
          "internalType": "address",
          "name": "owner",
          "type": "address"
        },
        {
          "internalType": "address",
          "name": "operator",
          "type": "address"
        }
      ],
      "name": "isApprovedForAll",
      "outputs": [
        {
          "internalType": "bool",
          "name": "",
          "type": "bool"
        }
      ],
      "stateMutability": "view",
      "type": "function"
    },
    {
      "inputs": [],
      "name": "lastDrawTime",
      "outputs": [
        {
          "internalType": "uint256",
          "name": "",
          "type": "uint256"
        }
      ],
      "stateMutability": "view",
      "type": "function"
    },
    {
      "inputs": [],
      "name": "mint",
      "outputs": [],
      "stateMutability": "payable",
      "type": "function"
    },
    {
      "inputs": [],
      "name": "mintPrice",
      "outputs": [
        {
          "internalType": "uint256",
          "name": "",
          "type": "uint256"
        }
      ],
      "stateMutability": "view",
      "type": "function"
    },
    {
      "inputs": [],
      "name": "name",
      "outputs": [
        {
          "internalType": "string",
          "name": "",
          "type": "string"
        }
      ],
      "stateMutability": "view",
      "type": "function"
    },
    {
      "inputs": [
        {
          "internalType": "uint256",
          "name": "tokenId",
          "type": "uint256"
        }
      ],
      "name": "ownerOf",
      "outputs": [
        {
          "internalType": "address",
          "name": "",
          "type": "address"
        }
      ],
      "stateMutability": "view",
      "type": "function"
    },
    {
      "inputs": [
        {
          "internalType": "address",
          "name": "from",
          "type": "address"
        },
        {
          "internalType": "address",
          "name": "to",
          "type": "address"
        },
        {
          "internalType": "uint256",
          "name": "tokenId",
          "type": "uint256"
        }
      ],
      "name": "safeTransferFrom",
      "outputs": [],
      "stateMutability": "nonpayable",
      "type": "function"
    },
    {
      "inputs": [
        {
          "internalType": "address",
          "name": "from",
          "type": "address"
        },
        {
          "internalType": "address",
          "name": "to",
          "type": "address"
        },
        {
          "internalType": "uint256",
          "name": "tokenId",
          "type": "uint256"
        },
        {
          "internalType": "bytes",
          "name": "data",
          "type": "bytes"
        }
      ],
      "name": "safeTransferFrom",
      "outputs": [],
      "stateMutability": "nonpayable",
      "type": "function"
    },
    {
      "inputs": [
        {
          "internalType": "address",
          "name": "operator",
          "type": "address"
        },
        {
          "internalType": "bool",
          "name": "approved",
          "type": "bool"
        }
      ],
      "name": "setApprovalForAll",
      "outputs": [],
      "stateMutability": "nonpayable",
      "type": "function"
    },
    {
      "inputs": [],
      "name": "startDrawPeriod",
      "outputs": [],
      "stateMutability": "nonpayable",
      "type": "function"
    },
    {
      "inputs": [
        {
          "internalType": "bytes4",
          "name": "interfaceId",
          "type": "bytes4"
        }
      ],
      "name": "supportsInterface",
      "outputs": [
        {
          "internalType": "bool",
          "name": "",
          "type": "bool"
        }
      ],
      "stateMutability": "view",
      "type": "function"
    },
    {
      "inputs": [],
      "name": "symbol",
      "outputs": [
        {
          "internalType": "string",
          "name": "",
          "type": "string"
        }
      ],
      "stateMutability": "view",
      "type": "function"
    },
    {
      "inputs": [
        {
          "internalType": "uint256",
          "name": "index",
          "type": "uint256"
        }
      ],
      "name": "tokenByIndex",
      "outputs": [
        {
          "internalType": "uint256",
          "name": "",
          "type": "uint256"
        }
      ],
      "stateMutability": "view",
      "type": "function"
    },
    {
      "inputs": [
        {
          "internalType": "address",
          "name": "owner",
          "type": "address"
        },
        {
          "internalType": "uint256",
          "name": "index",
          "type": "uint256"
        }
      ],
      "name": "tokenOfOwnerByIndex",
      "outputs": [
        {
          "internalType": "uint256",
          "name": "",
          "type": "uint256"
        }
      ],
      "stateMutability": "view",
      "type": "function"
    },
    {
      "inputs": [
        {
          "internalType": "uint256",
          "name": "tokenId",
          "type": "uint256"
        }
      ],
      "name": "tokenURI",
      "outputs": [
        {
          "internalType": "string",
          "name": "",
          "type": "string"
        }
      ],
      "stateMutability": "view",
      "type": "function"
    },
    {
      "inputs": [],
      "name": "totalSupply",
      "outputs": [
        {
          "internalType": "uint256",
          "name": "",
          "type": "uint256"
        }
      ],
      "stateMutability": "view",
      "type": "function"
    },
    {
      "inputs": [
        {
          "internalType": "address",
          "name": "from",
          "type": "address"
        },
        {
          "internalType": "address",
          "name": "to",
          "type": "address"
        },
        {
          "internalType": "uint256",
          "name": "tokenId",
          "type": "uint256"
        }
      ],
      "name": "transferFrom",
      "outputs": [],
      "stateMutability": "nonpayable",
      "type": "function"
    }
  ],
  "transactionHash": "0xc26b422289ac6de31d495133dfb48e06e43316803e1c605147ddd0f74d4901c3",
  "args": [
    "REGENBINGO",
    "Regen Bingo — Testnet #1",
    "10000000000000000",
    1674154800,
    5,
    "0xc4c302f0d81F3E9a86d468f585dAe26F92D9F5EA",
    "0x7AE85e9FB1DF8B73b3A43A015218E3aB6901060b"
  ],
  "numDeployments": 24,
  "solcInputHash": "24e559bb500dfe0a4fc977de998ed897",
  "bytecode": "0x60806040523480156200001157600080fd5b506040516200569b3803806200569b83398181016040528101906200003791906200037b565b868681600090816200004a9190620006ad565b5080600190816200005c9190620006ad565b50505084600b8190555083600c8190555082600d8190555081600f60006101000a81548173ffffffffffffffffffffffffffffffffffffffff021916908373ffffffffffffffffffffffffffffffffffffffff16021790555080600a60006101000a81548173ffffffffffffffffffffffffffffffffffffffff021916908373ffffffffffffffffffffffffffffffffffffffff1602179055505050505050505062000794565b6000604051905090565b600080fd5b600080fd5b600080fd5b600080fd5b6000601f19601f8301169050919050565b7f4e487b7100000000000000000000000000000000000000000000000000000000600052604160045260246000fd5b6200016c8262000121565b810181811067ffffffffffffffff821117156200018e576200018d62000132565b5b80604052505050565b6000620001a362000103565b9050620001b1828262000161565b919050565b600067ffffffffffffffff821115620001d457620001d362000132565b5b620001df8262000121565b9050602081019050919050565b60005b838110156200020c578082015181840152602081019050620001ef565b60008484015250505050565b60006200022f6200022984620001b6565b62000197565b9050828152602081018484840111156200024e576200024d6200011c565b5b6200025b848285620001ec565b509392505050565b600082601f8301126200027b576200027a62000117565b5b81516200028d84826020860162000218565b91505092915050565b6000819050919050565b620002ab8162000296565b8114620002b757600080fd5b50565b600081519050620002cb81620002a0565b92915050565b600073ffffffffffffffffffffffffffffffffffffffff82169050919050565b6000620002fe82620002d1565b9050919050565b6200031081620002f1565b81146200031c57600080fd5b50565b600081519050620003308162000305565b92915050565b60006200034382620002d1565b9050919050565b620003558162000336565b81146200036157600080fd5b50565b60008151905062000375816200034a565b92915050565b600080600080600080600060e0888a0312156200039d576200039c6200010d565b5b600088015167ffffffffffffffff811115620003be57620003bd62000112565b5b620003cc8a828b0162000263565b975050602088015167ffffffffffffffff811115620003f057620003ef62000112565b5b620003fe8a828b0162000263565b9650506040620004118a828b01620002ba565b9550506060620004248a828b01620002ba565b9450506080620004378a828b01620002ba565b93505060a06200044a8a828b016200031f565b92505060c06200045d8a828b0162000364565b91505092959891949750929550565b600081519050919050565b7f4e487b7100000000000000000000000000000000000000000000000000000000600052602260045260246000fd5b60006002820490506001821680620004bf57607f821691505b602082108103620004d557620004d462000477565b5b50919050565b60008190508160005260206000209050919050565b60006020601f8301049050919050565b600082821b905092915050565b6000600883026200053f7fffffffffffffffffffffffffffffffffffffffffffffffffffffffffffffffff8262000500565b6200054b868362000500565b95508019841693508086168417925050509392505050565b6000819050919050565b60006200058e62000588620005828462000296565b62000563565b62000296565b9050919050565b6000819050919050565b620005aa836200056d565b620005c2620005b98262000595565b8484546200050d565b825550505050565b600090565b620005d9620005ca565b620005e68184846200059f565b505050565b5b818110156200060e5762000602600082620005cf565b600181019050620005ec565b5050565b601f8211156200065d576200062781620004db565b6200063284620004f0565b8101602085101562000642578190505b6200065a6200065185620004f0565b830182620005eb565b50505b505050565b600082821c905092915050565b6000620006826000198460080262000662565b1980831691505092915050565b60006200069d83836200066f565b9150826002028217905092915050565b620006b8826200046c565b67ffffffffffffffff811115620006d457620006d362000132565b5b620006e08254620004a6565b620006ed82828562000612565b600060209050601f83116001811462000725576000841562000710578287015190505b6200071c85826200068f565b8655506200078c565b601f1984166200073586620004db565b60005b828110156200075f5784890151825560018201915060208501945060208101905062000738565b868310156200077f57848901516200077b601f8916826200066f565b8355505b6001600288020188555050505b505050505050565b614ef780620007a46000396000f3fe6080604052600436106101c25760003560e01c80636352211e116100f7578063b88d4fde11610095578063d80ffb2011610064578063d80ffb201461065b578063dc7682fc14610686578063e985e9c5146106b1578063ec034bed146106ee576101c2565b8063b88d4fde146105a1578063b914a219146105ca578063c87b56dd146105f5578063d709815414610632576101c2565b806370a08231116100d157806370a08231146104e557806388103b191461052257806395d89b411461054d578063a22cb46514610578576101c2565b80636352211e146104525780636817c76c1461048f5780636beebc9a146104ba576101c2565b806323b872dd1161016457806342842e0e1161013e57806342842e0e146103845780634d54bb6d146103ad5780634f6ccce7146103ea5780635cbbd63514610427576101c2565b806323b872dd146102e15780632f745c591461030a5780633860a7eb14610347576101c2565b8063095ea7b3116101a0578063095ea7b31461026c5780630f18fc5e146102955780631249c58b146102ac57806318160ddd146102b6576101c2565b806301ffc9a7146101c757806306fdde0314610204578063081812fc1461022f575b600080fd5b3480156101d357600080fd5b506101ee60048036038101906101e99190613364565b610719565b6040516101fb91906133ac565b60405180910390f35b34801561021057600080fd5b50610219610793565b6040516102269190613457565b60405180910390f35b34801561023b57600080fd5b50610256600480360381019061025191906134af565b610825565b604051610263919061351d565b60405180910390f35b34801561027857600080fd5b50610293600480360381019061028e9190613564565b61086b565b005b3480156102a157600080fd5b506102aa610982565b005b6102b4610a5f565b005b3480156102c257600080fd5b506102cb610ba8565b6040516102d891906135b3565b60405180910390f35b3480156102ed57600080fd5b50610308600480360381019061030391906135ce565b610bb5565b005b34801561031657600080fd5b50610331600480360381019061032c9190613564565b610c15565b60405161033e91906135b3565b60405180910390f35b34801561035357600080fd5b5061036e600480360381019061036991906134af565b610cba565b60405161037b91906135b3565b60405180910390f35b34801561039057600080fd5b506103ab60048036038101906103a691906135ce565b610d36565b005b3480156103b957600080fd5b506103d460048036038101906103cf9190613621565b610d56565b6040516103e191906135b3565b60405180910390f35b3480156103f657600080fd5b50610411600480360381019061040c91906134af565b610e24565b60405161041e91906135b3565b60405180910390f35b34801561043357600080fd5b5061043c610e95565b60405161044991906135b3565b60405180910390f35b34801561045e57600080fd5b50610479600480360381019061047491906134af565b610e9b565b604051610486919061351d565b60405180910390f35b34801561049b57600080fd5b506104a4610f21565b6040516104b191906135b3565b60405180910390f35b3480156104c657600080fd5b506104cf610f27565b6040516104dc91906135b3565b60405180910390f35b3480156104f157600080fd5b5061050c60048036038101906105079190613674565b610f2d565b60405161051991906135b3565b60405180910390f35b34801561052e57600080fd5b50610537610fe4565b6040516105449190613718565b60405180910390f35b34801561055957600080fd5b50610562610ff7565b60405161056f9190613457565b60405180910390f35b34801561058457600080fd5b5061059f600480360381019061059a919061375f565b611089565b005b3480156105ad57600080fd5b506105c860048036038101906105c391906138d4565b61109f565b005b3480156105d657600080fd5b506105df611101565b6040516105ec91906135b3565b60405180910390f35b34801561060157600080fd5b5061061c600480360381019061061791906134af565b611107565b6040516106299190613457565b60405180910390f35b34801561063e57600080fd5b50610659600480360381019061065491906134af565b61133f565b005b34801561066757600080fd5b5061067061157d565b60405161067d91906135b3565b60405180910390f35b34801561069257600080fd5b5061069b611763565b6040516106a89190613a15565b60405180910390f35b3480156106bd57600080fd5b506106d860048036038101906106d39190613a37565b611774565b6040516106e591906133ac565b60405180910390f35b3480156106fa57600080fd5b50610703611808565b6040516107109190613a98565b60405180910390f35b60007f780e9d63000000000000000000000000000000000000000000000000000000007bffffffffffffffffffffffffffffffffffffffffffffffffffffffff1916827bffffffffffffffffffffffffffffffffffffffffffffffffffffffff1916148061078c575061078b8261182e565b5b9050919050565b6060600080546107a290613ae2565b80601f01602080910402602001604051908101604052809291908181526020018280546107ce90613ae2565b801561081b5780601f106107f05761010080835404028352916020019161081b565b820191906000526020600020905b8154815290600101906020018083116107fe57829003601f168201915b5050505050905090565b600061083082611910565b6004600083815260200190815260200160002060009054906101000a900473ffffffffffffffffffffffffffffffffffffffff169050919050565b600061087682610e9b565b90508073ffffffffffffffffffffffffffffffffffffffff168373ffffffffffffffffffffffffffffffffffffffff16036108e6576040517f08c379a00000000000000000000000000000000000000000000000000000000081526004016108dd90613b85565b60405180910390fd5b8073ffffffffffffffffffffffffffffffffffffffff1661090561195b565b73ffffffffffffffffffffffffffffffffffffffff16148061093457506109338161092e61195b565b611774565b5b610973576040517f08c379a000000000000000000000000000000000000000000000000000000000815260040161096a90613c17565b60405180910390fd5b61097d8383611963565b505050565b60006002811115610996576109956136a1565b5b600a60149054906101000a900460ff1660028111156109b8576109b76136a1565b5b146109c257600080fd5b600c544211610a06576040517f08c379a00000000000000000000000000000000000000000000000000000000081526004016109fd90613c83565b60405180910390fd5b6001600a60146101000a81548160ff02191690836002811115610a2c57610a2b6136a1565b5b02179055507f0fd3215fb38f4c3605b0b32862733cc4671a5f0271e027bdb193b8e6f813eda060405160405180910390a1565b60006002811115610a7357610a726136a1565b5b600a60149054906101000a900460ff166002811115610a9557610a946136a1565b5b14610ad5576040517f08c379a0000000000000000000000000000000000000000000000000000000008152600401610acc90613cef565b60405180910390fd5b600b543414610b19576040517f08c379a0000000000000000000000000000000000000000000000000000000008152600401610b1090613d5b565b60405180910390fd5b6000610b23610ba8565b3342604051602001610b3793929190613de4565b6040516020818303038152906040528051906020012060001c9050610b5b81611a1c565b15610b9b576040517f08c379a0000000000000000000000000000000000000000000000000000000008152600401610b9290613e6d565b60405180910390fd5b610ba53382611b98565b50565b6000600880549050905090565b610bc6610bc061195b565b82611db5565b610c05576040517f08c379a0000000000000000000000000000000000000000000000000000000008152600401610bfc90613eff565b60405180910390fd5b610c10838383611e4a565b505050565b6000610c2083610f2d565b8210610c61576040517f08c379a0000000000000000000000000000000000000000000000000000000008152600401610c5890613f91565b60405180910390fd5b600660008473ffffffffffffffffffffffffffffffffffffffff1673ffffffffffffffffffffffffffffffffffffffff168152602001908152602001600020600083815260200190815260200160002054905092915050565b600080600090505b6003811015610d305760005b6009811015610d1c57610cf5610ce5858484610d56565b601061214390919063ffffffff16565b15610d09578280610d0590613fe0565b9350505b8080610d1490613fe0565b915050610cce565b508080610d2890613fe0565b915050610cc2565b50919050565b610d518383836040518060200160405280600081525061109f565b505050565b600080610d6e600386610d699190614057565b61215d565b90506000818560038110610d8557610d84614088565b5b60200201518460098110610d9c57610d9b614088565b5b602002015103610db0576000915050610e1d565b600a818560038110610dc557610dc4614088565b5b60200201518460098110610ddc57610ddb614088565b5b602002015186610dec9190614057565b610df69190614057565b600a84610e0391906140b7565b6001610e0f91906140f9565b610e1991906140f9565b9150505b9392505050565b6000610e2e610ba8565b8210610e6f576040517f08c379a0000000000000000000000000000000000000000000000000000000008152600401610e669061419f565b60405180910390fd5b60088281548110610e8357610e82614088565b5b90600052602060002001549050919050565b600e5481565b600080610ea783612744565b9050600073ffffffffffffffffffffffffffffffffffffffff168173ffffffffffffffffffffffffffffffffffffffff1603610f18576040517f08c379a0000000000000000000000000000000000000000000000000000000008152600401610f0f9061420b565b60405180910390fd5b80915050919050565b600b5481565b600d5481565b60008073ffffffffffffffffffffffffffffffffffffffff168273ffffffffffffffffffffffffffffffffffffffff1603610f9d576040517f08c379a0000000000000000000000000000000000000000000000000000000008152600401610f949061429d565b60405180910390fd5b600360008373ffffffffffffffffffffffffffffffffffffffff1673ffffffffffffffffffffffffffffffffffffffff168152602001908152602001600020549050919050565b600a60149054906101000a900460ff1681565b60606001805461100690613ae2565b80601f016020809104026020016040519081016040528092919081815260200182805461103290613ae2565b801561107f5780601f106110545761010080835404028352916020019161107f565b820191906000526020600020905b81548152906001019060200180831161106257829003601f168201915b5050505050905090565b61109b61109461195b565b8383612781565b5050565b6110b06110aa61195b565b83611db5565b6110ef576040517f08c379a00000000000000000000000000000000000000000000000000000000081526004016110e690613eff565b60405180910390fd5b6110fb848484846128ed565b50505050565b600c5481565b6060600073ffffffffffffffffffffffffffffffffffffffff1661112a83610e9b565b73ffffffffffffffffffffffffffffffffffffffff1603611180576040517f08c379a000000000000000000000000000000000000000000000000000000000815260040161117790614309565b60405180910390fd5b611188613258565b611190613285565b60005b60038110156112905760005b600981101561127c576111b3868383610d56565b8483600381106111c6576111c5614088565b5b602002015182600981106111dd576111dc614088565b5b6020020181815250506112288483600381106111fc576111fb614088565b5b6020020151826009811061121357611212614088565b5b6020020151601061214390919063ffffffff16565b1561126957600183836003811061124257611241614088565b5b6020020151826009811061125957611258614088565b5b6020020190151590811515815250505b808061127490613fe0565b91505061119f565b50808061128890613fe0565b915050611193565b50600a60009054906101000a900473ffffffffffffffffffffffffffffffffffffffff1673ffffffffffffffffffffffffffffffffffffffff16635b23dd118584846040518463ffffffff1660e01b81526004016112f093929190614592565b600060405180830381865afa15801561130d573d6000803e3d6000fd5b505050506040513d6000823e3d601f19601f82011682018060405250810190611336919061466c565b92505050919050565b600280811115611352576113516136a1565b5b600a60149054906101000a900460ff166002811115611374576113736136a1565b5b036113b4576040517f08c379a00000000000000000000000000000000000000000000000000000000081526004016113ab90614701565b60405180910390fd5b6113bd81611910565b600f6113c882610cba565b14611408576040517f08c379a00000000000000000000000000000000000000000000000000000000081526004016113ff9061476d565b60405180910390fd5b600f60009054906101000a900473ffffffffffffffffffffffffffffffffffffffff1673ffffffffffffffffffffffffffffffffffffffff1660024761144e919061478d565b60405161145a906147ef565b60006040518083038185875af1925050503d8060008114611497576040519150601f19603f3d011682016040523d82523d6000602084013e61149c565b606091505b50505060006114aa82610e9b565b90508073ffffffffffffffffffffffffffffffffffffffff16476040516114d0906147ef565b60006040518083038185875af1925050503d806000811461150d576040519150601f19603f3d011682016040523d82523d6000602084013e611512565b606091505b5050506002600a60146101000a81548160ff0219169083600281111561153b5761153a6136a1565b5b02179055507fa4b43ab5bbc81d559aa9f631e943e395ce8c8fa955383fc3efdbec527832f5af8282604051611571929190614863565b60405180910390a15050565b600060016002811115611593576115926136a1565b5b600a60149054906101000a900460ff1660028111156115b5576115b46136a1565b5b146115f5576040517f08c379a00000000000000000000000000000000000000000000000000000000081526004016115ec906148d8565b60405180910390fd5b600d54600e5461160591906140f9565b4211611646576040517f08c379a000000000000000000000000000000000000000000000000000000000815260040161163d90614944565b60405180910390fd5b600080605a42448460405160200161166093929190614964565b6040516020818303038152906040528051906020012060001c6116839190614057565b600161168f91906140f9565b90505b6116a681601061214390919063ffffffff16565b1561170857605a814244856040516020016116c494939291906149a1565b6040516020818303038152906040528051906020012060001c6116e79190614057565b60016116f391906140f9565b9050818061170090613fe0565b925050611692565b61171c81601061294990919063ffffffff16565b5042600e819055507f68789b491d2cf5ee4b99fd6ba64a152455c1360bcaec84c0016bf458d5e19cd58160405161175391906135b3565b60405180910390a1809250505090565b606061176f6010612963565b905090565b6000600560008473ffffffffffffffffffffffffffffffffffffffff1673ffffffffffffffffffffffffffffffffffffffff16815260200190815260200160002060008373ffffffffffffffffffffffffffffffffffffffff1673ffffffffffffffffffffffffffffffffffffffff16815260200190815260200160002060009054906101000a900460ff16905092915050565b600f60009054906101000a900473ffffffffffffffffffffffffffffffffffffffff1681565b60007f80ac58cd000000000000000000000000000000000000000000000000000000007bffffffffffffffffffffffffffffffffffffffffffffffffffffffff1916827bffffffffffffffffffffffffffffffffffffffffffffffffffffffff191614806118f957507f5b5e139f000000000000000000000000000000000000000000000000000000007bffffffffffffffffffffffffffffffffffffffffffffffffffffffff1916827bffffffffffffffffffffffffffffffffffffffffffffffffffffffff1916145b80611909575061190882612984565b5b9050919050565b611919816129ee565b611958576040517f08c379a000000000000000000000000000000000000000000000000000000000815260040161194f9061420b565b60405180910390fd5b50565b600033905090565b816004600083815260200190815260200160002060006101000a81548173ffffffffffffffffffffffffffffffffffffffff021916908373ffffffffffffffffffffffffffffffffffffffff160217905550808273ffffffffffffffffffffffffffffffffffffffff166119d683610e9b565b73ffffffffffffffffffffffffffffffffffffffff167f8c5be1e5ebec7d5bd14f71427d1e84f3dd0314c0f7b2291e5b200ac8c7c3b92560405160405180910390a45050565b600080600090505b6003811015611b8d576000605a67ffffffffffffffff811115611a4a57611a496137a9565b5b6040519080825280601f01601f191660200182016040528015611a7c5781602001600182028036833780820191505090505b50905060005b6009811015611b78576000611a98868584610d56565b905060008103611aa85750611b65565b600060f81b83600183611abb91906149ef565b81518110611acc57611acb614088565b5b602001015160f81c60f81b7effffffffffffffffffffffffffffffffffffffffffffffffffffffffffffff191603611b5657600160f81b83600183611b1191906149ef565b81518110611b2257611b21614088565b5b60200101907effffffffffffffffffffffffffffffffffffffffffffffffffffffffffffff1916908160001a905350611b63565b6001945050505050611b93565b505b8080611b7090613fe0565b915050611a82565b50508080611b8590613fe0565b915050611a24565b50600090505b919050565b600073ffffffffffffffffffffffffffffffffffffffff168273ffffffffffffffffffffffffffffffffffffffff1603611c07576040517f08c379a0000000000000000000000000000000000000000000000000000000008152600401611bfe90614a6f565b60405180910390fd5b611c10816129ee565b15611c50576040517f08c379a0000000000000000000000000000000000000000000000000000000008152600401611c4790614adb565b60405180910390fd5b611c5e600083836001612a2f565b611c67816129ee565b15611ca7576040517f08c379a0000000000000000000000000000000000000000000000000000000008152600401611c9e90614adb565b60405180910390fd5b6001600360008473ffffffffffffffffffffffffffffffffffffffff1673ffffffffffffffffffffffffffffffffffffffff16815260200190815260200160002060008282540192505081905550816002600083815260200190815260200160002060006101000a81548173ffffffffffffffffffffffffffffffffffffffff021916908373ffffffffffffffffffffffffffffffffffffffff160217905550808273ffffffffffffffffffffffffffffffffffffffff16600073ffffffffffffffffffffffffffffffffffffffff167fddf252ad1be2c89b69c2b068fc378daa952ba7f163c4a11628f55a4df523b3ef60405160405180910390a4611db1600083836001612b8d565b5050565b600080611dc183610e9b565b90508073ffffffffffffffffffffffffffffffffffffffff168473ffffffffffffffffffffffffffffffffffffffff161480611e035750611e028185611774565b5b80611e4157508373ffffffffffffffffffffffffffffffffffffffff16611e2984610825565b73ffffffffffffffffffffffffffffffffffffffff16145b91505092915050565b8273ffffffffffffffffffffffffffffffffffffffff16611e6a82610e9b565b73ffffffffffffffffffffffffffffffffffffffff1614611ec0576040517f08c379a0000000000000000000000000000000000000000000000000000000008152600401611eb790614b6d565b60405180910390fd5b600073ffffffffffffffffffffffffffffffffffffffff168273ffffffffffffffffffffffffffffffffffffffff1603611f2f576040517f08c379a0000000000000000000000000000000000000000000000000000000008152600401611f2690614bff565b60405180910390fd5b611f3c8383836001612a2f565b8273ffffffffffffffffffffffffffffffffffffffff16611f5c82610e9b565b73ffffffffffffffffffffffffffffffffffffffff1614611fb2576040517f08c379a0000000000000000000000000000000000000000000000000000000008152600401611fa990614b6d565b60405180910390fd5b6004600082815260200190815260200160002060006101000a81549073ffffffffffffffffffffffffffffffffffffffff02191690556001600360008573ffffffffffffffffffffffffffffffffffffffff1673ffffffffffffffffffffffffffffffffffffffff168152602001908152602001600020600082825403925050819055506001600360008473ffffffffffffffffffffffffffffffffffffffff1673ffffffffffffffffffffffffffffffffffffffff16815260200190815260200160002060008282540192505081905550816002600083815260200190815260200160002060006101000a81548173ffffffffffffffffffffffffffffffffffffffff021916908373ffffffffffffffffffffffffffffffffffffffff160217905550808273ffffffffffffffffffffffffffffffffffffffff168473ffffffffffffffffffffffffffffffffffffffff167fddf252ad1be2c89b69c2b068fc378daa952ba7f163c4a11628f55a4df523b3ef60405160405180910390a461213e8383836001612b8d565b505050565b6000612155836000018360001b612b93565b905092915050565b612165613258565b604051806060016040528060405180606001604052806040518061012001604052807001041cb03cc9a429d0ba9dcfd6f9b1e573815260200160008152602001700104fa4cadb1ccce7d8212c6b0d4a059cb8152602001700106e318bebcb9c00b946778fd08390727815260200160008152602001700107e4f779bc4492982e2df39f130e661b81526020016000815260200160008152602001700108af3a79e7a300983358ece79a90505581525081526020016040518061012001604052807001092022efa2a445649fe753f9ee1c17d3815260200160008152602001600081526020017001092d8ea3809c618f49530e0c27681225815260200170010b9220c451000de4cb39d092c57ead4f8152602001600081526020016000815260200170010e52782fbde7eba2249029cbdf9416e781526020017001123324dcd122e13ff1b12f8b5af3e587815250815260200160405180610120016040528060008152602001700112ff9432f310a2e7cad0ebb8928d69b3815260200160008152602001700113810731bfd6981998182518e1b53a7d8152602001600081526020017001165da004453f63c2f5cd11392057be69815260200170011aa0706713f8073e1baa96d1e09cbdc7815260200160008152602001700121d98c583eea67055b7b3036a6083f5f81525081525081526020016040518060600160405280604051806101200160405280600081526020017001123324dcd122e13ff1b12f8b5af3e587815260200170011aa0706713f8073e1baa96d1e09cbdc7815260200160008152602001600081526020016000815260200170010e52782fbde7eba2249029cbdf9416e78152602001700112ff9432f310a2e7cad0ebb8928d69b3815260200170010b9220c451000de4cb39d092c57ead4f8152508152602001604051806101200160405280700121d98c583eea67055b7b3036a6083f5f815260200160008152602001700108af3a79e7a300983358ece79a905055815260200160008152602001700113810731bfd6981998182518e1b53a7d81526020016000815260200160008152602001700107e4f779bc4492982e2df39f130e661b81526020017001165da004453f63c2f5cd11392057be69815250815260200160405180610120016040528060008152602001600081526020017001041cb03cc9a429d0ba9dcfd6f9b1e57381526020017001092022efa2a445649fe753f9ee1c17d3815260200160008152602001700104fa4cadb1ccce7d8212c6b0d4a059cb8152602001600081526020017001092d8ea3809c618f49530e0c276812258152602001700106e318bebcb9c00b946778fd08390727815250815250815260200160405180606001604052806040518061012001604052807001165da004453f63c2f5cd11392057be6981526020016000815260200160008152602001700121d98c583eea67055b7b3036a6083f5f81526020017001092022efa2a445649fe753f9ee1c17d38152602001600081526020017001092d8ea3809c618f49530e0c27681225815260200160008152602001700113810731bfd6981998182518e1b53a7d8152508152602001604051806101200160405280600081526020017001041cb03cc9a429d0ba9dcfd6f9b1e573815260200170011aa0706713f8073e1baa96d1e09cbdc7815260200160008152602001700104fa4cadb1ccce7d8212c6b0d4a059cb8152602001700106e318bebcb9c00b946778fd083907278152602001700112ff9432f310a2e7cad0ebb8928d69b38152602001600081526020016000815250815260200160405180610120016040528060008152602001700108af3a79e7a300983358ece79a9050558152602001700107e4f779bc4492982e2df39f130e661b815260200160008152602001600081526020017001123324dcd122e13ff1b12f8b5af3e587815260200170010b9220c451000de4cb39d092c57ead4f815260200170010e52782fbde7eba2249029cbdf9416e781526020016000815250815250815250826003811061273857612737614088565b5b60200201519050919050565b60006002600083815260200190815260200160002060009054906101000a900473ffffffffffffffffffffffffffffffffffffffff169050919050565b8173ffffffffffffffffffffffffffffffffffffffff168373ffffffffffffffffffffffffffffffffffffffff16036127ef576040517f08c379a00000000000000000000000000000000000000000000000000000000081526004016127e690614c6b565b60405180910390fd5b80600560008573ffffffffffffffffffffffffffffffffffffffff1673ffffffffffffffffffffffffffffffffffffffff16815260200190815260200160002060008473ffffffffffffffffffffffffffffffffffffffff1673ffffffffffffffffffffffffffffffffffffffff16815260200190815260200160002060006101000a81548160ff0219169083151502179055508173ffffffffffffffffffffffffffffffffffffffff168373ffffffffffffffffffffffffffffffffffffffff167f17307eab39ab6107e8899845ad3d59bd9653f200f220920489ca2b5937696c31836040516128e091906133ac565b60405180910390a3505050565b6128f8848484611e4a565b61290484848484612bb6565b612943576040517f08c379a000000000000000000000000000000000000000000000000000000000815260040161293a90614cfd565b60405180910390fd5b50505050565b600061295b836000018360001b612d3d565b905092915050565b6060600061297383600001612dad565b905060608190508092505050919050565b60007f01ffc9a7000000000000000000000000000000000000000000000000000000007bffffffffffffffffffffffffffffffffffffffffffffffffffffffff1916827bffffffffffffffffffffffffffffffffffffffffffffffffffffffff1916149050919050565b60008073ffffffffffffffffffffffffffffffffffffffff16612a1083612744565b73ffffffffffffffffffffffffffffffffffffffff1614159050919050565b612a3b84848484612e09565b6001811115612a7f576040517f08c379a0000000000000000000000000000000000000000000000000000000008152600401612a7690614d8f565b60405180910390fd5b6000829050600073ffffffffffffffffffffffffffffffffffffffff168573ffffffffffffffffffffffffffffffffffffffff1603612ac657612ac181612f2f565b612b05565b8373ffffffffffffffffffffffffffffffffffffffff168573ffffffffffffffffffffffffffffffffffffffff1614612b0457612b038582612f78565b5b5b600073ffffffffffffffffffffffffffffffffffffffff168473ffffffffffffffffffffffffffffffffffffffff1603612b4757612b42816130e5565b612b86565b8473ffffffffffffffffffffffffffffffffffffffff168473ffffffffffffffffffffffffffffffffffffffff1614612b8557612b8484826131b6565b5b5b5050505050565b50505050565b600080836001016000848152602001908152602001600020541415905092915050565b6000612bd78473ffffffffffffffffffffffffffffffffffffffff16613235565b15612d30578373ffffffffffffffffffffffffffffffffffffffff1663150b7a02612c0061195b565b8786866040518563ffffffff1660e01b8152600401612c229493929190614e04565b6020604051808303816000875af1925050508015612c5e57506040513d601f19601f82011682018060405250810190612c5b9190614e65565b60015b612ce0573d8060008114612c8e576040519150601f19603f3d011682016040523d82523d6000602084013e612c93565b606091505b506000815103612cd8576040517f08c379a0000000000000000000000000000000000000000000000000000000008152600401612ccf90614cfd565b60405180910390fd5b805181602001fd5b63150b7a0260e01b7bffffffffffffffffffffffffffffffffffffffffffffffffffffffff1916817bffffffffffffffffffffffffffffffffffffffffffffffffffffffff191614915050612d35565b600190505b949350505050565b6000612d498383612b93565b612da2578260000182908060018154018082558091505060019003906000526020600020016000909190919091505582600001805490508360010160008481526020019081526020016000208190555060019050612da7565b600090505b92915050565b606081600001805480602002602001604051908101604052809291908181526020018280548015612dfd57602002820191906000526020600020905b815481526020019060010190808311612de9575b50505050509050919050565b6001811115612f2957600073ffffffffffffffffffffffffffffffffffffffff168473ffffffffffffffffffffffffffffffffffffffff1614612e9d5780600360008673ffffffffffffffffffffffffffffffffffffffff1673ffffffffffffffffffffffffffffffffffffffff1681526020019081526020016000206000828254612e9591906149ef565b925050819055505b600073ffffffffffffffffffffffffffffffffffffffff168373ffffffffffffffffffffffffffffffffffffffff1614612f285780600360008573ffffffffffffffffffffffffffffffffffffffff1673ffffffffffffffffffffffffffffffffffffffff1681526020019081526020016000206000828254612f2091906140f9565b925050819055505b5b50505050565b6008805490506009600083815260200190815260200160002081905550600881908060018154018082558091505060019003906000526020600020016000909190919091505550565b60006001612f8584610f2d565b612f8f91906149ef565b9050600060076000848152602001908152602001600020549050818114613074576000600660008673ffffffffffffffffffffffffffffffffffffffff1673ffffffffffffffffffffffffffffffffffffffff168152602001908152602001600020600084815260200190815260200160002054905080600660008773ffffffffffffffffffffffffffffffffffffffff1673ffffffffffffffffffffffffffffffffffffffff168152602001908152602001600020600084815260200190815260200160002081905550816007600083815260200190815260200160002081905550505b6007600084815260200190815260200160002060009055600660008573ffffffffffffffffffffffffffffffffffffffff1673ffffffffffffffffffffffffffffffffffffffff16815260200190815260200160002060008381526020019081526020016000206000905550505050565b600060016008805490506130f991906149ef565b905060006009600084815260200190815260200160002054905060006008838154811061312957613128614088565b5b90600052602060002001549050806008838154811061314b5761314a614088565b5b90600052602060002001819055508160096000838152602001908152602001600020819055506009600085815260200190815260200160002060009055600880548061319a57613199614e92565b5b6001900381819060005260206000200160009055905550505050565b60006131c183610f2d565b905081600660008573ffffffffffffffffffffffffffffffffffffffff1673ffffffffffffffffffffffffffffffffffffffff168152602001908152602001600020600083815260200190815260200160002081905550806007600084815260200190815260200160002081905550505050565b6000808273ffffffffffffffffffffffffffffffffffffffff163b119050919050565b60405180606001604052806003905b61326f6132b2565b8152602001906001900390816132675790505090565b60405180606001604052806003905b61329c6132d5565b8152602001906001900390816132945790505090565b604051806101200160405280600990602082028036833780820191505090505090565b604051806101200160405280600990602082028036833780820191505090505090565b6000604051905090565b600080fd5b600080fd5b60007fffffffff0000000000000000000000000000000000000000000000000000000082169050919050565b6133418161330c565b811461334c57600080fd5b50565b60008135905061335e81613338565b92915050565b60006020828403121561337a57613379613302565b5b60006133888482850161334f565b91505092915050565b60008115159050919050565b6133a681613391565b82525050565b60006020820190506133c1600083018461339d565b92915050565b600081519050919050565b600082825260208201905092915050565b60005b838110156134015780820151818401526020810190506133e6565b60008484015250505050565b6000601f19601f8301169050919050565b6000613429826133c7565b61343381856133d2565b93506134438185602086016133e3565b61344c8161340d565b840191505092915050565b60006020820190508181036000830152613471818461341e565b905092915050565b6000819050919050565b61348c81613479565b811461349757600080fd5b50565b6000813590506134a981613483565b92915050565b6000602082840312156134c5576134c4613302565b5b60006134d38482850161349a565b91505092915050565b600073ffffffffffffffffffffffffffffffffffffffff82169050919050565b6000613507826134dc565b9050919050565b613517816134fc565b82525050565b6000602082019050613532600083018461350e565b92915050565b613541816134fc565b811461354c57600080fd5b50565b60008135905061355e81613538565b92915050565b6000806040838503121561357b5761357a613302565b5b60006135898582860161354f565b925050602061359a8582860161349a565b9150509250929050565b6135ad81613479565b82525050565b60006020820190506135c860008301846135a4565b92915050565b6000806000606084860312156135e7576135e6613302565b5b60006135f58682870161354f565b93505060206136068682870161354f565b92505060406136178682870161349a565b9150509250925092565b60008060006060848603121561363a57613639613302565b5b60006136488682870161349a565b93505060206136598682870161349a565b925050604061366a8682870161349a565b9150509250925092565b60006020828403121561368a57613689613302565b5b60006136988482850161354f565b91505092915050565b7f4e487b7100000000000000000000000000000000000000000000000000000000600052602160045260246000fd5b600381106136e1576136e06136a1565b5b50565b60008190506136f2826136d0565b919050565b6000613702826136e4565b9050919050565b613712816136f7565b82525050565b600060208201905061372d6000830184613709565b92915050565b61373c81613391565b811461374757600080fd5b50565b60008135905061375981613733565b92915050565b6000806040838503121561377657613775613302565b5b60006137848582860161354f565b92505060206137958582860161374a565b9150509250929050565b600080fd5b600080fd5b7f4e487b7100000000000000000000000000000000000000000000000000000000600052604160045260246000fd5b6137e18261340d565b810181811067ffffffffffffffff82111715613800576137ff6137a9565b5b80604052505050565b60006138136132f8565b905061381f82826137d8565b919050565b600067ffffffffffffffff82111561383f5761383e6137a9565b5b6138488261340d565b9050602081019050919050565b82818337600083830152505050565b600061387761387284613824565b613809565b905082815260208101848484011115613893576138926137a4565b5b61389e848285613855565b509392505050565b600082601f8301126138bb576138ba61379f565b5b81356138cb848260208601613864565b91505092915050565b600080600080608085870312156138ee576138ed613302565b5b60006138fc8782880161354f565b945050602061390d8782880161354f565b935050604061391e8782880161349a565b925050606085013567ffffffffffffffff81111561393f5761393e613307565b5b61394b878288016138a6565b91505092959194509250565b600081519050919050565b600082825260208201905092915050565b6000819050602082019050919050565b61398c81613479565b82525050565b600061399e8383613983565b60208301905092915050565b6000602082019050919050565b60006139c282613957565b6139cc8185613962565b93506139d783613973565b8060005b83811015613a085781516139ef8882613992565b97506139fa836139aa565b9250506001810190506139db565b5085935050505092915050565b60006020820190508181036000830152613a2f81846139b7565b905092915050565b60008060408385031215613a4e57613a4d613302565b5b6000613a5c8582860161354f565b9250506020613a6d8582860161354f565b9150509250929050565b6000613a82826134dc565b9050919050565b613a9281613a77565b82525050565b6000602082019050613aad6000830184613a89565b92915050565b7f4e487b7100000000000000000000000000000000000000000000000000000000600052602260045260246000fd5b60006002820490506001821680613afa57607f821691505b602082108103613b0d57613b0c613ab3565b5b50919050565b7f4552433732313a20617070726f76616c20746f2063757272656e74206f776e6560008201527f7200000000000000000000000000000000000000000000000000000000000000602082015250565b6000613b6f6021836133d2565b9150613b7a82613b13565b604082019050919050565b60006020820190508181036000830152613b9e81613b62565b9050919050565b7f4552433732313a20617070726f76652063616c6c6572206973206e6f7420746f60008201527f6b656e206f776e6572206f7220617070726f76656420666f7220616c6c000000602082015250565b6000613c01603d836133d2565b9150613c0c82613ba5565b604082019050919050565b60006020820190508181036000830152613c3081613bf4565b9050919050565b7f4974206973206e6f74206472617720706572696f642079657400000000000000600082015250565b6000613c6d6019836133d2565b9150613c7882613c37565b602082019050919050565b60006020820190508181036000830152613c9c81613c60565b9050919050565b7f4974206973206e6f74206d696e7420706572696f640000000000000000000000600082015250565b6000613cd96015836133d2565b9150613ce482613ca3565b602082019050919050565b60006020820190508181036000830152613d0881613ccc565b9050919050565b7f496e636f7272656374207061796d656e7420616d6f756e740000000000000000600082015250565b6000613d456018836133d2565b9150613d5082613d0f565b602082019050919050565b60006020820190508181036000830152613d7481613d38565b9050919050565b6000819050919050565b613d96613d9182613479565b613d7b565b82525050565b60008160601b9050919050565b6000613db482613d9c565b9050919050565b6000613dc682613da9565b9050919050565b613dde613dd9826134fc565b613dbb565b82525050565b6000613df08286613d85565b602082019150613e008285613dcd565b601482019150613e108284613d85565b602082019150819050949350505050565b7f54686973206361726420686173206475706c6963617465206e756d6265727300600082015250565b6000613e57601f836133d2565b9150613e6282613e21565b602082019050919050565b60006020820190508181036000830152613e8681613e4a565b9050919050565b7f4552433732313a2063616c6c6572206973206e6f7420746f6b656e206f776e6560008201527f72206f7220617070726f76656400000000000000000000000000000000000000602082015250565b6000613ee9602d836133d2565b9150613ef482613e8d565b604082019050919050565b60006020820190508181036000830152613f1881613edc565b9050919050565b7f455243373231456e756d657261626c653a206f776e657220696e646578206f7560008201527f74206f6620626f756e6473000000000000000000000000000000000000000000602082015250565b6000613f7b602b836133d2565b9150613f8682613f1f565b604082019050919050565b60006020820190508181036000830152613faa81613f6e565b9050919050565b7f4e487b7100000000000000000000000000000000000000000000000000000000600052601160045260246000fd5b6000613feb82613479565b91507fffffffffffffffffffffffffffffffffffffffffffffffffffffffffffffffff820361401d5761401c613fb1565b5b600182019050919050565b7f4e487b7100000000000000000000000000000000000000000000000000000000600052601260045260246000fd5b600061406282613479565b915061406d83613479565b92508261407d5761407c614028565b5b828206905092915050565b7f4e487b7100000000000000000000000000000000000000000000000000000000600052603260045260246000fd5b60006140c282613479565b91506140cd83613479565b92508282026140db81613479565b915082820484148315176140f2576140f1613fb1565b5b5092915050565b600061410482613479565b915061410f83613479565b925082820190508082111561412757614126613fb1565b5b92915050565b7f455243373231456e756d657261626c653a20676c6f62616c20696e646578206f60008201527f7574206f6620626f756e64730000000000000000000000000000000000000000602082015250565b6000614189602c836133d2565b91506141948261412d565b604082019050919050565b600060208201905081810360008301526141b88161417c565b9050919050565b7f4552433732313a20696e76616c696420746f6b656e2049440000000000000000600082015250565b60006141f56018836133d2565b9150614200826141bf565b602082019050919050565b60006020820190508181036000830152614224816141e8565b9050919050565b7f4552433732313a2061646472657373207a65726f206973206e6f74206120766160008201527f6c6964206f776e65720000000000000000000000000000000000000000000000602082015250565b60006142876029836133d2565b91506142928261422b565b604082019050919050565b600060208201905081810360008301526142b68161427a565b9050919050565b7f494e56414c49445f544f4b454e5f494400000000000000000000000000000000600082015250565b60006142f36010836133d2565b91506142fe826142bd565b602082019050919050565b60006020820190508181036000830152614322816142e6565b9050919050565b600060039050919050565b600081905092915050565b6000819050919050565b600060099050919050565b600081905092915050565b6000819050919050565b6000602082019050919050565b61437f81614349565b6143898184614354565b92506143948261435f565b8060005b838110156143c55781516143ac8782613992565b96506143b783614369565b925050600181019050614398565b505050505050565b60006143d98383614376565b6101208301905092915050565b6000602082019050919050565b6143fc81614329565b6144068184614334565b92506144118261433f565b8060005b8381101561444257815161442987826143cd565b9650614434836143e6565b925050600181019050614415565b505050505050565b600060039050919050565b600081905092915050565b6000819050919050565b600060099050919050565b600081905092915050565b6000819050919050565b61449381613391565b82525050565b60006144a5838361448a565b60208301905092915050565b6000602082019050919050565b6144c78161446a565b6144d18184614475565b92506144dc82614480565b8060005b8381101561450d5781516144f48782614499565b96506144ff836144b1565b9250506001810190506144e0565b505050505050565b600061452183836144be565b6101208301905092915050565b6000602082019050919050565b6145448161444a565b61454e8184614455565b925061455982614460565b8060005b8381101561458a5781516145718782614515565b965061457c8361452e565b92505060018101905061455d565b505050505050565b60006106e0820190506145a860008301866135a4565b6145b560208301856143f3565b6145c361038083018461453b565b949350505050565b600067ffffffffffffffff8211156145e6576145e56137a9565b5b6145ef8261340d565b9050602081019050919050565b600061460f61460a846145cb565b613809565b90508281526020810184848401111561462b5761462a6137a4565b5b6146368482856133e3565b509392505050565b600082601f8301126146535761465261379f565b5b81516146638482602086016145fc565b91505092915050565b60006020828403121561468257614681613302565b5b600082015167ffffffffffffffff8111156146a05761469f613307565b5b6146ac8482850161463e565b91505092915050565b7f47616d65204f7665720000000000000000000000000000000000000000000000600082015250565b60006146eb6009836133d2565b91506146f6826146b5565b602082019050919050565b6000602082019050818103600083015261471a816146de565b9050919050565b7f494e454c494749424c4500000000000000000000000000000000000000000000600082015250565b6000614757600a836133d2565b915061476282614721565b602082019050919050565b600060208201905081810360008301526147868161474a565b9050919050565b600061479882613479565b91506147a383613479565b9250826147b3576147b2614028565b5b828204905092915050565b600081905092915050565b50565b60006147d96000836147be565b91506147e4826147c9565b600082019050919050565b60006147fa826147cc565b9150819050919050565b6000819050919050565b600061482961482461481f846134dc565b614804565b6134dc565b9050919050565b600061483b8261480e565b9050919050565b600061484d82614830565b9050919050565b61485d81614842565b82525050565b600060408201905061487860008301856135a4565b6148856020830184614854565b9392505050565b7f4974206973206e6f74206472617720706572696f640000000000000000000000600082015250565b60006148c26015836133d2565b91506148cd8261488c565b602082019050919050565b600060208201905081810360008301526148f1816148b5565b9050919050565b7f4472617720746f6f20736f6f6e00000000000000000000000000000000000000600082015250565b600061492e600d836133d2565b9150614939826148f8565b602082019050919050565b6000602082019050818103600083015261495d81614921565b9050919050565b60006149708286613d85565b6020820191506149808285613d85565b6020820191506149908284613d85565b602082019150819050949350505050565b60006149ad8287613d85565b6020820191506149bd8286613d85565b6020820191506149cd8285613d85565b6020820191506149dd8284613d85565b60208201915081905095945050505050565b60006149fa82613479565b9150614a0583613479565b9250828203905081811115614a1d57614a1c613fb1565b5b92915050565b7f4552433732313a206d696e7420746f20746865207a65726f2061646472657373600082015250565b6000614a596020836133d2565b9150614a6482614a23565b602082019050919050565b60006020820190508181036000830152614a8881614a4c565b9050919050565b7f4552433732313a20746f6b656e20616c7265616479206d696e74656400000000600082015250565b6000614ac5601c836133d2565b9150614ad082614a8f565b602082019050919050565b60006020820190508181036000830152614af481614ab8565b9050919050565b7f4552433732313a207472616e736665722066726f6d20696e636f72726563742060008201527f6f776e6572000000000000000000000000000000000000000000000000000000602082015250565b6000614b576025836133d2565b9150614b6282614afb565b604082019050919050565b60006020820190508181036000830152614b8681614b4a565b9050919050565b7f4552433732313a207472616e7366657220746f20746865207a65726f2061646460008201527f7265737300000000000000000000000000000000000000000000000000000000602082015250565b6000614be96024836133d2565b9150614bf482614b8d565b604082019050919050565b60006020820190508181036000830152614c1881614bdc565b9050919050565b7f4552433732313a20617070726f766520746f2063616c6c657200000000000000600082015250565b6000614c556019836133d2565b9150614c6082614c1f565b602082019050919050565b60006020820190508181036000830152614c8481614c48565b9050919050565b7f4552433732313a207472616e7366657220746f206e6f6e20455243373231526560008201527f63656976657220696d706c656d656e7465720000000000000000000000000000602082015250565b6000614ce76032836133d2565b9150614cf282614c8b565b604082019050919050565b60006020820190508181036000830152614d1681614cda565b9050919050565b7f455243373231456e756d657261626c653a20636f6e736563757469766520747260008201527f616e7366657273206e6f7420737570706f727465640000000000000000000000602082015250565b6000614d796035836133d2565b9150614d8482614d1d565b604082019050919050565b60006020820190508181036000830152614da881614d6c565b9050919050565b600081519050919050565b600082825260208201905092915050565b6000614dd682614daf565b614de08185614dba565b9350614df08185602086016133e3565b614df98161340d565b840191505092915050565b6000608082019050614e19600083018761350e565b614e26602083018661350e565b614e3360408301856135a4565b8181036060830152614e458184614dcb565b905095945050505050565b600081519050614e5f81613338565b92915050565b600060208284031215614e7b57614e7a613302565b5b6000614e8984828501614e50565b91505092915050565b7f4e487b7100000000000000000000000000000000000000000000000000000000600052603160045260246000fdfea2646970667358221220fc87cb78245f942fc37f4a16802390564bd7bed75a22aa0310b124b00f657dcc64736f6c63430008110033",
  "devdoc": {
    "kind": "dev",
    "methods": {
      "approve(address,uint256)": {
        "details": "See {IERC721-approve}."
      },
      "balanceOf(address)": {
        "details": "See {IERC721-balanceOf}."
      },
      "getApproved(uint256)": {
        "details": "See {IERC721-getApproved}."
      },
      "isApprovedForAll(address,address)": {
        "details": "See {IERC721-isApprovedForAll}."
      },
      "name()": {
        "details": "See {IERC721Metadata-name}."
      },
      "ownerOf(uint256)": {
        "details": "See {IERC721-ownerOf}."
      },
      "safeTransferFrom(address,address,uint256)": {
        "details": "See {IERC721-safeTransferFrom}."
      },
      "safeTransferFrom(address,address,uint256,bytes)": {
        "details": "See {IERC721-safeTransferFrom}."
      },
      "setApprovalForAll(address,bool)": {
        "details": "See {IERC721-setApprovalForAll}."
      },
      "supportsInterface(bytes4)": {
        "details": "See {IERC165-supportsInterface}."
      },
      "symbol()": {
        "details": "See {IERC721Metadata-symbol}."
      },
      "tokenByIndex(uint256)": {
        "details": "See {IERC721Enumerable-tokenByIndex}."
      },
      "tokenOfOwnerByIndex(address,uint256)": {
        "details": "See {IERC721Enumerable-tokenOfOwnerByIndex}."
      },
      "tokenURI(uint256)": {
        "details": "See {IERC721Metadata-tokenURI}."
      },
      "totalSupply()": {
        "details": "See {IERC721Enumerable-totalSupply}."
      },
      "transferFrom(address,address,uint256)": {
        "details": "See {IERC721-transferFrom}."
      }
    },
    "version": 1
  },
  "userdoc": {
    "kind": "user",
    "methods": {},
    "version": 1
  },
  "storageLayout": {
    "storage": [
      {
        "astId": 25,
        "contract": "contracts/RegenBingo.sol:RegenBingo",
        "label": "_name",
        "offset": 0,
        "slot": "0",
        "type": "t_string_storage"
      },
      {
        "astId": 27,
        "contract": "contracts/RegenBingo.sol:RegenBingo",
        "label": "_symbol",
        "offset": 0,
        "slot": "1",
        "type": "t_string_storage"
      },
      {
        "astId": 31,
        "contract": "contracts/RegenBingo.sol:RegenBingo",
        "label": "_owners",
        "offset": 0,
        "slot": "2",
        "type": "t_mapping(t_uint256,t_address)"
      },
      {
        "astId": 35,
        "contract": "contracts/RegenBingo.sol:RegenBingo",
        "label": "_balances",
        "offset": 0,
        "slot": "3",
        "type": "t_mapping(t_address,t_uint256)"
      },
      {
        "astId": 39,
        "contract": "contracts/RegenBingo.sol:RegenBingo",
        "label": "_tokenApprovals",
        "offset": 0,
        "slot": "4",
        "type": "t_mapping(t_uint256,t_address)"
      },
      {
        "astId": 45,
        "contract": "contracts/RegenBingo.sol:RegenBingo",
        "label": "_operatorApprovals",
        "offset": 0,
        "slot": "5",
        "type": "t_mapping(t_address,t_mapping(t_address,t_bool))"
      },
      {
        "astId": 1093,
        "contract": "contracts/RegenBingo.sol:RegenBingo",
        "label": "_ownedTokens",
        "offset": 0,
        "slot": "6",
        "type": "t_mapping(t_address,t_mapping(t_uint256,t_uint256))"
      },
      {
        "astId": 1097,
        "contract": "contracts/RegenBingo.sol:RegenBingo",
        "label": "_ownedTokensIndex",
        "offset": 0,
        "slot": "7",
        "type": "t_mapping(t_uint256,t_uint256)"
      },
      {
        "astId": 1100,
        "contract": "contracts/RegenBingo.sol:RegenBingo",
        "label": "_allTokens",
        "offset": 0,
        "slot": "8",
        "type": "t_array(t_uint256)dyn_storage"
      },
      {
        "astId": 1104,
        "contract": "contracts/RegenBingo.sol:RegenBingo",
        "label": "_allTokensIndex",
        "offset": 0,
        "slot": "9",
        "type": "t_mapping(t_uint256,t_uint256)"
      },
      {
        "astId": 3649,
        "contract": "contracts/RegenBingo.sol:RegenBingo",
        "label": "metadataGenerator",
        "offset": 0,
        "slot": "10",
        "type": "t_contract(IRegenBingoMetadata)4412"
      },
      {
        "astId": 3652,
        "contract": "contracts/RegenBingo.sol:RegenBingo",
        "label": "bingoState",
        "offset": 20,
        "slot": "10",
        "type": "t_enum(BingoState)3598"
      },
      {
        "astId": 3654,
        "contract": "contracts/RegenBingo.sol:RegenBingo",
        "label": "mintPrice",
        "offset": 0,
        "slot": "11",
        "type": "t_uint256"
      },
      {
        "astId": 3656,
        "contract": "contracts/RegenBingo.sol:RegenBingo",
        "label": "drawTimestamp",
        "offset": 0,
        "slot": "12",
        "type": "t_uint256"
      },
      {
        "astId": 3658,
        "contract": "contracts/RegenBingo.sol:RegenBingo",
        "label": "drawNumberCooldownSeconds",
        "offset": 0,
        "slot": "13",
        "type": "t_uint256"
      },
      {
        "astId": 3660,
        "contract": "contracts/RegenBingo.sol:RegenBingo",
        "label": "lastDrawTime",
        "offset": 0,
        "slot": "14",
        "type": "t_uint256"
      },
      {
        "astId": 3662,
        "contract": "contracts/RegenBingo.sol:RegenBingo",
        "label": "donationAddress",
        "offset": 0,
        "slot": "15",
        "type": "t_address_payable"
      },
      {
        "astId": 3665,
        "contract": "contracts/RegenBingo.sol:RegenBingo",
        "label": "drawnNumbers",
        "offset": 0,
        "slot": "16",
        "type": "t_struct(UintSet)3448_storage"
      }
    ],
    "types": {
      "t_address": {
        "encoding": "inplace",
        "label": "address",
        "numberOfBytes": "20"
      },
      "t_address_payable": {
        "encoding": "inplace",
        "label": "address payable",
        "numberOfBytes": "20"
      },
      "t_array(t_bytes32)dyn_storage": {
        "base": "t_bytes32",
        "encoding": "dynamic_array",
        "label": "bytes32[]",
        "numberOfBytes": "32"
      },
      "t_array(t_uint256)dyn_storage": {
        "base": "t_uint256",
        "encoding": "dynamic_array",
        "label": "uint256[]",
        "numberOfBytes": "32"
      },
      "t_bool": {
        "encoding": "inplace",
        "label": "bool",
        "numberOfBytes": "1"
      },
      "t_bytes32": {
        "encoding": "inplace",
        "label": "bytes32",
        "numberOfBytes": "32"
      },
      "t_contract(IRegenBingoMetadata)4412": {
        "encoding": "inplace",
        "label": "contract IRegenBingoMetadata",
        "numberOfBytes": "20"
      },
      "t_enum(BingoState)3598": {
        "encoding": "inplace",
        "label": "enum RegenBingo.BingoState",
        "numberOfBytes": "1"
      },
      "t_mapping(t_address,t_bool)": {
        "encoding": "mapping",
        "key": "t_address",
        "label": "mapping(address => bool)",
        "numberOfBytes": "32",
        "value": "t_bool"
      },
      "t_mapping(t_address,t_mapping(t_address,t_bool))": {
        "encoding": "mapping",
        "key": "t_address",
        "label": "mapping(address => mapping(address => bool))",
        "numberOfBytes": "32",
        "value": "t_mapping(t_address,t_bool)"
      },
      "t_mapping(t_address,t_mapping(t_uint256,t_uint256))": {
        "encoding": "mapping",
        "key": "t_address",
        "label": "mapping(address => mapping(uint256 => uint256))",
        "numberOfBytes": "32",
        "value": "t_mapping(t_uint256,t_uint256)"
      },
      "t_mapping(t_address,t_uint256)": {
        "encoding": "mapping",
        "key": "t_address",
        "label": "mapping(address => uint256)",
        "numberOfBytes": "32",
        "value": "t_uint256"
      },
      "t_mapping(t_bytes32,t_uint256)": {
        "encoding": "mapping",
        "key": "t_bytes32",
        "label": "mapping(bytes32 => uint256)",
        "numberOfBytes": "32",
        "value": "t_uint256"
      },
      "t_mapping(t_uint256,t_address)": {
        "encoding": "mapping",
        "key": "t_uint256",
        "label": "mapping(uint256 => address)",
        "numberOfBytes": "32",
        "value": "t_address"
      },
      "t_mapping(t_uint256,t_uint256)": {
        "encoding": "mapping",
        "key": "t_uint256",
        "label": "mapping(uint256 => uint256)",
        "numberOfBytes": "32",
        "value": "t_uint256"
      },
      "t_string_storage": {
        "encoding": "bytes",
        "label": "string",
        "numberOfBytes": "32"
      },
      "t_struct(Set)2976_storage": {
        "encoding": "inplace",
        "label": "struct EnumerableSet.Set",
        "members": [
          {
            "astId": 2971,
            "contract": "contracts/RegenBingo.sol:RegenBingo",
            "label": "_values",
            "offset": 0,
            "slot": "0",
            "type": "t_array(t_bytes32)dyn_storage"
          },
          {
            "astId": 2975,
            "contract": "contracts/RegenBingo.sol:RegenBingo",
            "label": "_indexes",
            "offset": 0,
            "slot": "1",
            "type": "t_mapping(t_bytes32,t_uint256)"
          }
        ],
        "numberOfBytes": "64"
      },
      "t_struct(UintSet)3448_storage": {
        "encoding": "inplace",
        "label": "struct EnumerableSet.UintSet",
        "members": [
          {
            "astId": 3447,
            "contract": "contracts/RegenBingo.sol:RegenBingo",
            "label": "_inner",
            "offset": 0,
            "slot": "0",
            "type": "t_struct(Set)2976_storage"
          }
        ],
        "numberOfBytes": "64"
      },
      "t_uint256": {
        "encoding": "inplace",
        "label": "uint256",
        "numberOfBytes": "32"
      }
    }
  }
}