{
  "address": "0x4398208AEf920ab4ca0CB2af8726f7aF7B8f5c54",
  "abi": [
    {
      "inputs": [
        {
          "internalType": "address",
          "name": "_dateTimeContractAddress",
          "type": "address"
        }
      ],
      "stateMutability": "nonpayable",
      "type": "constructor"
    },
    {
      "inputs": [
        {
          "internalType": "uint256",
          "name": "tokenId",
          "type": "uint256"
        },
        {
          "internalType": "uint256[9][3]",
          "name": "numbers",
          "type": "uint256[9][3]"
        },
        {
          "internalType": "bool[9][3]",
          "name": "covered",
          "type": "bool[9][3]"
        },
        {
          "internalType": "uint256",
          "name": "donationAmount",
          "type": "uint256"
        },
        {
          "internalType": "string",
          "name": "donationName",
          "type": "string"
        },
        {
          "internalType": "address",
          "name": "donationAddress",
          "type": "address"
        },
        {
          "internalType": "bool",
          "name": "isBingoFinished",
          "type": "bool"
        },
        {
          "internalType": "uint256",
          "name": "drawTimestamp",
          "type": "uint256"
        }
      ],
      "name": "generateTokenSVG",
      "outputs": [
        {
          "internalType": "string",
          "name": "",
          "type": "string"
        }
      ],
      "stateMutability": "view",
      "type": "function"
    }
  ],
  "transactionHash": "0x04562212ca6892f63242afea53026f72c63f89943ea20b9f230068a34ec83a12",
  "args": [
    "0x85CC560EfebA375959B0FBA451cF4eBD1c8E6FA6"
  ],
  "numDeployments": 1,
  "solcInputHash": "6b891611c987b2e73bde0bfc8fd25a1e",
  "bytecode": "0x60806040526040518061050001604052806040518060400160405280600781526020017f233566396538300000000000000000000000000000000000000000000000000081525081526020016040518060400160405280600781526020017f233930394637390000000000000000000000000000000000000000000000000081525081526020016040518060400160405280600781526020017f233943393439310000000000000000000000000000000000000000000000000081525081526020016040518060400160405280600781526020017f234130423539450000000000000000000000000000000000000000000000000081525081526020016040518060400160405280600781526020017f236133623138610000000000000000000000000000000000000000000000000081525081526020016040518060400160405280600781526020017f234139423941390000000000000000000000000000000000000000000000000081525081526020016040518060400160405280600781526020017f236230383936380000000000000000000000000000000000000000000000000081525081526020016040518060400160405280600781526020017f236231613761360000000000000000000000000000000000000000000000000081525081526020016040518060400160405280600781526020017f236235373137300000000000000000000000000000000000000000000000000081525081526020016040518060400160405280600781526020017f236235653438630000000000000000000000000000000000000000000000000081525081526020016040518060400160405280600781526020017f234241423836430000000000000000000000000000000000000000000000000081525081526020016040518060400160405280600781526020017f236339616461370000000000000000000000000000000000000000000000000081525081526020016040518060400160405280600781526020017f236361643263350000000000000000000000000000000000000000000000000081525081526020016040518060400160405280600781526020017f236362663366300000000000000000000000000000000000000000000000000081525081526020016040518060400160405280600781526020017f236363643561650000000000000000000000000000000000000000000000000081525081526020016040518060400160405280600781526020017f236363653364650000000000000000000000000000000000000000000000000081525081526020016040518060400160405280600781526020017f234430433441420000000000000000000000000000000000000000000000000081525081526020016040518060400160405280600781526020017f236432623438630000000000000000000000000000000000000000000000000081525081526020016040518060400160405280600781526020017f236434613337330000000000000000000000000000000000000000000000000081525081526020016040518060400160405280600781526020017f236435626461660000000000000000000000000000000000000000000000000081525081526020016040518060400160405280600781526020017f236439656439320000000000000000000000000000000000000000000000000081525081526020016040518060400160405280600781526020017f236461643763640000000000000000000000000000000000000000000000000081525081526020016040518060400160405280600781526020017f236463616539360000000000000000000000000000000000000000000000000081525081526020016040518060400160405280600781526020017f236464613135650000000000000000000000000000000000000000000000000081525081526020016040518060400160405280600781526020017f236464623839320000000000000000000000000000000000000000000000000081525081526020016040518060400160405280600781526020017f234530424234340000000000000000000000000000000000000000000000000081525081526020016040518060400160405280600781526020017f236536636362320000000000000000000000000000000000000000000000000081525081526020016040518060400160405280600781526020017f236539643861360000000000000000000000000000000000000000000000000081525081526020016040518060400160405280600781526020017f236539656463390000000000000000000000000000000000000000000000000081525081526020016040518060400160405280600781526020017f236561616338620000000000000000000000000000000000000000000000000081525081526020016040518060400160405280600781526020017f236565633634330000000000000000000000000000000000000000000000000081525081526020016040518060400160405280600781526020017f236632633037380000000000000000000000000000000000000000000000000081525081526020016040518060400160405280600781526020017f236635663564630000000000000000000000000000000000000000000000000081525081526020016040518060400160405280600781526020017f236637633539660000000000000000000000000000000000000000000000000081525081526020016040518060400160405280600781526020017f236665633839610000000000000000000000000000000000000000000000000081525081526020016040518060400160405280600781526020017f236666623561370000000000000000000000000000000000000000000000000081525081526020016040518060400160405280600781526020017f236666633433640000000000000000000000000000000000000000000000000081525081526020016040518060400160405280600781526020017f236666646162390000000000000000000000000000000000000000000000000081525081526020016040518060400160405280600781526020017f236666653562340000000000000000000000000000000000000000000000000081525081526020016040518060400160405280600781526020017f236666656664350000000000000000000000000000000000000000000000000081525081525060009060286200095892919062000cb5565b506040518061018001604052806040518060400160405280600781526020017f4a616e756172790000000000000000000000000000000000000000000000000081525081526020016040518060400160405280600881526020017f466562727561727900000000000000000000000000000000000000000000000081525081526020016040518060400160405280600581526020017f4d6172636800000000000000000000000000000000000000000000000000000081525081526020016040518060400160405280600581526020017f417072696c00000000000000000000000000000000000000000000000000000081525081526020016040518060400160405280600381526020017f4d6179000000000000000000000000000000000000000000000000000000000081525081526020016040518060400160405280600481526020017f4a756e650000000000000000000000000000000000000000000000000000000081525081526020016040518060400160405280600481526020017f4a756c790000000000000000000000000000000000000000000000000000000081525081526020016040518060400160405280600681526020017f417567757374000000000000000000000000000000000000000000000000000081525081526020016040518060400160405280600981526020017f53657074656d626572000000000000000000000000000000000000000000000081525081526020016040518060400160405280600781526020017f4f63746f6265720000000000000000000000000000000000000000000000000081525081526020016040518060400160405280600881526020017f4e6f76656d62657200000000000000000000000000000000000000000000000081525081526020016040518060400160405280600881526020017f446563656d626572000000000000000000000000000000000000000000000000815250815250602890600c62000c3992919062000d08565b5034801562000c4757600080fd5b5060405162004a5538038062004a55833981810160405281019062000c6d919062000e52565b80603460006101000a81548173ffffffffffffffffffffffffffffffffffffffff021916908373ffffffffffffffffffffffffffffffffffffffff16021790555050620011e5565b826028810192821562000cf5579160200282015b8281111562000cf457825182908162000ce39190620010fe565b509160200191906001019062000cc9565b5b50905062000d04919062000d5b565b5090565b82600c810192821562000d48579160200282015b8281111562000d4757825182908162000d369190620010fe565b509160200191906001019062000d1c565b5b50905062000d57919062000d5b565b5090565b5b8082111562000d7f576000818162000d75919062000d83565b5060010162000d5c565b5090565b50805462000d919062000eed565b6000825580601f1062000da5575062000dc6565b601f01602090049060005260206000209081019062000dc5919062000dc9565b5b50565b5b8082111562000de457600081600090555060010162000dca565b5090565b600080fd5b600073ffffffffffffffffffffffffffffffffffffffff82169050919050565b600062000e1a8262000ded565b9050919050565b62000e2c8162000e0d565b811462000e3857600080fd5b50565b60008151905062000e4c8162000e21565b92915050565b60006020828403121562000e6b5762000e6a62000de8565b5b600062000e7b8482850162000e3b565b91505092915050565b600081519050919050565b7f4e487b7100000000000000000000000000000000000000000000000000000000600052604160045260246000fd5b7f4e487b7100000000000000000000000000000000000000000000000000000000600052602260045260246000fd5b6000600282049050600182168062000f0657607f821691505b60208210810362000f1c5762000f1b62000ebe565b5b50919050565b60008190508160005260206000209050919050565b60006020601f8301049050919050565b600082821b905092915050565b60006008830262000f867fffffffffffffffffffffffffffffffffffffffffffffffffffffffffffffffff8262000f47565b62000f92868362000f47565b95508019841693508086168417925050509392505050565b6000819050919050565b6000819050919050565b600062000fdf62000fd962000fd38462000faa565b62000fb4565b62000faa565b9050919050565b6000819050919050565b62000ffb8362000fbe565b620010136200100a8262000fe6565b84845462000f54565b825550505050565b600090565b6200102a6200101b565b6200103781848462000ff0565b505050565b5b818110156200105f576200105360008262001020565b6001810190506200103d565b5050565b601f821115620010ae57620010788162000f22565b620010838462000f37565b8101602085101562001093578190505b620010ab620010a28562000f37565b8301826200103c565b50505b505050565b600082821c905092915050565b6000620010d360001984600802620010b3565b1980831691505092915050565b6000620010ee8383620010c0565b9150826002028217905092915050565b620011098262000e84565b67ffffffffffffffff81111562001125576200112462000e8f565b5b62001131825462000eed565b6200113e82828562001063565b600060209050601f83116001811462001176576000841562001161578287015190505b6200116d8582620010e0565b865550620011dd565b601f198416620011868662000f22565b60005b82811015620011b05784890151825560018201915060208501945060208101905062001189565b86831015620011d05784890151620011cc601f891682620010c0565b8355505b6001600288020188555050505b505050505050565b61386080620011f56000396000f3fe608060405234801561001057600080fd5b506004361061002b5760003560e01c8063fbb5cf1a14610030575b600080fd5b61004a60048036038101906100459190610ff5565b610060565b604051610057919061114c565b60405180910390f35b6060600060288a610071919061119d565b60288110610082576100816111ce565b5b0160405160200161009290611d3d565b6040516020818303038152906040526100ae8888888888610188565b6040516020016100bd90611efa565b6040516020818303038152906040526040518060c0016040528060978152602001613794609791396100ee8e610263565b6040516020016100fd9061211e565b6040516020818303038152906040526101168f8f6102ca565b604051602001610125906123da565b6040516020818303038152906040526040516020016101439061288f565b60405160208183030381529060405260405160200161016b9a99989796959493929190612c4f565b604051602081830303815290604052905098975050505050505050565b6060826101ca576040518060400160405280600981526020017f446f6e6174696e67200000000000000000000000000000000000000000000000815250610201565b6040518060400160405280600881526020017f446f6e61746564200000000000000000000000000000000000000000000000008152505b61020a876103e8565b8661022c8773ffffffffffffffffffffffffffffffffffffffff166014610639565b61023586610875565b604051602001610249959493929190612d53565b604051602081830303815290604052905095945050505050565b60606102a46101688360405160200161027c9190612de0565b6040516020818303038152906040528051906020012060001c61029f919061119d565b610a21565b6040516020016102b49190612eb9565b6040516020818303038152906040529050919050565b60608060005b60038110156103dd5760005b60098110156103c95760008683600381106102fa576102f96111ce565b5b61012002018260098110610311576103106111ce565b5b602002013511156103b657826103938383898660038110610335576103346111ce565b5b6101200201856009811061034c5761034b6111ce565b5b6020020135898760038110610364576103636111ce565b5b6101200201866009811061037b5761037a6111ce565b5b60200201602081019061038e9190612ee6565b610aef565b6040516020016103a4929190612f13565b60405160208183030381529060405292505b80806103c190612f66565b9150506102dc565b5080806103d590612f66565b9150506102d0565b508091505092915050565b6060806060610409670de0b6b3a7640000856104049190612fae565b610a21565b91506000670de0b6b3a764000085610421919061119d565b03610463576040518060400160405280600381526020017f2e30300000000000000000000000000000000000000000000000000000000000815250905061060e565b6000610481670de0b6b3a76400008661047c919061119d565b610a21565b90506000815160126104939190612fdf565b9050600080835190505b60008111156105a6577f30000000000000000000000000000000000000000000000000000000000000007effffffffffffffffffffffffffffffffffffffffffffffffffffffffffffff1916846001836104f79190612fdf565b81518110610508576105076111ce565b5b602001015160f81c60f81b7effffffffffffffffffffffffffffffffffffffffffffffffffffffffffffff19161461053f57600191505b811561059357836001826105539190612fdf565b81518110610564576105636111ce565b5b602001015160f81c60f81b85604051602001610581929190613060565b60405160208183030381529060405294505b808061059e90613088565b91505061049d565b5060005b828110156105e757846040516020016105c391906130fd565b604051602081830303815290604052945080806105df90612f66565b9150506105aa565b50836040516020016105f9919061316b565b60405160208183030381529060405293505050505b81816040516020016106219291906131d9565b60405160208183030381529060405292505050919050565b60606000600283600261064c9190613208565b610656919061324a565b67ffffffffffffffff81111561066f5761066e610e34565b5b6040519080825280601f01601f1916602001820160405280156106a15781602001600182028036833780820191505090505b5090507f3000000000000000000000000000000000000000000000000000000000000000816000815181106106d9576106d86111ce565b5b60200101907effffffffffffffffffffffffffffffffffffffffffffffffffffffffffffff1916908160001a9053507f78000000000000000000000000000000000000000000000000000000000000008160018151811061073d5761073c6111ce565b5b60200101907effffffffffffffffffffffffffffffffffffffffffffffffffffffffffffff1916908160001a9053506000600184600261077d9190613208565b610787919061324a565b90505b6001811115610827577f3031323334353637383961626364656600000000000000000000000000000000600f8616601081106107c9576107c86111ce565b5b1a60f81b8282815181106107e0576107df6111ce565b5b60200101907effffffffffffffffffffffffffffffffffffffffffffffffffffffffffffff1916908160001a905350600485901c94508061082090613088565b905061078a565b506000841461086b576040517f08c379a0000000000000000000000000000000000000000000000000000000008152600401610862906132ca565b60405180910390fd5b8091505092915050565b60606000806000806000603460009054906101000a900473ffffffffffffffffffffffffffffffffffffffff1673ffffffffffffffffffffffffffffffffffffffff1663ea1c1690886040518263ffffffff1660e01b81526004016108da91906132f9565b60c060405180830381865afa1580156108f7573d6000803e3d6000fd5b505050506040513d601f19601f8201168201806040525081019061091b9190613329565b508095508196508297508398508499505050505050606080600a83101561096b5761094583610a21565b60405160200161095591906130fd565b6040516020818303038152906040529150610977565b61097483610a21565b91505b600a8410156109af5761098984610a21565b60405160200161099991906130fd565b60405160208183030381529060405290506109bb565b6109b884610a21565b90505b60286001876109ca9190612fdf565b600c81106109db576109da6111ce565b5b016109e586610a21565b6109ee89610a21565b8385604051602001610a049594939291906134e6565b604051602081830303815290604052975050505050505050919050565b606060006001610a3084610c31565b01905060008167ffffffffffffffff811115610a4f57610a4e610e34565b5b6040519080825280601f01601f191660200182016040528015610a815781602001600182028036833780820191505090505b509050600082602001820190505b600115610ae4578080600190039150507f3031323334353637383961626364656600000000000000000000000000000000600a86061a8153600a8581610ad857610ad761116e565b5b04945060008503610a8f575b819350505050919050565b6060806060806000610b1961012c60c88a610b0a9190613208565b610b14919061324a565b610a21565b90506000610b3f61038460c88c610b309190613208565b610b3a919061324a565b610a21565b9050600a881015610b7e57610b77602360f060c88c610b5e9190613208565b610b68919061324a565b610b72919061324a565b610a21565b9350610ba2565b610b9f60f060c88b610b909190613208565b610b9a919061324a565b610a21565b93505b610bc46103a760c88c610bb59190613208565b610bbf919061324a565b610a21565b92508615610bf1578181604051602001610bdf92919061364c565b60405160208183030381529060405294505b848484610bfd8b610a21565b604051602001610c109493929190613729565b60405160208183030381529060405294508495505050505050949350505050565b600080600090507a184f03e93ff9f4daa797ed6e38ed64bf6a1f0100000000000000008310610c8f577a184f03e93ff9f4daa797ed6e38ed64bf6a1f0100000000000000008381610c8557610c8461116e565b5b0492506040810190505b6d04ee2d6d415b85acef81000000008310610ccc576d04ee2d6d415b85acef81000000008381610cc257610cc161116e565b5b0492506020810190505b662386f26fc100008310610cfb57662386f26fc100008381610cf157610cf061116e565b5b0492506010810190505b6305f5e1008310610d24576305f5e1008381610d1a57610d1961116e565b5b0492506008810190505b6127108310610d49576127108381610d3f57610d3e61116e565b5b0492506004810190505b60648310610d6c5760648381610d6257610d6161116e565b5b0492506002810190505b600a8310610d7b576001810190505b80915050919050565b6000604051905090565b600080fd5b600080fd5b6000819050919050565b610dab81610d98565b8114610db657600080fd5b50565b600081359050610dc881610da2565b92915050565b600080fd5b60008190508261012060030282011115610df057610def610dce565b5b92915050565b60008190508261012060030282011115610e1357610e12610dce565b5b92915050565b600080fd5b600080fd5b6000601f19601f8301169050919050565b7f4e487b7100000000000000000000000000000000000000000000000000000000600052604160045260246000fd5b610e6c82610e23565b810181811067ffffffffffffffff82111715610e8b57610e8a610e34565b5b80604052505050565b6000610e9e610d84565b9050610eaa8282610e63565b919050565b600067ffffffffffffffff821115610eca57610ec9610e34565b5b610ed382610e23565b9050602081019050919050565b82818337600083830152505050565b6000610f02610efd84610eaf565b610e94565b905082815260208101848484011115610f1e57610f1d610e1e565b5b610f29848285610ee0565b509392505050565b600082601f830112610f4657610f45610e19565b5b8135610f56848260208601610eef565b91505092915050565b600073ffffffffffffffffffffffffffffffffffffffff82169050919050565b6000610f8a82610f5f565b9050919050565b610f9a81610f7f565b8114610fa557600080fd5b50565b600081359050610fb781610f91565b92915050565b60008115159050919050565b610fd281610fbd565b8114610fdd57600080fd5b50565b600081359050610fef81610fc9565b92915050565b600080600080600080600080610780898b03121561101657611015610d8e565b5b60006110248b828c01610db9565b98505060206110358b828c01610dd3565b9750506103806110478b828c01610df6565b9650506106e06110598b828c01610db9565b95505061070089013567ffffffffffffffff81111561107b5761107a610d93565b5b6110878b828c01610f31565b9450506107206110998b828c01610fa8565b9350506107406110ab8b828c01610fe0565b9250506107606110bd8b828c01610db9565b9150509295985092959890939650565b600081519050919050565b600082825260208201905092915050565b60005b838110156111075780820151818401526020810190506110ec565b60008484015250505050565b600061111e826110cd565b61112881856110d8565b93506111388185602086016110e9565b61114181610e23565b840191505092915050565b600060208201905081810360008301526111668184611113565b905092915050565b7f4e487b7100000000000000000000000000000000000000000000000000000000600052601260045260246000fd5b60006111a882610d98565b91506111b383610d98565b9250826111c3576111c261116e565b5b828206905092915050565b7f4e487b7100000000000000000000000000000000000000000000000000000000600052603260045260246000fd5b600081905092915050565b7f3c646566733e0000000000000000000000000000000000000000000000000000600082015250565b600061123e6006836111fd565b915061124982611208565b600682019050919050565b7f3c672069643d2270223e3c706174682066696c6c3d222330324532414322206460008201527f3d224d31302d302031302d31364131203120302030302d31302d31364c2d313060208201527f20307a222f3e3c706174682066696c6c3d22234233464645442220643d224d2d60408201527f313020302d31302031364131203120313820303031302031364c31302d307a2260608201527f2f3e3c2f673e3c672069643d22706267223e3c75736520687265663d2223702260808201527f207472616e73666f726d3d227472616e736c617465283136303020313733332960a08201527f20726f74617465283133302034343220343129207363616c6528322c3229222f60c08201527f3e3c75736520687265663d22237022207472616e73666f726d3d227472616e7360e08201527f6c6174652835303020323133332920726f7461746528343420313120353535296101008201527f207363616c6528322c3229222f3e3c75736520687265663d22237022207472616101208201527f6e73666f726d3d227472616e736c6174652832303020323230302920726f74616101408201527f7465283230203230302032303029207363616c6528322c3229222f3e3c7573656101608201527f20687265663d22237022207472616e73666f726d3d227472616e736c617465286101808201527f31303030203331352920726f74617465283133302034343220343129207363616101a08201527f6c6528322c3229222f3e3c75736520687265663d22237022207472616e73666f6101c08201527f726d3d227472616e736c617465283530203235302920726f74617465283830206101e08201527f3230302032303029207363616c6528322c3229222f3e3c75736520687265663d6102008201527f22237022207472616e73666f726d3d227472616e736c617465283434342038386102208201527f382920726f7461746528313630203430302034303029207363616c6528322c326102408201527f29222f3e3c75736520687265663d22237022207472616e73666f726d3d2274726102608201527f616e736c6174652834303020313730302920726f7461746528343020363720316102808201527f323429207363616c6528322c3229222f3e3c75736520687265663d22237022206102a08201527f7472616e73666f726d3d227472616e736c6174652830203535302920726f74616102c08201527f7465283134302031312033363229207363616c6528322c3229222f3e3c7573656102e08201527f20687265663d22237022207472616e73666f726d3d227472616e736c617465286103008201527f3020313130302920726f746174652830203230302032303029207363616c65286103208201527f332c3329222f3e3c75736520687265663d22237022207472616e73666f726d3d6103408201527f227472616e736c6174652831373333203333332920726f7461746528323939206103608201527f363020363029207363616c6528332c3329222f3e3c75736520687265663d22236103808201527f7022207472616e73666f726d3d227472616e736c6174652831333132203530296103a08201527f20726f7461746528393920313420323129207363616c6528332c3329222f3e3c6103c08201527f75736520687265663d22237022207472616e73666f726d3d227472616e736c616103e08201527f7465283232303020313939332920726f746174652831312034313420323431296104008201527f207363616c6528332c3329222f3e3c75736520687265663d22237022207472616104208201527f6e73666f726d3d227472616e736c6174652836333020302920726f74617465286104408201527f3330203132342035333229207363616c6528332c3329222f3e3c7573652068726104608201527f65663d22237022207472616e73666f726d3d227472616e736c617465283137356104808201527f30203835302920726f74617465283630203230302032303029207363616c65286104a08201527f332c3329222f3e3c75736520687265663d22237022207472616e73666f726d3d6104c08201527f227472616e736c617465283020302920726f74617465283331302035393520336104e08201527f383129207363616c6528332c3329222f3e3c75736520687265663d22237022206105008201527f7472616e73666f726d3d227472616e736c6174652833303020313130302920726105208201527f6f7461746528313830203439312033373229207363616c6528332c3329222f3e6105408201527f3c75736520687265663d22237022207472616e73666f726d3d227472616e736c6105608201527f6174652832313530203635302920726f746174652833323020373133203332316105808201527f29207363616c6528342c3429222f3e3c75736520687265663d222370222074726105a08201527f616e73666f726d3d227472616e736c61746528343030203430302920726f74616105c08201527f746528313830203730302037303029207363616c6528342c3429222f3e3c75736105e08201527f6520687265663d22237022207472616e73666f726d3d227472616e736c6174656106008201527f283130203135352920726f7461746528323830203431322031333229207363616106208201527f6c6528342c3429222f3e3c75736520687265663d22237022207472616e73666f6106408201527f726d3d227472616e736c6174652831322039332920726f7461746528333320326106608201527f34312034313429207363616c6528342c3429222f3e3c75736520687265663d226106808201527f237022207472616e73666f726d3d227472616e736c61746528323530203139396106a08201527f372920726f7461746528313030203230302032303029207363616c6528342c346106c08201527f29222f3e3c75736520687265663d22237022207472616e73666f726d3d2274726106e08201527f616e736c617465283131313420323134312920726f74617465283531203131206107008201527f34313029207363616c6528342c3429222f3e3c75736520687265663d222370226107208201527f207472616e73666f726d3d227472616e736c617465282d3136322031363933296107408201527f20726f74617465283430203431342032343129207363616c6528342c3429222f6107608201527f3e3c75736520687265663d22237022207472616e73666f726d3d227472616e736107808201527f6c61746528333935203131332920726f746174652831343020323431203235316107a08201527f29207363616c6528342c3429222f3e3c2f673e000000000000000000000000006107c082015250565b6000611bf66107d3836111fd565b9150611c0182611254565b6107d382019050919050565b7f3c706174682069643d2270742220643d224d302030204c343830302030205a2260008201527f2f3e000000000000000000000000000000000000000000000000000000000000602082015250565b6000611c696022836111fd565b9150611c7482611c0d565b602282019050919050565b7f3c746578742069643d2274223e00000000000000000000000000000000000000600082015250565b6000611cb5600d836111fd565b9150611cc082611c7f565b600d82019050919050565b7f3c746578745061746820786c696e6b3a687265663d222370742220746578744c60008201527f656e6774683d22323230302220666f6e742d73697a653d223335223e00000000602082015250565b6000611d27603c836111fd565b9150611d3282611ccb565b603c82019050919050565b6000611d4882611231565b9150611d5382611be8565b9150611d5e82611c5c565b9150611d6982611ca8565b9150611d7482611d1a565b9150819050919050565b7f3c616e696d617465206174747269627574654e616d653d2273746172744f666660008201527f736574222076616c7565733d22323430303b203022206475723d22397322207260208201527f6570656174436f756e743d22696e646566696e697465222f3e20000000000000604082015250565b6000611e00605a836111fd565b9150611e0b82611d7e565b605a82019050919050565b7f3c2f74657874506174683e000000000000000000000000000000000000000000600082015250565b6000611e4c600b836111fd565b9150611e5782611e16565b600b82019050919050565b7f3c2f746578743e00000000000000000000000000000000000000000000000000600082015250565b6000611e986007836111fd565b9150611ea382611e62565b600782019050919050565b7f3c2f646566733e00000000000000000000000000000000000000000000000000600082015250565b6000611ee46007836111fd565b9150611eef82611eae565b600782019050919050565b6000611f0582611df3565b9150611f1082611e3f565b9150611f1b82611e8b565b9150611f2682611ed7565b9150819050919050565b7f3c7061747465726e2069643d226267222077696474683d22302e31313131313160008201527f31313131313122206865696768743d22302e333333333333333333333333223e602082015250565b6000611f8c6040836111fd565b9150611f9782611f30565b604082019050919050565b7f3c706f6c79676f6e20636c6173733d22612220706f696e74733d22302c30203060008201527f2c323030203230302c323030222f3e0000000000000000000000000000000000602082015250565b6000611ffe602f836111fd565b915061200982611fa2565b602f82019050919050565b7f3c706f6c79676f6e20636c6173733d22632220706f696e74733d22302c30203260008201527f30302c30203230302c323030222f3e0000000000000000000000000000000000602082015250565b6000612070602f836111fd565b915061207b82612014565b602f82019050919050565b7f3c7265637420636c6173733d22642220783d2232302220793d2232302220776960008201527f6474683d2231363022206865696768743d22313630222f3e3c2f70617474657260208201527f6e3e000000000000000000000000000000000000000000000000000000000000604082015250565b60006121086042836111fd565b915061211382612086565b604282019050919050565b600061212982611f7f565b915061213482611ff1565b915061213f82612063565b915061214a826120fb565b9150819050919050565b7f3c706f6c79676f6e20636c6173733d22622220706f696e74733d223230302c3560008201527f3030203230302c38303020323030302c38303020323030302c353030222f3e00602082015250565b60006121b0603f836111fd565b91506121bb82612154565b603f82019050919050565b7f3c706f6c79676f6e20636c6173733d22632220706f696e74733d223230302c3560008201527f3030203230302c383030203335302c363530222f3e0000000000000000000000602082015250565b60006122226035836111fd565b915061222d826121c6565b603582019050919050565b7f3c706f6c79676f6e20636c6173733d22632220706f696e74733d22323030302c60008201527f35303020323030302c38303020313835302c363530222f3e0000000000000000602082015250565b60006122946038836111fd565b915061229f82612238565b603882019050919050565b7f3c7265637420636c6173733d22642220783d223232302220793d22353230222060008201527f77696474683d223137363022206865696768743d22323630222f3e0000000000602082015250565b6000612306603b836111fd565b9150612311826122aa565b603b82019050919050565b7f3c7465787420783d22313130302220793d223635302220646f6d696e616e742d60008201527f626173656c696e653d226d6964646c652220746578742d616e63686f723d226d60208201527f6964646c6522207374796c653d22666f6e742d73697a653a313530223e52656760408201527f656e2042696e676f3c2f746578743e0000000000000000000000000000000000606082015250565b60006123c4606f836111fd565b91506123cf8261231c565b606f82019050919050565b60006123e5826121a3565b91506123f082612215565b91506123fb82612287565b9150612406826122f9565b9150612411826123b7565b9150819050919050565b7f3c706f6c79676f6e20636c6173733d22622220706f696e74733d223230302c3160008201527f343030203230302c3135303020323030302c3135303020323030302c3134303060208201527f222f3e0000000000000000000000000000000000000000000000000000000000604082015250565b600061249d6043836111fd565b91506124a88261241b565b604382019050919050565b7f3c706f6c79676f6e20636c6173733d22612220706f696e74733d223230302c3160008201527f343030203230302c31353030203235302c31343530222f3e0000000000000000602082015250565b600061250f6038836111fd565b915061251a826124b3565b603882019050919050565b7f3c706f6c79676f6e20636c6173733d22612220706f696e74733d22323030302c60008201527f3134303020323030302c3135303020313935302c31343530222f3e0000000000602082015250565b6000612581603b836111fd565b915061258c82612525565b603b82019050919050565b7f3c7265637420636c6173733d22642220783d223232302220793d22313432302260008201527f2077696474683d223137363022206865696768743d223630222f3e0000000000602082015250565b60006125f3603b836111fd565b91506125fe82612597565b603b82019050919050565b7f3c636c6970506174682069643d22636c6970223e000000000000000000000000600082015250565b600061263f6014836111fd565b915061264a82612609565b601482019050919050565b7f3c7265637420783d223233302220793d2231343230222077696474683d22313760008201527f343022206865696768743d223630222f3e000000000000000000000000000000602082015250565b60006126b16031836111fd565b91506126bc82612655565b603182019050919050565b7f3c2f636c6970506174683e000000000000000000000000000000000000000000600082015250565b60006126fd600b836111fd565b9150612708826126c7565b600b82019050919050565b7f3c6720636c69702d706174683d2275726c2823636c697029223e000000000000600082015250565b6000612749601a836111fd565b915061275482612713565b601a82019050919050565b7f3c75736520783d222d313930302220793d22313436302220687265663d22237460008201527f222f3e0000000000000000000000000000000000000000000000000000000000602082015250565b60006127bb6023836111fd565b91506127c68261275f565b602382019050919050565b7f3c75736520783d223530302220793d22313436302220687265663d222374222f60008201527f3e00000000000000000000000000000000000000000000000000000000000000602082015250565b600061282d6021836111fd565b9150612838826127d1565b602182019050919050565b7f3c2f673e00000000000000000000000000000000000000000000000000000000600082015250565b60006128796004836111fd565b915061288482612843565b600482019050919050565b600061289a82612490565b91506128a582612502565b91506128b082612574565b91506128bb826125e6565b91506128c682612632565b91506128d1826126a4565b91506128dc826126f0565b91506128e78261273c565b91506128f2826127ae565b91506128fd82612820565b91506129088261286c565b9150819050919050565b7f3c73766720786d6c6e733d22687474703a2f2f7777772e77332e6f72672f323060008201527f30302f737667222076696577426f783d2230203020323230302032323030222060208201527f7374796c653d226261636b67726f756e642d636f6c6f723a0000000000000000604082015250565b60006129946058836111fd565b915061299f82612912565b605882019050919050565b7f4e487b7100000000000000000000000000000000000000000000000000000000600052602260045260246000fd5b600060028204905060018216806129f157607f821691505b602082108103612a0457612a036129aa565b5b50919050565b60008190508160005260206000209050919050565b60008154612a2c816129d9565b612a3681866111fd565b94506001821660008114612a515760018114612a6657612a99565b60ff1983168652811515820286019350612a99565b612a6f85612a0a565b60005b83811015612a9157815481890152600182019150602081019050612a72565b838801955050505b50505092915050565b7f223e000000000000000000000000000000000000000000000000000000000000600082015250565b6000612ad86002836111fd565b9150612ae382612aa2565b600282019050919050565b6000612af9826110cd565b612b0381856111fd565b9350612b138185602086016110e9565b80840191505092915050565b7f3c673e3c706f6c79676f6e207374796c653d227374726f6b652d77696474683a60008201527f2032302220706f696e74733d223230302c353030203230302c3135303020323060208201527f30302c3135303020323030302c353030222f3e3c726563742066696c6c3d227560408201527f726c28236267292220783d223230302220793d22383030222077696474683d2260608201527f3138303022206865696768743d22363030222f3e000000000000000000000000608082015250565b6000612bed6094836111fd565b9150612bf882612b1f565b609482019050919050565b7f3c2f673e3c2f7376673e00000000000000000000000000000000000000000000600082015250565b6000612c39600a836111fd565b9150612c4482612c03565b600a82019050919050565b6000612c5a82612987565b9150612c66828d612a1f565b9150612c7182612acb565b9150612c7d828c612aee565b9150612c89828b612aee565b9150612c95828a612aee565b9150612ca18289612aee565b9150612cad8288612aee565b9150612cb98287612aee565b9150612cc482612be0565b9150612cd08286612aee565b9150612cdc8285612aee565b9150612ce88284612aee565b9150612cf382612c2c565b91508190509b9a5050505050505050505050565b7f20c2b72000000000000000000000000000000000000000000000000000000000600082015250565b6000612d3d6004836111fd565b9150612d4882612d07565b600482019050919050565b6000612d5f8288612aee565b9150612d6b8287612aee565b9150612d7682612d30565b9150612d828286612aee565b9150612d8d82612d30565b9150612d998285612aee565b9150612da482612d30565b9150612db08284612aee565b91508190509695505050505050565b6000819050919050565b612dda612dd582610d98565b612dbf565b82525050565b6000612dec8284612dc9565b60208201915081905092915050565b7f3c75736520687265663d22237062672220636c6173733d22726f74617465222060008201527f7472616e73666f726d3d22726f74617465280000000000000000000000000000602082015250565b6000612e576032836111fd565b9150612e6282612dfb565b603282019050919050565b7f2031313030203131303029222f3e000000000000000000000000000000000000600082015250565b6000612ea3600e836111fd565b9150612eae82612e6d565b600e82019050919050565b6000612ec482612e4a565b9150612ed08284612aee565b9150612edb82612e96565b915081905092915050565b600060208284031215612efc57612efb610d8e565b5b6000612f0a84828501610fe0565b91505092915050565b6000612f1f8285612aee565b9150612f2b8284612aee565b91508190509392505050565b7f4e487b7100000000000000000000000000000000000000000000000000000000600052601160045260246000fd5b6000612f7182610d98565b91507fffffffffffffffffffffffffffffffffffffffffffffffffffffffffffffffff8203612fa357612fa2612f37565b5b600182019050919050565b6000612fb982610d98565b9150612fc483610d98565b925082612fd457612fd361116e565b5b828204905092915050565b6000612fea82610d98565b9150612ff583610d98565b925082820390508181111561300d5761300c612f37565b5b92915050565b60007fff0000000000000000000000000000000000000000000000000000000000000082169050919050565b6000819050919050565b61305a61305582613013565b61303f565b82525050565b600061306c8285613049565b60018201915061307c8284612aee565b91508190509392505050565b600061309382610d98565b9150600082036130a6576130a5612f37565b5b600182039050919050565b7f3000000000000000000000000000000000000000000000000000000000000000600082015250565b60006130e76001836111fd565b91506130f2826130b1565b600182019050919050565b6000613108826130da565b91506131148284612aee565b915081905092915050565b7f2e00000000000000000000000000000000000000000000000000000000000000600082015250565b60006131556001836111fd565b91506131608261311f565b600182019050919050565b600061317682613148565b91506131828284612aee565b915081905092915050565b7f2045544800000000000000000000000000000000000000000000000000000000600082015250565b60006131c36004836111fd565b91506131ce8261318d565b600482019050919050565b60006131e58285612aee565b91506131f18284612aee565b91506131fc826131b6565b91508190509392505050565b600061321382610d98565b915061321e83610d98565b925082820261322c81610d98565b9150828204841483151761324357613242612f37565b5b5092915050565b600061325582610d98565b915061326083610d98565b925082820190508082111561327857613277612f37565b5b92915050565b7f537472696e67733a20686578206c656e67746820696e73756666696369656e74600082015250565b60006132b46020836110d8565b91506132bf8261327e565b602082019050919050565b600060208201905081810360008301526132e3816132a7565b9050919050565b6132f381610d98565b82525050565b600060208201905061330e60008301846132ea565b92915050565b60008151905061332381610da2565b92915050565b60008060008060008060c0878903121561334657613345610d8e565b5b600061335489828a01613314565b965050602061336589828a01613314565b955050604061337689828a01613314565b945050606061338789828a01613314565b935050608061339889828a01613314565b92505060a06133a989828a01613314565b9150509295509295509295565b7f2000000000000000000000000000000000000000000000000000000000000000600082015250565b60006133ec6001836111fd565b91506133f7826133b6565b600182019050919050565b7f2c20000000000000000000000000000000000000000000000000000000000000600082015250565b60006134386002836111fd565b915061344382613402565b600282019050919050565b7f3a00000000000000000000000000000000000000000000000000000000000000600082015250565b60006134846001836111fd565b915061348f8261344e565b600182019050919050565b7f2055544300000000000000000000000000000000000000000000000000000000600082015250565b60006134d06004836111fd565b91506134db8261349a565b600482019050919050565b60006134f28288612a1f565b91506134fd826133df565b91506135098287612aee565b91506135148261342b565b91506135208286612aee565b915061352b826133df565b91506135378285612aee565b915061354282613477565b915061354e8284612aee565b9150613559826134c3565b91508190509695505050505050565b7f3c636972636c652066696c6c3d2223656532643235222063783d220000000000600082015250565b600061359e601b836111fd565b91506135a982613568565b601b82019050919050565b7f222063793d220000000000000000000000000000000000000000000000000000600082015250565b60006135ea6006836111fd565b91506135f5826135b4565b600682019050919050565b7f2022723d223735223e3c2f636972636c653e0000000000000000000000000000600082015250565b60006136366012836111fd565b915061364182613600565b601282019050919050565b600061365782613591565b91506136638285612aee565b915061366e826135dd565b915061367a8284612aee565b915061368582613629565b91508190509392505050565b7f3c7465787420783d220000000000000000000000000000000000000000000000600082015250565b60006136c76009836111fd565b91506136d282613691565b600982019050919050565b7f2220793d22000000000000000000000000000000000000000000000000000000600082015250565b60006137136005836111fd565b915061371e826136dd565b600582019050919050565b60006137358287612aee565b9150613740826136ba565b915061374c8286612aee565b915061375782613706565b91506137638285612aee565b915061376e82612acb565b915061377a8284612aee565b915061378582611e8b565b91508190509594505050505056fe3c7374796c653e746578747b666f6e742d66616d696c793a4d6f6e61636f3b666f6e742d73697a653a31303070787d7376677b7374726f6b653a626c61636b3b7374726f6b652d77696474683a317d2e617b66696c6c3a233537623539327d2e627b66696c6c3a236264653464667d2e637b66696c6c3a236638636534377d2e647b66696c6c3a236663663262317d3c2f7374796c653ea2646970667358221220dd2c53dd7b1e29a854534014eeec9ad4520d9a18dc5fc6325fc24c528c94b50a64736f6c63430008110033",
  "devdoc": {
    "kind": "dev",
    "methods": {},
    "version": 1
  },
  "userdoc": {
    "kind": "user",
    "methods": {},
    "version": 1
  },
  "storageLayout": {
    "storage": [
      {
        "astId": 7377,
        "contract": "contracts/RegenBingoSVG.sol:RegenBingoSVG",
        "label": "backgroundColors",
        "offset": 0,
        "slot": "0",
        "type": "t_array(t_string_storage)40_storage"
      },
      {
        "astId": 7394,
        "contract": "contracts/RegenBingoSVG.sol:RegenBingoSVG",
        "label": "Months",
        "offset": 0,
        "slot": "40",
        "type": "t_array(t_string_storage)12_storage"
      },
      {
        "astId": 7397,
        "contract": "contracts/RegenBingoSVG.sol:RegenBingoSVG",
        "label": "dateTimeContract",
        "offset": 0,
        "slot": "52",
        "type": "t_contract(IDateTime)8137"
      }
    ],
    "types": {
      "t_array(t_string_storage)12_storage": {
        "base": "t_string_storage",
        "encoding": "inplace",
        "label": "string[12]",
        "numberOfBytes": "384"
      },
      "t_array(t_string_storage)40_storage": {
        "base": "t_string_storage",
        "encoding": "inplace",
        "label": "string[40]",
        "numberOfBytes": "1280"
      },
      "t_contract(IDateTime)8137": {
        "encoding": "inplace",
        "label": "contract IDateTime",
        "numberOfBytes": "20"
      },
      "t_string_storage": {
        "encoding": "bytes",
        "label": "string",
        "numberOfBytes": "32"
      }
    }
  }
}