{
  "address": "0x9899C272613271A3780A8784AC0761Fc6510f0f6",
  "abi": [
    {
      "inputs": [
        {
          "internalType": "address",
          "name": "_svgGeneratorAddress",
          "type": "address"
        }
      ],
      "stateMutability": "nonpayable",
      "type": "constructor"
    },
    {
      "inputs": [],
      "name": "generateContractURI",
      "outputs": [
        {
          "internalType": "string",
          "name": "",
          "type": "string"
        }
      ],
      "stateMutability": "pure",
      "type": "function"
    },
    {
      "inputs": [
        {
          "internalType": "uint256",
          "name": "tokenId",
          "type": "uint256"
        },
        {
          "internalType": "uint256[9][3]",
          "name": "numbers",
          "type": "uint256[9][3]"
        },
        {
          "internalType": "bool[9][3]",
          "name": "covered",
          "type": "bool[9][3]"
        },
        {
          "internalType": "uint256",
          "name": "donationAmount",
          "type": "uint256"
        },
        {
          "internalType": "string",
          "name": "donationName",
          "type": "string"
        },
        {
          "internalType": "address",
          "name": "donationAddress",
          "type": "address"
        },
        {
          "internalType": "bool",
          "name": "isBingoFinished",
          "type": "bool"
        },
        {
          "internalType": "uint256",
          "name": "drawTimestamp",
          "type": "uint256"
        }
      ],
      "name": "generateTokenURI",
      "outputs": [
        {
          "internalType": "string",
          "name": "",
          "type": "string"
        }
      ],
      "stateMutability": "view",
      "type": "function"
    },
    {
      "inputs": [],
      "name": "svgGenerator",
      "outputs": [
        {
          "internalType": "contract IRegenBingoSVG",
          "name": "",
          "type": "address"
        }
      ],
      "stateMutability": "view",
      "type": "function"
    }
  ],
  "transactionHash": "0x3c076f9976c05a6d1b5c17ec4140106a0f0e3e8354152c4cacd7334e1d02ccf7",
  "args": [
    "0x003F5E59E2b9a16F5fF7fEF4C644f13721c8C945"
  ],
  "numDeployments": 2,
  "solcInputHash": "1cbdcf905b56c6d323b8df3305b36bcd",
  "bytecode": "0x60806040523480156200001157600080fd5b50604051620013d9380380620013d98339818101604052810190620000379190620000e8565b806000806101000a81548173ffffffffffffffffffffffffffffffffffffffff021916908373ffffffffffffffffffffffffffffffffffffffff160217905550506200011a565b600080fd5b600073ffffffffffffffffffffffffffffffffffffffff82169050919050565b6000620000b08262000083565b9050919050565b620000c281620000a3565b8114620000ce57600080fd5b50565b600081519050620000e281620000b7565b92915050565b6000602082840312156200010157620001006200007e565b5b60006200011184828501620000d1565b91505092915050565b6112af806200012a6000396000f3fe608060405234801561001057600080fd5b50600436106100415760003560e01c806364dc9174146100465780636d6060f5146100765780639f4475da14610094575b600080fd5b610060600480360381019061005b9190610874565b6100b2565b60405161006d91906109cb565b60405180910390f35b61007e610128565b60405161008b9190610a4c565b60405180910390f35b61009c61014c565b6040516100a991906109cb565b60405180910390f35b606060006100f76100c28b610194565b6100d28c8c8c8c8c8c8c8c610262565b6040516020016100e3929190610b87565b60405160208183030381529060405261034d565b90508060405160200161010a9190610c18565b60405160208183030381529060405291505098975050505050505050565b60008054906101000a900473ffffffffffffffffffffffffffffffffffffffff1681565b606061017060405180610100016040528060d581526020016111a560d5913961034d565b6040516020016101809190610c18565b604051602081830303815290604052905090565b6060600060016101a3846104b0565b01905060008167ffffffffffffffff8111156101c2576101c16106b3565b5b6040519080825280601f01601f1916602001820160405280156101f45781602001600182028036833780820191505090505b509050600082602001820190505b600115610257578080600190039150507f3031323334353637383961626364656600000000000000000000000000000000600a86061a8153600a858161024b5761024a610c3a565b5b04945060008503610202575b819350505050919050565b606060008060009054906101000a900473ffffffffffffffffffffffffffffffffffffffff1673ffffffffffffffffffffffffffffffffffffffff1663fbb5cf1a8b8b8b8b8b8b8b8b6040518963ffffffff1660e01b81526004016102ce989796959493929190610edc565b600060405180830381865afa1580156102eb573d6000803e3d6000fd5b505050506040513d6000823e3d601f19601f820116820180604052508101906103149190610fd7565b905061031f8161034d565b60405160200161032f919061106c565b60405160208183030381529060405291505098975050505050505050565b6060600082510361036f576040518060200160405280600081525090506104ab565b6000604051806060016040528060408152602001611165604091399050600060036002855161039e91906110bd565b6103a891906110f1565b60046103b49190611122565b67ffffffffffffffff8111156103cd576103cc6106b3565b5b6040519080825280601f01601f1916602001820160405280156103ff5781602001600182028036833780820191505090505b509050600182016020820185865187015b8082101561046b576003820191508151603f8160121c168501518453600184019350603f81600c1c168501518453600184019350603f8160061c168501518453600184019350603f8116850151845360018401935050610410565b5050600386510660018114610487576002811461049a576104a2565b603d6001830353603d60028303536104a2565b603d60018303535b50505080925050505b919050565b600080600090507a184f03e93ff9f4daa797ed6e38ed64bf6a1f010000000000000000831061050e577a184f03e93ff9f4daa797ed6e38ed64bf6a1f010000000000000000838161050457610503610c3a565b5b0492506040810190505b6d04ee2d6d415b85acef8100000000831061054b576d04ee2d6d415b85acef8100000000838161054157610540610c3a565b5b0492506020810190505b662386f26fc10000831061057a57662386f26fc1000083816105705761056f610c3a565b5b0492506010810190505b6305f5e10083106105a3576305f5e100838161059957610598610c3a565b5b0492506008810190505b61271083106105c85761271083816105be576105bd610c3a565b5b0492506004810190505b606483106105eb57606483816105e1576105e0610c3a565b5b0492506002810190505b600a83106105fa576001810190505b80915050919050565b6000604051905090565b600080fd5b600080fd5b6000819050919050565b61062a81610617565b811461063557600080fd5b50565b60008135905061064781610621565b92915050565b600080fd5b6000819050826101206003028201111561066f5761066e61064d565b5b92915050565b600081905082610120600302820111156106925761069161064d565b5b92915050565b600080fd5b600080fd5b6000601f19601f8301169050919050565b7f4e487b7100000000000000000000000000000000000000000000000000000000600052604160045260246000fd5b6106eb826106a2565b810181811067ffffffffffffffff8211171561070a576107096106b3565b5b80604052505050565b600061071d610603565b905061072982826106e2565b919050565b600067ffffffffffffffff821115610749576107486106b3565b5b610752826106a2565b9050602081019050919050565b82818337600083830152505050565b600061078161077c8461072e565b610713565b90508281526020810184848401111561079d5761079c61069d565b5b6107a884828561075f565b509392505050565b600082601f8301126107c5576107c4610698565b5b81356107d584826020860161076e565b91505092915050565b600073ffffffffffffffffffffffffffffffffffffffff82169050919050565b6000610809826107de565b9050919050565b610819816107fe565b811461082457600080fd5b50565b60008135905061083681610810565b92915050565b60008115159050919050565b6108518161083c565b811461085c57600080fd5b50565b60008135905061086e81610848565b92915050565b600080600080600080600080610780898b0312156108955761089461060d565b5b60006108a38b828c01610638565b98505060206108b48b828c01610652565b9750506103806108c68b828c01610675565b9650506106e06108d88b828c01610638565b95505061070089013567ffffffffffffffff8111156108fa576108f9610612565b5b6109068b828c016107b0565b9450506107206109188b828c01610827565b93505061074061092a8b828c0161085f565b92505061076061093c8b828c01610638565b9150509295985092959890939650565b600081519050919050565b600082825260208201905092915050565b60005b8381101561098657808201518184015260208101905061096b565b60008484015250505050565b600061099d8261094c565b6109a78185610957565b93506109b7818560208601610968565b6109c0816106a2565b840191505092915050565b600060208201905081810360008301526109e58184610992565b905092915050565b6000819050919050565b6000610a12610a0d610a08846107de565b6109ed565b6107de565b9050919050565b6000610a24826109f7565b9050919050565b6000610a3682610a19565b9050919050565b610a4681610a2b565b82525050565b6000602082019050610a616000830184610a3d565b92915050565b600081905092915050565b7f7b226e616d65223a22526567656e42696e676f20230000000000000000000000600082015250565b6000610aa8601583610a67565b9150610ab382610a72565b601582019050919050565b6000610ac98261094c565b610ad38185610a67565b9350610ae3818560208601610968565b80840191505092915050565b7f222c226465736372697074696f6e223a222e2e2e222c22696d616765223a2200600082015250565b6000610b25601f83610a67565b9150610b3082610aef565b601f82019050919050565b7f227d000000000000000000000000000000000000000000000000000000000000600082015250565b6000610b71600283610a67565b9150610b7c82610b3b565b600282019050919050565b6000610b9282610a9b565b9150610b9e8285610abe565b9150610ba982610b18565b9150610bb58284610abe565b9150610bc082610b64565b91508190509392505050565b7f646174613a6170706c69636174696f6e2f6a736f6e3b6261736536342c000000600082015250565b6000610c02601d83610a67565b9150610c0d82610bcc565b601d82019050919050565b6000610c2382610bf5565b9150610c2f8284610abe565b915081905092915050565b7f4e487b7100000000000000000000000000000000000000000000000000000000600052601260045260246000fd5b610c7281610617565b82525050565b600060039050919050565b600081905092915050565b6000819050919050565b82818337505050565b610cae6101208383610c98565b5050565b6000610cbe8383610ca1565b6101208301905092915050565b600082905092915050565b600061012082019050919050565b610ced81610c78565b610cf78184610c83565b9250610d0282610c8e565b8060005b83811015610d3b57610d188284610ccb565b610d228782610cb2565b9650610d2d83610cd6565b925050600181019050610d06565b505050505050565b600060039050919050565b600081905092915050565b6000819050919050565b600060099050919050565b600081905092915050565b6000819050919050565b610d8c8161083c565b82525050565b6000610d9e8383610d83565b60208301905092915050565b6000610db9602084018461085f565b905092915050565b6000602082019050919050565b610dd781610d63565b610de18184610d6e565b9250610dec82610d79565b8060005b83811015610e2557610e028284610daa565b610e0c8782610d92565b9650610e1783610dc1565b925050600181019050610df0565b505050505050565b6000610e398383610dce565b6101208301905092915050565b600082905092915050565b600061012082019050919050565b610e6881610d43565b610e728184610d4e565b9250610e7d82610d59565b8060005b83811015610eb657610e938284610e46565b610e9d8782610e2d565b9650610ea883610e51565b925050600181019050610e81565b505050505050565b610ec7816107fe565b82525050565b610ed68161083c565b82525050565b600061078082019050610ef2600083018b610c69565b610eff602083018a610ce4565b610f0d610380830189610e5f565b610f1b6106e0830188610c69565b818103610700830152610f2e8187610992565b9050610f3e610720830186610ebe565b610f4c610740830185610ecd565b610f5a610760830184610c69565b9998505050505050505050565b6000610f7a610f758461072e565b610713565b905082815260208101848484011115610f9657610f9561069d565b5b610fa1848285610968565b509392505050565b600082601f830112610fbe57610fbd610698565b5b8151610fce848260208601610f67565b91505092915050565b600060208284031215610fed57610fec61060d565b5b600082015167ffffffffffffffff81111561100b5761100a610612565b5b61101784828501610fa9565b91505092915050565b7f646174613a696d6167652f7376672b786d6c3b6261736536342c000000000000600082015250565b6000611056601a83610a67565b915061106182611020565b601a82019050919050565b600061107782611049565b91506110838284610abe565b915081905092915050565b7f4e487b7100000000000000000000000000000000000000000000000000000000600052601160045260246000fd5b60006110c882610617565b91506110d383610617565b92508282019050808211156110eb576110ea61108e565b5b92915050565b60006110fc82610617565b915061110783610617565b92508261111757611116610c3a565b5b828204905092915050565b600061112d82610617565b915061113883610617565b925082820261114681610617565b9150828204841483151761115d5761115c61108e565b5b509291505056fe4142434445464748494a4b4c4d4e4f505152535455565758595a6162636465666768696a6b6c6d6e6f707172737475767778797a303132333435363738392b2f7b226e616d65223a22526567656e42696e676f222c226465736372697074696f6e223a22526567656e42696e676f20697320612073696d706c65206578706572696d656e74616c2067616d6520746f2072616973652045544820666f72207075626c696320676f6f64732066756e64696e67207768696c6520656e7465727461696e696e6720757320677265656e70696c6c656420726567656e732e222c22696d616765223a222e2e2e222c2265787465726e616c5f75726c223a2268747470733a2f2f7777772e726567656e2e62696e676f227da2646970667358221220fbdb7da32245eaa4b74b7adb2b1bb1e29885e6d1683f6f8e5a94230ecde5a7d064736f6c63430008110033",
  "devdoc": {
    "kind": "dev",
    "methods": {},
    "version": 1
  },
  "userdoc": {
    "kind": "user",
    "methods": {},
    "version": 1
  },
  "storageLayout": {
    "storage": [
      {
        "astId": 8812,
        "contract": "contracts/RegenBingoMetadata.sol:RegenBingoMetadata",
        "label": "svgGenerator",
        "offset": 0,
        "slot": "0",
        "type": "t_contract(IRegenBingoSVG)9866"
      }
    ],
    "types": {
      "t_contract(IRegenBingoSVG)9866": {
        "encoding": "inplace",
        "label": "contract IRegenBingoSVG",
        "numberOfBytes": "20"
      }
    }
  }
}