{
  "address": "0xE15e8e8D54D94657e158c30c6c78522dBa732318",
  "abi": [
    {
      "inputs": [
        {
          "internalType": "string",
          "name": "_name",
          "type": "string"
        },
        {
          "internalType": "string",
          "name": "_symbol",
          "type": "string"
        },
        {
          "internalType": "uint256",
          "name": "_mintPrice",
          "type": "uint256"
        },
        {
          "internalType": "uint256",
          "name": "_drawTimestamp",
          "type": "uint256"
        },
        {
          "internalType": "uint256",
          "name": "_drawNumberCooldownSeconds",
          "type": "uint256"
        },
        {
          "internalType": "address payable",
          "name": "_donationAddress",
          "type": "address"
        },
        {
          "internalType": "address",
          "name": "_metadataGenerator",
          "type": "address"
        }
      ],
      "stateMutability": "nonpayable",
      "type": "constructor"
    },
    {
      "anonymous": false,
      "inputs": [
        {
          "indexed": true,
          "internalType": "address",
          "name": "owner",
          "type": "address"
        },
        {
          "indexed": true,
          "internalType": "address",
          "name": "approved",
          "type": "address"
        },
        {
          "indexed": true,
          "internalType": "uint256",
          "name": "tokenId",
          "type": "uint256"
        }
      ],
      "name": "Approval",
      "type": "event"
    },
    {
      "anonymous": false,
      "inputs": [
        {
          "indexed": true,
          "internalType": "address",
          "name": "owner",
          "type": "address"
        },
        {
          "indexed": true,
          "internalType": "address",
          "name": "operator",
          "type": "address"
        },
        {
          "indexed": false,
          "internalType": "bool",
          "name": "approved",
          "type": "bool"
        }
      ],
      "name": "ApprovalForAll",
      "type": "event"
    },
    {
      "anonymous": false,
      "inputs": [
        {
          "indexed": false,
          "internalType": "uint256",
          "name": "tokenId",
          "type": "uint256"
        },
        {
          "indexed": false,
          "internalType": "address",
          "name": "winner",
          "type": "address"
        }
      ],
      "name": "ClaimPrize",
      "type": "event"
    },
    {
      "anonymous": false,
      "inputs": [
        {
          "indexed": false,
          "internalType": "uint256",
          "name": "number",
          "type": "uint256"
        }
      ],
      "name": "DrawNumber",
      "type": "event"
    },
    {
      "anonymous": false,
      "inputs": [],
      "name": "DrawStarted",
      "type": "event"
    },
    {
      "anonymous": false,
      "inputs": [
        {
          "indexed": true,
          "internalType": "address",
          "name": "from",
          "type": "address"
        },
        {
          "indexed": true,
          "internalType": "address",
          "name": "to",
          "type": "address"
        },
        {
          "indexed": true,
          "internalType": "uint256",
          "name": "tokenId",
          "type": "uint256"
        }
      ],
      "name": "Transfer",
      "type": "event"
    },
    {
      "inputs": [
        {
          "internalType": "address",
          "name": "to",
          "type": "address"
        },
        {
          "internalType": "uint256",
          "name": "tokenId",
          "type": "uint256"
        }
      ],
      "name": "approve",
      "outputs": [],
      "stateMutability": "nonpayable",
      "type": "function"
    },
    {
      "inputs": [
        {
          "internalType": "address",
          "name": "owner",
          "type": "address"
        }
      ],
      "name": "balanceOf",
      "outputs": [
        {
          "internalType": "uint256",
          "name": "",
          "type": "uint256"
        }
      ],
      "stateMutability": "view",
      "type": "function"
    },
    {
      "inputs": [],
      "name": "bingoState",
      "outputs": [
        {
          "internalType": "enum RegenBingo.BingoState",
          "name": "",
          "type": "uint8"
        }
      ],
      "stateMutability": "view",
      "type": "function"
    },
    {
      "inputs": [
        {
          "internalType": "uint256",
          "name": "id",
          "type": "uint256"
        }
      ],
      "name": "claimPrize",
      "outputs": [],
      "stateMutability": "nonpayable",
      "type": "function"
    },
    {
      "inputs": [
        {
          "internalType": "uint256",
          "name": "tokenId",
          "type": "uint256"
        }
      ],
      "name": "covered",
      "outputs": [
        {
          "internalType": "bool[9][3]",
          "name": "covered",
          "type": "bool[9][3]"
        }
      ],
      "stateMutability": "view",
      "type": "function"
    },
    {
      "inputs": [
        {
          "internalType": "uint256",
          "name": "tokenId",
          "type": "uint256"
        }
      ],
      "name": "coveredNumbers",
      "outputs": [
        {
          "internalType": "uint256",
          "name": "count",
          "type": "uint256"
        }
      ],
      "stateMutability": "view",
      "type": "function"
    },
    {
      "inputs": [],
      "name": "donationAddress",
      "outputs": [
        {
          "internalType": "address payable",
          "name": "",
          "type": "address"
        }
      ],
      "stateMutability": "view",
      "type": "function"
    },
    {
      "inputs": [],
      "name": "drawNumber",
      "outputs": [
        {
          "internalType": "uint256",
          "name": "",
          "type": "uint256"
        }
      ],
      "stateMutability": "nonpayable",
      "type": "function"
    },
    {
      "inputs": [],
      "name": "drawNumberCooldownSeconds",
      "outputs": [
        {
          "internalType": "uint256",
          "name": "",
          "type": "uint256"
        }
      ],
      "stateMutability": "view",
      "type": "function"
    },
    {
      "inputs": [],
      "name": "drawTimestamp",
      "outputs": [
        {
          "internalType": "uint256",
          "name": "",
          "type": "uint256"
        }
      ],
      "stateMutability": "view",
      "type": "function"
    },
    {
      "inputs": [
        {
          "internalType": "uint256",
          "name": "tokenId",
          "type": "uint256"
        }
      ],
      "name": "getApproved",
      "outputs": [
        {
          "internalType": "address",
          "name": "",
          "type": "address"
        }
      ],
      "stateMutability": "view",
      "type": "function"
    },
    {
      "inputs": [],
      "name": "getDrawnNumbers",
      "outputs": [
        {
          "internalType": "uint256[]",
          "name": "",
          "type": "uint256[]"
        }
      ],
      "stateMutability": "view",
      "type": "function"
    },
    {
      "inputs": [
        {
          "internalType": "uint256",
          "name": "tokenId",
          "type": "uint256"
        },
        {
          "internalType": "uint256",
          "name": "row",
          "type": "uint256"
        },
        {
          "internalType": "uint256",
          "name": "column",
          "type": "uint256"
        }
      ],
      "name": "getNumberByCoordinates",
      "outputs": [
        {
          "internalType": "uint256",
          "name": "",
          "type": "uint256"
        }
      ],
      "stateMutability": "view",
      "type": "function"
    },
    {
      "inputs": [
        {
          "internalType": "address",
          "name": "owner",
          "type": "address"
        },
        {
          "internalType": "address",
          "name": "operator",
          "type": "address"
        }
      ],
      "name": "isApprovedForAll",
      "outputs": [
        {
          "internalType": "bool",
          "name": "",
          "type": "bool"
        }
      ],
      "stateMutability": "view",
      "type": "function"
    },
    {
      "inputs": [],
      "name": "lastDrawTime",
      "outputs": [
        {
          "internalType": "uint256",
          "name": "",
          "type": "uint256"
        }
      ],
      "stateMutability": "view",
      "type": "function"
    },
    {
      "inputs": [],
      "name": "mint",
      "outputs": [],
      "stateMutability": "payable",
      "type": "function"
    },
    {
      "inputs": [
        {
          "internalType": "uint256",
          "name": "mintCount",
          "type": "uint256"
        }
      ],
      "name": "mintMultiple",
      "outputs": [],
      "stateMutability": "payable",
      "type": "function"
    },
    {
      "inputs": [],
      "name": "mintPrice",
      "outputs": [
        {
          "internalType": "uint256",
          "name": "",
          "type": "uint256"
        }
      ],
      "stateMutability": "view",
      "type": "function"
    },
    {
      "inputs": [],
      "name": "name",
      "outputs": [
        {
          "internalType": "string",
          "name": "",
          "type": "string"
        }
      ],
      "stateMutability": "view",
      "type": "function"
    },
    {
      "inputs": [
        {
          "internalType": "uint256",
          "name": "tokenId",
          "type": "uint256"
        }
      ],
      "name": "numbers",
      "outputs": [
        {
          "internalType": "uint256[9][3]",
          "name": "numbers",
          "type": "uint256[9][3]"
        }
      ],
      "stateMutability": "view",
      "type": "function"
    },
    {
      "inputs": [
        {
          "internalType": "uint256",
          "name": "tokenId",
          "type": "uint256"
        }
      ],
      "name": "ownerOf",
      "outputs": [
        {
          "internalType": "address",
          "name": "",
          "type": "address"
        }
      ],
      "stateMutability": "view",
      "type": "function"
    },
    {
      "inputs": [
        {
          "internalType": "address",
          "name": "from",
          "type": "address"
        },
        {
          "internalType": "address",
          "name": "to",
          "type": "address"
        },
        {
          "internalType": "uint256",
          "name": "tokenId",
          "type": "uint256"
        }
      ],
      "name": "safeTransferFrom",
      "outputs": [],
      "stateMutability": "nonpayable",
      "type": "function"
    },
    {
      "inputs": [
        {
          "internalType": "address",
          "name": "from",
          "type": "address"
        },
        {
          "internalType": "address",
          "name": "to",
          "type": "address"
        },
        {
          "internalType": "uint256",
          "name": "tokenId",
          "type": "uint256"
        },
        {
          "internalType": "bytes",
          "name": "data",
          "type": "bytes"
        }
      ],
      "name": "safeTransferFrom",
      "outputs": [],
      "stateMutability": "nonpayable",
      "type": "function"
    },
    {
      "inputs": [
        {
          "internalType": "address",
          "name": "operator",
          "type": "address"
        },
        {
          "internalType": "bool",
          "name": "approved",
          "type": "bool"
        }
      ],
      "name": "setApprovalForAll",
      "outputs": [],
      "stateMutability": "nonpayable",
      "type": "function"
    },
    {
      "inputs": [],
      "name": "startDrawPeriod",
      "outputs": [],
      "stateMutability": "nonpayable",
      "type": "function"
    },
    {
      "inputs": [
        {
          "internalType": "bytes4",
          "name": "interfaceId",
          "type": "bytes4"
        }
      ],
      "name": "supportsInterface",
      "outputs": [
        {
          "internalType": "bool",
          "name": "",
          "type": "bool"
        }
      ],
      "stateMutability": "view",
      "type": "function"
    },
    {
      "inputs": [],
      "name": "symbol",
      "outputs": [
        {
          "internalType": "string",
          "name": "",
          "type": "string"
        }
      ],
      "stateMutability": "view",
      "type": "function"
    },
    {
      "inputs": [
        {
          "internalType": "uint256",
          "name": "index",
          "type": "uint256"
        }
      ],
      "name": "tokenByIndex",
      "outputs": [
        {
          "internalType": "uint256",
          "name": "",
          "type": "uint256"
        }
      ],
      "stateMutability": "view",
      "type": "function"
    },
    {
      "inputs": [
        {
          "internalType": "address",
          "name": "owner",
          "type": "address"
        },
        {
          "internalType": "uint256",
          "name": "index",
          "type": "uint256"
        }
      ],
      "name": "tokenOfOwnerByIndex",
      "outputs": [
        {
          "internalType": "uint256",
          "name": "",
          "type": "uint256"
        }
      ],
      "stateMutability": "view",
      "type": "function"
    },
    {
      "inputs": [
        {
          "internalType": "uint256",
          "name": "tokenId",
          "type": "uint256"
        }
      ],
      "name": "tokenURI",
      "outputs": [
        {
          "internalType": "string",
          "name": "",
          "type": "string"
        }
      ],
      "stateMutability": "view",
      "type": "function"
    },
    {
      "inputs": [],
      "name": "totalSupply",
      "outputs": [
        {
          "internalType": "uint256",
          "name": "",
          "type": "uint256"
        }
      ],
      "stateMutability": "view",
      "type": "function"
    },
    {
      "inputs": [
        {
          "internalType": "address",
          "name": "from",
          "type": "address"
        },
        {
          "internalType": "address",
          "name": "to",
          "type": "address"
        },
        {
          "internalType": "uint256",
          "name": "tokenId",
          "type": "uint256"
        }
      ],
      "name": "transferFrom",
      "outputs": [],
      "stateMutability": "nonpayable",
      "type": "function"
    }
  ],
  "transactionHash": "0x5e6b481220880c0cc3b4f99a3c50298c1b2c0028b5572d1c72deb877acd2f21f",
  "args": [
    "REGENBINGO",
    "Regen Bingo — Testnet #0",
    "10000000000000000",
    "1674226800",
    5,
    "0xc4c302f0d81F3E9a86d468f585dAe26F92D9F5EA",
    "0x550e2c1C1dAaF33366FCea885Ec5710858654995"
  ],
  "numDeployments": 30,
  "solcInputHash": "83bbd02313c72d69fa4f19279586e072",
  "bytecode": "0x6080604052604051806060016040528060405180606001604052806040518061012001604052806040518060400160405280600160ff168152602001600960ff1681525081526020016040518060400160405280600060ff168152602001600060ff1681525081526020016040518060400160405280600060ff168152602001600060ff1681525081526020016040518060400160405280600060ff168152602001600060ff1681525081526020016040518060400160405280602860ff168152602001600560ff1681525081526020016040518060400160405280603860ff168152602001600460ff1681525081526020016040518060400160405280603c60ff168152602001600a60ff1681525081526020016040518060400160405280604d60ff168152602001600360ff1681525081526020016040518060400160405280600060ff168152602001600060ff1681525081525081526020016040518061012001604052806040518060400160405280600060ff168152602001600060ff1681525081526020016040518060400160405280600060ff168152602001600060ff1681525081526020016040518060400160405280600060ff168152602001600060ff1681525081526020016040518060400160405280601e60ff168152602001600a60ff1681525081526020016040518060400160405280602d60ff168152602001600560ff1681525081526020016040518060400160405280603560ff168152602001600360ff1681525081526020016040518060400160405280600060ff168152602001600060ff1681525081526020016040518060400160405280604a60ff168152602001600360ff1681525081526020016040518060400160405280605060ff168152602001600660ff1681525081525081526020016040518061012001604052806040518060400160405280600060ff168152602001600060ff1681525081526020016040518060400160405280600a60ff168152602001600a60ff1681525081526020016040518060400160405280601460ff168152602001600a60ff1681525081526020016040518060400160405280600060ff168152602001600060ff1681525081526020016040518060400160405280600060ff168152602001600060ff1681525081526020016040518060400160405280603260ff168152602001600360ff1681525081526020016040518060400160405280600060ff168152602001600060ff1681525081526020016040518060400160405280604660ff168152602001600460ff1681525081526020016040518060400160405280605660ff168152602001600560ff16815250815250815250815260200160405180606001604052806040518061012001604052806040518060400160405280600660ff168152602001600460ff1681525081526020016040518060400160405280600a60ff168152602001600560ff1681525081526020016040518060400160405280600060ff168152602001600060ff1681525081526020016040518060400160405280600060ff168152602001600060ff1681525081526020016040518060400160405280600060ff168152602001600060ff1681525081526020016040518060400160405280600060ff168152602001600060ff1681525081526020016040518060400160405280604260ff168152602001600460ff1681525081526020016040518060400160405280604b60ff168152602001600560ff1681525081526020016040518060400160405280605060ff168152602001600b60ff1681525081525081526020016040518061012001604052806040518060400160405280600060ff168152602001600060ff1681525081526020016040518060400160405280600060ff168152602001600060ff1681525081526020016040518060400160405280601960ff168152602001600560ff1681525081526020016040518060400160405280601e60ff168152602001600a60ff1681525081526020016040518060400160405280602860ff168152602001600a60ff1681525081526020016040518060400160405280603260ff168152602001600a60ff1681525081526020016040518060400160405280603f60ff168152602001600360ff1681525081526020016040518060400160405280600060ff168152602001600060ff1681525081526020016040518060400160405280600060ff168152602001600060ff1681525081525081526020016040518061012001604052806040518060400160405280600160ff168152602001600560ff1681525081526020016040518060400160405280600f60ff168152602001600560ff1681525081526020016040518060400160405280601460ff168152602001600560ff1681525081526020016040518060400160405280600060ff168152602001600060ff1681525081526020016040518060400160405280600060ff168152602001600060ff1681525081526020016040518060400160405280600060ff168152602001600060ff1681525081526020016040518060400160405280603c60ff168152602001600360ff1681525081526020016040518060400160405280604660ff168152602001600560ff1681525081526020016040518060400160405280600060ff168152602001600060ff16815250815250815250815260200160405180606001604052806040518061012001604052806040518060400160405280600160ff168152602001600560ff1681525081526020016040518060400160405280600060ff168152602001600060ff1681525081526020016040518060400160405280601960ff168152602001600560ff1681525081526020016040518060400160405280600060ff168152602001600060ff1681525081526020016040518060400160405280600060ff168152602001600060ff1681525081526020016040518060400160405280603260ff168152602001600a60ff1681525081526020016040518060400160405280600060ff168152602001600060ff1681525081526020016040518060400160405280604660ff168152602001600560ff1681525081526020016040518060400160405280605860ff168152602001600360ff1681525081525081526020016040518061012001604052806040518060400160405280600060ff168152602001600060ff1681525081526020016040518060400160405280600a60ff168152602001600a60ff1681525081526020016040518060400160405280601460ff168152602001600560ff1681525081526020016040518060400160405280601e60ff168152602001600a60ff1681525081526020016040518060400160405280600060ff168152602001600060ff1681525081526020016040518060400160405280600060ff168152602001600060ff1681525081526020016040518060400160405280604160ff168152602001600560ff1681525081526020016040518060400160405280600060ff168152602001600060ff1681525081526020016040518060400160405280605460ff168152602001600460ff1681525081525081526020016040518061012001604052806040518060400160405280600660ff168152602001600460ff1681525081526020016040518060400160405280600060ff168152602001600060ff1681525081526020016040518060400160405280600060ff168152602001600060ff1681525081526020016040518060400160405280600060ff168152602001600060ff1681525081526020016040518060400160405280602860ff168152602001600a60ff1681525081526020016040518060400160405280600060ff168152602001600060ff1681525081526020016040518060400160405280603c60ff168152602001600560ff1681525081526020016040518060400160405280604b60ff168152602001600560ff1681525081526020016040518060400160405280605060ff168152602001600460ff16815250815250815250815250600a90600362000b9292919062000c92565b5034801562000ba057600080fd5b506040516200611538038062006115833981810160405281019062000bc691906200119c565b8686816000908162000bd99190620014ce565b50806001908162000beb9190620014ce565b50505084605c8190555083605d8190555082605e8190555081606060006101000a81548173ffffffffffffffffffffffffffffffffffffffff021916908373ffffffffffffffffffffffffffffffffffffffff16021790555080605b60006101000a81548173ffffffffffffffffffffffffffffffffffffffff021916908373ffffffffffffffffffffffffffffffffffffffff16021790555050505050505050620015b5565b826003601b02810192821562000cd7579160200282015b8281111562000cd65782518290600362000cc592919062000cea565b50916020019190601b019062000ca9565b5b50905062000ce6919062000d42565b5090565b826003600902810192821562000d2f579160200282015b8281111562000d2e5782518290600962000d1d92919062000d6a565b509160200191906009019062000d01565b5b50905062000d3e919062000dbf565b5090565b5b8082111562000d66576000818162000d5c919062000de7565b50601b0162000d43565b5090565b826009810192821562000dac579160200282015b8281111562000dab5782518290600262000d9a92919062000e20565b509160200191906001019062000d7e565b5b50905062000dbb919062000ec1565b5090565b5b8082111562000de3576000818162000dd9919062000ee9565b5060090162000dc0565b5090565b506000818162000df8919062000ee9565b506009016000818162000e0c919062000ee9565b50600901600062000e1e919062000ee9565b565b826002601f0160209004810192821562000eae5791602002820160005b8382111562000e7d57835183826101000a81548160ff021916908360ff160217905550926020019260010160208160000104928301926001030262000e3d565b801562000eac5782816101000a81549060ff021916905560010160208160000104928301926001030262000e7d565b505b50905062000ebd919062000efe565b5090565b5b8082111562000ee5576000818162000edb919062000f1d565b5060010162000ec2565b5090565b50806009019062000efb919062000ec1565b50565b5b8082111562000f1957600081600090555060010162000eff565b5090565b5060009055565b6000604051905090565b600080fd5b600080fd5b600080fd5b600080fd5b6000601f19601f8301169050919050565b7f4e487b7100000000000000000000000000000000000000000000000000000000600052604160045260246000fd5b62000f8d8262000f42565b810181811067ffffffffffffffff8211171562000faf5762000fae62000f53565b5b80604052505050565b600062000fc462000f24565b905062000fd2828262000f82565b919050565b600067ffffffffffffffff82111562000ff55762000ff462000f53565b5b620010008262000f42565b9050602081019050919050565b60005b838110156200102d57808201518184015260208101905062001010565b60008484015250505050565b6000620010506200104a8462000fd7565b62000fb8565b9050828152602081018484840111156200106f576200106e62000f3d565b5b6200107c8482856200100d565b509392505050565b600082601f8301126200109c576200109b62000f38565b5b8151620010ae84826020860162001039565b91505092915050565b6000819050919050565b620010cc81620010b7565b8114620010d857600080fd5b50565b600081519050620010ec81620010c1565b92915050565b600073ffffffffffffffffffffffffffffffffffffffff82169050919050565b60006200111f82620010f2565b9050919050565b620011318162001112565b81146200113d57600080fd5b50565b600081519050620011518162001126565b92915050565b60006200116482620010f2565b9050919050565b620011768162001157565b81146200118257600080fd5b50565b60008151905062001196816200116b565b92915050565b600080600080600080600060e0888a031215620011be57620011bd62000f2e565b5b600088015167ffffffffffffffff811115620011df57620011de62000f33565b5b620011ed8a828b0162001084565b975050602088015167ffffffffffffffff81111562001211576200121062000f33565b5b6200121f8a828b0162001084565b9650506040620012328a828b01620010db565b9550506060620012458a828b01620010db565b9450506080620012588a828b01620010db565b93505060a06200126b8a828b0162001140565b92505060c06200127e8a828b0162001185565b91505092959891949750929550565b600081519050919050565b7f4e487b7100000000000000000000000000000000000000000000000000000000600052602260045260246000fd5b60006002820490506001821680620012e057607f821691505b602082108103620012f657620012f562001298565b5b50919050565b60008190508160005260206000209050919050565b60006020601f8301049050919050565b600082821b905092915050565b600060088302620013607fffffffffffffffffffffffffffffffffffffffffffffffffffffffffffffffff8262001321565b6200136c868362001321565b95508019841693508086168417925050509392505050565b6000819050919050565b6000620013af620013a9620013a384620010b7565b62001384565b620010b7565b9050919050565b6000819050919050565b620013cb836200138e565b620013e3620013da82620013b6565b8484546200132e565b825550505050565b600090565b620013fa620013eb565b62001407818484620013c0565b505050565b5b818110156200142f5762001423600082620013f0565b6001810190506200140d565b5050565b601f8211156200147e576200144881620012fc565b620014538462001311565b8101602085101562001463578190505b6200147b620014728562001311565b8301826200140c565b50505b505050565b600082821c905092915050565b6000620014a36000198460080262001483565b1980831691505092915050565b6000620014be838362001490565b9150826002028217905092915050565b620014d9826200128d565b67ffffffffffffffff811115620014f557620014f462000f53565b5b620015018254620012c7565b6200150e82828562001433565b600060209050601f83116001811462001546576000841562001531578287015190505b6200153d8582620014b0565b865550620015ad565b601f1984166200155686620012fc565b60005b82811015620015805784890151825560018201915060208501945060208101905062001559565b86831015620015a057848901516200159c601f89168262001490565b8355505b6001600288020188555050505b505050505050565b614b5080620015c56000396000f3fe6080604052600436106101e35760003560e01c80636817c76c11610102578063b914a21911610095578063d80ffb2011610064578063d80ffb2014610712578063dc7682fc1461073d578063e985e9c514610768578063ec034bed146107a5576101e3565b8063b914a21914610644578063c87b56dd1461066f578063d39fa233146106ac578063d7098154146106e9576101e3565b806395d89b41116100d157806395d89b41146105ab578063a22cb465146105d6578063abbb5a55146105ff578063b88d4fde1461061b576101e3565b80636817c76c146104ed5780636beebc9a1461051857806370a082311461054357806388103b1914610580576101e3565b80632f745c591161017a5780634d54bb6d116101495780634d54bb6d1461040b5780634f6ccce7146104485780635cbbd635146104855780636352211e146104b0576101e3565b80632f745c591461032b57806330b693e1146103685780633860a7eb146103a557806342842e0e146103e2576101e3565b80630f18fc5e116101b65780630f18fc5e146102b65780631249c58b146102cd57806318160ddd146102d757806323b872dd14610302576101e3565b806301ffc9a7146101e857806306fdde0314610225578063081812fc14610250578063095ea7b31461028d575b600080fd5b3480156101f457600080fd5b5061020f600480360381019061020a9190612ff1565b6107d0565b60405161021c9190613039565b60405180910390f35b34801561023157600080fd5b5061023a61084a565b60405161024791906130e4565b60405180910390f35b34801561025c57600080fd5b506102776004803603810190610272919061313c565b6108dc565b60405161028491906131aa565b60405180910390f35b34801561029957600080fd5b506102b460048036038101906102af91906131f1565b610922565b005b3480156102c257600080fd5b506102cb610a39565b005b6102d5610b16565b005b3480156102e357600080fd5b506102ec610c16565b6040516102f99190613240565b60405180910390f35b34801561030e57600080fd5b506103296004803603810190610324919061325b565b610c23565b005b34801561033757600080fd5b50610352600480360381019061034d91906131f1565b610c83565b60405161035f9190613240565b60405180910390f35b34801561037457600080fd5b5061038f600480360381019061038a919061313c565b610d28565b60405161039c91906133f6565b60405180910390f35b3480156103b157600080fd5b506103cc60048036038101906103c7919061313c565b610e4b565b6040516103d99190613240565b60405180910390f35b3480156103ee57600080fd5b506104096004803603810190610404919061325b565b610f3a565b005b34801561041757600080fd5b50610432600480360381019061042d9190613412565b610f5a565b60405161043f9190613240565b60405180910390f35b34801561045457600080fd5b5061046f600480360381019061046a919061313c565b611161565b60405161047c9190613240565b60405180910390f35b34801561049157600080fd5b5061049a6111d2565b6040516104a79190613240565b60405180910390f35b3480156104bc57600080fd5b506104d760048036038101906104d2919061313c565b6111d8565b6040516104e491906131aa565b60405180910390f35b3480156104f957600080fd5b5061050261125e565b60405161050f9190613240565b60405180910390f35b34801561052457600080fd5b5061052d611264565b60405161053a9190613240565b60405180910390f35b34801561054f57600080fd5b5061056a60048036038101906105659190613465565b61126a565b6040516105779190613240565b60405180910390f35b34801561058c57600080fd5b50610595611321565b6040516105a29190613509565b60405180910390f35b3480156105b757600080fd5b506105c0611334565b6040516105cd91906130e4565b60405180910390f35b3480156105e257600080fd5b506105fd60048036038101906105f89190613550565b6113c6565b005b6106196004803603810190610614919061313c565b6113dc565b005b34801561062757600080fd5b50610642600480360381019061063d91906136c5565b611507565b005b34801561065057600080fd5b50610659611569565b6040516106669190613240565b60405180910390f35b34801561067b57600080fd5b506106966004803603810190610691919061313c565b61156f565b6040516106a391906130e4565b60405180910390f35b3480156106b857600080fd5b506106d360048036038101906106ce919061313c565b6116a4565b6040516106e09190613890565b60405180910390f35b3480156106f557600080fd5b50610710600480360381019061070b919061313c565b61172f565b005b34801561071e57600080fd5b5061072761196d565b6040516107349190613240565b60405180910390f35b34801561074957600080fd5b50610752611b53565b60405161075f9190613943565b60405180910390f35b34801561077457600080fd5b5061078f600480360381019061078a9190613965565b611b64565b60405161079c9190613039565b60405180910390f35b3480156107b157600080fd5b506107ba611bf8565b6040516107c791906139c6565b60405180910390f35b60007f780e9d63000000000000000000000000000000000000000000000000000000007bffffffffffffffffffffffffffffffffffffffffffffffffffffffff1916827bffffffffffffffffffffffffffffffffffffffffffffffffffffffff19161480610843575061084282611c1e565b5b9050919050565b60606000805461085990613a10565b80601f016020809104026020016040519081016040528092919081815260200182805461088590613a10565b80156108d25780601f106108a7576101008083540402835291602001916108d2565b820191906000526020600020905b8154815290600101906020018083116108b557829003601f168201915b5050505050905090565b60006108e782611d00565b6004600083815260200190815260200160002060009054906101000a900473ffffffffffffffffffffffffffffffffffffffff169050919050565b600061092d826111d8565b90508073ffffffffffffffffffffffffffffffffffffffff168373ffffffffffffffffffffffffffffffffffffffff160361099d576040517f08c379a000000000000000000000000000000000000000000000000000000000815260040161099490613ab3565b60405180910390fd5b8073ffffffffffffffffffffffffffffffffffffffff166109bc611d4b565b73ffffffffffffffffffffffffffffffffffffffff1614806109eb57506109ea816109e5611d4b565b611b64565b5b610a2a576040517f08c379a0000000000000000000000000000000000000000000000000000000008152600401610a2190613b45565b60405180910390fd5b610a348383611d53565b505050565b60006002811115610a4d57610a4c613492565b5b605b60149054906101000a900460ff166002811115610a6f57610a6e613492565b5b14610a7957600080fd5b605d544211610abd576040517f08c379a0000000000000000000000000000000000000000000000000000000008152600401610ab490613bb1565b60405180910390fd5b6001605b60146101000a81548160ff02191690836002811115610ae357610ae2613492565b5b02179055507f0fd3215fb38f4c3605b0b32862733cc4671a5f0271e027bdb193b8e6f813eda060405160405180910390a1565b60006002811115610b2a57610b29613492565b5b605b60149054906101000a900460ff166002811115610b4c57610b4b613492565b5b14610b8c576040517f08c379a0000000000000000000000000000000000000000000000000000000008152600401610b8390613c1d565b60405180910390fd5b605c543414610bd0576040517f08c379a0000000000000000000000000000000000000000000000000000000008152600401610bc790613c89565b60405180910390fd5b6000610bda610c16565b3342604051602001610bee93929190613d12565b6040516020818303038152906040528051906020012060001c9050610c133382611e0c565b50565b6000600880549050905090565b610c34610c2e611d4b565b82612029565b610c73576040517f08c379a0000000000000000000000000000000000000000000000000000000008152600401610c6a90613dc1565b60405180910390fd5b610c7e8383836120be565b505050565b6000610c8e8361126a565b8210610ccf576040517f08c379a0000000000000000000000000000000000000000000000000000000008152600401610cc690613e53565b60405180910390fd5b600660008473ffffffffffffffffffffffffffffffffffffffff1673ffffffffffffffffffffffffffffffffffffffff168152602001908152602001600020600083815260200190815260200160002054905092915050565b610d30612ee5565b600073ffffffffffffffffffffffffffffffffffffffff16610d51836111d8565b73ffffffffffffffffffffffffffffffffffffffff1603610da7576040517f08c379a0000000000000000000000000000000000000000000000000000000008152600401610d9e90613ebf565b60405180910390fd5b60005b6003811015610e455760005b6009811015610e3157610ddd610dcd858484610f5a565b60616123b790919063ffffffff16565b15610e1e576001838360038110610df757610df6613edf565b5b60200201518260098110610e0e57610e0d613edf565b5b6020020190151590811515815250505b8080610e2990613f3d565b915050610db6565b508080610e3d90613f3d565b915050610daa565b50919050565b60008073ffffffffffffffffffffffffffffffffffffffff16610e6d836111d8565b73ffffffffffffffffffffffffffffffffffffffff1603610ec3576040517f08c379a0000000000000000000000000000000000000000000000000000000008152600401610eba90613ebf565b60405180910390fd5b60005b6003811015610f345760005b6009811015610f2057610ef9610ee9858484610f5a565b60616123b790919063ffffffff16565b15610f0d578280610f0990613f3d565b9350505b8080610f1890613f3d565b915050610ed2565b508080610f2c90613f3d565b915050610ec6565b50919050565b610f5583838360405180602001604052806000815250611507565b505050565b600080600a600386610f6c9190613fb4565b60038110610f7d57610f7c613edf565b5b601b0201600380602002604051908101604052809291906000905b8282101561104c57838260090201600980602002604051908101604052809291906000905b8282101561103957838201600280602002604051908101604052809291908260028015611025576020028201916000905b82829054906101000a900460ff1660ff1681526020019060010190602082600001049283019260010382029150808411610fee5790505b505050505081526020019060010190610fbd565b5050505081526020019060010190610f98565b505050509050600081856003811061106757611066613edf565b5b6020020151846009811061107e5761107d613edf565b5b602002015160006002811061109657611095613edf565b5b602002015160ff16036110ad57600091505061115a565b8084600381106110c0576110bf613edf565b5b602002015183600981106110d7576110d6613edf565b5b60200201516001600281106110ef576110ee613edf565b5b602002015160ff16856111029190613fb4565b81856003811061111557611114613edf565b5b6020020151846009811061112c5761112b613edf565b5b602002015160006002811061114457611143613edf565b5b602002015160ff166111569190613fe5565b9150505b9392505050565b600061116b610c16565b82106111ac576040517f08c379a00000000000000000000000000000000000000000000000000000000081526004016111a39061408b565b60405180910390fd5b600882815481106111c0576111bf613edf565b5b90600052602060002001549050919050565b605f5481565b6000806111e4836123d1565b9050600073ffffffffffffffffffffffffffffffffffffffff168173ffffffffffffffffffffffffffffffffffffffff1603611255576040517f08c379a000000000000000000000000000000000000000000000000000000000815260040161124c906140f7565b60405180910390fd5b80915050919050565b605c5481565b605e5481565b60008073ffffffffffffffffffffffffffffffffffffffff168273ffffffffffffffffffffffffffffffffffffffff16036112da576040517f08c379a00000000000000000000000000000000000000000000000000000000081526004016112d190614189565b60405180910390fd5b600360008373ffffffffffffffffffffffffffffffffffffffff1673ffffffffffffffffffffffffffffffffffffffff168152602001908152602001600020549050919050565b605b60149054906101000a900460ff1681565b60606001805461134390613a10565b80601f016020809104026020016040519081016040528092919081815260200182805461136f90613a10565b80156113bc5780601f10611391576101008083540402835291602001916113bc565b820191906000526020600020905b81548152906001019060200180831161139f57829003601f168201915b5050505050905090565b6113d86113d1611d4b565b838361240e565b5050565b600060028111156113f0576113ef613492565b5b605b60149054906101000a900460ff16600281111561141257611411613492565b5b14611452576040517f08c379a000000000000000000000000000000000000000000000000000000000815260040161144990613c1d565b60405180910390fd5b80605c5461146091906141a9565b34146114a1576040517f08c379a000000000000000000000000000000000000000000000000000000000815260040161149890613c89565b60405180910390fd5b60005b818110156115035760006114b6610c16565b33426040516020016114ca93929190613d12565b6040516020818303038152906040528051906020012060001c90506114ef3382611e0c565b5080806114fb90613f3d565b9150506114a4565b5050565b611518611512611d4b565b83612029565b611557576040517f08c379a000000000000000000000000000000000000000000000000000000000815260040161154e90613dc1565b60405180910390fd5b6115638484848461257a565b50505050565b605d5481565b6060600073ffffffffffffffffffffffffffffffffffffffff16611592836111d8565b73ffffffffffffffffffffffffffffffffffffffff16036115e8576040517f08c379a00000000000000000000000000000000000000000000000000000000081526004016115df90613ebf565b60405180910390fd5b605b60009054906101000a900473ffffffffffffffffffffffffffffffffffffffff1673ffffffffffffffffffffffffffffffffffffffff16635b23dd1183611630856116a4565b61163986610d28565b6040518463ffffffff1660e01b8152600401611657939291906141eb565b600060405180830381865afa158015611674573d6000803e3d6000fd5b505050506040513d6000823e3d601f19601f8201168201806040525081019061169d91906142c5565b9050919050565b6116ac612f12565b60005b60038110156117295760005b6009811015611715576116cf848383610f5a565b8383600381106116e2576116e1613edf565b5b602002015182600981106116f9576116f8613edf565b5b602002018181525050808061170d90613f3d565b9150506116bb565b50808061172190613f3d565b9150506116af565b50919050565b60028081111561174257611741613492565b5b605b60149054906101000a900460ff16600281111561176457611763613492565b5b036117a4576040517f08c379a000000000000000000000000000000000000000000000000000000000815260040161179b9061435a565b60405180910390fd5b6117ad81611d00565b600f6117b882610e4b565b146117f8576040517f08c379a00000000000000000000000000000000000000000000000000000000081526004016117ef906143c6565b60405180910390fd5b606060009054906101000a900473ffffffffffffffffffffffffffffffffffffffff1673ffffffffffffffffffffffffffffffffffffffff1660024761183e91906143e6565b60405161184a90614448565b60006040518083038185875af1925050503d8060008114611887576040519150601f19603f3d011682016040523d82523d6000602084013e61188c565b606091505b505050600061189a826111d8565b90508073ffffffffffffffffffffffffffffffffffffffff16476040516118c090614448565b60006040518083038185875af1925050503d80600081146118fd576040519150601f19603f3d011682016040523d82523d6000602084013e611902565b606091505b5050506002605b60146101000a81548160ff0219169083600281111561192b5761192a613492565b5b02179055507fa4b43ab5bbc81d559aa9f631e943e395ce8c8fa955383fc3efdbec527832f5af82826040516119619291906144bc565b60405180910390a15050565b60006001600281111561198357611982613492565b5b605b60149054906101000a900460ff1660028111156119a5576119a4613492565b5b146119e5576040517f08c379a00000000000000000000000000000000000000000000000000000000081526004016119dc90614531565b60405180910390fd5b605e54605f546119f59190613fe5565b4211611a36576040517f08c379a0000000000000000000000000000000000000000000000000000000008152600401611a2d9061459d565b60405180910390fd5b600080605a424484604051602001611a50939291906145bd565b6040516020818303038152906040528051906020012060001c611a739190613fb4565b6001611a7f9190613fe5565b90505b611a968160616123b790919063ffffffff16565b15611af857605a81424485604051602001611ab494939291906145fa565b6040516020818303038152906040528051906020012060001c611ad79190613fb4565b6001611ae39190613fe5565b90508180611af090613f3d565b925050611a82565b611b0c8160616125d690919063ffffffff16565b5042605f819055507f68789b491d2cf5ee4b99fd6ba64a152455c1360bcaec84c0016bf458d5e19cd581604051611b439190613240565b60405180910390a1809250505090565b6060611b5f60616125f0565b905090565b6000600560008473ffffffffffffffffffffffffffffffffffffffff1673ffffffffffffffffffffffffffffffffffffffff16815260200190815260200160002060008373ffffffffffffffffffffffffffffffffffffffff1673ffffffffffffffffffffffffffffffffffffffff16815260200190815260200160002060009054906101000a900460ff16905092915050565b606060009054906101000a900473ffffffffffffffffffffffffffffffffffffffff1681565b60007f80ac58cd000000000000000000000000000000000000000000000000000000007bffffffffffffffffffffffffffffffffffffffffffffffffffffffff1916827bffffffffffffffffffffffffffffffffffffffffffffffffffffffff19161480611ce957507f5b5e139f000000000000000000000000000000000000000000000000000000007bffffffffffffffffffffffffffffffffffffffffffffffffffffffff1916827bffffffffffffffffffffffffffffffffffffffffffffffffffffffff1916145b80611cf95750611cf882612611565b5b9050919050565b611d098161267b565b611d48576040517f08c379a0000000000000000000000000000000000000000000000000000000008152600401611d3f906140f7565b60405180910390fd5b50565b600033905090565b816004600083815260200190815260200160002060006101000a81548173ffffffffffffffffffffffffffffffffffffffff021916908373ffffffffffffffffffffffffffffffffffffffff160217905550808273ffffffffffffffffffffffffffffffffffffffff16611dc6836111d8565b73ffffffffffffffffffffffffffffffffffffffff167f8c5be1e5ebec7d5bd14f71427d1e84f3dd0314c0f7b2291e5b200ac8c7c3b92560405160405180910390a45050565b600073ffffffffffffffffffffffffffffffffffffffff168273ffffffffffffffffffffffffffffffffffffffff1603611e7b576040517f08c379a0000000000000000000000000000000000000000000000000000000008152600401611e7290614694565b60405180910390fd5b611e848161267b565b15611ec4576040517f08c379a0000000000000000000000000000000000000000000000000000000008152600401611ebb90614700565b60405180910390fd5b611ed26000838360016126bc565b611edb8161267b565b15611f1b576040517f08c379a0000000000000000000000000000000000000000000000000000000008152600401611f1290614700565b60405180910390fd5b6001600360008473ffffffffffffffffffffffffffffffffffffffff1673ffffffffffffffffffffffffffffffffffffffff16815260200190815260200160002060008282540192505081905550816002600083815260200190815260200160002060006101000a81548173ffffffffffffffffffffffffffffffffffffffff021916908373ffffffffffffffffffffffffffffffffffffffff160217905550808273ffffffffffffffffffffffffffffffffffffffff16600073ffffffffffffffffffffffffffffffffffffffff167fddf252ad1be2c89b69c2b068fc378daa952ba7f163c4a11628f55a4df523b3ef60405160405180910390a461202560008383600161281a565b5050565b600080612035836111d8565b90508073ffffffffffffffffffffffffffffffffffffffff168473ffffffffffffffffffffffffffffffffffffffff16148061207757506120768185611b64565b5b806120b557508373ffffffffffffffffffffffffffffffffffffffff1661209d846108dc565b73ffffffffffffffffffffffffffffffffffffffff16145b91505092915050565b8273ffffffffffffffffffffffffffffffffffffffff166120de826111d8565b73ffffffffffffffffffffffffffffffffffffffff1614612134576040517f08c379a000000000000000000000000000000000000000000000000000000000815260040161212b90614792565b60405180910390fd5b600073ffffffffffffffffffffffffffffffffffffffff168273ffffffffffffffffffffffffffffffffffffffff16036121a3576040517f08c379a000000000000000000000000000000000000000000000000000000000815260040161219a90614824565b60405180910390fd5b6121b083838360016126bc565b8273ffffffffffffffffffffffffffffffffffffffff166121d0826111d8565b73ffffffffffffffffffffffffffffffffffffffff1614612226576040517f08c379a000000000000000000000000000000000000000000000000000000000815260040161221d90614792565b60405180910390fd5b6004600082815260200190815260200160002060006101000a81549073ffffffffffffffffffffffffffffffffffffffff02191690556001600360008573ffffffffffffffffffffffffffffffffffffffff1673ffffffffffffffffffffffffffffffffffffffff168152602001908152602001600020600082825403925050819055506001600360008473ffffffffffffffffffffffffffffffffffffffff1673ffffffffffffffffffffffffffffffffffffffff16815260200190815260200160002060008282540192505081905550816002600083815260200190815260200160002060006101000a81548173ffffffffffffffffffffffffffffffffffffffff021916908373ffffffffffffffffffffffffffffffffffffffff160217905550808273ffffffffffffffffffffffffffffffffffffffff168473ffffffffffffffffffffffffffffffffffffffff167fddf252ad1be2c89b69c2b068fc378daa952ba7f163c4a11628f55a4df523b3ef60405160405180910390a46123b2838383600161281a565b505050565b60006123c9836000018360001b612820565b905092915050565b60006002600083815260200190815260200160002060009054906101000a900473ffffffffffffffffffffffffffffffffffffffff169050919050565b8173ffffffffffffffffffffffffffffffffffffffff168373ffffffffffffffffffffffffffffffffffffffff160361247c576040517f08c379a000000000000000000000000000000000000000000000000000000000815260040161247390614890565b60405180910390fd5b80600560008573ffffffffffffffffffffffffffffffffffffffff1673ffffffffffffffffffffffffffffffffffffffff16815260200190815260200160002060008473ffffffffffffffffffffffffffffffffffffffff1673ffffffffffffffffffffffffffffffffffffffff16815260200190815260200160002060006101000a81548160ff0219169083151502179055508173ffffffffffffffffffffffffffffffffffffffff168373ffffffffffffffffffffffffffffffffffffffff167f17307eab39ab6107e8899845ad3d59bd9653f200f220920489ca2b5937696c318360405161256d9190613039565b60405180910390a3505050565b6125858484846120be565b61259184848484612843565b6125d0576040517f08c379a00000000000000000000000000000000000000000000000000000000081526004016125c790614922565b60405180910390fd5b50505050565b60006125e8836000018360001b6129ca565b905092915050565b6060600061260083600001612a3a565b905060608190508092505050919050565b60007f01ffc9a7000000000000000000000000000000000000000000000000000000007bffffffffffffffffffffffffffffffffffffffffffffffffffffffff1916827bffffffffffffffffffffffffffffffffffffffffffffffffffffffff1916149050919050565b60008073ffffffffffffffffffffffffffffffffffffffff1661269d836123d1565b73ffffffffffffffffffffffffffffffffffffffff1614159050919050565b6126c884848484612a96565b600181111561270c576040517f08c379a0000000000000000000000000000000000000000000000000000000008152600401612703906149b4565b60405180910390fd5b6000829050600073ffffffffffffffffffffffffffffffffffffffff168573ffffffffffffffffffffffffffffffffffffffff16036127535761274e81612bbc565b612792565b8373ffffffffffffffffffffffffffffffffffffffff168573ffffffffffffffffffffffffffffffffffffffff1614612791576127908582612c05565b5b5b600073ffffffffffffffffffffffffffffffffffffffff168473ffffffffffffffffffffffffffffffffffffffff16036127d4576127cf81612d72565b612813565b8473ffffffffffffffffffffffffffffffffffffffff168473ffffffffffffffffffffffffffffffffffffffff1614612812576128118482612e43565b5b5b5050505050565b50505050565b600080836001016000848152602001908152602001600020541415905092915050565b60006128648473ffffffffffffffffffffffffffffffffffffffff16612ec2565b156129bd578373ffffffffffffffffffffffffffffffffffffffff1663150b7a0261288d611d4b565b8786866040518563ffffffff1660e01b81526004016128af9493929190614a29565b6020604051808303816000875af19250505080156128eb57506040513d601f19601f820116820180604052508101906128e89190614a8a565b60015b61296d573d806000811461291b576040519150601f19603f3d011682016040523d82523d6000602084013e612920565b606091505b506000815103612965576040517f08c379a000000000000000000000000000000000000000000000000000000000815260040161295c90614922565b60405180910390fd5b805181602001fd5b63150b7a0260e01b7bffffffffffffffffffffffffffffffffffffffffffffffffffffffff1916817bffffffffffffffffffffffffffffffffffffffffffffffffffffffff1916149150506129c2565b600190505b949350505050565b60006129d68383612820565b612a2f578260000182908060018154018082558091505060019003906000526020600020016000909190919091505582600001805490508360010160008481526020019081526020016000208190555060019050612a34565b600090505b92915050565b606081600001805480602002602001604051908101604052809291908181526020018280548015612a8a57602002820191906000526020600020905b815481526020019060010190808311612a76575b50505050509050919050565b6001811115612bb657600073ffffffffffffffffffffffffffffffffffffffff168473ffffffffffffffffffffffffffffffffffffffff1614612b2a5780600360008673ffffffffffffffffffffffffffffffffffffffff1673ffffffffffffffffffffffffffffffffffffffff1681526020019081526020016000206000828254612b229190614ab7565b925050819055505b600073ffffffffffffffffffffffffffffffffffffffff168373ffffffffffffffffffffffffffffffffffffffff1614612bb55780600360008573ffffffffffffffffffffffffffffffffffffffff1673ffffffffffffffffffffffffffffffffffffffff1681526020019081526020016000206000828254612bad9190613fe5565b925050819055505b5b50505050565b6008805490506009600083815260200190815260200160002081905550600881908060018154018082558091505060019003906000526020600020016000909190919091505550565b60006001612c128461126a565b612c1c9190614ab7565b9050600060076000848152602001908152602001600020549050818114612d01576000600660008673ffffffffffffffffffffffffffffffffffffffff1673ffffffffffffffffffffffffffffffffffffffff168152602001908152602001600020600084815260200190815260200160002054905080600660008773ffffffffffffffffffffffffffffffffffffffff1673ffffffffffffffffffffffffffffffffffffffff168152602001908152602001600020600084815260200190815260200160002081905550816007600083815260200190815260200160002081905550505b6007600084815260200190815260200160002060009055600660008573ffffffffffffffffffffffffffffffffffffffff1673ffffffffffffffffffffffffffffffffffffffff16815260200190815260200160002060008381526020019081526020016000206000905550505050565b60006001600880549050612d869190614ab7565b9050600060096000848152602001908152602001600020549050600060088381548110612db657612db5613edf565b5b906000526020600020015490508060088381548110612dd857612dd7613edf565b5b906000526020600020018190555081600960008381526020019081526020016000208190555060096000858152602001908152602001600020600090556008805480612e2757612e26614aeb565b5b6001900381819060005260206000200160009055905550505050565b6000612e4e8361126a565b905081600660008573ffffffffffffffffffffffffffffffffffffffff1673ffffffffffffffffffffffffffffffffffffffff168152602001908152602001600020600083815260200190815260200160002081905550806007600084815260200190815260200160002081905550505050565b6000808273ffffffffffffffffffffffffffffffffffffffff163b119050919050565b60405180606001604052806003905b612efc612f3f565b815260200190600190039081612ef45790505090565b60405180606001604052806003905b612f29612f62565b815260200190600190039081612f215790505090565b604051806101200160405280600990602082028036833780820191505090505090565b604051806101200160405280600990602082028036833780820191505090505090565b6000604051905090565b600080fd5b600080fd5b60007fffffffff0000000000000000000000000000000000000000000000000000000082169050919050565b612fce81612f99565b8114612fd957600080fd5b50565b600081359050612feb81612fc5565b92915050565b60006020828403121561300757613006612f8f565b5b600061301584828501612fdc565b91505092915050565b60008115159050919050565b6130338161301e565b82525050565b600060208201905061304e600083018461302a565b92915050565b600081519050919050565b600082825260208201905092915050565b60005b8381101561308e578082015181840152602081019050613073565b60008484015250505050565b6000601f19601f8301169050919050565b60006130b682613054565b6130c0818561305f565b93506130d0818560208601613070565b6130d98161309a565b840191505092915050565b600060208201905081810360008301526130fe81846130ab565b905092915050565b6000819050919050565b61311981613106565b811461312457600080fd5b50565b60008135905061313681613110565b92915050565b60006020828403121561315257613151612f8f565b5b600061316084828501613127565b91505092915050565b600073ffffffffffffffffffffffffffffffffffffffff82169050919050565b600061319482613169565b9050919050565b6131a481613189565b82525050565b60006020820190506131bf600083018461319b565b92915050565b6131ce81613189565b81146131d957600080fd5b50565b6000813590506131eb816131c5565b92915050565b6000806040838503121561320857613207612f8f565b5b6000613216858286016131dc565b925050602061322785828601613127565b9150509250929050565b61323a81613106565b82525050565b60006020820190506132556000830184613231565b92915050565b60008060006060848603121561327457613273612f8f565b5b6000613282868287016131dc565b9350506020613293868287016131dc565b92505060406132a486828701613127565b9150509250925092565b600060039050919050565b600081905092915050565b6000819050919050565b600060099050919050565b600081905092915050565b6000819050919050565b6132f78161301e565b82525050565b600061330983836132ee565b60208301905092915050565b6000602082019050919050565b61332b816132ce565b61333581846132d9565b9250613340826132e4565b8060005b8381101561337157815161335887826132fd565b965061336383613315565b925050600181019050613344565b505050505050565b60006133858383613322565b6101208301905092915050565b6000602082019050919050565b6133a8816132ae565b6133b281846132b9565b92506133bd826132c4565b8060005b838110156133ee5781516133d58782613379565b96506133e083613392565b9250506001810190506133c1565b505050505050565b60006103608201905061340c600083018461339f565b92915050565b60008060006060848603121561342b5761342a612f8f565b5b600061343986828701613127565b935050602061344a86828701613127565b925050604061345b86828701613127565b9150509250925092565b60006020828403121561347b5761347a612f8f565b5b6000613489848285016131dc565b91505092915050565b7f4e487b7100000000000000000000000000000000000000000000000000000000600052602160045260246000fd5b600381106134d2576134d1613492565b5b50565b60008190506134e3826134c1565b919050565b60006134f3826134d5565b9050919050565b613503816134e8565b82525050565b600060208201905061351e60008301846134fa565b92915050565b61352d8161301e565b811461353857600080fd5b50565b60008135905061354a81613524565b92915050565b6000806040838503121561356757613566612f8f565b5b6000613575858286016131dc565b92505060206135868582860161353b565b9150509250929050565b600080fd5b600080fd5b7f4e487b7100000000000000000000000000000000000000000000000000000000600052604160045260246000fd5b6135d28261309a565b810181811067ffffffffffffffff821117156135f1576135f061359a565b5b80604052505050565b6000613604612f85565b905061361082826135c9565b919050565b600067ffffffffffffffff8211156136305761362f61359a565b5b6136398261309a565b9050602081019050919050565b82818337600083830152505050565b600061366861366384613615565b6135fa565b90508281526020810184848401111561368457613683613595565b5b61368f848285613646565b509392505050565b600082601f8301126136ac576136ab613590565b5b81356136bc848260208601613655565b91505092915050565b600080600080608085870312156136df576136de612f8f565b5b60006136ed878288016131dc565b94505060206136fe878288016131dc565b935050604061370f87828801613127565b925050606085013567ffffffffffffffff8111156137305761372f612f94565b5b61373c87828801613697565b91505092959194509250565b600060039050919050565b600081905092915050565b6000819050919050565b600060099050919050565b600081905092915050565b6000819050919050565b61379181613106565b82525050565b60006137a38383613788565b60208301905092915050565b6000602082019050919050565b6137c581613768565b6137cf8184613773565b92506137da8261377e565b8060005b8381101561380b5781516137f28782613797565b96506137fd836137af565b9250506001810190506137de565b505050505050565b600061381f83836137bc565b6101208301905092915050565b6000602082019050919050565b61384281613748565b61384c8184613753565b92506138578261375e565b8060005b8381101561388857815161386f8782613813565b965061387a8361382c565b92505060018101905061385b565b505050505050565b6000610360820190506138a66000830184613839565b92915050565b600081519050919050565b600082825260208201905092915050565b6000819050602082019050919050565b6000602082019050919050565b60006138f0826138ac565b6138fa81856138b7565b9350613905836138c8565b8060005b8381101561393657815161391d8882613797565b9750613928836138d8565b925050600181019050613909565b5085935050505092915050565b6000602082019050818103600083015261395d81846138e5565b905092915050565b6000806040838503121561397c5761397b612f8f565b5b600061398a858286016131dc565b925050602061399b858286016131dc565b9150509250929050565b60006139b082613169565b9050919050565b6139c0816139a5565b82525050565b60006020820190506139db60008301846139b7565b92915050565b7f4e487b7100000000000000000000000000000000000000000000000000000000600052602260045260246000fd5b60006002820490506001821680613a2857607f821691505b602082108103613a3b57613a3a6139e1565b5b50919050565b7f4552433732313a20617070726f76616c20746f2063757272656e74206f776e6560008201527f7200000000000000000000000000000000000000000000000000000000000000602082015250565b6000613a9d60218361305f565b9150613aa882613a41565b604082019050919050565b60006020820190508181036000830152613acc81613a90565b9050919050565b7f4552433732313a20617070726f76652063616c6c6572206973206e6f7420746f60008201527f6b656e206f776e6572206f7220617070726f76656420666f7220616c6c000000602082015250565b6000613b2f603d8361305f565b9150613b3a82613ad3565b604082019050919050565b60006020820190508181036000830152613b5e81613b22565b9050919050565b7f4974206973206e6f74206472617720706572696f642079657400000000000000600082015250565b6000613b9b60198361305f565b9150613ba682613b65565b602082019050919050565b60006020820190508181036000830152613bca81613b8e565b9050919050565b7f4974206973206e6f74206d696e7420706572696f640000000000000000000000600082015250565b6000613c0760158361305f565b9150613c1282613bd1565b602082019050919050565b60006020820190508181036000830152613c3681613bfa565b9050919050565b7f496e636f7272656374207061796d656e7420616d6f756e740000000000000000600082015250565b6000613c7360188361305f565b9150613c7e82613c3d565b602082019050919050565b60006020820190508181036000830152613ca281613c66565b9050919050565b6000819050919050565b613cc4613cbf82613106565b613ca9565b82525050565b60008160601b9050919050565b6000613ce282613cca565b9050919050565b6000613cf482613cd7565b9050919050565b613d0c613d0782613189565b613ce9565b82525050565b6000613d1e8286613cb3565b602082019150613d2e8285613cfb565b601482019150613d3e8284613cb3565b602082019150819050949350505050565b7f4552433732313a2063616c6c6572206973206e6f7420746f6b656e206f776e6560008201527f72206f7220617070726f76656400000000000000000000000000000000000000602082015250565b6000613dab602d8361305f565b9150613db682613d4f565b604082019050919050565b60006020820190508181036000830152613dda81613d9e565b9050919050565b7f455243373231456e756d657261626c653a206f776e657220696e646578206f7560008201527f74206f6620626f756e6473000000000000000000000000000000000000000000602082015250565b6000613e3d602b8361305f565b9150613e4882613de1565b604082019050919050565b60006020820190508181036000830152613e6c81613e30565b9050919050565b7f494e56414c49445f544f4b454e5f494400000000000000000000000000000000600082015250565b6000613ea960108361305f565b9150613eb482613e73565b602082019050919050565b60006020820190508181036000830152613ed881613e9c565b9050919050565b7f4e487b7100000000000000000000000000000000000000000000000000000000600052603260045260246000fd5b7f4e487b7100000000000000000000000000000000000000000000000000000000600052601160045260246000fd5b6000613f4882613106565b91507fffffffffffffffffffffffffffffffffffffffffffffffffffffffffffffffff8203613f7a57613f79613f0e565b5b600182019050919050565b7f4e487b7100000000000000000000000000000000000000000000000000000000600052601260045260246000fd5b6000613fbf82613106565b9150613fca83613106565b925082613fda57613fd9613f85565b5b828206905092915050565b6000613ff082613106565b9150613ffb83613106565b925082820190508082111561401357614012613f0e565b5b92915050565b7f455243373231456e756d657261626c653a20676c6f62616c20696e646578206f60008201527f7574206f6620626f756e64730000000000000000000000000000000000000000602082015250565b6000614075602c8361305f565b915061408082614019565b604082019050919050565b600060208201905081810360008301526140a481614068565b9050919050565b7f4552433732313a20696e76616c696420746f6b656e2049440000000000000000600082015250565b60006140e160188361305f565b91506140ec826140ab565b602082019050919050565b60006020820190508181036000830152614110816140d4565b9050919050565b7f4552433732313a2061646472657373207a65726f206973206e6f74206120766160008201527f6c6964206f776e65720000000000000000000000000000000000000000000000602082015250565b600061417360298361305f565b915061417e82614117565b604082019050919050565b600060208201905081810360008301526141a281614166565b9050919050565b60006141b482613106565b91506141bf83613106565b92508282026141cd81613106565b915082820484148315176141e4576141e3613f0e565b5b5092915050565b60006106e0820190506142016000830186613231565b61420e6020830185613839565b61421c61038083018461339f565b949350505050565b600067ffffffffffffffff82111561423f5761423e61359a565b5b6142488261309a565b9050602081019050919050565b600061426861426384614224565b6135fa565b90508281526020810184848401111561428457614283613595565b5b61428f848285613070565b509392505050565b600082601f8301126142ac576142ab613590565b5b81516142bc848260208601614255565b91505092915050565b6000602082840312156142db576142da612f8f565b5b600082015167ffffffffffffffff8111156142f9576142f8612f94565b5b61430584828501614297565b91505092915050565b7f47616d65204f7665720000000000000000000000000000000000000000000000600082015250565b600061434460098361305f565b915061434f8261430e565b602082019050919050565b6000602082019050818103600083015261437381614337565b9050919050565b7f494e454c494749424c4500000000000000000000000000000000000000000000600082015250565b60006143b0600a8361305f565b91506143bb8261437a565b602082019050919050565b600060208201905081810360008301526143df816143a3565b9050919050565b60006143f182613106565b91506143fc83613106565b92508261440c5761440b613f85565b5b828204905092915050565b600081905092915050565b50565b6000614432600083614417565b915061443d82614422565b600082019050919050565b600061445382614425565b9150819050919050565b6000819050919050565b600061448261447d61447884613169565b61445d565b613169565b9050919050565b600061449482614467565b9050919050565b60006144a682614489565b9050919050565b6144b68161449b565b82525050565b60006040820190506144d16000830185613231565b6144de60208301846144ad565b9392505050565b7f4974206973206e6f74206472617720706572696f640000000000000000000000600082015250565b600061451b60158361305f565b9150614526826144e5565b602082019050919050565b6000602082019050818103600083015261454a8161450e565b9050919050565b7f4472617720746f6f20736f6f6e00000000000000000000000000000000000000600082015250565b6000614587600d8361305f565b915061459282614551565b602082019050919050565b600060208201905081810360008301526145b68161457a565b9050919050565b60006145c98286613cb3565b6020820191506145d98285613cb3565b6020820191506145e98284613cb3565b602082019150819050949350505050565b60006146068287613cb3565b6020820191506146168286613cb3565b6020820191506146268285613cb3565b6020820191506146368284613cb3565b60208201915081905095945050505050565b7f4552433732313a206d696e7420746f20746865207a65726f2061646472657373600082015250565b600061467e60208361305f565b915061468982614648565b602082019050919050565b600060208201905081810360008301526146ad81614671565b9050919050565b7f4552433732313a20746f6b656e20616c7265616479206d696e74656400000000600082015250565b60006146ea601c8361305f565b91506146f5826146b4565b602082019050919050565b60006020820190508181036000830152614719816146dd565b9050919050565b7f4552433732313a207472616e736665722066726f6d20696e636f72726563742060008201527f6f776e6572000000000000000000000000000000000000000000000000000000602082015250565b600061477c60258361305f565b915061478782614720565b604082019050919050565b600060208201905081810360008301526147ab8161476f565b9050919050565b7f4552433732313a207472616e7366657220746f20746865207a65726f2061646460008201527f7265737300000000000000000000000000000000000000000000000000000000602082015250565b600061480e60248361305f565b9150614819826147b2565b604082019050919050565b6000602082019050818103600083015261483d81614801565b9050919050565b7f4552433732313a20617070726f766520746f2063616c6c657200000000000000600082015250565b600061487a60198361305f565b915061488582614844565b602082019050919050565b600060208201905081810360008301526148a98161486d565b9050919050565b7f4552433732313a207472616e7366657220746f206e6f6e20455243373231526560008201527f63656976657220696d706c656d656e7465720000000000000000000000000000602082015250565b600061490c60328361305f565b9150614917826148b0565b604082019050919050565b6000602082019050818103600083015261493b816148ff565b9050919050565b7f455243373231456e756d657261626c653a20636f6e736563757469766520747260008201527f616e7366657273206e6f7420737570706f727465640000000000000000000000602082015250565b600061499e60358361305f565b91506149a982614942565b604082019050919050565b600060208201905081810360008301526149cd81614991565b9050919050565b600081519050919050565b600082825260208201905092915050565b60006149fb826149d4565b614a0581856149df565b9350614a15818560208601613070565b614a1e8161309a565b840191505092915050565b6000608082019050614a3e600083018761319b565b614a4b602083018661319b565b614a586040830185613231565b8181036060830152614a6a81846149f0565b905095945050505050565b600081519050614a8481612fc5565b92915050565b600060208284031215614aa057614a9f612f8f565b5b6000614aae84828501614a75565b91505092915050565b6000614ac282613106565b9150614acd83613106565b9250828203905081811115614ae557614ae4613f0e565b5b92915050565b7f4e487b7100000000000000000000000000000000000000000000000000000000600052603160045260246000fdfea264697066735822122017965c92805dc7ef7cb59c69cafe2b0fdc99080456dfcc688ddbf5db9d6433c964736f6c63430008110033",
  "devdoc": {
    "kind": "dev",
    "methods": {
      "approve(address,uint256)": {
        "details": "See {IERC721-approve}."
      },
      "balanceOf(address)": {
        "details": "See {IERC721-balanceOf}."
      },
      "getApproved(uint256)": {
        "details": "See {IERC721-getApproved}."
      },
      "isApprovedForAll(address,address)": {
        "details": "See {IERC721-isApprovedForAll}."
      },
      "name()": {
        "details": "See {IERC721Metadata-name}."
      },
      "ownerOf(uint256)": {
        "details": "See {IERC721-ownerOf}."
      },
      "safeTransferFrom(address,address,uint256)": {
        "details": "See {IERC721-safeTransferFrom}."
      },
      "safeTransferFrom(address,address,uint256,bytes)": {
        "details": "See {IERC721-safeTransferFrom}."
      },
      "setApprovalForAll(address,bool)": {
        "details": "See {IERC721-setApprovalForAll}."
      },
      "supportsInterface(bytes4)": {
        "details": "See {IERC165-supportsInterface}."
      },
      "symbol()": {
        "details": "See {IERC721Metadata-symbol}."
      },
      "tokenByIndex(uint256)": {
        "details": "See {IERC721Enumerable-tokenByIndex}."
      },
      "tokenOfOwnerByIndex(address,uint256)": {
        "details": "See {IERC721Enumerable-tokenOfOwnerByIndex}."
      },
      "tokenURI(uint256)": {
        "details": "See {IERC721Metadata-tokenURI}."
      },
      "totalSupply()": {
        "details": "See {IERC721Enumerable-totalSupply}."
      },
      "transferFrom(address,address,uint256)": {
        "details": "See {IERC721-transferFrom}."
      }
    },
    "version": 1
  },
  "userdoc": {
    "kind": "user",
    "methods": {},
    "version": 1
  },
  "storageLayout": {
    "storage": [
      {
        "astId": 25,
        "contract": "contracts/RegenBingo.sol:RegenBingo",
        "label": "_name",
        "offset": 0,
        "slot": "0",
        "type": "t_string_storage"
      },
      {
        "astId": 27,
        "contract": "contracts/RegenBingo.sol:RegenBingo",
        "label": "_symbol",
        "offset": 0,
        "slot": "1",
        "type": "t_string_storage"
      },
      {
        "astId": 31,
        "contract": "contracts/RegenBingo.sol:RegenBingo",
        "label": "_owners",
        "offset": 0,
        "slot": "2",
        "type": "t_mapping(t_uint256,t_address)"
      },
      {
        "astId": 35,
        "contract": "contracts/RegenBingo.sol:RegenBingo",
        "label": "_balances",
        "offset": 0,
        "slot": "3",
        "type": "t_mapping(t_address,t_uint256)"
      },
      {
        "astId": 39,
        "contract": "contracts/RegenBingo.sol:RegenBingo",
        "label": "_tokenApprovals",
        "offset": 0,
        "slot": "4",
        "type": "t_mapping(t_uint256,t_address)"
      },
      {
        "astId": 45,
        "contract": "contracts/RegenBingo.sol:RegenBingo",
        "label": "_operatorApprovals",
        "offset": 0,
        "slot": "5",
        "type": "t_mapping(t_address,t_mapping(t_address,t_bool))"
      },
      {
        "astId": 1093,
        "contract": "contracts/RegenBingo.sol:RegenBingo",
        "label": "_ownedTokens",
        "offset": 0,
        "slot": "6",
        "type": "t_mapping(t_address,t_mapping(t_uint256,t_uint256))"
      },
      {
        "astId": 1097,
        "contract": "contracts/RegenBingo.sol:RegenBingo",
        "label": "_ownedTokensIndex",
        "offset": 0,
        "slot": "7",
        "type": "t_mapping(t_uint256,t_uint256)"
      },
      {
        "astId": 1100,
        "contract": "contracts/RegenBingo.sol:RegenBingo",
        "label": "_allTokens",
        "offset": 0,
        "slot": "8",
        "type": "t_array(t_uint256)dyn_storage"
      },
      {
        "astId": 1104,
        "contract": "contracts/RegenBingo.sol:RegenBingo",
        "label": "_allTokensIndex",
        "offset": 0,
        "slot": "9",
        "type": "t_mapping(t_uint256,t_uint256)"
      },
      {
        "astId": 3867,
        "contract": "contracts/RegenBingo.sol:RegenBingo",
        "label": "LAYOUTS",
        "offset": 0,
        "slot": "10",
        "type": "t_array(t_array(t_array(t_array(t_uint8)2_storage)9_storage)3_storage)3_storage"
      },
      {
        "astId": 3870,
        "contract": "contracts/RegenBingo.sol:RegenBingo",
        "label": "metadataGenerator",
        "offset": 0,
        "slot": "91",
        "type": "t_contract(IRegenBingoMetadata)4540"
      },
      {
        "astId": 3873,
        "contract": "contracts/RegenBingo.sol:RegenBingo",
        "label": "bingoState",
        "offset": 20,
        "slot": "91",
        "type": "t_enum(BingoState)3598"
      },
      {
        "astId": 3875,
        "contract": "contracts/RegenBingo.sol:RegenBingo",
        "label": "mintPrice",
        "offset": 0,
        "slot": "92",
        "type": "t_uint256"
      },
      {
        "astId": 3877,
        "contract": "contracts/RegenBingo.sol:RegenBingo",
        "label": "drawTimestamp",
        "offset": 0,
        "slot": "93",
        "type": "t_uint256"
      },
      {
        "astId": 3879,
        "contract": "contracts/RegenBingo.sol:RegenBingo",
        "label": "drawNumberCooldownSeconds",
        "offset": 0,
        "slot": "94",
        "type": "t_uint256"
      },
      {
        "astId": 3881,
        "contract": "contracts/RegenBingo.sol:RegenBingo",
        "label": "lastDrawTime",
        "offset": 0,
        "slot": "95",
        "type": "t_uint256"
      },
      {
        "astId": 3883,
        "contract": "contracts/RegenBingo.sol:RegenBingo",
        "label": "donationAddress",
        "offset": 0,
        "slot": "96",
        "type": "t_address_payable"
      },
      {
        "astId": 3886,
        "contract": "contracts/RegenBingo.sol:RegenBingo",
        "label": "drawnNumbers",
        "offset": 0,
        "slot": "97",
        "type": "t_struct(UintSet)3448_storage"
      }
    ],
    "types": {
      "t_address": {
        "encoding": "inplace",
        "label": "address",
        "numberOfBytes": "20"
      },
      "t_address_payable": {
        "encoding": "inplace",
        "label": "address payable",
        "numberOfBytes": "20"
      },
      "t_array(t_array(t_array(t_array(t_uint8)2_storage)9_storage)3_storage)3_storage": {
        "base": "t_array(t_array(t_array(t_uint8)2_storage)9_storage)3_storage",
        "encoding": "inplace",
        "label": "uint8[2][9][3][3]",
        "numberOfBytes": "2592"
      },
      "t_array(t_array(t_array(t_uint8)2_storage)9_storage)3_storage": {
        "base": "t_array(t_array(t_uint8)2_storage)9_storage",
        "encoding": "inplace",
        "label": "uint8[2][9][3]",
        "numberOfBytes": "864"
      },
      "t_array(t_array(t_uint8)2_storage)9_storage": {
        "base": "t_array(t_uint8)2_storage",
        "encoding": "inplace",
        "label": "uint8[2][9]",
        "numberOfBytes": "288"
      },
      "t_array(t_bytes32)dyn_storage": {
        "base": "t_bytes32",
        "encoding": "dynamic_array",
        "label": "bytes32[]",
        "numberOfBytes": "32"
      },
      "t_array(t_uint256)dyn_storage": {
        "base": "t_uint256",
        "encoding": "dynamic_array",
        "label": "uint256[]",
        "numberOfBytes": "32"
      },
      "t_array(t_uint8)2_storage": {
        "base": "t_uint8",
        "encoding": "inplace",
        "label": "uint8[2]",
        "numberOfBytes": "32"
      },
      "t_bool": {
        "encoding": "inplace",
        "label": "bool",
        "numberOfBytes": "1"
      },
      "t_bytes32": {
        "encoding": "inplace",
        "label": "bytes32",
        "numberOfBytes": "32"
      },
      "t_contract(IRegenBingoMetadata)4540": {
        "encoding": "inplace",
        "label": "contract IRegenBingoMetadata",
        "numberOfBytes": "20"
      },
      "t_enum(BingoState)3598": {
        "encoding": "inplace",
        "label": "enum RegenBingo.BingoState",
        "numberOfBytes": "1"
      },
      "t_mapping(t_address,t_bool)": {
        "encoding": "mapping",
        "key": "t_address",
        "label": "mapping(address => bool)",
        "numberOfBytes": "32",
        "value": "t_bool"
      },
      "t_mapping(t_address,t_mapping(t_address,t_bool))": {
        "encoding": "mapping",
        "key": "t_address",
        "label": "mapping(address => mapping(address => bool))",
        "numberOfBytes": "32",
        "value": "t_mapping(t_address,t_bool)"
      },
      "t_mapping(t_address,t_mapping(t_uint256,t_uint256))": {
        "encoding": "mapping",
        "key": "t_address",
        "label": "mapping(address => mapping(uint256 => uint256))",
        "numberOfBytes": "32",
        "value": "t_mapping(t_uint256,t_uint256)"
      },
      "t_mapping(t_address,t_uint256)": {
        "encoding": "mapping",
        "key": "t_address",
        "label": "mapping(address => uint256)",
        "numberOfBytes": "32",
        "value": "t_uint256"
      },
      "t_mapping(t_bytes32,t_uint256)": {
        "encoding": "mapping",
        "key": "t_bytes32",
        "label": "mapping(bytes32 => uint256)",
        "numberOfBytes": "32",
        "value": "t_uint256"
      },
      "t_mapping(t_uint256,t_address)": {
        "encoding": "mapping",
        "key": "t_uint256",
        "label": "mapping(uint256 => address)",
        "numberOfBytes": "32",
        "value": "t_address"
      },
      "t_mapping(t_uint256,t_uint256)": {
        "encoding": "mapping",
        "key": "t_uint256",
        "label": "mapping(uint256 => uint256)",
        "numberOfBytes": "32",
        "value": "t_uint256"
      },
      "t_string_storage": {
        "encoding": "bytes",
        "label": "string",
        "numberOfBytes": "32"
      },
      "t_struct(Set)2976_storage": {
        "encoding": "inplace",
        "label": "struct EnumerableSet.Set",
        "members": [
          {
            "astId": 2971,
            "contract": "contracts/RegenBingo.sol:RegenBingo",
            "label": "_values",
            "offset": 0,
            "slot": "0",
            "type": "t_array(t_bytes32)dyn_storage"
          },
          {
            "astId": 2975,
            "contract": "contracts/RegenBingo.sol:RegenBingo",
            "label": "_indexes",
            "offset": 0,
            "slot": "1",
            "type": "t_mapping(t_bytes32,t_uint256)"
          }
        ],
        "numberOfBytes": "64"
      },
      "t_struct(UintSet)3448_storage": {
        "encoding": "inplace",
        "label": "struct EnumerableSet.UintSet",
        "members": [
          {
            "astId": 3447,
            "contract": "contracts/RegenBingo.sol:RegenBingo",
            "label": "_inner",
            "offset": 0,
            "slot": "0",
            "type": "t_struct(Set)2976_storage"
          }
        ],
        "numberOfBytes": "64"
      },
      "t_uint256": {
        "encoding": "inplace",
        "label": "uint256",
        "numberOfBytes": "32"
      },
      "t_uint8": {
        "encoding": "inplace",
        "label": "uint8",
        "numberOfBytes": "1"
      }
    }
  }
}