{
  "address": "0xCa2Dc13e4110103575Cf862F54858D19C7B97258",
  "abi": [
    {
      "inputs": [
        {
          "internalType": "string",
          "name": "_name",
          "type": "string"
        },
        {
          "internalType": "string",
          "name": "_symbol",
          "type": "string"
        },
        {
          "internalType": "uint256",
          "name": "_mintPrice",
          "type": "uint256"
        },
        {
          "internalType": "uint256",
          "name": "_drawTimestamp",
          "type": "uint256"
        },
        {
          "internalType": "uint256",
          "name": "_drawNumberCooldownSeconds",
          "type": "uint256"
        },
        {
          "internalType": "string",
          "name": "_donationName",
          "type": "string"
        },
        {
          "internalType": "address payable",
          "name": "_donationAddress",
          "type": "address"
        },
        {
          "internalType": "address",
          "name": "_metadataGenerator",
          "type": "address"
        },
        {
          "internalType": "address",
          "name": "_linkAddress",
          "type": "address"
        },
        {
          "internalType": "address",
          "name": "_wrapperAddress",
          "type": "address"
        }
      ],
      "stateMutability": "nonpayable",
      "type": "constructor"
    },
    {
      "anonymous": false,
      "inputs": [
        {
          "indexed": true,
          "internalType": "address",
          "name": "owner",
          "type": "address"
        },
        {
          "indexed": true,
          "internalType": "address",
          "name": "approved",
          "type": "address"
        },
        {
          "indexed": true,
          "internalType": "uint256",
          "name": "tokenId",
          "type": "uint256"
        }
      ],
      "name": "Approval",
      "type": "event"
    },
    {
      "anonymous": false,
      "inputs": [
        {
          "indexed": true,
          "internalType": "address",
          "name": "owner",
          "type": "address"
        },
        {
          "indexed": true,
          "internalType": "address",
          "name": "operator",
          "type": "address"
        },
        {
          "indexed": false,
          "internalType": "bool",
          "name": "approved",
          "type": "bool"
        }
      ],
      "name": "ApprovalForAll",
      "type": "event"
    },
    {
      "anonymous": false,
      "inputs": [
        {
          "indexed": false,
          "internalType": "uint256",
          "name": "tokenId",
          "type": "uint256"
        },
        {
          "indexed": false,
          "internalType": "address",
          "name": "winner",
          "type": "address"
        }
      ],
      "name": "ClaimPrize",
      "type": "event"
    },
    {
      "anonymous": false,
      "inputs": [
        {
          "indexed": false,
          "internalType": "uint256",
          "name": "number",
          "type": "uint256"
        }
      ],
      "name": "DrawNumber",
      "type": "event"
    },
    {
      "anonymous": false,
      "inputs": [],
      "name": "DrawStarted",
      "type": "event"
    },
    {
      "anonymous": false,
      "inputs": [
        {
          "indexed": true,
          "internalType": "address",
          "name": "from",
          "type": "address"
        },
        {
          "indexed": true,
          "internalType": "address",
          "name": "to",
          "type": "address"
        },
        {
          "indexed": true,
          "internalType": "uint256",
          "name": "tokenId",
          "type": "uint256"
        }
      ],
      "name": "Transfer",
      "type": "event"
    },
    {
      "inputs": [
        {
          "internalType": "address",
          "name": "to",
          "type": "address"
        },
        {
          "internalType": "uint256",
          "name": "tokenId",
          "type": "uint256"
        }
      ],
      "name": "approve",
      "outputs": [],
      "stateMutability": "nonpayable",
      "type": "function"
    },
    {
      "inputs": [
        {
          "internalType": "address",
          "name": "owner",
          "type": "address"
        }
      ],
      "name": "balanceOf",
      "outputs": [
        {
          "internalType": "uint256",
          "name": "",
          "type": "uint256"
        }
      ],
      "stateMutability": "view",
      "type": "function"
    },
    {
      "inputs": [],
      "name": "bingoState",
      "outputs": [
        {
          "internalType": "enum RegenBingo.BingoState",
          "name": "",
          "type": "uint8"
        }
      ],
      "stateMutability": "view",
      "type": "function"
    },
    {
      "inputs": [
        {
          "internalType": "uint256",
          "name": "id",
          "type": "uint256"
        }
      ],
      "name": "claimPrize",
      "outputs": [],
      "stateMutability": "nonpayable",
      "type": "function"
    },
    {
      "inputs": [
        {
          "internalType": "uint256",
          "name": "tokenId",
          "type": "uint256"
        }
      ],
      "name": "covered",
      "outputs": [
        {
          "internalType": "bool[9][3]",
          "name": "covered",
          "type": "bool[9][3]"
        }
      ],
      "stateMutability": "view",
      "type": "function"
    },
    {
      "inputs": [
        {
          "internalType": "uint256",
          "name": "tokenId",
          "type": "uint256"
        }
      ],
      "name": "coveredNumbers",
      "outputs": [
        {
          "internalType": "uint256",
          "name": "count",
          "type": "uint256"
        }
      ],
      "stateMutability": "view",
      "type": "function"
    },
    {
      "inputs": [],
      "name": "donationAddress",
      "outputs": [
        {
          "internalType": "address payable",
          "name": "",
          "type": "address"
        }
      ],
      "stateMutability": "view",
      "type": "function"
    },
    {
      "inputs": [],
      "name": "donationName",
      "outputs": [
        {
          "internalType": "string",
          "name": "",
          "type": "string"
        }
      ],
      "stateMutability": "view",
      "type": "function"
    },
    {
      "inputs": [],
      "name": "drawNumber",
      "outputs": [
        {
          "internalType": "uint256",
          "name": "",
          "type": "uint256"
        }
      ],
      "stateMutability": "nonpayable",
      "type": "function"
    },
    {
      "inputs": [],
      "name": "drawNumberCooldownSeconds",
      "outputs": [
        {
          "internalType": "uint256",
          "name": "",
          "type": "uint256"
        }
      ],
      "stateMutability": "view",
      "type": "function"
    },
    {
      "inputs": [],
      "name": "drawTimestamp",
      "outputs": [
        {
          "internalType": "uint256",
          "name": "",
          "type": "uint256"
        }
      ],
      "stateMutability": "view",
      "type": "function"
    },
    {
      "inputs": [
        {
          "internalType": "uint256",
          "name": "tokenId",
          "type": "uint256"
        }
      ],
      "name": "getApproved",
      "outputs": [
        {
          "internalType": "address",
          "name": "",
          "type": "address"
        }
      ],
      "stateMutability": "view",
      "type": "function"
    },
    {
      "inputs": [],
      "name": "getDrawnNumbers",
      "outputs": [
        {
          "internalType": "uint256[]",
          "name": "",
          "type": "uint256[]"
        }
      ],
      "stateMutability": "view",
      "type": "function"
    },
    {
      "inputs": [
        {
          "internalType": "uint256",
          "name": "tokenId",
          "type": "uint256"
        },
        {
          "internalType": "uint256",
          "name": "row",
          "type": "uint256"
        },
        {
          "internalType": "uint256",
          "name": "column",
          "type": "uint256"
        }
      ],
      "name": "getNumberByCoordinates",
      "outputs": [
        {
          "internalType": "uint256",
          "name": "",
          "type": "uint256"
        }
      ],
      "stateMutability": "view",
      "type": "function"
    },
    {
      "inputs": [
        {
          "internalType": "address",
          "name": "owner",
          "type": "address"
        },
        {
          "internalType": "address",
          "name": "operator",
          "type": "address"
        }
      ],
      "name": "isApprovedForAll",
      "outputs": [
        {
          "internalType": "bool",
          "name": "",
          "type": "bool"
        }
      ],
      "stateMutability": "view",
      "type": "function"
    },
    {
      "inputs": [],
      "name": "isRandomSeedFulfilled",
      "outputs": [
        {
          "internalType": "bool",
          "name": "",
          "type": "bool"
        }
      ],
      "stateMutability": "view",
      "type": "function"
    },
    {
      "inputs": [],
      "name": "lastDrawTime",
      "outputs": [
        {
          "internalType": "uint256",
          "name": "",
          "type": "uint256"
        }
      ],
      "stateMutability": "view",
      "type": "function"
    },
    {
      "inputs": [],
      "name": "mint",
      "outputs": [],
      "stateMutability": "payable",
      "type": "function"
    },
    {
      "inputs": [
        {
          "internalType": "uint256",
          "name": "mintCount",
          "type": "uint256"
        }
      ],
      "name": "mintMultiple",
      "outputs": [],
      "stateMutability": "payable",
      "type": "function"
    },
    {
      "inputs": [],
      "name": "mintPrice",
      "outputs": [
        {
          "internalType": "uint256",
          "name": "",
          "type": "uint256"
        }
      ],
      "stateMutability": "view",
      "type": "function"
    },
    {
      "inputs": [],
      "name": "name",
      "outputs": [
        {
          "internalType": "string",
          "name": "",
          "type": "string"
        }
      ],
      "stateMutability": "view",
      "type": "function"
    },
    {
      "inputs": [
        {
          "internalType": "uint256",
          "name": "tokenId",
          "type": "uint256"
        }
      ],
      "name": "numbers",
      "outputs": [
        {
          "internalType": "uint256[9][3]",
          "name": "numbers",
          "type": "uint256[9][3]"
        }
      ],
      "stateMutability": "view",
      "type": "function"
    },
    {
      "inputs": [
        {
          "internalType": "uint256",
          "name": "tokenId",
          "type": "uint256"
        }
      ],
      "name": "ownerOf",
      "outputs": [
        {
          "internalType": "address",
          "name": "",
          "type": "address"
        }
      ],
      "stateMutability": "view",
      "type": "function"
    },
    {
      "inputs": [],
      "name": "randomSeed",
      "outputs": [
        {
          "internalType": "uint256",
          "name": "",
          "type": "uint256"
        }
      ],
      "stateMutability": "view",
      "type": "function"
    },
    {
      "inputs": [
        {
          "internalType": "uint256",
          "name": "_requestId",
          "type": "uint256"
        },
        {
          "internalType": "uint256[]",
          "name": "_randomWords",
          "type": "uint256[]"
        }
      ],
      "name": "rawFulfillRandomWords",
      "outputs": [],
      "stateMutability": "nonpayable",
      "type": "function"
    },
    {
      "inputs": [],
      "name": "requestBlockNumber",
      "outputs": [
        {
          "internalType": "uint256",
          "name": "",
          "type": "uint256"
        }
      ],
      "stateMutability": "view",
      "type": "function"
    },
    {
      "inputs": [
        {
          "internalType": "address",
          "name": "from",
          "type": "address"
        },
        {
          "internalType": "address",
          "name": "to",
          "type": "address"
        },
        {
          "internalType": "uint256",
          "name": "tokenId",
          "type": "uint256"
        }
      ],
      "name": "safeTransferFrom",
      "outputs": [],
      "stateMutability": "nonpayable",
      "type": "function"
    },
    {
      "inputs": [
        {
          "internalType": "address",
          "name": "from",
          "type": "address"
        },
        {
          "internalType": "address",
          "name": "to",
          "type": "address"
        },
        {
          "internalType": "uint256",
          "name": "tokenId",
          "type": "uint256"
        },
        {
          "internalType": "bytes",
          "name": "data",
          "type": "bytes"
        }
      ],
      "name": "safeTransferFrom",
      "outputs": [],
      "stateMutability": "nonpayable",
      "type": "function"
    },
    {
      "inputs": [
        {
          "internalType": "address",
          "name": "operator",
          "type": "address"
        },
        {
          "internalType": "bool",
          "name": "approved",
          "type": "bool"
        }
      ],
      "name": "setApprovalForAll",
      "outputs": [],
      "stateMutability": "nonpayable",
      "type": "function"
    },
    {
      "inputs": [],
      "name": "startDrawPeriod",
      "outputs": [],
      "stateMutability": "nonpayable",
      "type": "function"
    },
    {
      "inputs": [
        {
          "internalType": "bytes4",
          "name": "interfaceId",
          "type": "bytes4"
        }
      ],
      "name": "supportsInterface",
      "outputs": [
        {
          "internalType": "bool",
          "name": "",
          "type": "bool"
        }
      ],
      "stateMutability": "view",
      "type": "function"
    },
    {
      "inputs": [],
      "name": "symbol",
      "outputs": [
        {
          "internalType": "string",
          "name": "",
          "type": "string"
        }
      ],
      "stateMutability": "view",
      "type": "function"
    },
    {
      "inputs": [
        {
          "internalType": "uint256",
          "name": "index",
          "type": "uint256"
        }
      ],
      "name": "tokenByIndex",
      "outputs": [
        {
          "internalType": "uint256",
          "name": "",
          "type": "uint256"
        }
      ],
      "stateMutability": "view",
      "type": "function"
    },
    {
      "inputs": [
        {
          "internalType": "address",
          "name": "owner",
          "type": "address"
        },
        {
          "internalType": "uint256",
          "name": "index",
          "type": "uint256"
        }
      ],
      "name": "tokenOfOwnerByIndex",
      "outputs": [
        {
          "internalType": "uint256",
          "name": "",
          "type": "uint256"
        }
      ],
      "stateMutability": "view",
      "type": "function"
    },
    {
      "inputs": [
        {
          "internalType": "uint256",
          "name": "tokenId",
          "type": "uint256"
        }
      ],
      "name": "tokenURI",
      "outputs": [
        {
          "internalType": "string",
          "name": "",
          "type": "string"
        }
      ],
      "stateMutability": "view",
      "type": "function"
    },
    {
      "inputs": [],
      "name": "totalSupply",
      "outputs": [
        {
          "internalType": "uint256",
          "name": "",
          "type": "uint256"
        }
      ],
      "stateMutability": "view",
      "type": "function"
    },
    {
      "inputs": [
        {
          "internalType": "address",
          "name": "from",
          "type": "address"
        },
        {
          "internalType": "address",
          "name": "to",
          "type": "address"
        },
        {
          "internalType": "uint256",
          "name": "tokenId",
          "type": "uint256"
        }
      ],
      "name": "transferFrom",
      "outputs": [],
      "stateMutability": "nonpayable",
      "type": "function"
    }
  ],
  "transactionHash": "0x0c2cd22118a06255abea6ffb9ff0e18046b443c737be83156334980b92501f05",
  "args": [
    "REGENBINGO",
    "Regen Bingo — Testnet #0",
    "10000000000000000",
    1674498444,
    5,
    "The Gitcoin Alpha Round",
    "0xc4c302f0d81F3E9a86d468f585dAe26F92D9F5EA",
    "0xC45c89a1685E916269B6B4eD4Ffd1514b87fEDdD",
    "0x326C977E6efc84E512bB9C30f76E30c160eD06FB",
    "0x708701a1DfF4f478de54383E49a627eD4852C816"
  ],
  "numDeployments": 1,
  "solcInputHash": "6b891611c987b2e73bde0bfc8fd25a1e",
  "bytecode": "0x60c0604052604051806060016040528060405180606001604052806040518061012001604052806040518060400160405280600160ff168152602001600960ff1681525081526020016040518060400160405280600060ff168152602001600060ff1681525081526020016040518060400160405280600060ff168152602001600060ff1681525081526020016040518060400160405280600060ff168152602001600060ff1681525081526020016040518060400160405280602860ff168152602001600560ff1681525081526020016040518060400160405280603860ff168152602001600460ff1681525081526020016040518060400160405280603c60ff168152602001600a60ff1681525081526020016040518060400160405280604d60ff168152602001600360ff1681525081526020016040518060400160405280600060ff168152602001600060ff1681525081525081526020016040518061012001604052806040518060400160405280600060ff168152602001600060ff1681525081526020016040518060400160405280600060ff168152602001600060ff1681525081526020016040518060400160405280600060ff168152602001600060ff1681525081526020016040518060400160405280601e60ff168152602001600a60ff1681525081526020016040518060400160405280602d60ff168152602001600560ff1681525081526020016040518060400160405280603560ff168152602001600360ff1681525081526020016040518060400160405280600060ff168152602001600060ff1681525081526020016040518060400160405280604a60ff168152602001600360ff1681525081526020016040518060400160405280605060ff168152602001600660ff1681525081525081526020016040518061012001604052806040518060400160405280600060ff168152602001600060ff1681525081526020016040518060400160405280600a60ff168152602001600a60ff1681525081526020016040518060400160405280601460ff168152602001600a60ff1681525081526020016040518060400160405280600060ff168152602001600060ff1681525081526020016040518060400160405280600060ff168152602001600060ff1681525081526020016040518060400160405280603260ff168152602001600360ff1681525081526020016040518060400160405280600060ff168152602001600060ff1681525081526020016040518060400160405280604660ff168152602001600460ff1681525081526020016040518060400160405280605660ff168152602001600560ff16815250815250815250815260200160405180606001604052806040518061012001604052806040518060400160405280600660ff168152602001600460ff1681525081526020016040518060400160405280600a60ff168152602001600560ff1681525081526020016040518060400160405280600060ff168152602001600060ff1681525081526020016040518060400160405280600060ff168152602001600060ff1681525081526020016040518060400160405280600060ff168152602001600060ff1681525081526020016040518060400160405280600060ff168152602001600060ff1681525081526020016040518060400160405280604260ff168152602001600460ff1681525081526020016040518060400160405280604b60ff168152602001600560ff1681525081526020016040518060400160405280605060ff168152602001600b60ff1681525081525081526020016040518061012001604052806040518060400160405280600060ff168152602001600060ff1681525081526020016040518060400160405280600060ff168152602001600060ff1681525081526020016040518060400160405280601960ff168152602001600560ff1681525081526020016040518060400160405280601e60ff168152602001600a60ff1681525081526020016040518060400160405280602860ff168152602001600a60ff1681525081526020016040518060400160405280603260ff168152602001600a60ff1681525081526020016040518060400160405280603f60ff168152602001600360ff1681525081526020016040518060400160405280600060ff168152602001600060ff1681525081526020016040518060400160405280600060ff168152602001600060ff1681525081525081526020016040518061012001604052806040518060400160405280600160ff168152602001600560ff1681525081526020016040518060400160405280600f60ff168152602001600560ff1681525081526020016040518060400160405280601460ff168152602001600560ff1681525081526020016040518060400160405280600060ff168152602001600060ff1681525081526020016040518060400160405280600060ff168152602001600060ff1681525081526020016040518060400160405280600060ff168152602001600060ff1681525081526020016040518060400160405280603c60ff168152602001600360ff1681525081526020016040518060400160405280604660ff168152602001600560ff1681525081526020016040518060400160405280600060ff168152602001600060ff16815250815250815250815260200160405180606001604052806040518061012001604052806040518060400160405280600160ff168152602001600560ff1681525081526020016040518060400160405280600060ff168152602001600060ff1681525081526020016040518060400160405280601960ff168152602001600560ff1681525081526020016040518060400160405280600060ff168152602001600060ff1681525081526020016040518060400160405280600060ff168152602001600060ff1681525081526020016040518060400160405280603260ff168152602001600a60ff1681525081526020016040518060400160405280600060ff168152602001600060ff1681525081526020016040518060400160405280604660ff168152602001600560ff1681525081526020016040518060400160405280605860ff168152602001600360ff1681525081525081526020016040518061012001604052806040518060400160405280600060ff168152602001600060ff1681525081526020016040518060400160405280600a60ff168152602001600a60ff1681525081526020016040518060400160405280601460ff168152602001600560ff1681525081526020016040518060400160405280601e60ff168152602001600a60ff1681525081526020016040518060400160405280600060ff168152602001600060ff1681525081526020016040518060400160405280600060ff168152602001600060ff1681525081526020016040518060400160405280604160ff168152602001600560ff1681525081526020016040518060400160405280600060ff168152602001600060ff1681525081526020016040518060400160405280605460ff168152602001600460ff1681525081525081526020016040518061012001604052806040518060400160405280600660ff168152602001600460ff1681525081526020016040518060400160405280600060ff168152602001600060ff1681525081526020016040518060400160405280600060ff168152602001600060ff1681525081526020016040518060400160405280600060ff168152602001600060ff1681525081526020016040518060400160405280602860ff168152602001600a60ff1681525081526020016040518060400160405280600060ff168152602001600060ff1681525081526020016040518060400160405280603c60ff168152602001600560ff1681525081526020016040518060400160405280604b60ff168152602001600560ff1681525081526020016040518060400160405280605060ff168152602001600460ff16815250815250815250815250600a90600362000b9292919062000d92565b506000606460006101000a81548160ff021916908315150217905550620186a0606660006101000a81548163ffffffff021916908363ffffffff1602179055506003606660046101000a81548161ffff021916908361ffff1602179055506001606660066101000a81548163ffffffff021916908363ffffffff16021790555034801562000c1f57600080fd5b5060405162006e0438038062006e04833981810160405281019062000c4591906200129c565b81818b8b816000908162000c5a919062001630565b50806001908162000c6c919062001630565b5050508173ffffffffffffffffffffffffffffffffffffffff1660808173ffffffffffffffffffffffffffffffffffffffff16815250508073ffffffffffffffffffffffffffffffffffffffff1660a08173ffffffffffffffffffffffffffffffffffffffff1681525050505087605c8190555086605d8190555085605e81905550846060908162000cff919062001630565b5083606160006101000a81548173ffffffffffffffffffffffffffffffffffffffff021916908373ffffffffffffffffffffffffffffffffffffffff16021790555082605b60006101000a81548173ffffffffffffffffffffffffffffffffffffffff021916908373ffffffffffffffffffffffffffffffffffffffff1602179055505050505050505050505062001717565b826003601b02810192821562000dd7579160200282015b8281111562000dd65782518290600362000dc592919062000dea565b50916020019190601b019062000da9565b5b50905062000de6919062000e42565b5090565b826003600902810192821562000e2f579160200282015b8281111562000e2e5782518290600962000e1d92919062000e6a565b509160200191906009019062000e01565b5b50905062000e3e919062000ebf565b5090565b5b8082111562000e66576000818162000e5c919062000ee7565b50601b0162000e43565b5090565b826009810192821562000eac579160200282015b8281111562000eab5782518290600262000e9a92919062000f20565b509160200191906001019062000e7e565b5b50905062000ebb919062000fc1565b5090565b5b8082111562000ee3576000818162000ed9919062000fe9565b5060090162000ec0565b5090565b506000818162000ef8919062000fe9565b506009016000818162000f0c919062000fe9565b50600901600062000f1e919062000fe9565b565b826002601f0160209004810192821562000fae5791602002820160005b8382111562000f7d57835183826101000a81548160ff021916908360ff160217905550926020019260010160208160000104928301926001030262000f3d565b801562000fac5782816101000a81549060ff021916905560010160208160000104928301926001030262000f7d565b505b50905062000fbd919062000ffe565b5090565b5b8082111562000fe5576000818162000fdb91906200101d565b5060010162000fc2565b5090565b50806009019062000ffb919062000fc1565b50565b5b808211156200101957600081600090555060010162000fff565b5090565b5060009055565b6000604051905090565b600080fd5b600080fd5b600080fd5b600080fd5b6000601f19601f8301169050919050565b7f4e487b7100000000000000000000000000000000000000000000000000000000600052604160045260246000fd5b6200108d8262001042565b810181811067ffffffffffffffff82111715620010af57620010ae62001053565b5b80604052505050565b6000620010c462001024565b9050620010d2828262001082565b919050565b600067ffffffffffffffff821115620010f557620010f462001053565b5b620011008262001042565b9050602081019050919050565b60005b838110156200112d57808201518184015260208101905062001110565b60008484015250505050565b6000620011506200114a84620010d7565b620010b8565b9050828152602081018484840111156200116f576200116e6200103d565b5b6200117c8482856200110d565b509392505050565b600082601f8301126200119c576200119b62001038565b5b8151620011ae84826020860162001139565b91505092915050565b6000819050919050565b620011cc81620011b7565b8114620011d857600080fd5b50565b600081519050620011ec81620011c1565b92915050565b600073ffffffffffffffffffffffffffffffffffffffff82169050919050565b60006200121f82620011f2565b9050919050565b620012318162001212565b81146200123d57600080fd5b50565b600081519050620012518162001226565b92915050565b60006200126482620011f2565b9050919050565b620012768162001257565b81146200128257600080fd5b50565b60008151905062001296816200126b565b92915050565b6000806000806000806000806000806101408b8d031215620012c357620012c26200102e565b5b60008b015167ffffffffffffffff811115620012e457620012e362001033565b5b620012f28d828e0162001184565b9a505060208b015167ffffffffffffffff81111562001316576200131562001033565b5b620013248d828e0162001184565b9950506040620013378d828e01620011db565b98505060606200134a8d828e01620011db565b97505060806200135d8d828e01620011db565b96505060a08b015167ffffffffffffffff81111562001381576200138062001033565b5b6200138f8d828e0162001184565b95505060c0620013a28d828e0162001240565b94505060e0620013b58d828e0162001285565b935050610100620013c98d828e0162001285565b925050610120620013dd8d828e0162001285565b9150509295989b9194979a5092959850565b600081519050919050565b7f4e487b7100000000000000000000000000000000000000000000000000000000600052602260045260246000fd5b600060028204905060018216806200144257607f821691505b602082108103620014585762001457620013fa565b5b50919050565b60008190508160005260206000209050919050565b60006020601f8301049050919050565b600082821b905092915050565b600060088302620014c27fffffffffffffffffffffffffffffffffffffffffffffffffffffffffffffffff8262001483565b620014ce868362001483565b95508019841693508086168417925050509392505050565b6000819050919050565b6000620015116200150b6200150584620011b7565b620014e6565b620011b7565b9050919050565b6000819050919050565b6200152d83620014f0565b620015456200153c8262001518565b84845462001490565b825550505050565b600090565b6200155c6200154d565b6200156981848462001522565b505050565b5b8181101562001591576200158560008262001552565b6001810190506200156f565b5050565b601f821115620015e057620015aa816200145e565b620015b58462001473565b81016020851015620015c5578190505b620015dd620015d48562001473565b8301826200156e565b50505b505050565b600082821c905092915050565b60006200160560001984600802620015e5565b1980831691505092915050565b6000620016208383620015f2565b9150826002028217905092915050565b6200163b82620013ef565b67ffffffffffffffff81111562001657576200165662001053565b5b62001663825462001429565b6200167082828562001595565b600060209050601f831160018114620016a8576000841562001693578287015190505b6200169f858262001612565b8655506200170f565b601f198416620016b8866200145e565b60005b82811015620016e257848901518255600182019150602085019450602081019050620016bb565b86831015620017025784890151620016fe601f891682620015f2565b8355505b6001600288020188555050505b505050505050565b60805160a0516156b26200175260003960008181610d91015281816121c5015281816121e601526123060152600061218901526156b26000f3fe60806040526004361061021a5760003560e01c80636352211e11610123578063b46f372f116100ab578063d70981541161006f578063d7098154146107f5578063d80ffb201461081e578063dc7682fc14610849578063e985e9c514610874578063ec034bed146108b15761021a565b8063b46f372f146106fc578063b88d4fde14610727578063b914a21914610750578063c87b56dd1461077b578063d39fa233146107b85761021a565b806388103b19116100f257806388103b191461063657806395d89b4114610661578063a22cb4651461068c578063abbb5a55146106b5578063b1701232146106d15761021a565b80636352211e146105665780636817c76c146105a35780636beebc9a146105ce57806370a08231146105f95761021a565b80631fe543e3116101a65780633860a7eb116101755780633860a7eb1461045b57806342842e0e146104985780634d54bb6d146104c15780634f6ccce7146104fe5780635cbbd6351461053b5761021a565b80631fe543e31461038f57806323b872dd146103b85780632f745c59146103e157806330b693e11461041e5761021a565b8063095ea7b3116101ed578063095ea7b3146102ef5780630b747d91146103185780630f18fc5e146103435780631249c58b1461035a57806318160ddd146103645761021a565b806301ffc9a71461021f578063049cf8061461025c57806306fdde0314610287578063081812fc146102b2575b600080fd5b34801561022b57600080fd5b506102466004803603810190610241919061368e565b6108dc565b60405161025391906136d6565b60405180910390f35b34801561026857600080fd5b50610271610956565b60405161027e91906136d6565b60405180910390f35b34801561029357600080fd5b5061029c610969565b6040516102a99190613781565b60405180910390f35b3480156102be57600080fd5b506102d960048036038101906102d491906137d9565b6109fb565b6040516102e69190613847565b60405180910390f35b3480156102fb57600080fd5b506103166004803603810190610311919061388e565b610a41565b005b34801561032457600080fd5b5061032d610b58565b60405161033a91906138dd565b60405180910390f35b34801561034f57600080fd5b50610358610b5e565b005b610362610c82565b005b34801561037057600080fd5b50610379610d82565b60405161038691906138dd565b60405180910390f35b34801561039b57600080fd5b506103b660048036038101906103b19190613a40565b610d8f565b005b3480156103c457600080fd5b506103df60048036038101906103da9190613a9c565b610e2b565b005b3480156103ed57600080fd5b506104086004803603810190610403919061388e565b610e8b565b60405161041591906138dd565b60405180910390f35b34801561042a57600080fd5b50610445600480360381019061044091906137d9565b610f30565b6040516104529190613c37565b60405180910390f35b34801561046757600080fd5b50610482600480360381019061047d91906137d9565b611053565b60405161048f91906138dd565b60405180910390f35b3480156104a457600080fd5b506104bf60048036038101906104ba9190613a9c565b611142565b005b3480156104cd57600080fd5b506104e860048036038101906104e39190613c53565b611162565b6040516104f591906138dd565b60405180910390f35b34801561050a57600080fd5b50610525600480360381019061052091906137d9565b611369565b60405161053291906138dd565b60405180910390f35b34801561054757600080fd5b506105506113da565b60405161055d91906138dd565b60405180910390f35b34801561057257600080fd5b5061058d600480360381019061058891906137d9565b6113e0565b60405161059a9190613847565b60405180910390f35b3480156105af57600080fd5b506105b8611466565b6040516105c591906138dd565b60405180910390f35b3480156105da57600080fd5b506105e361146c565b6040516105f091906138dd565b60405180910390f35b34801561060557600080fd5b50610620600480360381019061061b9190613ca6565b611472565b60405161062d91906138dd565b60405180910390f35b34801561064257600080fd5b5061064b611529565b6040516106589190613d4a565b60405180910390f35b34801561066d57600080fd5b5061067661153c565b6040516106839190613781565b60405180910390f35b34801561069857600080fd5b506106b360048036038101906106ae9190613d91565b6115ce565b005b6106cf60048036038101906106ca91906137d9565b6115e4565b005b3480156106dd57600080fd5b506106e661170f565b6040516106f39190613781565b60405180910390f35b34801561070857600080fd5b5061071161179d565b60405161071e91906138dd565b60405180910390f35b34801561073357600080fd5b5061074e60048036038101906107499190613e86565b6117a3565b005b34801561075c57600080fd5b50610765611805565b60405161077291906138dd565b60405180910390f35b34801561078757600080fd5b506107a2600480360381019061079d91906137d9565b61180b565b6040516107af9190613781565b60405180910390f35b3480156107c457600080fd5b506107df60048036038101906107da91906137d9565b6119b2565b6040516107ec9190614051565b60405180910390f35b34801561080157600080fd5b5061081c600480360381019061081791906137d9565b611a3d565b005b34801561082a57600080fd5b50610833611c7b565b60405161084091906138dd565b60405180910390f35b34801561085557600080fd5b5061085e611ecc565b60405161086b9190614104565b60405180910390f35b34801561088057600080fd5b5061089b60048036038101906108969190614126565b611edd565b6040516108a891906136d6565b60405180910390f35b3480156108bd57600080fd5b506108c6611f71565b6040516108d39190614187565b60405180910390f35b60007f780e9d63000000000000000000000000000000000000000000000000000000007bffffffffffffffffffffffffffffffffffffffffffffffffffffffff1916827bffffffffffffffffffffffffffffffffffffffffffffffffffffffff1916148061094f575061094e82611f97565b5b9050919050565b606460009054906101000a900460ff1681565b606060008054610978906141d1565b80601f01602080910402602001604051908101604052809291908181526020018280546109a4906141d1565b80156109f15780601f106109c6576101008083540402835291602001916109f1565b820191906000526020600020905b8154815290600101906020018083116109d457829003601f168201915b5050505050905090565b6000610a0682612079565b6004600083815260200190815260200160002060009054906101000a900473ffffffffffffffffffffffffffffffffffffffff169050919050565b6000610a4c826113e0565b90508073ffffffffffffffffffffffffffffffffffffffff168373ffffffffffffffffffffffffffffffffffffffff1603610abc576040517f08c379a0000000000000000000000000000000000000000000000000000000008152600401610ab390614274565b60405180910390fd5b8073ffffffffffffffffffffffffffffffffffffffff16610adb6120c4565b73ffffffffffffffffffffffffffffffffffffffff161480610b0a5750610b0981610b046120c4565b611edd565b5b610b49576040517f08c379a0000000000000000000000000000000000000000000000000000000008152600401610b4090614306565b60405180910390fd5b610b5383836120cc565b505050565b60655481565b60006002811115610b7257610b71613cd3565b5b605b60149054906101000a900460ff166002811115610b9457610b93613cd3565b5b14610b9e57600080fd5b605d544211610be2576040517f08c379a0000000000000000000000000000000000000000000000000000000008152600401610bd990614372565b60405180910390fd5b610c21606660009054906101000a900463ffffffff16606660049054906101000a900461ffff16606660069054906101000a900463ffffffff16612185565b50436067819055506001605b60146101000a81548160ff02191690836002811115610c4f57610c4e613cd3565b5b02179055507f0fd3215fb38f4c3605b0b32862733cc4671a5f0271e027bdb193b8e6f813eda060405160405180910390a1565b60006002811115610c9657610c95613cd3565b5b605b60149054906101000a900460ff166002811115610cb857610cb7613cd3565b5b14610cf8576040517f08c379a0000000000000000000000000000000000000000000000000000000008152600401610cef906143de565b60405180910390fd5b605c543414610d3c576040517f08c379a0000000000000000000000000000000000000000000000000000000008152600401610d339061444a565b60405180910390fd5b6000610d46610d82565b3342604051602001610d5a939291906144d3565b6040516020818303038152906040528051906020012060001c9050610d7f338261239c565b50565b6000600880549050905090565b7f000000000000000000000000000000000000000000000000000000000000000073ffffffffffffffffffffffffffffffffffffffff163373ffffffffffffffffffffffffffffffffffffffff1614610e1d576040517f08c379a0000000000000000000000000000000000000000000000000000000008152600401610e149061455c565b60405180910390fd5b610e2782826125b9565b5050565b610e3c610e366120c4565b826126c6565b610e7b576040517f08c379a0000000000000000000000000000000000000000000000000000000008152600401610e72906145ee565b60405180910390fd5b610e8683838361275b565b505050565b6000610e9683611472565b8210610ed7576040517f08c379a0000000000000000000000000000000000000000000000000000000008152600401610ece90614680565b60405180910390fd5b600660008473ffffffffffffffffffffffffffffffffffffffff1673ffffffffffffffffffffffffffffffffffffffff168152602001908152602001600020600083815260200190815260200160002054905092915050565b610f38613582565b600073ffffffffffffffffffffffffffffffffffffffff16610f59836113e0565b73ffffffffffffffffffffffffffffffffffffffff1603610faf576040517f08c379a0000000000000000000000000000000000000000000000000000000008152600401610fa6906146ec565b60405180910390fd5b60005b600381101561104d5760005b600981101561103957610fe5610fd5858484611162565b6062612a5490919063ffffffff16565b15611026576001838360038110610fff57610ffe61470c565b5b602002015182600981106110165761101561470c565b5b6020020190151590811515815250505b80806110319061476a565b915050610fbe565b5080806110459061476a565b915050610fb2565b50919050565b60008073ffffffffffffffffffffffffffffffffffffffff16611075836113e0565b73ffffffffffffffffffffffffffffffffffffffff16036110cb576040517f08c379a00000000000000000000000000000000000000000000000000000000081526004016110c2906146ec565b60405180910390fd5b60005b600381101561113c5760005b6009811015611128576111016110f1858484611162565b6062612a5490919063ffffffff16565b156111155782806111119061476a565b9350505b80806111209061476a565b9150506110da565b5080806111349061476a565b9150506110ce565b50919050565b61115d838383604051806020016040528060008152506117a3565b505050565b600080600a60038661117491906147e1565b600381106111855761118461470c565b5b601b0201600380602002604051908101604052809291906000905b8282101561125457838260090201600980602002604051908101604052809291906000905b828210156112415783820160028060200260405190810160405280929190826002801561122d576020028201916000905b82829054906101000a900460ff1660ff16815260200190600101906020826000010492830192600103820291508084116111f65790505b5050505050815260200190600101906111c5565b50505050815260200190600101906111a0565b505050509050600081856003811061126f5761126e61470c565b5b602002015184600981106112865761128561470c565b5b602002015160006002811061129e5761129d61470c565b5b602002015160ff16036112b5576000915050611362565b8084600381106112c8576112c761470c565b5b602002015183600981106112df576112de61470c565b5b60200201516001600281106112f7576112f661470c565b5b602002015160ff168561130a91906147e1565b81856003811061131d5761131c61470c565b5b602002015184600981106113345761133361470c565b5b602002015160006002811061134c5761134b61470c565b5b602002015160ff1661135e9190614812565b9150505b9392505050565b6000611373610d82565b82106113b4576040517f08c379a00000000000000000000000000000000000000000000000000000000081526004016113ab906148b8565b60405180910390fd5b600882815481106113c8576113c761470c565b5b90600052602060002001549050919050565b605f5481565b6000806113ec83612a6e565b9050600073ffffffffffffffffffffffffffffffffffffffff168173ffffffffffffffffffffffffffffffffffffffff160361145d576040517f08c379a000000000000000000000000000000000000000000000000000000000815260040161145490614924565b60405180910390fd5b80915050919050565b605c5481565b605e5481565b60008073ffffffffffffffffffffffffffffffffffffffff168273ffffffffffffffffffffffffffffffffffffffff16036114e2576040517f08c379a00000000000000000000000000000000000000000000000000000000081526004016114d9906149b6565b60405180910390fd5b600360008373ffffffffffffffffffffffffffffffffffffffff1673ffffffffffffffffffffffffffffffffffffffff168152602001908152602001600020549050919050565b605b60149054906101000a900460ff1681565b60606001805461154b906141d1565b80601f0160208091040260200160405190810160405280929190818152602001828054611577906141d1565b80156115c45780601f10611599576101008083540402835291602001916115c4565b820191906000526020600020905b8154815290600101906020018083116115a757829003601f168201915b5050505050905090565b6115e06115d96120c4565b8383612aab565b5050565b600060028111156115f8576115f7613cd3565b5b605b60149054906101000a900460ff16600281111561161a57611619613cd3565b5b1461165a576040517f08c379a0000000000000000000000000000000000000000000000000000000008152600401611651906143de565b60405180910390fd5b80605c5461166891906149d6565b34146116a9576040517f08c379a00000000000000000000000000000000000000000000000000000000081526004016116a09061444a565b60405180910390fd5b60005b8181101561170b5760006116be610d82565b33426040516020016116d2939291906144d3565b6040516020818303038152906040528051906020012060001c90506116f7338261239c565b5080806117039061476a565b9150506116ac565b5050565b6060805461171c906141d1565b80601f0160208091040260200160405190810160405280929190818152602001828054611748906141d1565b80156117955780601f1061176a57610100808354040283529160200191611795565b820191906000526020600020905b81548152906001019060200180831161177857829003601f168201915b505050505081565b60675481565b6117b46117ae6120c4565b836126c6565b6117f3576040517f08c379a00000000000000000000000000000000000000000000000000000000081526004016117ea906145ee565b60405180910390fd5b6117ff84848484612c17565b50505050565b605d5481565b6060600073ffffffffffffffffffffffffffffffffffffffff1661182e836113e0565b73ffffffffffffffffffffffffffffffffffffffff1603611884576040517f08c379a000000000000000000000000000000000000000000000000000000000815260040161187b906146ec565b60405180910390fd5b605b60009054906101000a900473ffffffffffffffffffffffffffffffffffffffff1673ffffffffffffffffffffffffffffffffffffffff166364dc9174836118cc856119b2565b6118d586610f30565b6002605c546118e49190614a18565b6060606160009054906101000a900473ffffffffffffffffffffffffffffffffffffffff1660028081111561191c5761191b613cd3565b5b605b60149054906101000a900460ff16600281111561193e5761193d613cd3565b5b14605d546040518963ffffffff1660e01b8152600401611965989796959493929190614b41565b600060405180830381865afa158015611982573d6000803e3d6000fd5b505050506040513d6000823e3d601f19601f820116820180604052508101906119ab9190614c6d565b9050919050565b6119ba6135af565b60005b6003811015611a375760005b6009811015611a23576119dd848383611162565b8383600381106119f0576119ef61470c565b5b60200201518260098110611a0757611a0661470c565b5b6020020181815250508080611a1b9061476a565b9150506119c9565b508080611a2f9061476a565b9150506119bd565b50919050565b600280811115611a5057611a4f613cd3565b5b605b60149054906101000a900460ff166002811115611a7257611a71613cd3565b5b03611ab2576040517f08c379a0000000000000000000000000000000000000000000000000000000008152600401611aa990614d02565b60405180910390fd5b611abb81612079565b600f611ac682611053565b14611b06576040517f08c379a0000000000000000000000000000000000000000000000000000000008152600401611afd90614d6e565b60405180910390fd5b606160009054906101000a900473ffffffffffffffffffffffffffffffffffffffff1673ffffffffffffffffffffffffffffffffffffffff16600247611b4c9190614a18565b604051611b5890614dbf565b60006040518083038185875af1925050503d8060008114611b95576040519150601f19603f3d011682016040523d82523d6000602084013e611b9a565b606091505b5050506000611ba8826113e0565b90508073ffffffffffffffffffffffffffffffffffffffff1647604051611bce90614dbf565b60006040518083038185875af1925050503d8060008114611c0b576040519150601f19603f3d011682016040523d82523d6000602084013e611c10565b606091505b5050506002605b60146101000a81548160ff02191690836002811115611c3957611c38613cd3565b5b02179055507fa4b43ab5bbc81d559aa9f631e943e395ce8c8fa955383fc3efdbec527832f5af8282604051611c6f929190614dd4565b60405180910390a15050565b600060016002811115611c9157611c90613cd3565b5b605b60149054906101000a900460ff166002811115611cb357611cb2613cd3565b5b14611cf3576040517f08c379a0000000000000000000000000000000000000000000000000000000008152600401611cea90614e49565b60405180910390fd5b605e54605f54611d039190614812565b4211611d44576040517f08c379a0000000000000000000000000000000000000000000000000000000008152600401611d3b90614eb5565b60405180910390fd5b606660049054906101000a900461ffff1661ffff16606754611d669190614812565b4311611da7576040517f08c379a0000000000000000000000000000000000000000000000000000000008152600401611d9e90614f21565b60405180910390fd5b600080605a424460655485604051602001611dc59493929190614f41565b6040516020818303038152906040528051906020012060001c611de891906147e1565b6001611df49190614812565b90505b611e0b816062612a5490919063ffffffff16565b15611e7157605a81424460655486604051602001611e2d959493929190614f8f565b6040516020818303038152906040528051906020012060001c611e5091906147e1565b6001611e5c9190614812565b90508180611e699061476a565b925050611df7565b611e85816062612c7390919063ffffffff16565b5042605f819055507f68789b491d2cf5ee4b99fd6ba64a152455c1360bcaec84c0016bf458d5e19cd581604051611ebc91906138dd565b60405180910390a1809250505090565b6060611ed86062612c8d565b905090565b6000600560008473ffffffffffffffffffffffffffffffffffffffff1673ffffffffffffffffffffffffffffffffffffffff16815260200190815260200160002060008373ffffffffffffffffffffffffffffffffffffffff1673ffffffffffffffffffffffffffffffffffffffff16815260200190815260200160002060009054906101000a900460ff16905092915050565b606160009054906101000a900473ffffffffffffffffffffffffffffffffffffffff1681565b60007f80ac58cd000000000000000000000000000000000000000000000000000000007bffffffffffffffffffffffffffffffffffffffffffffffffffffffff1916827bffffffffffffffffffffffffffffffffffffffffffffffffffffffff1916148061206257507f5b5e139f000000000000000000000000000000000000000000000000000000007bffffffffffffffffffffffffffffffffffffffffffffffffffffffff1916827bffffffffffffffffffffffffffffffffffffffffffffffffffffffff1916145b80612072575061207182612cae565b5b9050919050565b61208281612d18565b6120c1576040517f08c379a00000000000000000000000000000000000000000000000000000000081526004016120b890614924565b60405180910390fd5b50565b600033905090565b816004600083815260200190815260200160002060006101000a81548173ffffffffffffffffffffffffffffffffffffffff021916908373ffffffffffffffffffffffffffffffffffffffff160217905550808273ffffffffffffffffffffffffffffffffffffffff1661213f836113e0565b73ffffffffffffffffffffffffffffffffffffffff167f8c5be1e5ebec7d5bd14f71427d1e84f3dd0314c0f7b2291e5b200ac8c7c3b92560405160405180910390a45050565b60007f000000000000000000000000000000000000000000000000000000000000000073ffffffffffffffffffffffffffffffffffffffff16634000aea07f00000000000000000000000000000000000000000000000000000000000000007f000000000000000000000000000000000000000000000000000000000000000073ffffffffffffffffffffffffffffffffffffffff16634306d354886040518263ffffffff1660e01b815260040161223d919061500d565b602060405180830381865afa15801561225a573d6000803e3d6000fd5b505050506040513d601f19601f8201168201806040525081019061227e919061503d565b87878760405160200161229393929190615087565b6040516020818303038152906040526040518463ffffffff1660e01b81526004016122c093929190615113565b6020604051808303816000875af11580156122df573d6000803e3d6000fd5b505050506040513d601f19601f820116820180604052508101906123039190615166565b507f000000000000000000000000000000000000000000000000000000000000000073ffffffffffffffffffffffffffffffffffffffff1663fc2a88c36040518163ffffffff1660e01b8152600401602060405180830381865afa15801561236f573d6000803e3d6000fd5b505050506040513d601f19601f82011682018060405250810190612393919061503d565b90509392505050565b600073ffffffffffffffffffffffffffffffffffffffff168273ffffffffffffffffffffffffffffffffffffffff160361240b576040517f08c379a0000000000000000000000000000000000000000000000000000000008152600401612402906151df565b60405180910390fd5b61241481612d18565b15612454576040517f08c379a000000000000000000000000000000000000000000000000000000000815260040161244b9061524b565b60405180910390fd5b612462600083836001612d59565b61246b81612d18565b156124ab576040517f08c379a00000000000000000000000000000000000000000000000000000000081526004016124a29061524b565b60405180910390fd5b6001600360008473ffffffffffffffffffffffffffffffffffffffff1673ffffffffffffffffffffffffffffffffffffffff16815260200190815260200160002060008282540192505081905550816002600083815260200190815260200160002060006101000a81548173ffffffffffffffffffffffffffffffffffffffff021916908373ffffffffffffffffffffffffffffffffffffffff160217905550808273ffffffffffffffffffffffffffffffffffffffff16600073ffffffffffffffffffffffffffffffffffffffff167fddf252ad1be2c89b69c2b068fc378daa952ba7f163c4a11628f55a4df523b3ef60405160405180910390a46125b5600083836001612eb7565b5050565b600160028111156125cd576125cc613cd3565b5b605b60149054906101000a900460ff1660028111156125ef576125ee613cd3565b5b1461262f576040517f08c379a000000000000000000000000000000000000000000000000000000000815260040161262690614372565b60405180910390fd5b60001515606460009054906101000a900460ff16151514612685576040517f08c379a000000000000000000000000000000000000000000000000000000000815260040161267c906152b7565b60405180910390fd5b806000815181106126995761269861470c565b5b60200260200101516065819055506001606460006101000a81548160ff0219169083151502179055505050565b6000806126d2836113e0565b90508073ffffffffffffffffffffffffffffffffffffffff168473ffffffffffffffffffffffffffffffffffffffff16148061271457506127138185611edd565b5b8061275257508373ffffffffffffffffffffffffffffffffffffffff1661273a846109fb565b73ffffffffffffffffffffffffffffffffffffffff16145b91505092915050565b8273ffffffffffffffffffffffffffffffffffffffff1661277b826113e0565b73ffffffffffffffffffffffffffffffffffffffff16146127d1576040517f08c379a00000000000000000000000000000000000000000000000000000000081526004016127c890615349565b60405180910390fd5b600073ffffffffffffffffffffffffffffffffffffffff168273ffffffffffffffffffffffffffffffffffffffff1603612840576040517f08c379a0000000000000000000000000000000000000000000000000000000008152600401612837906153db565b60405180910390fd5b61284d8383836001612d59565b8273ffffffffffffffffffffffffffffffffffffffff1661286d826113e0565b73ffffffffffffffffffffffffffffffffffffffff16146128c3576040517f08c379a00000000000000000000000000000000000000000000000000000000081526004016128ba90615349565b60405180910390fd5b6004600082815260200190815260200160002060006101000a81549073ffffffffffffffffffffffffffffffffffffffff02191690556001600360008573ffffffffffffffffffffffffffffffffffffffff1673ffffffffffffffffffffffffffffffffffffffff168152602001908152602001600020600082825403925050819055506001600360008473ffffffffffffffffffffffffffffffffffffffff1673ffffffffffffffffffffffffffffffffffffffff16815260200190815260200160002060008282540192505081905550816002600083815260200190815260200160002060006101000a81548173ffffffffffffffffffffffffffffffffffffffff021916908373ffffffffffffffffffffffffffffffffffffffff160217905550808273ffffffffffffffffffffffffffffffffffffffff168473ffffffffffffffffffffffffffffffffffffffff167fddf252ad1be2c89b69c2b068fc378daa952ba7f163c4a11628f55a4df523b3ef60405160405180910390a4612a4f8383836001612eb7565b505050565b6000612a66836000018360001b612ebd565b905092915050565b60006002600083815260200190815260200160002060009054906101000a900473ffffffffffffffffffffffffffffffffffffffff169050919050565b8173ffffffffffffffffffffffffffffffffffffffff168373ffffffffffffffffffffffffffffffffffffffff1603612b19576040517f08c379a0000000000000000000000000000000000000000000000000000000008152600401612b1090615447565b60405180910390fd5b80600560008573ffffffffffffffffffffffffffffffffffffffff1673ffffffffffffffffffffffffffffffffffffffff16815260200190815260200160002060008473ffffffffffffffffffffffffffffffffffffffff1673ffffffffffffffffffffffffffffffffffffffff16815260200190815260200160002060006101000a81548160ff0219169083151502179055508173ffffffffffffffffffffffffffffffffffffffff168373ffffffffffffffffffffffffffffffffffffffff167f17307eab39ab6107e8899845ad3d59bd9653f200f220920489ca2b5937696c3183604051612c0a91906136d6565b60405180910390a3505050565b612c2284848461275b565b612c2e84848484612ee0565b612c6d576040517f08c379a0000000000000000000000000000000000000000000000000000000008152600401612c64906154d9565b60405180910390fd5b50505050565b6000612c85836000018360001b613067565b905092915050565b60606000612c9d836000016130d7565b905060608190508092505050919050565b60007f01ffc9a7000000000000000000000000000000000000000000000000000000007bffffffffffffffffffffffffffffffffffffffffffffffffffffffff1916827bffffffffffffffffffffffffffffffffffffffffffffffffffffffff1916149050919050565b60008073ffffffffffffffffffffffffffffffffffffffff16612d3a83612a6e565b73ffffffffffffffffffffffffffffffffffffffff1614159050919050565b612d6584848484613133565b6001811115612da9576040517f08c379a0000000000000000000000000000000000000000000000000000000008152600401612da09061556b565b60405180910390fd5b6000829050600073ffffffffffffffffffffffffffffffffffffffff168573ffffffffffffffffffffffffffffffffffffffff1603612df057612deb81613259565b612e2f565b8373ffffffffffffffffffffffffffffffffffffffff168573ffffffffffffffffffffffffffffffffffffffff1614612e2e57612e2d85826132a2565b5b5b600073ffffffffffffffffffffffffffffffffffffffff168473ffffffffffffffffffffffffffffffffffffffff1603612e7157612e6c8161340f565b612eb0565b8473ffffffffffffffffffffffffffffffffffffffff168473ffffffffffffffffffffffffffffffffffffffff1614612eaf57612eae84826134e0565b5b5b5050505050565b50505050565b600080836001016000848152602001908152602001600020541415905092915050565b6000612f018473ffffffffffffffffffffffffffffffffffffffff1661355f565b1561305a578373ffffffffffffffffffffffffffffffffffffffff1663150b7a02612f2a6120c4565b8786866040518563ffffffff1660e01b8152600401612f4c949392919061558b565b6020604051808303816000875af1925050508015612f8857506040513d601f19601f82011682018060405250810190612f8591906155ec565b60015b61300a573d8060008114612fb8576040519150601f19603f3d011682016040523d82523d6000602084013e612fbd565b606091505b506000815103613002576040517f08c379a0000000000000000000000000000000000000000000000000000000008152600401612ff9906154d9565b60405180910390fd5b805181602001fd5b63150b7a0260e01b7bffffffffffffffffffffffffffffffffffffffffffffffffffffffff1916817bffffffffffffffffffffffffffffffffffffffffffffffffffffffff19161491505061305f565b600190505b949350505050565b60006130738383612ebd565b6130cc5782600001829080600181540180825580915050600190039060005260206000200160009091909190915055826000018054905083600101600084815260200190815260200160002081905550600190506130d1565b600090505b92915050565b60608160000180548060200260200160405190810160405280929190818152602001828054801561312757602002820191906000526020600020905b815481526020019060010190808311613113575b50505050509050919050565b600181111561325357600073ffffffffffffffffffffffffffffffffffffffff168473ffffffffffffffffffffffffffffffffffffffff16146131c75780600360008673ffffffffffffffffffffffffffffffffffffffff1673ffffffffffffffffffffffffffffffffffffffff16815260200190815260200160002060008282546131bf9190615619565b925050819055505b600073ffffffffffffffffffffffffffffffffffffffff168373ffffffffffffffffffffffffffffffffffffffff16146132525780600360008573ffffffffffffffffffffffffffffffffffffffff1673ffffffffffffffffffffffffffffffffffffffff168152602001908152602001600020600082825461324a9190614812565b925050819055505b5b50505050565b6008805490506009600083815260200190815260200160002081905550600881908060018154018082558091505060019003906000526020600020016000909190919091505550565b600060016132af84611472565b6132b99190615619565b905060006007600084815260200190815260200160002054905081811461339e576000600660008673ffffffffffffffffffffffffffffffffffffffff1673ffffffffffffffffffffffffffffffffffffffff168152602001908152602001600020600084815260200190815260200160002054905080600660008773ffffffffffffffffffffffffffffffffffffffff1673ffffffffffffffffffffffffffffffffffffffff168152602001908152602001600020600084815260200190815260200160002081905550816007600083815260200190815260200160002081905550505b6007600084815260200190815260200160002060009055600660008573ffffffffffffffffffffffffffffffffffffffff1673ffffffffffffffffffffffffffffffffffffffff16815260200190815260200160002060008381526020019081526020016000206000905550505050565b600060016008805490506134239190615619565b90506000600960008481526020019081526020016000205490506000600883815481106134535761345261470c565b5b9060005260206000200154905080600883815481106134755761347461470c565b5b9060005260206000200181905550816009600083815260200190815260200160002081905550600960008581526020019081526020016000206000905560088054806134c4576134c361564d565b5b6001900381819060005260206000200160009055905550505050565b60006134eb83611472565b905081600660008573ffffffffffffffffffffffffffffffffffffffff1673ffffffffffffffffffffffffffffffffffffffff168152602001908152602001600020600083815260200190815260200160002081905550806007600084815260200190815260200160002081905550505050565b6000808273ffffffffffffffffffffffffffffffffffffffff163b119050919050565b60405180606001604052806003905b6135996135dc565b8152602001906001900390816135915790505090565b60405180606001604052806003905b6135c66135ff565b8152602001906001900390816135be5790505090565b604051806101200160405280600990602082028036833780820191505090505090565b604051806101200160405280600990602082028036833780820191505090505090565b6000604051905090565b600080fd5b600080fd5b60007fffffffff0000000000000000000000000000000000000000000000000000000082169050919050565b61366b81613636565b811461367657600080fd5b50565b60008135905061368881613662565b92915050565b6000602082840312156136a4576136a361362c565b5b60006136b284828501613679565b91505092915050565b60008115159050919050565b6136d0816136bb565b82525050565b60006020820190506136eb60008301846136c7565b92915050565b600081519050919050565b600082825260208201905092915050565b60005b8381101561372b578082015181840152602081019050613710565b60008484015250505050565b6000601f19601f8301169050919050565b6000613753826136f1565b61375d81856136fc565b935061376d81856020860161370d565b61377681613737565b840191505092915050565b6000602082019050818103600083015261379b8184613748565b905092915050565b6000819050919050565b6137b6816137a3565b81146137c157600080fd5b50565b6000813590506137d3816137ad565b92915050565b6000602082840312156137ef576137ee61362c565b5b60006137fd848285016137c4565b91505092915050565b600073ffffffffffffffffffffffffffffffffffffffff82169050919050565b600061383182613806565b9050919050565b61384181613826565b82525050565b600060208201905061385c6000830184613838565b92915050565b61386b81613826565b811461387657600080fd5b50565b60008135905061388881613862565b92915050565b600080604083850312156138a5576138a461362c565b5b60006138b385828601613879565b92505060206138c4858286016137c4565b9150509250929050565b6138d7816137a3565b82525050565b60006020820190506138f260008301846138ce565b92915050565b600080fd5b7f4e487b7100000000000000000000000000000000000000000000000000000000600052604160045260246000fd5b61393582613737565b810181811067ffffffffffffffff82111715613954576139536138fd565b5b80604052505050565b6000613967613622565b9050613973828261392c565b919050565b600067ffffffffffffffff821115613993576139926138fd565b5b602082029050602081019050919050565b600080fd5b60006139bc6139b784613978565b61395d565b905080838252602082019050602084028301858111156139df576139de6139a4565b5b835b81811015613a0857806139f488826137c4565b8452602084019350506020810190506139e1565b5050509392505050565b600082601f830112613a2757613a266138f8565b5b8135613a378482602086016139a9565b91505092915050565b60008060408385031215613a5757613a5661362c565b5b6000613a65858286016137c4565b925050602083013567ffffffffffffffff811115613a8657613a85613631565b5b613a9285828601613a12565b9150509250929050565b600080600060608486031215613ab557613ab461362c565b5b6000613ac386828701613879565b9350506020613ad486828701613879565b9250506040613ae5868287016137c4565b9150509250925092565b600060039050919050565b600081905092915050565b6000819050919050565b600060099050919050565b600081905092915050565b6000819050919050565b613b38816136bb565b82525050565b6000613b4a8383613b2f565b60208301905092915050565b6000602082019050919050565b613b6c81613b0f565b613b768184613b1a565b9250613b8182613b25565b8060005b83811015613bb2578151613b998782613b3e565b9650613ba483613b56565b925050600181019050613b85565b505050505050565b6000613bc68383613b63565b6101208301905092915050565b6000602082019050919050565b613be981613aef565b613bf38184613afa565b9250613bfe82613b05565b8060005b83811015613c2f578151613c168782613bba565b9650613c2183613bd3565b925050600181019050613c02565b505050505050565b600061036082019050613c4d6000830184613be0565b92915050565b600080600060608486031215613c6c57613c6b61362c565b5b6000613c7a868287016137c4565b9350506020613c8b868287016137c4565b9250506040613c9c868287016137c4565b9150509250925092565b600060208284031215613cbc57613cbb61362c565b5b6000613cca84828501613879565b91505092915050565b7f4e487b7100000000000000000000000000000000000000000000000000000000600052602160045260246000fd5b60038110613d1357613d12613cd3565b5b50565b6000819050613d2482613d02565b919050565b6000613d3482613d16565b9050919050565b613d4481613d29565b82525050565b6000602082019050613d5f6000830184613d3b565b92915050565b613d6e816136bb565b8114613d7957600080fd5b50565b600081359050613d8b81613d65565b92915050565b60008060408385031215613da857613da761362c565b5b6000613db685828601613879565b9250506020613dc785828601613d7c565b9150509250929050565b600080fd5b600067ffffffffffffffff821115613df157613df06138fd565b5b613dfa82613737565b9050602081019050919050565b82818337600083830152505050565b6000613e29613e2484613dd6565b61395d565b905082815260208101848484011115613e4557613e44613dd1565b5b613e50848285613e07565b509392505050565b600082601f830112613e6d57613e6c6138f8565b5b8135613e7d848260208601613e16565b91505092915050565b60008060008060808587031215613ea057613e9f61362c565b5b6000613eae87828801613879565b9450506020613ebf87828801613879565b9350506040613ed0878288016137c4565b925050606085013567ffffffffffffffff811115613ef157613ef0613631565b5b613efd87828801613e58565b91505092959194509250565b600060039050919050565b600081905092915050565b6000819050919050565b600060099050919050565b600081905092915050565b6000819050919050565b613f52816137a3565b82525050565b6000613f648383613f49565b60208301905092915050565b6000602082019050919050565b613f8681613f29565b613f908184613f34565b9250613f9b82613f3f565b8060005b83811015613fcc578151613fb38782613f58565b9650613fbe83613f70565b925050600181019050613f9f565b505050505050565b6000613fe08383613f7d565b6101208301905092915050565b6000602082019050919050565b61400381613f09565b61400d8184613f14565b925061401882613f1f565b8060005b838110156140495781516140308782613fd4565b965061403b83613fed565b92505060018101905061401c565b505050505050565b6000610360820190506140676000830184613ffa565b92915050565b600081519050919050565b600082825260208201905092915050565b6000819050602082019050919050565b6000602082019050919050565b60006140b18261406d565b6140bb8185614078565b93506140c683614089565b8060005b838110156140f75781516140de8882613f58565b97506140e983614099565b9250506001810190506140ca565b5085935050505092915050565b6000602082019050818103600083015261411e81846140a6565b905092915050565b6000806040838503121561413d5761413c61362c565b5b600061414b85828601613879565b925050602061415c85828601613879565b9150509250929050565b600061417182613806565b9050919050565b61418181614166565b82525050565b600060208201905061419c6000830184614178565b92915050565b7f4e487b7100000000000000000000000000000000000000000000000000000000600052602260045260246000fd5b600060028204905060018216806141e957607f821691505b6020821081036141fc576141fb6141a2565b5b50919050565b7f4552433732313a20617070726f76616c20746f2063757272656e74206f776e6560008201527f7200000000000000000000000000000000000000000000000000000000000000602082015250565b600061425e6021836136fc565b915061426982614202565b604082019050919050565b6000602082019050818103600083015261428d81614251565b9050919050565b7f4552433732313a20617070726f76652063616c6c6572206973206e6f7420746f60008201527f6b656e206f776e6572206f7220617070726f76656420666f7220616c6c000000602082015250565b60006142f0603d836136fc565b91506142fb82614294565b604082019050919050565b6000602082019050818103600083015261431f816142e3565b9050919050565b7f4974206973206e6f74206472617720706572696f642079657400000000000000600082015250565b600061435c6019836136fc565b915061436782614326565b602082019050919050565b6000602082019050818103600083015261438b8161434f565b9050919050565b7f4974206973206e6f74206d696e7420706572696f640000000000000000000000600082015250565b60006143c86015836136fc565b91506143d382614392565b602082019050919050565b600060208201905081810360008301526143f7816143bb565b9050919050565b7f496e636f7272656374207061796d656e7420616d6f756e740000000000000000600082015250565b60006144346018836136fc565b915061443f826143fe565b602082019050919050565b6000602082019050818103600083015261446381614427565b9050919050565b6000819050919050565b614485614480826137a3565b61446a565b82525050565b60008160601b9050919050565b60006144a38261448b565b9050919050565b60006144b582614498565b9050919050565b6144cd6144c882613826565b6144aa565b82525050565b60006144df8286614474565b6020820191506144ef82856144bc565b6014820191506144ff8284614474565b602082019150819050949350505050565b7f6f6e6c792056524620563220777261707065722063616e2066756c66696c6c00600082015250565b6000614546601f836136fc565b915061455182614510565b602082019050919050565b6000602082019050818103600083015261457581614539565b9050919050565b7f4552433732313a2063616c6c6572206973206e6f7420746f6b656e206f776e6560008201527f72206f7220617070726f76656400000000000000000000000000000000000000602082015250565b60006145d8602d836136fc565b91506145e38261457c565b604082019050919050565b60006020820190508181036000830152614607816145cb565b9050919050565b7f455243373231456e756d657261626c653a206f776e657220696e646578206f7560008201527f74206f6620626f756e6473000000000000000000000000000000000000000000602082015250565b600061466a602b836136fc565b91506146758261460e565b604082019050919050565b600060208201905081810360008301526146998161465d565b9050919050565b7f494e56414c49445f544f4b454e5f494400000000000000000000000000000000600082015250565b60006146d66010836136fc565b91506146e1826146a0565b602082019050919050565b60006020820190508181036000830152614705816146c9565b9050919050565b7f4e487b7100000000000000000000000000000000000000000000000000000000600052603260045260246000fd5b7f4e487b7100000000000000000000000000000000000000000000000000000000600052601160045260246000fd5b6000614775826137a3565b91507fffffffffffffffffffffffffffffffffffffffffffffffffffffffffffffffff82036147a7576147a661473b565b5b600182019050919050565b7f4e487b7100000000000000000000000000000000000000000000000000000000600052601260045260246000fd5b60006147ec826137a3565b91506147f7836137a3565b925082614807576148066147b2565b5b828206905092915050565b600061481d826137a3565b9150614828836137a3565b92508282019050808211156148405761483f61473b565b5b92915050565b7f455243373231456e756d657261626c653a20676c6f62616c20696e646578206f60008201527f7574206f6620626f756e64730000000000000000000000000000000000000000602082015250565b60006148a2602c836136fc565b91506148ad82614846565b604082019050919050565b600060208201905081810360008301526148d181614895565b9050919050565b7f4552433732313a20696e76616c696420746f6b656e2049440000000000000000600082015250565b600061490e6018836136fc565b9150614919826148d8565b602082019050919050565b6000602082019050818103600083015261493d81614901565b9050919050565b7f4552433732313a2061646472657373207a65726f206973206e6f74206120766160008201527f6c6964206f776e65720000000000000000000000000000000000000000000000602082015250565b60006149a06029836136fc565b91506149ab82614944565b604082019050919050565b600060208201905081810360008301526149cf81614993565b9050919050565b60006149e1826137a3565b91506149ec836137a3565b92508282026149fa816137a3565b91508282048414831517614a1157614a1061473b565b5b5092915050565b6000614a23826137a3565b9150614a2e836137a3565b925082614a3e57614a3d6147b2565b5b828204905092915050565b60008190508160005260206000209050919050565b60008154614a6b816141d1565b614a7581866136fc565b94506001821660008114614a905760018114614aa657614ad9565b60ff198316865281151560200286019350614ad9565b614aaf85614a49565b60005b83811015614ad157815481890152600182019150602081019050614ab2565b808801955050505b50505092915050565b6000819050919050565b6000614b07614b02614afd84613806565b614ae2565b613806565b9050919050565b6000614b1982614aec565b9050919050565b6000614b2b82614b0e565b9050919050565b614b3b81614b20565b82525050565b600061078082019050614b57600083018b6138ce565b614b64602083018a613ffa565b614b72610380830189613be0565b614b806106e08301886138ce565b818103610700830152614b938187614a5e565b9050614ba3610720830186614b32565b614bb16107408301856136c7565b614bbf6107608301846138ce565b9998505050505050505050565b600067ffffffffffffffff821115614be757614be66138fd565b5b614bf082613737565b9050602081019050919050565b6000614c10614c0b84614bcc565b61395d565b905082815260208101848484011115614c2c57614c2b613dd1565b5b614c3784828561370d565b509392505050565b600082601f830112614c5457614c536138f8565b5b8151614c64848260208601614bfd565b91505092915050565b600060208284031215614c8357614c8261362c565b5b600082015167ffffffffffffffff811115614ca157614ca0613631565b5b614cad84828501614c3f565b91505092915050565b7f47616d65204f7665720000000000000000000000000000000000000000000000600082015250565b6000614cec6009836136fc565b9150614cf782614cb6565b602082019050919050565b60006020820190508181036000830152614d1b81614cdf565b9050919050565b7f494e454c494749424c4500000000000000000000000000000000000000000000600082015250565b6000614d58600a836136fc565b9150614d6382614d22565b602082019050919050565b60006020820190508181036000830152614d8781614d4b565b9050919050565b600081905092915050565b50565b6000614da9600083614d8e565b9150614db482614d99565b600082019050919050565b6000614dca82614d9c565b9150819050919050565b6000604082019050614de960008301856138ce565b614df66020830184614b32565b9392505050565b7f4974206973206e6f74206472617720706572696f640000000000000000000000600082015250565b6000614e336015836136fc565b9150614e3e82614dfd565b602082019050919050565b60006020820190508181036000830152614e6281614e26565b9050919050565b7f4472617720746f6f20736f6f6e00000000000000000000000000000000000000600082015250565b6000614e9f600d836136fc565b9150614eaa82614e69565b602082019050919050565b60006020820190508181036000830152614ece81614e92565b9050919050565b7f57616974696e6720666f722072616e646f6d2073656564000000000000000000600082015250565b6000614f0b6017836136fc565b9150614f1682614ed5565b602082019050919050565b60006020820190508181036000830152614f3a81614efe565b9050919050565b6000614f4d8287614474565b602082019150614f5d8286614474565b602082019150614f6d8285614474565b602082019150614f7d8284614474565b60208201915081905095945050505050565b6000614f9b8288614474565b602082019150614fab8287614474565b602082019150614fbb8286614474565b602082019150614fcb8285614474565b602082019150614fdb8284614474565b6020820191508190509695505050505050565b600063ffffffff82169050919050565b61500781614fee565b82525050565b60006020820190506150226000830184614ffe565b92915050565b600081519050615037816137ad565b92915050565b6000602082840312156150535761505261362c565b5b600061506184828501615028565b91505092915050565b600061ffff82169050919050565b6150818161506a565b82525050565b600060608201905061509c6000830186614ffe565b6150a96020830185615078565b6150b66040830184614ffe565b949350505050565b600081519050919050565b600082825260208201905092915050565b60006150e5826150be565b6150ef81856150c9565b93506150ff81856020860161370d565b61510881613737565b840191505092915050565b60006060820190506151286000830186613838565b61513560208301856138ce565b818103604083015261514781846150da565b9050949350505050565b60008151905061516081613d65565b92915050565b60006020828403121561517c5761517b61362c565b5b600061518a84828501615151565b91505092915050565b7f4552433732313a206d696e7420746f20746865207a65726f2061646472657373600082015250565b60006151c96020836136fc565b91506151d482615193565b602082019050919050565b600060208201905081810360008301526151f8816151bc565b9050919050565b7f4552433732313a20746f6b656e20616c7265616479206d696e74656400000000600082015250565b6000615235601c836136fc565b9150615240826151ff565b602082019050919050565b6000602082019050818103600083015261526481615228565b9050919050565b7f536565642068617320616c72656164792066756c66696c6c6564000000000000600082015250565b60006152a1601a836136fc565b91506152ac8261526b565b602082019050919050565b600060208201905081810360008301526152d081615294565b9050919050565b7f4552433732313a207472616e736665722066726f6d20696e636f72726563742060008201527f6f776e6572000000000000000000000000000000000000000000000000000000602082015250565b60006153336025836136fc565b915061533e826152d7565b604082019050919050565b6000602082019050818103600083015261536281615326565b9050919050565b7f4552433732313a207472616e7366657220746f20746865207a65726f2061646460008201527f7265737300000000000000000000000000000000000000000000000000000000602082015250565b60006153c56024836136fc565b91506153d082615369565b604082019050919050565b600060208201905081810360008301526153f4816153b8565b9050919050565b7f4552433732313a20617070726f766520746f2063616c6c657200000000000000600082015250565b60006154316019836136fc565b915061543c826153fb565b602082019050919050565b6000602082019050818103600083015261546081615424565b9050919050565b7f4552433732313a207472616e7366657220746f206e6f6e20455243373231526560008201527f63656976657220696d706c656d656e7465720000000000000000000000000000602082015250565b60006154c36032836136fc565b91506154ce82615467565b604082019050919050565b600060208201905081810360008301526154f2816154b6565b9050919050565b7f455243373231456e756d657261626c653a20636f6e736563757469766520747260008201527f616e7366657273206e6f7420737570706f727465640000000000000000000000602082015250565b60006155556035836136fc565b9150615560826154f9565b604082019050919050565b6000602082019050818103600083015261558481615548565b9050919050565b60006080820190506155a06000830187613838565b6155ad6020830186613838565b6155ba60408301856138ce565b81810360608301526155cc81846150da565b905095945050505050565b6000815190506155e681613662565b92915050565b6000602082840312156156025761560161362c565b5b6000615610848285016155d7565b91505092915050565b6000615624826137a3565b915061562f836137a3565b92508282039050818111156156475761564661473b565b5b92915050565b7f4e487b7100000000000000000000000000000000000000000000000000000000600052603160045260246000fdfea264697066735822122068de17acd4afdf427248f33e11e1fcb6e2f5dbb0c25d07f68f94c4f05250a6be64736f6c63430008110033",
  "devdoc": {
    "kind": "dev",
    "methods": {
      "approve(address,uint256)": {
        "details": "See {IERC721-approve}."
      },
      "balanceOf(address)": {
        "details": "See {IERC721-balanceOf}."
      },
      "getApproved(uint256)": {
        "details": "See {IERC721-getApproved}."
      },
      "isApprovedForAll(address,address)": {
        "details": "See {IERC721-isApprovedForAll}."
      },
      "name()": {
        "details": "See {IERC721Metadata-name}."
      },
      "ownerOf(uint256)": {
        "details": "See {IERC721-ownerOf}."
      },
      "safeTransferFrom(address,address,uint256)": {
        "details": "See {IERC721-safeTransferFrom}."
      },
      "safeTransferFrom(address,address,uint256,bytes)": {
        "details": "See {IERC721-safeTransferFrom}."
      },
      "setApprovalForAll(address,bool)": {
        "details": "See {IERC721-setApprovalForAll}."
      },
      "supportsInterface(bytes4)": {
        "details": "See {IERC165-supportsInterface}."
      },
      "symbol()": {
        "details": "See {IERC721Metadata-symbol}."
      },
      "tokenByIndex(uint256)": {
        "details": "See {IERC721Enumerable-tokenByIndex}."
      },
      "tokenOfOwnerByIndex(address,uint256)": {
        "details": "See {IERC721Enumerable-tokenOfOwnerByIndex}."
      },
      "tokenURI(uint256)": {
        "details": "See {IERC721Metadata-tokenURI}."
      },
      "totalSupply()": {
        "details": "See {IERC721Enumerable-totalSupply}."
      },
      "transferFrom(address,address,uint256)": {
        "details": "See {IERC721-transferFrom}."
      }
    },
    "version": 1
  },
  "userdoc": {
    "kind": "user",
    "methods": {},
    "version": 1
  },
  "storageLayout": {
    "storage": [
      {
        "astId": 250,
        "contract": "contracts/RegenBingo.sol:RegenBingo",
        "label": "_name",
        "offset": 0,
        "slot": "0",
        "type": "t_string_storage"
      },
      {
        "astId": 252,
        "contract": "contracts/RegenBingo.sol:RegenBingo",
        "label": "_symbol",
        "offset": 0,
        "slot": "1",
        "type": "t_string_storage"
      },
      {
        "astId": 256,
        "contract": "contracts/RegenBingo.sol:RegenBingo",
        "label": "_owners",
        "offset": 0,
        "slot": "2",
        "type": "t_mapping(t_uint256,t_address)"
      },
      {
        "astId": 260,
        "contract": "contracts/RegenBingo.sol:RegenBingo",
        "label": "_balances",
        "offset": 0,
        "slot": "3",
        "type": "t_mapping(t_address,t_uint256)"
      },
      {
        "astId": 264,
        "contract": "contracts/RegenBingo.sol:RegenBingo",
        "label": "_tokenApprovals",
        "offset": 0,
        "slot": "4",
        "type": "t_mapping(t_uint256,t_address)"
      },
      {
        "astId": 270,
        "contract": "contracts/RegenBingo.sol:RegenBingo",
        "label": "_operatorApprovals",
        "offset": 0,
        "slot": "5",
        "type": "t_mapping(t_address,t_mapping(t_address,t_bool))"
      },
      {
        "astId": 1318,
        "contract": "contracts/RegenBingo.sol:RegenBingo",
        "label": "_ownedTokens",
        "offset": 0,
        "slot": "6",
        "type": "t_mapping(t_address,t_mapping(t_uint256,t_uint256))"
      },
      {
        "astId": 1322,
        "contract": "contracts/RegenBingo.sol:RegenBingo",
        "label": "_ownedTokensIndex",
        "offset": 0,
        "slot": "7",
        "type": "t_mapping(t_uint256,t_uint256)"
      },
      {
        "astId": 1325,
        "contract": "contracts/RegenBingo.sol:RegenBingo",
        "label": "_allTokens",
        "offset": 0,
        "slot": "8",
        "type": "t_array(t_uint256)dyn_storage"
      },
      {
        "astId": 1329,
        "contract": "contracts/RegenBingo.sol:RegenBingo",
        "label": "_allTokensIndex",
        "offset": 0,
        "slot": "9",
        "type": "t_mapping(t_uint256,t_uint256)"
      },
      {
        "astId": 6391,
        "contract": "contracts/RegenBingo.sol:RegenBingo",
        "label": "LAYOUTS",
        "offset": 0,
        "slot": "10",
        "type": "t_array(t_array(t_array(t_array(t_uint8)2_storage)9_storage)3_storage)3_storage"
      },
      {
        "astId": 6394,
        "contract": "contracts/RegenBingo.sol:RegenBingo",
        "label": "metadataGenerator",
        "offset": 0,
        "slot": "91",
        "type": "t_contract(IRegenBingoMetadata)8173"
      },
      {
        "astId": 6397,
        "contract": "contracts/RegenBingo.sol:RegenBingo",
        "label": "bingoState",
        "offset": 20,
        "slot": "91",
        "type": "t_enum(BingoState)6122"
      },
      {
        "astId": 6399,
        "contract": "contracts/RegenBingo.sol:RegenBingo",
        "label": "mintPrice",
        "offset": 0,
        "slot": "92",
        "type": "t_uint256"
      },
      {
        "astId": 6401,
        "contract": "contracts/RegenBingo.sol:RegenBingo",
        "label": "drawTimestamp",
        "offset": 0,
        "slot": "93",
        "type": "t_uint256"
      },
      {
        "astId": 6403,
        "contract": "contracts/RegenBingo.sol:RegenBingo",
        "label": "drawNumberCooldownSeconds",
        "offset": 0,
        "slot": "94",
        "type": "t_uint256"
      },
      {
        "astId": 6405,
        "contract": "contracts/RegenBingo.sol:RegenBingo",
        "label": "lastDrawTime",
        "offset": 0,
        "slot": "95",
        "type": "t_uint256"
      },
      {
        "astId": 6407,
        "contract": "contracts/RegenBingo.sol:RegenBingo",
        "label": "donationName",
        "offset": 0,
        "slot": "96",
        "type": "t_string_storage"
      },
      {
        "astId": 6409,
        "contract": "contracts/RegenBingo.sol:RegenBingo",
        "label": "donationAddress",
        "offset": 0,
        "slot": "97",
        "type": "t_address_payable"
      },
      {
        "astId": 6412,
        "contract": "contracts/RegenBingo.sol:RegenBingo",
        "label": "drawnNumbers",
        "offset": 0,
        "slot": "98",
        "type": "t_struct(UintSet)3673_storage"
      },
      {
        "astId": 6415,
        "contract": "contracts/RegenBingo.sol:RegenBingo",
        "label": "isRandomSeedFulfilled",
        "offset": 0,
        "slot": "100",
        "type": "t_bool"
      },
      {
        "astId": 6417,
        "contract": "contracts/RegenBingo.sol:RegenBingo",
        "label": "randomSeed",
        "offset": 0,
        "slot": "101",
        "type": "t_uint256"
      },
      {
        "astId": 6420,
        "contract": "contracts/RegenBingo.sol:RegenBingo",
        "label": "callbackGasLimit",
        "offset": 0,
        "slot": "102",
        "type": "t_uint32"
      },
      {
        "astId": 6423,
        "contract": "contracts/RegenBingo.sol:RegenBingo",
        "label": "requestConfirmations",
        "offset": 4,
        "slot": "102",
        "type": "t_uint16"
      },
      {
        "astId": 6426,
        "contract": "contracts/RegenBingo.sol:RegenBingo",
        "label": "numWords",
        "offset": 6,
        "slot": "102",
        "type": "t_uint32"
      },
      {
        "astId": 6428,
        "contract": "contracts/RegenBingo.sol:RegenBingo",
        "label": "requestBlockNumber",
        "offset": 0,
        "slot": "103",
        "type": "t_uint256"
      }
    ],
    "types": {
      "t_address": {
        "encoding": "inplace",
        "label": "address",
        "numberOfBytes": "20"
      },
      "t_address_payable": {
        "encoding": "inplace",
        "label": "address payable",
        "numberOfBytes": "20"
      },
      "t_array(t_array(t_array(t_array(t_uint8)2_storage)9_storage)3_storage)3_storage": {
        "base": "t_array(t_array(t_array(t_uint8)2_storage)9_storage)3_storage",
        "encoding": "inplace",
        "label": "uint8[2][9][3][3]",
        "numberOfBytes": "2592"
      },
      "t_array(t_array(t_array(t_uint8)2_storage)9_storage)3_storage": {
        "base": "t_array(t_array(t_uint8)2_storage)9_storage",
        "encoding": "inplace",
        "label": "uint8[2][9][3]",
        "numberOfBytes": "864"
      },
      "t_array(t_array(t_uint8)2_storage)9_storage": {
        "base": "t_array(t_uint8)2_storage",
        "encoding": "inplace",
        "label": "uint8[2][9]",
        "numberOfBytes": "288"
      },
      "t_array(t_bytes32)dyn_storage": {
        "base": "t_bytes32",
        "encoding": "dynamic_array",
        "label": "bytes32[]",
        "numberOfBytes": "32"
      },
      "t_array(t_uint256)dyn_storage": {
        "base": "t_uint256",
        "encoding": "dynamic_array",
        "label": "uint256[]",
        "numberOfBytes": "32"
      },
      "t_array(t_uint8)2_storage": {
        "base": "t_uint8",
        "encoding": "inplace",
        "label": "uint8[2]",
        "numberOfBytes": "32"
      },
      "t_bool": {
        "encoding": "inplace",
        "label": "bool",
        "numberOfBytes": "1"
      },
      "t_bytes32": {
        "encoding": "inplace",
        "label": "bytes32",
        "numberOfBytes": "32"
      },
      "t_contract(IRegenBingoMetadata)8173": {
        "encoding": "inplace",
        "label": "contract IRegenBingoMetadata",
        "numberOfBytes": "20"
      },
      "t_enum(BingoState)6122": {
        "encoding": "inplace",
        "label": "enum RegenBingo.BingoState",
        "numberOfBytes": "1"
      },
      "t_mapping(t_address,t_bool)": {
        "encoding": "mapping",
        "key": "t_address",
        "label": "mapping(address => bool)",
        "numberOfBytes": "32",
        "value": "t_bool"
      },
      "t_mapping(t_address,t_mapping(t_address,t_bool))": {
        "encoding": "mapping",
        "key": "t_address",
        "label": "mapping(address => mapping(address => bool))",
        "numberOfBytes": "32",
        "value": "t_mapping(t_address,t_bool)"
      },
      "t_mapping(t_address,t_mapping(t_uint256,t_uint256))": {
        "encoding": "mapping",
        "key": "t_address",
        "label": "mapping(address => mapping(uint256 => uint256))",
        "numberOfBytes": "32",
        "value": "t_mapping(t_uint256,t_uint256)"
      },
      "t_mapping(t_address,t_uint256)": {
        "encoding": "mapping",
        "key": "t_address",
        "label": "mapping(address => uint256)",
        "numberOfBytes": "32",
        "value": "t_uint256"
      },
      "t_mapping(t_bytes32,t_uint256)": {
        "encoding": "mapping",
        "key": "t_bytes32",
        "label": "mapping(bytes32 => uint256)",
        "numberOfBytes": "32",
        "value": "t_uint256"
      },
      "t_mapping(t_uint256,t_address)": {
        "encoding": "mapping",
        "key": "t_uint256",
        "label": "mapping(uint256 => address)",
        "numberOfBytes": "32",
        "value": "t_address"
      },
      "t_mapping(t_uint256,t_uint256)": {
        "encoding": "mapping",
        "key": "t_uint256",
        "label": "mapping(uint256 => uint256)",
        "numberOfBytes": "32",
        "value": "t_uint256"
      },
      "t_string_storage": {
        "encoding": "bytes",
        "label": "string",
        "numberOfBytes": "32"
      },
      "t_struct(Set)3201_storage": {
        "encoding": "inplace",
        "label": "struct EnumerableSet.Set",
        "members": [
          {
            "astId": 3196,
            "contract": "contracts/RegenBingo.sol:RegenBingo",
            "label": "_values",
            "offset": 0,
            "slot": "0",
            "type": "t_array(t_bytes32)dyn_storage"
          },
          {
            "astId": 3200,
            "contract": "contracts/RegenBingo.sol:RegenBingo",
            "label": "_indexes",
            "offset": 0,
            "slot": "1",
            "type": "t_mapping(t_bytes32,t_uint256)"
          }
        ],
        "numberOfBytes": "64"
      },
      "t_struct(UintSet)3673_storage": {
        "encoding": "inplace",
        "label": "struct EnumerableSet.UintSet",
        "members": [
          {
            "astId": 3672,
            "contract": "contracts/RegenBingo.sol:RegenBingo",
            "label": "_inner",
            "offset": 0,
            "slot": "0",
            "type": "t_struct(Set)3201_storage"
          }
        ],
        "numberOfBytes": "64"
      },
      "t_uint16": {
        "encoding": "inplace",
        "label": "uint16",
        "numberOfBytes": "2"
      },
      "t_uint256": {
        "encoding": "inplace",
        "label": "uint256",
        "numberOfBytes": "32"
      },
      "t_uint32": {
        "encoding": "inplace",
        "label": "uint32",
        "numberOfBytes": "4"
      },
      "t_uint8": {
        "encoding": "inplace",
        "label": "uint8",
        "numberOfBytes": "1"
      }
    }
  }
}