{
  "address": "0x0EDfe499b3bC84A9c83967EF881298Bf21280Cab",
  "abi": [
    {
      "inputs": [
        {
          "internalType": "uint256",
          "name": "tokenId",
          "type": "uint256"
        },
        {
          "internalType": "uint256[9][3]",
          "name": "numbers",
          "type": "uint256[9][3]"
        },
        {
          "internalType": "bool[9][3]",
          "name": "covered",
          "type": "bool[9][3]"
        }
      ],
      "name": "generateTokenSVG",
      "outputs": [
        {
          "internalType": "string",
          "name": "",
          "type": "string"
        }
      ],
      "stateMutability": "view",
      "type": "function"
    }
  ],
  "transactionHash": "0x7de84c18a95bc812c2f645c03493e6ac7eade9563136480c00e08bbfecb34c0b",
  "args": [],
  "numDeployments": 1,
  "solcInputHash": "0b2aee25e40dd5097a2b03f0297003b9",
  "bytecode": "0x60806040526040518061024001604052806040518060400160405280600781526020017f233239373733390000000000000000000000000000000000000000000000000081525081526020016040518060400160405280600781526020017f233442393037340000000000000000000000000000000000000000000000000081525081526020016040518060400160405280600781526020017f233439363835310000000000000000000000000000000000000000000000000081525081526020016040518060400160405280600781526020017f233743373435310000000000000000000000000000000000000000000000000081525081526020016040518060400160405280600781526020017f234530424234340000000000000000000000000000000000000000000000000081525081526020016040518060400160405280600781526020017f234130423539450000000000000000000000000000000000000000000000000081525081526020016040518060400160405280600781526020017f234134413537410000000000000000000000000000000000000000000000000081525081526020016040518060400160405280600781526020017f236666653562340000000000000000000000000000000000000000000000000081525081526020016040518060400160405280600781526020017f233566396561300000000000000000000000000000000000000000000000000081525081526020016040518060400160405280600781526020017f236432623438630000000000000000000000000000000000000000000000000081525081526020016040518060400160405280600781526020017f234430433441420000000000000000000000000000000000000000000000000081525081526020016040518060400160405280600781526020017f236635663564630000000000000000000000000000000000000000000000000081525081526020016040518060400160405280600781526020017f236666656664350000000000000000000000000000000000000000000000000081525081526020016040518060400160405280600781526020017f234241423836430000000000000000000000000000000000000000000000000081525081526020016040518060400160405280600781526020017f236666646162390000000000000000000000000000000000000000000000000081525081526020016040518060400160405280600781526020017f236463616539360000000000000000000000000000000000000000000000000081525081526020016040518060400160405280600781526020017f236235373137300000000000000000000000000000000000000000000000000081525081526020016040518060400160405280600781526020017f23413035323244000000000000000000000000000000000000000000000000008152508152506000906012620004469291906200045b565b503480156200045457600080fd5b506200089c565b82601281019282156200049b579160200282015b828111156200049a578251829081620004899190620007b5565b50916020019190600101906200046f565b5b509050620004aa9190620004ae565b5090565b5b80821115620004d25760008181620004c89190620004d6565b50600101620004af565b5090565b508054620004e490620005a4565b6000825580601f10620004f8575062000519565b601f0160209004906000526020600020908101906200051891906200051c565b5b50565b5b80821115620005375760008160009055506001016200051d565b5090565b600081519050919050565b7f4e487b7100000000000000000000000000000000000000000000000000000000600052604160045260246000fd5b7f4e487b7100000000000000000000000000000000000000000000000000000000600052602260045260246000fd5b60006002820490506001821680620005bd57607f821691505b602082108103620005d357620005d262000575565b5b50919050565b60008190508160005260206000209050919050565b60006020601f8301049050919050565b600082821b905092915050565b6000600883026200063d7fffffffffffffffffffffffffffffffffffffffffffffffffffffffffffffffff82620005fe565b620006498683620005fe565b95508019841693508086168417925050509392505050565b6000819050919050565b6000819050919050565b600062000696620006906200068a8462000661565b6200066b565b62000661565b9050919050565b6000819050919050565b620006b28362000675565b620006ca620006c1826200069d565b8484546200060b565b825550505050565b600090565b620006e1620006d2565b620006ee818484620006a7565b505050565b5b8181101562000716576200070a600082620006d7565b600181019050620006f4565b5050565b601f82111562000765576200072f81620005d9565b6200073a84620005ee565b810160208510156200074a578190505b620007626200075985620005ee565b830182620006f3565b50505b505050565b600082821c905092915050565b60006200078a600019846008026200076a565b1980831691505092915050565b6000620007a5838362000777565b9150826002028217905092915050565b620007c0826200053b565b67ffffffffffffffff811115620007dc57620007db62000546565b5b620007e88254620005a4565b620007f58282856200071a565b600060209050601f8311600181146200082d576000841562000818578287015190505b62000824858262000797565b86555062000894565b601f1984166200083d86620005d9565b60005b82811015620008675784890151825560018201915060208501945060208101905062000840565b8683101562000887578489015162000883601f89168262000777565b8355505b6001600288020188555050505b505050505050565b61267c80620008ac6000396000f3fe608060405234801561001057600080fd5b506004361061002b5760003560e01c8063bb55709c14610030575b600080fd5b61004a6004803603810190610045919061070a565b610060565b60405161005791906107ef565b60405180910390f35b6060806000806012876100739190610840565b6012811061008457610083610871565b5b018054610090906108cf565b80601f01602080910402602001604051908101604052809291908181526020018280546100bc906108cf565b80156101095780601f106100de57610100808354040283529160200191610109565b820191906000526020600020905b8154815290600101906020018083116100ec57829003601f168201915b50505050509050806040516020016101219190610a46565b604051602081830303815290604052915060405160200161014190610e65565b60405160208183030381529060405260405160200161015f90611262565b6040516020818303038152906040528360405160200161017e90611550565b6040516020818303038152906040526101978989610203565b6040516020016101a690611858565b6040516020818303038152906040526040516020016101c490611d59565b6040516020818303038152906040526040516020016101e99796959493929190612120565b604051602081830303815290604052925050509392505050565b60608060005b60038110156103165760005b600981101561030257600086836003811061023357610232610871565b5b6101200201826009811061024a57610249610871565b5b602002013511156102ef57826102cc838389866003811061026e5761026d610871565b5b6101200201856009811061028557610284610871565b5b602002013589876003811061029d5761029c610871565b5b610120020186600981106102b4576102b3610871565b5b6020020160208101906102c7919061220a565b610321565b6040516020016102dd929190612237565b60405160208183030381529060405292505b80806102fa9061228a565b915050610215565b50808061030e9061228a565b915050610209565b508091505092915050565b606080606080600061034b61012c60c88a61033c91906122d2565b6103469190612314565b610463565b9050600061037161038460c88c61036291906122d2565b61036c9190612314565b610463565b9050600a8810156103b0576103a9602360f060c88c61039091906122d2565b61039a9190612314565b6103a49190612314565b610463565b93506103d4565b6103d160f060c88b6103c291906122d2565b6103cc9190612314565b610463565b93505b6103f66103a760c88c6103e791906122d2565b6103f19190612314565b610463565b9250861561042357818160405160200161041192919061242c565b60405160208183030381529060405294505b84848461042f8b610463565b6040516020016104429493929190612581565b60405160208183030381529060405294508495505050505050949350505050565b60606000600161047284610531565b01905060008167ffffffffffffffff81111561049157610490612617565b5b6040519080825280601f01601f1916602001820160405280156104c35781602001600182028036833780820191505090505b509050600082602001820190505b600115610526578080600190039150507f3031323334353637383961626364656600000000000000000000000000000000600a86061a8153600a858161051a57610519610811565b5b049450600085036104d1575b819350505050919050565b600080600090507a184f03e93ff9f4daa797ed6e38ed64bf6a1f010000000000000000831061058f577a184f03e93ff9f4daa797ed6e38ed64bf6a1f010000000000000000838161058557610584610811565b5b0492506040810190505b6d04ee2d6d415b85acef810000000083106105cc576d04ee2d6d415b85acef810000000083816105c2576105c1610811565b5b0492506020810190505b662386f26fc1000083106105fb57662386f26fc1000083816105f1576105f0610811565b5b0492506010810190505b6305f5e1008310610624576305f5e100838161061a57610619610811565b5b0492506008810190505b612710831061064957612710838161063f5761063e610811565b5b0492506004810190505b6064831061066c576064838161066257610661610811565b5b0492506002810190505b600a831061067b576001810190505b80915050919050565b600080fd5b6000819050919050565b61069c81610689565b81146106a757600080fd5b50565b6000813590506106b981610693565b92915050565b600080fd5b600081905082610120600302820111156106e1576106e06106bf565b5b92915050565b60008190508261012060030282011115610704576107036106bf565b5b92915050565b60008060006106e0848603121561072457610723610684565b5b6000610732868287016106aa565b9350506020610743868287016106c4565b925050610380610755868287016106e7565b9150509250925092565b600081519050919050565b600082825260208201905092915050565b60005b8381101561079957808201518184015260208101905061077e565b60008484015250505050565b6000601f19601f8301169050919050565b60006107c18261075f565b6107cb818561076a565b93506107db81856020860161077b565b6107e4816107a5565b840191505092915050565b6000602082019050818103600083015261080981846107b6565b905092915050565b7f4e487b7100000000000000000000000000000000000000000000000000000000600052601260045260246000fd5b600061084b82610689565b915061085683610689565b92508261086657610865610811565b5b828206905092915050565b7f4e487b7100000000000000000000000000000000000000000000000000000000600052603260045260246000fd5b7f4e487b7100000000000000000000000000000000000000000000000000000000600052602260045260246000fd5b600060028204905060018216806108e757607f821691505b6020821081036108fa576108f96108a0565b5b50919050565b600081905092915050565b7f3c726563742066696c6c3d000000000000000000000000000000000000000000600082015250565b6000610941600b83610900565b915061094c8261090b565b600b82019050919050565b7f2200000000000000000000000000000000000000000000000000000000000000600082015250565b600061098d600183610900565b915061099882610957565b600182019050919050565b60006109ae8261075f565b6109b88185610900565b93506109c881856020860161077b565b80840191505092915050565b7f783d22302220793d2230222077696474683d223232303022206865696768743d60008201527f2232323030222f3e000000000000000000000000000000000000000000000000602082015250565b6000610a30602883610900565b9150610a3b826109d4565b602882019050919050565b6000610a5182610934565b9150610a5c82610980565b9150610a6882846109a3565b9150610a7382610980565b9150610a7e82610a23565b915081905092915050565b7f3c646566733e0000000000000000000000000000000000000000000000000000600082015250565b6000610abf600683610900565b9150610aca82610a89565b600682019050919050565b7f3c706174682069643d22746578742d706174682d612220643d224d302030204c60008201527f353430302030205a222f3e000000000000000000000000000000000000000000602082015250565b6000610b31602b83610900565b9150610b3c82610ad5565b602b82019050919050565b7f3c746578742069643d22726f6c6c696e672d746578742d72696768742220746560008201527f78742d72656e646572696e673d226f7074696d697a655370656564223e000000602082015250565b6000610ba3603d83610900565b9150610bae82610b47565b603d82019050919050565b7f3c746578745061746820786c696e6b3a687265663d2223746578742d7061746860008201527f2d612220746578744c656e6774683d22313630302220666f6e742d73697a653d60208201527f2233352220666f6e742d7765696768743d22353030223e000000000000000000604082015250565b6000610c3b605783610900565b9150610c4682610bb9565b605782019050919050565b7f476974636f696e20416c70686120526f756e6420c2b72030786330326161613360008201527f396232323366653864306130653563346632376561643930383363373536636360208201527f3220c2b7204a616e756172792033312c20323032330000000000000000000000604082015250565b6000610cd3605583610900565b9150610cde82610c51565b605582019050919050565b7f3c616e696d617465206174747269627574654e616d653d2273746172744f666660008201527f736574222076616c7565733d22303b203137303022206475723d22323073222060208201527f726570656174436f756e743d22696e646566696e697465222f3e200000000000604082015250565b6000610d6b605b83610900565b9150610d7682610ce9565b605b82019050919050565b7f3c2f74657874506174683e000000000000000000000000000000000000000000600082015250565b6000610db7600b83610900565b9150610dc282610d81565b600b82019050919050565b7f3c2f746578743e00000000000000000000000000000000000000000000000000600082015250565b6000610e03600783610900565b9150610e0e82610dcd565b600782019050919050565b7f3c2f646566733e00000000000000000000000000000000000000000000000000600082015250565b6000610e4f600783610900565b9150610e5a82610e19565b600782019050919050565b6000610e7082610ab2565b9150610e7b82610b24565b9150610e8682610b96565b9150610e9182610c2e565b9150610e9c82610cc6565b9150610ea782610d5e565b9150610eb282610daa565b9150610ebd82610df6565b9150610ec882610e42565b9150819050919050565b7f3c7374796c653e00000000000000000000000000000000000000000000000000600082015250565b6000610f08600783610900565b9150610f1382610ed2565b600782019050919050565b7f74657874207b0000000000000000000000000000000000000000000000000000600082015250565b6000610f54600683610900565b9150610f5f82610f1e565b600682019050919050565b7f666f6e742d66616d696c793a204d6f6e61636f3b000000000000000000000000600082015250565b6000610fa0601483610900565b9150610fab82610f6a565b601482019050919050565b7f666f6e742d73697a653a31303070783b00000000000000000000000000000000600082015250565b6000610fec601083610900565b9150610ff782610fb6565b601082019050919050565b7f666f6e742d7765696768743a3530303b7d000000000000000000000000000000600082015250565b6000611038601183610900565b915061104382611002565b601182019050919050565b7f706f6c79676f6e207b0000000000000000000000000000000000000000000000600082015250565b6000611084600983610900565b915061108f8261104e565b600982019050919050565b7f7374726f6b653a626c61636b3b207374726f6b652d77696474683a313b7d0000600082015250565b60006110d0601e83610900565b91506110db8261109a565b601e82019050919050565b7f2e617b0000000000000000000000000000000000000000000000000000000000600082015250565b600061111c600383610900565b9150611127826110e6565b600382019050919050565b7f66696c6c3a233537623539323b7d000000000000000000000000000000000000600082015250565b6000611168600e83610900565b915061117382611132565b600e82019050919050565b7f2e627b0000000000000000000000000000000000000000000000000000000000600082015250565b60006111b4600383610900565b91506111bf8261117e565b600382019050919050565b7f66696c6c3a236264653464663b7d000000000000000000000000000000000000600082015250565b6000611200600e83610900565b915061120b826111ca565b600e82019050919050565b7f3c2f7374796c653e000000000000000000000000000000000000000000000000600082015250565b600061124c600883610900565b915061125782611216565b600882019050919050565b600061126d82610efb565b915061127882610f47565b915061128382610f93565b915061128e82610fdf565b91506112998261102b565b91506112a482611077565b91506112af826110c3565b91506112ba8261110f565b91506112c58261115b565b91506112d0826111a7565b91506112db826111f3565b91506112e68261123f565b9150819050919050565b7f3c7061747465726e2069643d226267222077696474683d22302e31313131313160008201527f31313131313122206865696768743d22302e333333333333333333333333223e602082015250565b600061134c604083610900565b9150611357826112f0565b604082019050919050565b7f3c706f6c79676f6e20706f696e74733d22302c3020302c323030203230302c3260008201527f303022207374796c653d2266696c6c3a233537623539323b207374726f6b653a60208201527f626c61636b3b207374726f6b652d77696474683a31222f3e0000000000000000604082015250565b60006113e4605883610900565b91506113ef82611362565b605882019050919050565b7f3c706f6c79676f6e20706f696e74733d22302c30203230302c30203230302c3260008201527f303022207374796c653d2266696c6c3a236638636534373b207374726f6b653a60208201527f626c61636b3b207374726f6b652d77696474683a31222f3e0000000000000000604082015250565b600061147c605883610900565b9150611487826113fa565b605882019050919050565b7f3c726563742069643d22782220783d2232302220793d2232302220776964746860008201527f3d2231363022206865696768743d2231363022207374796c653d2266696c6c3a60208201527f20236663663262313b207374726f6b653a626c61636b203b207374726f6b652d60408201527f77696474683a31222f3e3c2f7061747465726e3e000000000000000000000000606082015250565b600061153a607483610900565b915061154582611492565b607482019050919050565b600061155b8261133f565b9150611566826113d7565b91506115718261146f565b915061157c8261152d565b9150819050919050565b7f3c706f6c79676f6e20636c6173733d22622220706f696e74733d223230302c3560008201527f3030203230302c38303020323030302c38303020323030302c35303022202f3e602082015250565b60006115e2604083610900565b91506115ed82611586565b604082019050919050565b7f3c706f6c79676f6e20636c6173733d22612220706f696e74733d223230302c3560008201527f3030203230302c383030203335302c36353022207374796c653d2266696c6c3a60208201527f23663863653437222f3e00000000000000000000000000000000000000000000604082015250565b600061167a604a83610900565b9150611685826115f8565b604a82019050919050565b7f3c706f6c79676f6e20636c6173733d22612220706f696e74733d22323030302c60008201527f35303020323030302c38303020313835302c36353022207374796c653d22666960208201527f6c6c3a23663863653437222f3e00000000000000000000000000000000000000604082015250565b6000611712604d83610900565b915061171d82611690565b604d82019050919050565b7f3c726563742069643d22782220783d223232302220793d22353230222077696460008201527f74683d223137363022206865696768743d2232363022207374796c653d22666960208201527f6c6c3a20236663663262313b207374726f6b653a626c61636b3b207374726f6b60408201527f652d77696474683a31222f3e0000000000000000000000000000000000000000606082015250565b60006117d0606c83610900565b91506117db82611728565b606c82019050919050565b7f3c7465787420783d223730302220793d2237313022207374796c653d22666f6e60008201527f742d73697a653a313530223e526567656e2042696e676f3c2f746578743e0000602082015250565b6000611842603e83610900565b915061184d826117e6565b603e82019050919050565b6000611863826115d5565b915061186e8261166d565b915061187982611705565b9150611884826117c3565b915061188f82611835565b9150819050919050565b7f3c706f6c79676f6e20636c6173733d22622220706f696e74733d223230302c3160008201527f343030203230302c3135303020323030302c3135303020323030302c3134303060208201527f222f3e0000000000000000000000000000000000000000000000000000000000604082015250565b600061191b604383610900565b915061192682611899565b604382019050919050565b7f3c706f6c79676f6e20636c6173733d22612220706f696e74733d223230302c3160008201527f343030203230302c31353030203235302c31343530222f3e0000000000000000602082015250565b600061198d603883610900565b915061199882611931565b603882019050919050565b7f3c706f6c79676f6e20636c6173733d22612220706f696e74733d22323030302c60008201527f3134303020323030302c3135303020313935302c31343530222f3e0000000000602082015250565b60006119ff603b83610900565b9150611a0a826119a3565b603b82019050919050565b7f3c726563742069643d22782220783d223232302220793d22313432302220776960008201527f6474683d223137363022206865696768743d22363022207374796c653d22666960208201527f6c6c3a20236663663262313b207374726f6b653a626c61636b3b207374726f6b60408201527f652d77696474683a31222f3e0000000000000000000000000000000000000000606082015250565b6000611abd606c83610900565b9150611ac882611a15565b606c82019050919050565b7f3c636c6970506174682069643d22636c6970223e000000000000000000000000600082015250565b6000611b09601483610900565b9150611b1482611ad3565b601482019050919050565b7f3c7265637420783d223233302220793d2231343230222077696474683d22313760008201527f343022206865696768743d223630222f3e000000000000000000000000000000602082015250565b6000611b7b603183610900565b9150611b8682611b1f565b603182019050919050565b7f3c2f636c6970506174683e000000000000000000000000000000000000000000600082015250565b6000611bc7600b83610900565b9150611bd282611b91565b600b82019050919050565b7f3c6720636c69702d706174683d2275726c2823636c697029223e000000000000600082015250565b6000611c13601a83610900565b9150611c1e82611bdd565b601a82019050919050565b7f3c75736520783d222d313430302220793d22313436302220687265663d22237260008201527f6f6c6c696e672d746578742d7269676874222f3e000000000000000000000000602082015250565b6000611c85603483610900565b9150611c9082611c29565b603482019050919050565b7f3c75736520783d223330302220793d22313436302220687265663d2223726f6c60008201527f6c696e672d746578742d7269676874222f3e0000000000000000000000000000602082015250565b6000611cf7603283610900565b9150611d0282611c9b565b603282019050919050565b7f3c2f673e00000000000000000000000000000000000000000000000000000000600082015250565b6000611d43600483610900565b9150611d4e82611d0d565b600482019050919050565b6000611d648261190e565b9150611d6f82611980565b9150611d7a826119f2565b9150611d8582611ab0565b9150611d9082611afc565b9150611d9b82611b6e565b9150611da682611bba565b9150611db182611c06565b9150611dbc82611c78565b9150611dc782611cea565b9150611dd282611d36565b9150819050919050565b7f3c73766720786d6c6e733d22687474703a2f2f7777772e77332e6f72672f323060008201527f30302f737667222076696577426f783d2230203020323230302032323030223e602082015250565b6000611e38604083610900565b9150611e4382611ddc565b604082019050919050565b7f3c673e0000000000000000000000000000000000000000000000000000000000600082015250565b6000611e84600383610900565b9150611e8f82611e4e565b600382019050919050565b7f3c726563742066696c6c3d2275726c28236267292220783d223230302220793d60008201527f22383030222077696474683d223138303022206865696768743d22363030222f60208201527f3e00000000000000000000000000000000000000000000000000000000000000604082015250565b6000611f1c604183610900565b9150611f2782611e9a565b604182019050919050565b7f3c616e696d6174655472616e73666f726d206174747269627574654e616d653d60008201527f227472616e73666f726d2220617474726962757465547970653d22584d4c222060208201527f747970653d22726f74617465222076616c7565733d22313b2d313b312220647560408201527f723d223139732220726570656174436f756e743d22696e646566696e6974652260608201527f2f3e000000000000000000000000000000000000000000000000000000000000608082015250565b6000612000608283610900565b915061200b82611f32565b608282019050919050565b7f3c616e696d6174654d6f74696f6e206475723d2232377322207265706561744360008201527f6f756e743d22696e646566696e6974652220706174683d224d32302c3530204360208201527f32302c2d3530203138302c313530203138302c353020433138302d353020323060408201527f2c3135302032302c3530207a222f3e0000000000000000000000000000000000606082015250565b60006120be606f83610900565b91506120c982612016565b606f82019050919050565b7f3c2f7376673e0000000000000000000000000000000000000000000000000000600082015250565b600061210a600683610900565b9150612115826120d4565b600682019050919050565b600061212b82611e2b565b9150612137828a6109a3565b915061214382896109a3565b915061214f82886109a3565b915061215b82876109a3565b915061216682611e77565b915061217182611f0f565b915061217c82611ff3565b9150612187826120b1565b915061219382866109a3565b915061219f82856109a3565b91506121ab82846109a3565b91506121b682611d36565b91506121c1826120fd565b915081905098975050505050505050565b60008115159050919050565b6121e7816121d2565b81146121f257600080fd5b50565b600081359050612204816121de565b92915050565b6000602082840312156122205761221f610684565b5b600061222e848285016121f5565b91505092915050565b600061224382856109a3565b915061224f82846109a3565b91508190509392505050565b7f4e487b7100000000000000000000000000000000000000000000000000000000600052601160045260246000fd5b600061229582610689565b91507fffffffffffffffffffffffffffffffffffffffffffffffffffffffffffffffff82036122c7576122c661225b565b5b600182019050919050565b60006122dd82610689565b91506122e883610689565b92508282026122f681610689565b9150828204841483151761230d5761230c61225b565b5b5092915050565b600061231f82610689565b915061232a83610689565b92508282019050808211156123425761234161225b565b5b92915050565b7f3c636972636c652066696c6c3d2223656532643235222063783d000000000000600082015250565b600061237e601a83610900565b915061238982612348565b601a82019050919050565b7f63793d0000000000000000000000000000000000000000000000000000000000600082015250565b60006123ca600383610900565b91506123d582612394565b600382019050919050565b7f723d223735223e3c2f636972636c653e00000000000000000000000000000000600082015250565b6000612416601083610900565b9150612421826123e0565b601082019050919050565b600061243782612371565b915061244282610980565b915061244e82856109a3565b915061245982610980565b9150612464826123bd565b915061246f82610980565b915061247b82846109a3565b915061248682610980565b915061249182612409565b91508190509392505050565b7f3c7465787420783d000000000000000000000000000000000000000000000000600082015250565b60006124d3600883610900565b91506124de8261249d565b600882019050919050565b7f793d000000000000000000000000000000000000000000000000000000000000600082015250565b600061251f600283610900565b915061252a826124e9565b600282019050919050565b7f3e00000000000000000000000000000000000000000000000000000000000000600082015250565b600061256b600183610900565b915061257682612535565b600182019050919050565b600061258d82876109a3565b9150612598826124c6565b91506125a382610980565b91506125af82866109a3565b91506125ba82610980565b91506125c582612512565b91506125d082610980565b91506125dc82856109a3565b91506125e782610980565b91506125f28261255e565b91506125fe82846109a3565b915061260982610df6565b915081905095945050505050565b7f4e487b7100000000000000000000000000000000000000000000000000000000600052604160045260246000fdfea26469706673582212202046c4086c6449fae24139501a6e24f5604adf143f122f4f0addc3e2116444fd64736f6c63430008110033",
  "devdoc": {
    "kind": "dev",
    "methods": {},
    "version": 1
  },
  "userdoc": {
    "kind": "user",
    "methods": {},
    "version": 1
  },
  "storageLayout": {
    "storage": [
      {
        "astId": 1128,
        "contract": "contracts/RegenBingoSVG.sol:RegenBingoSVG",
        "label": "backgroundColors",
        "offset": 0,
        "slot": "0",
        "type": "t_array(t_string_storage)18_storage"
      }
    ],
    "types": {
      "t_array(t_string_storage)18_storage": {
        "base": "t_string_storage",
        "encoding": "inplace",
        "label": "string[18]",
        "numberOfBytes": "576"
      },
      "t_string_storage": {
        "encoding": "bytes",
        "label": "string",
        "numberOfBytes": "32"
      }
    }
  }
}