{
  "address": "0x7AE85e9FB1DF8B73b3A43A015218E3aB6901060b",
  "abi": [
    {
      "inputs": [
        {
          "internalType": "address",
          "name": "_svgGeneratorAddress",
          "type": "address"
        }
      ],
      "stateMutability": "nonpayable",
      "type": "constructor"
    },
    {
      "inputs": [],
      "name": "generateContractURI",
      "outputs": [
        {
          "internalType": "string",
          "name": "",
          "type": "string"
        }
      ],
      "stateMutability": "pure",
      "type": "function"
    },
    {
      "inputs": [
        {
          "internalType": "uint256",
          "name": "tokenId",
          "type": "uint256"
        },
        {
          "internalType": "uint256[9][3]",
          "name": "numbers",
          "type": "uint256[9][3]"
        },
        {
          "internalType": "bool[9][3]",
          "name": "covered",
          "type": "bool[9][3]"
        }
      ],
      "name": "generateTokenURI",
      "outputs": [
        {
          "internalType": "string",
          "name": "",
          "type": "string"
        }
      ],
      "stateMutability": "view",
      "type": "function"
    }
  ],
  "transactionHash": "0xd38839de93d6787870a9410d9706cb0cee1f84c41595e237ef8179a93c138ecb",
  "args": [
    "0x0EDfe499b3bC84A9c83967EF881298Bf21280Cab"
  ],
  "numDeployments": 1,
  "solcInputHash": "922c4b67342545ac338df3935146312b",
  "bytecode": "0x60806040523480156200001157600080fd5b5060405162001261380380620012618339818101604052810190620000379190620000e8565b806000806101000a81548173ffffffffffffffffffffffffffffffffffffffff021916908373ffffffffffffffffffffffffffffffffffffffff160217905550506200011a565b600080fd5b600073ffffffffffffffffffffffffffffffffffffffff82169050919050565b6000620000b08262000083565b9050919050565b620000c281620000a3565b8114620000ce57600080fd5b50565b600081519050620000e281620000b7565b92915050565b6000602082840312156200010157620001006200007e565b5b60006200011184828501620000d1565b91505092915050565b611137806200012a6000396000f3fe608060405234801561001057600080fd5b50600436106100365760003560e01c80635b23dd111461003b5780639f4475da1461006b575b600080fd5b61005560048036038101906100509190610626565b610089565b604051610062919061070b565b60405180910390f35b6100736101c1565b604051610080919061070b565b60405180910390f35b606060008060009054906101000a900473ffffffffffffffffffffffffffffffffffffffff1673ffffffffffffffffffffffffffffffffffffffff1663bb55709c8686866040518463ffffffff1660e01b81526004016100eb939291906109ba565b600060405180830381865afa158015610108573d6000803e3d6000fd5b505050506040513d6000823e3d601f19601f820116820180604052508101906101319190610b19565b9050600061013e8261020d565b60405160200161014e9190610bea565b6040516020818303038152906040529050600061019361016d88610370565b8360405160200161017f929190610dae565b60405160208183030381529060405261020d565b9050806040516020016101a69190610e55565b60405160208183030381529060405293505050509392505050565b60606101e96040516020016101d590610fa7565b60405160208183030381529060405261020d565b6040516020016101f99190610e55565b604051602081830303815290604052905090565b6060600082510361022f5760405180602001604052806000815250905061036b565b60006040518060600160405280604081526020016110c2604091399050600060036002855161025e9190610feb565b610268919061104e565b6004610274919061107f565b67ffffffffffffffff81111561028d5761028c6109fd565b5b6040519080825280601f01601f1916602001820160405280156102bf5781602001600182028036833780820191505090505b509050600182016020820185865187015b8082101561032b576003820191508151603f8160121c168501518453600184019350603f81600c1c168501518453600184019350603f8160061c168501518453600184019350603f81168501518453600184019350506102d0565b5050600386510660018114610347576002811461035a57610362565b603d6001830353603d6002830353610362565b603d60018303535b50505080925050505b919050565b60606000600161037f8461043e565b01905060008167ffffffffffffffff81111561039e5761039d6109fd565b5b6040519080825280601f01601f1916602001820160405280156103d05781602001600182028036833780820191505090505b509050600082602001820190505b600115610433578080600190039150507f3031323334353637383961626364656600000000000000000000000000000000600a86061a8153600a85816104275761042661101f565b5b049450600085036103de575b819350505050919050565b600080600090507a184f03e93ff9f4daa797ed6e38ed64bf6a1f010000000000000000831061049c577a184f03e93ff9f4daa797ed6e38ed64bf6a1f01000000000000000083816104925761049161101f565b5b0492506040810190505b6d04ee2d6d415b85acef810000000083106104d9576d04ee2d6d415b85acef810000000083816104cf576104ce61101f565b5b0492506020810190505b662386f26fc10000831061050857662386f26fc1000083816104fe576104fd61101f565b5b0492506010810190505b6305f5e1008310610531576305f5e10083816105275761052661101f565b5b0492506008810190505b612710831061055657612710838161054c5761054b61101f565b5b0492506004810190505b60648310610579576064838161056f5761056e61101f565b5b0492506002810190505b600a8310610588576001810190505b80915050919050565b6000604051905090565b600080fd5b600080fd5b6000819050919050565b6105b8816105a5565b81146105c357600080fd5b50565b6000813590506105d5816105af565b92915050565b600080fd5b600081905082610120600302820111156105fd576105fc6105db565b5b92915050565b600081905082610120600302820111156106205761061f6105db565b5b92915050565b60008060006106e084860312156106405761063f61059b565b5b600061064e868287016105c6565b935050602061065f868287016105e0565b92505061038061067186828701610603565b9150509250925092565b600081519050919050565b600082825260208201905092915050565b60005b838110156106b557808201518184015260208101905061069a565b60008484015250505050565b6000601f19601f8301169050919050565b60006106dd8261067b565b6106e78185610686565b93506106f7818560208601610697565b610700816106c1565b840191505092915050565b6000602082019050818103600083015261072581846106d2565b905092915050565b610736816105a5565b82525050565b600060039050919050565b600081905092915050565b6000819050919050565b82818337505050565b610772610120838361075c565b5050565b60006107828383610765565b6101208301905092915050565b600082905092915050565b600061012082019050919050565b6107b18161073c565b6107bb8184610747565b92506107c682610752565b8060005b838110156107ff576107dc828461078f565b6107e68782610776565b96506107f18361079a565b9250506001810190506107ca565b505050505050565b600060039050919050565b600081905092915050565b6000819050919050565b600060099050919050565b600081905092915050565b6000819050919050565b60008115159050919050565b61085c81610847565b82525050565b600061086e8383610853565b60208301905092915050565b61088381610847565b811461088e57600080fd5b50565b6000813590506108a08161087a565b92915050565b60006108b56020840184610891565b905092915050565b6000602082019050919050565b6108d381610827565b6108dd8184610832565b92506108e88261083d565b8060005b83811015610921576108fe82846108a6565b6109088782610862565b9650610913836108bd565b9250506001810190506108ec565b505050505050565b600061093583836108ca565b6101208301905092915050565b600082905092915050565b600061012082019050919050565b61096481610807565b61096e8184610812565b92506109798261081d565b8060005b838110156109b25761098f8284610942565b6109998782610929565b96506109a48361094d565b92505060018101905061097d565b505050505050565b60006106e0820190506109d0600083018661072d565b6109dd60208301856107a8565b6109eb61038083018461095b565b949350505050565b600080fd5b600080fd5b7f4e487b7100000000000000000000000000000000000000000000000000000000600052604160045260246000fd5b610a35826106c1565b810181811067ffffffffffffffff82111715610a5457610a536109fd565b5b80604052505050565b6000610a67610591565b9050610a738282610a2c565b919050565b600067ffffffffffffffff821115610a9357610a926109fd565b5b610a9c826106c1565b9050602081019050919050565b6000610abc610ab784610a78565b610a5d565b905082815260208101848484011115610ad857610ad76109f8565b5b610ae3848285610697565b509392505050565b600082601f830112610b0057610aff6109f3565b5b8151610b10848260208601610aa9565b91505092915050565b600060208284031215610b2f57610b2e61059b565b5b600082015167ffffffffffffffff811115610b4d57610b4c6105a0565b5b610b5984828501610aeb565b91505092915050565b600081905092915050565b7f646174613a696d6167652f7376672b786d6c3b6261736536342c000000000000600082015250565b6000610ba3601a83610b62565b9150610bae82610b6d565b601a82019050919050565b6000610bc48261067b565b610bce8185610b62565b9350610bde818560208601610697565b80840191505092915050565b6000610bf582610b96565b9150610c018284610bb9565b915081905092915050565b7f7b226e616d65223a202200000000000000000000000000000000000000000000600082015250565b6000610c42600a83610b62565b9150610c4d82610c0c565b600a82019050919050565b7f526567656e42696e676f00000000000000000000000000000000000000000000600082015250565b6000610c8e600a83610b62565b9150610c9982610c58565b600a82019050919050565b7f2023000000000000000000000000000000000000000000000000000000000000600082015250565b6000610cda600283610b62565b9150610ce582610ca4565b600282019050919050565b7f222c20226465736372697074696f6e223a20222e2e2e222c2022696d6167652260008201527f3a20220000000000000000000000000000000000000000000000000000000000602082015250565b6000610d4c602383610b62565b9150610d5782610cf0565b602382019050919050565b7f227d000000000000000000000000000000000000000000000000000000000000600082015250565b6000610d98600283610b62565b9150610da382610d62565b600282019050919050565b6000610db982610c35565b9150610dc482610c81565b9150610dcf82610ccd565b9150610ddb8285610bb9565b9150610de682610d3f565b9150610df28284610bb9565b9150610dfd82610d8b565b91508190509392505050565b7f646174613a6170706c69636174696f6e2f6a736f6e3b6261736536342c000000600082015250565b6000610e3f601d83610b62565b9150610e4a82610e09565b601d82019050919050565b6000610e6082610e32565b9150610e6c8284610bb9565b915081905092915050565b7f7b226e616d65223a22526567656e42696e676f22222c2264657363726970746960008201527f6f6e223a22526567656e42696e676f20697320612073696d706c65206578706560208201527f72696d656e74616c2067616d6520746f2072616973652045544820666f72207060408201527f75626c696320676f6f64732066756e64696e67207768696c6520656e7465727460608201527f61696e696e6720757320677265656e70696c6c656420726567656e732e222c2260808201527f696d616765223a22222c2265787465726e616c5f75726c223a2268747470733a60a08201527f2f2f7777772e726567656e2e62696e676f227d0000000000000000000000000060c082015250565b6000610f9160d383610b62565b9150610f9c82610e77565b60d382019050919050565b6000610fb282610f84565b9150819050919050565b7f4e487b7100000000000000000000000000000000000000000000000000000000600052601160045260246000fd5b6000610ff6826105a5565b9150611001836105a5565b925082820190508082111561101957611018610fbc565b5b92915050565b7f4e487b7100000000000000000000000000000000000000000000000000000000600052601260045260246000fd5b6000611059826105a5565b9150611064836105a5565b9250826110745761107361101f565b5b828204905092915050565b600061108a826105a5565b9150611095836105a5565b92508282026110a3816105a5565b915082820484148315176110ba576110b9610fbc565b5b509291505056fe4142434445464748494a4b4c4d4e4f505152535455565758595a6162636465666768696a6b6c6d6e6f707172737475767778797a303132333435363738392b2fa2646970667358221220e38a8150ebccf3af1f11658a4508cb93b8868f60e255949b2b5adb738820528864736f6c63430008110033",
  "devdoc": {
    "kind": "dev",
    "methods": {},
    "version": 1
  },
  "userdoc": {
    "kind": "user",
    "methods": {},
    "version": 1
  },
  "storageLayout": {
    "storage": [
      {
        "astId": 1097,
        "contract": "contracts/RegenBingoMetadata.sol:RegenBingoMetadata",
        "label": "svgGenerator",
        "offset": 0,
        "slot": "0",
        "type": "t_contract(IRegenBingoSVG)1653"
      }
    ],
    "types": {
      "t_contract(IRegenBingoSVG)1653": {
        "encoding": "inplace",
        "label": "contract IRegenBingoSVG",
        "numberOfBytes": "20"
      }
    }
  }
}