{
  "address": "0x50BB01E3f4f135DF701a64Cb90b3d919895752D5",
  "abi": [
    {
      "inputs": [
        {
          "internalType": "uint256",
          "name": "tokenId",
          "type": "uint256"
        },
        {
          "internalType": "uint256",
          "name": "row",
          "type": "uint256"
        },
        {
          "internalType": "uint256",
          "name": "column",
          "type": "uint256"
        }
      ],
      "name": "getNumberByCoordinates",
      "outputs": [
        {
          "internalType": "uint256",
          "name": "",
          "type": "uint256"
        }
      ],
      "stateMutability": "pure",
      "type": "function"
    },
    {
      "inputs": [
        {
          "internalType": "uint256",
          "name": "tokenId",
          "type": "uint256"
        }
      ],
      "name": "tokenImage",
      "outputs": [
        {
          "internalType": "string",
          "name": "",
          "type": "string"
        }
      ],
      "stateMutability": "pure",
      "type": "function"
    }
  ],
  "transactionHash": "0xf1de0ee24cc09d50b8a015c4be3fd28fce144f9bffcfb7c4e63f1124f2f36d52",
  "args": [],
  "numDeployments": 1,
  "solcInputHash": "0de2883a59f340ae508eb7872b95ad0d",
  "bytecode": "0x612641610053600b82828239805160001a607314610046577f4e487b7100000000000000000000000000000000000000000000000000000000600052600060045260246000fd5b30600052607381538281f3fe73000000000000000000000000000000000000000030146080604052600436106100405760003560e01c80634d54bb6d14610045578063cf34842514610075575b600080fd5b61005f600480360381019061005a9190612086565b6100a5565b60405161006c91906120e8565b60405180910390f35b61008f600480360381019061008a9190612103565b610173565b60405161009c91906121c0565b60405180910390f35b6000806100bd6003866100b89190612211565b611636565b905060008185600381106100d4576100d3612242565b5b602002015184600981106100eb576100ea612242565b5b6020020151036100ff57600091505061016c565b600a81856003811061011457610113612242565b5b6020020151846009811061012b5761012a612242565b5b60200201518661013b9190612211565b6101459190612211565b600a8461015291906122a0565b600161015e91906122e2565b61016891906122e2565b9150505b9392505050565b606061017d611fd3565b60405180610100016040528060c7815260200161250560c79139816000603781106101ab576101aa612242565b5b60200201819052506101c76101c2846000806100a5565b611c1d565b816001603781106101db576101da612242565b5b60200201819052506040518060400160405280601b81526020017f3c2f746578743e3c7465787420783d2236302220793d223430223e00000000008152508160026037811061022d5761022c612242565b5b602002018190525061024a61024584600060016100a5565b611c1d565b8160036037811061025e5761025d612242565b5b60200201819052506040518060400160405280601c81526020017f3c2f746578743e3c7465787420783d223130302220793d223430223e00000000815250816004603781106102b0576102af612242565b5b60200201819052506102cd6102c884600060026100a5565b611c1d565b816005603781106102e1576102e0612242565b5b60200201819052506040518060400160405280601c81526020017f3c2f746578743e3c7465787420783d223134302220793d223430223e000000008152508160066037811061033357610332612242565b5b602002018190525061035061034b84600060036100a5565b611c1d565b8160076037811061036457610363612242565b5b60200201819052506040518060400160405280601c81526020017f3c2f746578743e3c7465787420783d223138302220793d223430223e00000000815250816008603781106103b6576103b5612242565b5b60200201819052506103d36103ce84600060046100a5565b611c1d565b816009603781106103e7576103e6612242565b5b60200201819052506040518060400160405280601c81526020017f3c2f746578743e3c7465787420783d223232302220793d223430223e0000000081525081600a6037811061043957610438612242565b5b602002018190525061045661045184600060056100a5565b611c1d565b81600b6037811061046a57610469612242565b5b60200201819052506040518060400160405280601c81526020017f3c2f746578743e3c7465787420783d223236302220793d223430223e0000000081525081600c603781106104bc576104bb612242565b5b60200201819052506104d96104d484600060066100a5565b611c1d565b81600d603781106104ed576104ec612242565b5b60200201819052506040518060400160405280601c81526020017f3c2f746578743e3c7465787420783d223330302220793d223430223e0000000081525081600e6037811061053f5761053e612242565b5b602002018190525061055c61055784600060076100a5565b611c1d565b81600f603781106105705761056f612242565b5b60200201819052506040518060400160405280601c81526020017f3c2f746578743e3c7465787420783d223334302220793d223430223e00000000815250816010603781106105c2576105c1612242565b5b60200201819052506105df6105da84600060086100a5565b611c1d565b816011603781106105f3576105f2612242565b5b60200201819052506040518060400160405280601b81526020017f3c2f746578743e3c7465787420783d2232302220793d223835223e00000000008152508160126037811061064557610644612242565b5b602002018190525061066261065d84600160006100a5565b611c1d565b8160136037811061067657610675612242565b5b60200201819052506040518060400160405280601b81526020017f3c2f746578743e3c7465787420783d2236302220793d223835223e0000000000815250816014603781106106c8576106c7612242565b5b60200201819052506106e46106df846001806100a5565b611c1d565b816015603781106106f8576106f7612242565b5b60200201819052506040518060400160405280601c81526020017f3c2f746578743e3c7465787420783d223130302220793d223835223e000000008152508160166037811061074a57610749612242565b5b602002018190525061076761076284600160026100a5565b611c1d565b8160176037811061077b5761077a612242565b5b60200201819052506040518060400160405280601c81526020017f3c2f746578743e3c7465787420783d223134302220793d223835223e00000000815250816018603781106107cd576107cc612242565b5b60200201819052506107ea6107e584600160036100a5565b611c1d565b816019603781106107fe576107fd612242565b5b60200201819052506040518060400160405280601c81526020017f3c2f746578743e3c7465787420783d223138302220793d223835223e0000000081525081601a603781106108505761084f612242565b5b602002018190525061086d61086884600160046100a5565b611c1d565b81601b6037811061088157610880612242565b5b60200201819052506040518060400160405280601c81526020017f3c2f746578743e3c7465787420783d223232302220793d223835223e0000000081525081601c603781106108d3576108d2612242565b5b60200201819052506108f06108eb84600160056100a5565b611c1d565b81601d6037811061090457610903612242565b5b60200201819052506040518060400160405280601c81526020017f3c2f746578743e3c7465787420783d223236302220793d223835223e0000000081525081601e6037811061095657610955612242565b5b602002018190525061097361096e84600160066100a5565b611c1d565b81601f6037811061098757610986612242565b5b60200201819052506040518060400160405280601c81526020017f3c2f746578743e3c7465787420783d223330302220793d223835223e00000000815250816020603781106109d9576109d8612242565b5b60200201819052506109f66109f184600160076100a5565b611c1d565b81602160378110610a0a57610a09612242565b5b60200201819052506040518060400160405280601c81526020017f3c2f746578743e3c7465787420783d223334302220793d223835223e0000000081525081602260378110610a5c57610a5b612242565b5b6020020181905250610a79610a7484600160086100a5565b611c1d565b81602360378110610a8d57610a8c612242565b5b60200201819052506040518060400160405280601c81526020017f3c2f746578743e3c7465787420783d2232302220793d22313330223e0000000081525081602460378110610adf57610ade612242565b5b6020020181905250610afc610af784600260006100a5565b611c1d565b81602560378110610b1057610b0f612242565b5b60200201819052506040518060400160405280601c81526020017f3c2f746578743e3c7465787420783d2236302220793d22313330223e0000000081525081602660378110610b6257610b61612242565b5b6020020181905250610b7f610b7a84600260016100a5565b611c1d565b81602760378110610b9357610b92612242565b5b60200201819052506040518060400160405280601d81526020017f3c2f746578743e3c7465787420783d223130302220793d22313330223e00000081525081602860378110610be557610be4612242565b5b6020020181905250610c01610bfc846002806100a5565b611c1d565b81602960378110610c1557610c14612242565b5b60200201819052506040518060400160405280601d81526020017f3c2f746578743e3c7465787420783d223134302220793d22313330223e00000081525081602a60378110610c6757610c66612242565b5b6020020181905250610c84610c7f84600260036100a5565b611c1d565b81602b60378110610c9857610c97612242565b5b60200201819052506040518060400160405280601d81526020017f3c2f746578743e3c7465787420783d223138302220793d22313330223e00000081525081602c60378110610cea57610ce9612242565b5b6020020181905250610d07610d0284600260046100a5565b611c1d565b81602d60378110610d1b57610d1a612242565b5b60200201819052506040518060400160405280601d81526020017f3c2f746578743e3c7465787420783d223232302220793d22313330223e00000081525081602e60378110610d6d57610d6c612242565b5b6020020181905250610d8a610d8584600260056100a5565b611c1d565b81602f60378110610d9e57610d9d612242565b5b60200201819052506040518060400160405280601d81526020017f3c2f746578743e3c7465787420783d223236302220793d22313330223e00000081525081603060378110610df057610def612242565b5b6020020181905250610e0d610e0884600260066100a5565b611c1d565b81603160378110610e2157610e20612242565b5b60200201819052506040518060400160405280601d81526020017f3c2f746578743e3c7465787420783d223330302220793d22313330223e00000081525081603260378110610e7357610e72612242565b5b6020020181905250610e90610e8b84600260076100a5565b611c1d565b81603360378110610ea457610ea3612242565b5b60200201819052506040518060400160405280601d81526020017f3c2f746578743e3c7465787420783d223334302220793d22313330223e00000081525081603460378110610ef657610ef5612242565b5b6020020181905250610f13610f0e84600260086100a5565b611c1d565b81603560378110610f2757610f26612242565b5b60200201819052506040518060400160405280600d81526020017f3c2f746578743e3c2f7376673e0000000000000000000000000000000000000081525081603660378110610f7957610f78612242565b5b6020020181905250600081600060378110610f9757610f96612242565b5b602002015182600160378110610fb057610faf612242565b5b602002015183600260378110610fc957610fc8612242565b5b602002015184600360378110610fe257610fe1612242565b5b602002015185600460378110610ffb57610ffa612242565b5b60200201518660056037811061101457611013612242565b5b60200201518760066037811061102d5761102c612242565b5b60200201518860076037811061104657611045612242565b5b60200201518960086037811061105f5761105e612242565b5b602002015160405160200161107c99989796959493929190612352565b604051602081830303815290604052905080826009603781106110a2576110a1612242565b5b602002015183600a603781106110bb576110ba612242565b5b602002015184600b603781106110d4576110d3612242565b5b602002015185600c603781106110ed576110ec612242565b5b602002015186600d6037811061110657611105612242565b5b602002015187600e6037811061111f5761111e612242565b5b602002015188600f6037811061113857611137612242565b5b60200201518960106037811061115157611150612242565b5b602002015160405160200161116e99989796959493929190612352565b6040516020818303038152906040529050808260116037811061119457611193612242565b5b6020020151836012603781106111ad576111ac612242565b5b6020020151846013603781106111c6576111c5612242565b5b6020020151856014603781106111df576111de612242565b5b6020020151866015603781106111f8576111f7612242565b5b60200201518760166037811061121157611210612242565b5b60200201518860176037811061122a57611229612242565b5b60200201518960186037811061124357611242612242565b5b602002015160405160200161126099989796959493929190612352565b6040516020818303038152906040529050808260196037811061128657611285612242565b5b602002015183601a6037811061129f5761129e612242565b5b602002015184601b603781106112b8576112b7612242565b5b602002015185601c603781106112d1576112d0612242565b5b602002015186601d603781106112ea576112e9612242565b5b602002015187601e6037811061130357611302612242565b5b602002015188601f6037811061131c5761131b612242565b5b60200201518960206037811061133557611334612242565b5b602002015160405160200161135299989796959493929190612352565b6040516020818303038152906040529050808260216037811061137857611377612242565b5b60200201518360226037811061139157611390612242565b5b6020020151846023603781106113aa576113a9612242565b5b6020020151856024603781106113c3576113c2612242565b5b6020020151866025603781106113dc576113db612242565b5b6020020151876026603781106113f5576113f4612242565b5b60200201518860276037811061140e5761140d612242565b5b60200201518960286037811061142757611426612242565b5b602002015160405160200161144499989796959493929190612352565b6040516020818303038152906040529050808260296037811061146a57611469612242565b5b602002015183602a6037811061148357611482612242565b5b602002015184602b6037811061149c5761149b612242565b5b602002015185602c603781106114b5576114b4612242565b5b602002015186602d603781106114ce576114cd612242565b5b602002015187602e603781106114e7576114e6612242565b5b602002015188602f60378110611500576114ff612242565b5b60200201518960306037811061151957611518612242565b5b602002015160405160200161153699989796959493929190612352565b6040516020818303038152906040529050808260316037811061155c5761155b612242565b5b60200201518360326037811061157557611574612242565b5b60200201518460336037811061158e5761158d612242565b5b6020020151856034603781106115a7576115a6612242565b5b6020020151866035603781106115c0576115bf612242565b5b6020020151876036603781106115d9576115d8612242565b5b60200201516040516020016115f497969594939291906123d1565b604051602081830303815290604052905061160e81611c4f565b60405160200161161e9190612482565b60405160208183030381529060405292505050919050565b61163e611ffb565b604051806060016040528060405180606001604052806040518061012001604052807001041cb03cc9a429d0ba9dcfd6f9b1e573815260200160008152602001700104fa4cadb1ccce7d8212c6b0d4a059cb8152602001700106e318bebcb9c00b946778fd08390727815260200160008152602001700107e4f779bc4492982e2df39f130e661b81526020016000815260200160008152602001700108af3a79e7a300983358ece79a90505581525081526020016040518061012001604052807001092022efa2a445649fe753f9ee1c17d3815260200160008152602001600081526020017001092d8ea3809c618f49530e0c27681225815260200170010b9220c451000de4cb39d092c57ead4f8152602001600081526020016000815260200170010e52782fbde7eba2249029cbdf9416e781526020017001123324dcd122e13ff1b12f8b5af3e587815250815260200160405180610120016040528060008152602001700112ff9432f310a2e7cad0ebb8928d69b3815260200160008152602001700113810731bfd6981998182518e1b53a7d8152602001600081526020017001165da004453f63c2f5cd11392057be69815260200170011aa0706713f8073e1baa96d1e09cbdc7815260200160008152602001700121d98c583eea67055b7b3036a6083f5f81525081525081526020016040518060600160405280604051806101200160405280600081526020017001123324dcd122e13ff1b12f8b5af3e587815260200170011aa0706713f8073e1baa96d1e09cbdc7815260200160008152602001600081526020016000815260200170010e52782fbde7eba2249029cbdf9416e78152602001700112ff9432f310a2e7cad0ebb8928d69b3815260200170010b9220c451000de4cb39d092c57ead4f8152508152602001604051806101200160405280700121d98c583eea67055b7b3036a6083f5f815260200160008152602001700108af3a79e7a300983358ece79a905055815260200160008152602001700113810731bfd6981998182518e1b53a7d81526020016000815260200160008152602001700107e4f779bc4492982e2df39f130e661b81526020017001165da004453f63c2f5cd11392057be69815250815260200160405180610120016040528060008152602001600081526020017001041cb03cc9a429d0ba9dcfd6f9b1e57381526020017001092022efa2a445649fe753f9ee1c17d3815260200160008152602001700104fa4cadb1ccce7d8212c6b0d4a059cb8152602001600081526020017001092d8ea3809c618f49530e0c276812258152602001700106e318bebcb9c00b946778fd08390727815250815250815260200160405180606001604052806040518061012001604052807001165da004453f63c2f5cd11392057be6981526020016000815260200160008152602001700121d98c583eea67055b7b3036a6083f5f81526020017001092022efa2a445649fe753f9ee1c17d38152602001600081526020017001092d8ea3809c618f49530e0c27681225815260200160008152602001700113810731bfd6981998182518e1b53a7d8152508152602001604051806101200160405280600081526020017001041cb03cc9a429d0ba9dcfd6f9b1e573815260200170011aa0706713f8073e1baa96d1e09cbdc7815260200160008152602001700104fa4cadb1ccce7d8212c6b0d4a059cb8152602001700106e318bebcb9c00b946778fd083907278152602001700112ff9432f310a2e7cad0ebb8928d69b38152602001600081526020016000815250815260200160405180610120016040528060008152602001700108af3a79e7a300983358ece79a9050558152602001700107e4f779bc4492982e2df39f130e661b815260200160008152602001600081526020017001123324dcd122e13ff1b12f8b5af3e587815260200170010b9220c451000de4cb39d092c57ead4f815260200170010e52782fbde7eba2249029cbdf9416e7815260200160008152508152508152508260038110611c1157611c10612242565b5b60200201519050919050565b606060008214611c3757611c3082611db2565b9050611c4a565b6040518060200160405280600081525090505b919050565b60606000825103611c7157604051806020016040528060008152509050611dad565b60006040518060600160405280604081526020016125cc6040913990506000600360028551611ca091906122e2565b611caa91906124a4565b6004611cb691906122a0565b67ffffffffffffffff811115611ccf57611cce6124d5565b5b6040519080825280601f01601f191660200182016040528015611d015781602001600182028036833780820191505090505b509050600182016020820185865187015b80821015611d6d576003820191508151603f8160121c168501518453600184019350603f81600c1c168501518453600184019350603f8160061c168501518453600184019350603f8116850151845360018401935050611d12565b5050600386510660018114611d895760028114611d9c57611da4565b603d6001830353603d6002830353611da4565b603d60018303535b50505080925050505b919050565b606060006001611dc184611e80565b01905060008167ffffffffffffffff811115611de057611ddf6124d5565b5b6040519080825280601f01601f191660200182016040528015611e125781602001600182028036833780820191505090505b509050600082602001820190505b600115611e75578080600190039150507f3031323334353637383961626364656600000000000000000000000000000000600a86061a8153600a8581611e6957611e686121e2565b5b04945060008503611e20575b819350505050919050565b600080600090507a184f03e93ff9f4daa797ed6e38ed64bf6a1f0100000000000000008310611ede577a184f03e93ff9f4daa797ed6e38ed64bf6a1f0100000000000000008381611ed457611ed36121e2565b5b0492506040810190505b6d04ee2d6d415b85acef81000000008310611f1b576d04ee2d6d415b85acef81000000008381611f1157611f106121e2565b5b0492506020810190505b662386f26fc100008310611f4a57662386f26fc100008381611f4057611f3f6121e2565b5b0492506010810190505b6305f5e1008310611f73576305f5e1008381611f6957611f686121e2565b5b0492506008810190505b6127108310611f98576127108381611f8e57611f8d6121e2565b5b0492506004810190505b60648310611fbb5760648381611fb157611fb06121e2565b5b0492506002810190505b600a8310611fca576001810190505b80915050919050565b604051806106e001604052806037905b6060815260200190600190039081611fe35790505090565b60405180606001604052806003905b612012612028565b81526020019060019003908161200a5790505090565b604051806101200160405280600990602082028036833780820191505090505090565b600080fd5b6000819050919050565b61206381612050565b811461206e57600080fd5b50565b6000813590506120808161205a565b92915050565b60008060006060848603121561209f5761209e61204b565b5b60006120ad86828701612071565b93505060206120be86828701612071565b92505060406120cf86828701612071565b9150509250925092565b6120e281612050565b82525050565b60006020820190506120fd60008301846120d9565b92915050565b6000602082840312156121195761211861204b565b5b600061212784828501612071565b91505092915050565b600081519050919050565b600082825260208201905092915050565b60005b8381101561216a57808201518184015260208101905061214f565b60008484015250505050565b6000601f19601f8301169050919050565b600061219282612130565b61219c818561213b565b93506121ac81856020860161214c565b6121b581612176565b840191505092915050565b600060208201905081810360008301526121da8184612187565b905092915050565b7f4e487b7100000000000000000000000000000000000000000000000000000000600052601260045260246000fd5b600061221c82612050565b915061222783612050565b925082612237576122366121e2565b5b828206905092915050565b7f4e487b7100000000000000000000000000000000000000000000000000000000600052603260045260246000fd5b7f4e487b7100000000000000000000000000000000000000000000000000000000600052601160045260246000fd5b60006122ab82612050565b91506122b683612050565b92508282026122c481612050565b915082820484148315176122db576122da612271565b5b5092915050565b60006122ed82612050565b91506122f883612050565b92508282019050808211156123105761230f612271565b5b92915050565b600081905092915050565b600061232c82612130565b6123368185612316565b935061234681856020860161214c565b80840191505092915050565b600061235e828c612321565b915061236a828b612321565b9150612376828a612321565b91506123828289612321565b915061238e8288612321565b915061239a8287612321565b91506123a68286612321565b91506123b28285612321565b91506123be8284612321565b91508190509a9950505050505050505050565b60006123dd828a612321565b91506123e98289612321565b91506123f58288612321565b91506124018287612321565b915061240d8286612321565b91506124198285612321565b91506124258284612321565b915081905098975050505050505050565b7f646174613a696d6167652f7376672b786d6c3b6261736536342c000000000000600082015250565b600061246c601a83612316565b915061247782612436565b601a82019050919050565b600061248d8261245f565b91506124998284612321565b915081905092915050565b60006124af82612050565b91506124ba83612050565b9250826124ca576124c96121e2565b5b828204905092915050565b7f4e487b7100000000000000000000000000000000000000000000000000000000600052604160045260246000fdfe3c7376672076696577426f783d2230203020333935203135302220786d6c6e733d22687474703a2f2f7777772e77332e6f72672f323030302f737667223e3c7374796c653e746578747b66696c6c3a79656c6c6f773b666f6e742d66616d696c793a73657269663b666f6e742d73697a653a333070783b7d3c2f7374796c653e3c726563742077696474683d223130302522206865696768743d2231303025222066696c6c3d226461726b677265656e222f3e3c7465787420783d2232302220793d223430223e4142434445464748494a4b4c4d4e4f505152535455565758595a6162636465666768696a6b6c6d6e6f707172737475767778797a303132333435363738392b2fa26469706673582212202e767b9c58476c047e88dd4d339d06109885bdac48f9c29b7b00eef96c20217e64736f6c63430008110033",
  "devdoc": {
    "kind": "dev",
    "methods": {},
    "version": 1
  },
  "userdoc": {
    "kind": "user",
    "methods": {},
    "version": 1
  },
  "storageLayout": {
    "storage": [],
    "types": null
  }
}